{
  "_format": "hh-sol-artifact-1",
  "contractName": "FeeDistributorV3",
  "sourceName": "contracts/FeeDistributorV3.sol",
  "abi": [
    {
      "inputs": [
        {
          "internalType": "address",
          "name": "_owner",
          "type": "address"
        },
        {
          "internalType": "address",
          "name": "_treasury",
          "type": "address"
        }
      ],
      "stateMutability": "nonpayable",
      "type": "constructor"
    },
    {
      "anonymous": false,
      "inputs": [
        {
          "indexed": true,
          "internalType": "address",
          "name": "token",
          "type": "address"
        },
        {
          "indexed": false,
          "internalType": "uint256",
          "name": "amount",
          "type": "uint256"
        },
        {
          "indexed": false,
          "internalType": "uint256",
          "name": "treasuryAmount",
          "type": "uint256"
        }
      ],
      "name": "FeesDistributed",
      "type": "event"
    },
    {
      "anonymous": false,
      "inputs": [
        {
          "indexed": true,
          "internalType": "address",
          "name": "previousOwner",
          "type": "address"
        },
        {
          "indexed": true,
          "internalType": "address",
          "name": "newOwner",
          "type": "address"
        }
      ],
      "name": "OwnershipTransferred",
      "type": "event"
    },
    {
      "anonymous": false,
      "inputs": [
        {
          "indexed": false,
          "internalType": "uint256",
          "name": "newShare",
          "type": "uint256"
        }
      ],
      "name": "TreasuryShareUpdated",
      "type": "event"
    },
    {
      "anonymous": false,
      "inputs": [
        {
          "indexed": true,
          "internalType": "address",
          "name": "newTreasury",
          "type": "address"
        }
      ],
      "name": "TreasuryUpdated",
      "type": "event"
    },
    {
      "inputs": [
        {
          "internalType": "address",
          "name": "_token",
          "type": "address"
        },
        {
          "internalType": "uint256",
          "name": "_amount",
          "type": "uint256"
        }
      ],
      "name": "distributeFees",
      "outputs": [],
      "stateMutability": "nonpayable",
      "type": "function"
    },
    {
      "inputs": [],
      "name": "owner",
      "outputs": [
        {
          "internalType": "address",
          "name": "",
          "type": "address"
        }
      ],
      "stateMutability": "view",
      "type": "function"
    },
    {
      "inputs": [],
      "name": "renounceOwnership",
      "outputs": [],
      "stateMutability": "nonpayable",
      "type": "function"
    },
    {
      "inputs": [
        {
          "internalType": "address",
          "name": "_treasury",
          "type": "address"
        }
      ],
      "name": "setTreasury",
      "outputs": [],
      "stateMutability": "nonpayable",
      "type": "function"
    },
    {
      "inputs": [
        {
          "internalType": "uint256",
          "name": "_shareBP",
          "type": "uint256"
        }
      ],
      "name": "setTreasuryShareBP",
      "outputs": [],
      "stateMutability": "nonpayable",
      "type": "function"
    },
    {
      "inputs": [
        {
          "internalType": "address",
          "name": "newOwner",
          "type": "address"
        }
      ],
      "name": "transferOwnership",
      "outputs": [],
      "stateMutability": "nonpayable",
      "type": "function"
    },
    {
      "inputs": [],
      "name": "treasury",
      "outputs": [
        {
          "internalType": "address",
          "name": "",
          "type": "address"
        }
      ],
      "stateMutability": "view",
      "type": "function"
    },
    {
      "inputs": [],
      "name": "treasuryShareBP",
      "outputs": [
        {
          "internalType": "uint256",
          "name": "",
          "type": "uint256"
        }
      ],
      "stateMutability": "view",
      "type": "function"
    },
    {
      "inputs": [
        {
          "internalType": "address",
          "name": "_token",
          "type": "address"
        },
        {
          "internalType": "uint256",
          "name": "_amount",
          "type": "uint256"
        }
      ],
      "name": "withdraw",
      "outputs": [],
      "stateMutability": "nonpayable",
      "type": "function"
    },
    {
      "inputs": [
        {
          "internalType": "address",
          "name": "_token",
          "type": "address"
        }
      ],
      "name": "withdrawAll",
      "outputs": [],
      "stateMutability": "nonpayable",
      "type": "function"
    }
  ],
  "bytecode": "0x60803461009957601f6109fc38819003918201601f19168301916001600160401b0383118484101761009e5780849260409485528339810103126100995761006a610055602061004e846100b4565b93016100b4565b9161005f336100c8565b611f406002556100c8565b600180546001600160a01b0319166001600160a01b03929092169190911790556040516108ec90816101108239f35b600080fd5b634e487b7160e01b600052604160045260246000fd5b51906001600160a01b038216820361009957565b600080546001600160a01b039283166001600160a01b03198216811783559216907f8be0079c531659141344cd1fd0a4f28419497f9722a3daafe3b4186f6b6457e09080a356fe60406080815260048036101561001457600080fd5b600091823560e01c806319c706881461052457806348fef5951461038557806361d027b31461035c578063715018a61461030257806378c073bc146102e35780638da5cb5b146102bb578063f0f4426014610253578063f2fde38b14610190578063f3fef3a31461014a5763fa09e6301461008e57600080fd5b34610146576020366003190112610146576100a76105b3565b916100b06105ce565b81516370a0823160e01b815230918101919091526001600160a01b0392831690602081602481855afa92831561013d57508492610106575b50816100f2578380f35b6100ff928454169061065e565b3880808380f35b9091506020813d8211610135575b8161012160209383610626565b81010312610131575190386100e8565b8380fd5b3d9150610114565b513d86823e3d90fd5b8280fd5b83823461018c57366003190112610189576101866101666105b3565b61016e6105ce565b8254602435916001600160a01b03918216911661065e565b80f35b80fd5b5080fd5b509034610146576020366003190112610146576101ab6105b3565b906101b46105ce565b6001600160a01b0391821692831561020157505082546001600160a01b0319811683178455167f8be0079c531659141344cd1fd0a4f28419497f9722a3daafe3b4186f6b6457e08380a380f35b906020608492519162461bcd60e51b8352820152602660248201527f4f776e61626c653a206e6577206f776e657220697320746865207a65726f206160448201526564647265737360d01b6064820152fd5b83346101895760203660031901126101895761026d6105b3565b6102756105ce565b600180546001600160a01b0319166001600160a01b039290921691821790557f7dae230f18360d76a040c81f050aa14eb9d6dc7901b20fc5d855e2a20fe814d18280a280f35b83823461018c578160031936011261018c57905490516001600160a01b039091168152602090f35b83823461018c578160031936011261018c576020906002549051908152f35b833461018957806003193601126101895761031b6105ce565b80546001600160a01b03198116825581906001600160a01b03167f8be0079c531659141344cd1fd0a4f28419497f9722a3daafe3b4186f6b6457e08280a380f35b83823461018c578160031936011261018c5760015490516001600160a01b039091168152602090f35b5082903461018c578060031936011261018c576103a06105b3565b81516370a0823160e01b815230858201526001600160a01b03918216929160248035926020918290829081895afa90811561051a5790849188916104e5575b50106104ac5760025480840290848204148415171561049957612710900491828403848111610486577f85da6ab72d2b48932522aea80adb8ca4fab6cdeb87bc2e7f6c03fd78d3b2100e9697985083151580610479575b610465575b838503610451575b50508351928352820152a280f35b61045e918954168861065e565b8780610443565b6104748483600154168a61065e565b61043b565b5081600154161515610436565b634e487b7160e01b885260118952602488fd5b634e487b7160e01b875260118852602487fd5b8660649185519162461bcd60e51b83528201526014602482015273496e73756666696369656e742062616c616e636560601b6044820152fd5b809250838092503d8311610513575b6104fe8183610626565b8101031261050f57839051896103df565b8680fd5b503d6104f4565b85513d89823e3d90fd5b5034610146576020366003190112610146578135916105416105ce565b612710831161057c5750816020917fe480f2cb9c3de9fdc546b0673673103959385776a7c04fd226b5f9670c94adc69360025551908152a180f35b6020606492519162461bcd60e51b8352820152601260248201527153686172652065786365656473203130302560701b6044820152fd5b600435906001600160a01b03821682036105c957565b600080fd5b6000546001600160a01b031633036105e257565b606460405162461bcd60e51b815260206004820152602060248201527f4f776e61626c653a2063616c6c6572206973206e6f7420746865206f776e65726044820152fd5b90601f8019910116810190811067ffffffffffffffff82111761064857604052565b634e487b7160e01b600052604160045260246000fd5b60405163a9059cbb60e01b60208083019182526001600160a01b03948516602484015260448084019690965294825292608082019267ffffffffffffffff9291908385118386101761064857169060c0810184811084821117610648576040528584527f5361666545524332303a206c6f772d6c6576656c2063616c6c206661696c656460a0820152600080958192519082855af1903d156107d7573d9283116107c3579061072d9392916040519261072088601f19601f8401160185610626565b83523d868885013e6107e2565b80519182159184831561079f575b5050509050156107485750565b6084906040519062461bcd60e51b82526004820152602a60248201527f5361666545524332303a204552433230206f7065726174696f6e20646964206e6044820152691bdd081cdd58d8d9595960b21b6064820152fd5b91938180945001031261018c5782015190811515820361018957508038808461073b565b634e487b7160e01b85526041600452602485fd5b9061072d9392506060915b9192901561084457508151156107f6575090565b3b156107ff5790565b60405162461bcd60e51b815260206004820152601d60248201527f416464726573733a2063616c6c20746f206e6f6e2d636f6e74726163740000006044820152606490fd5b8251909150156108575750805190602001fd5b6040519062461bcd60e51b82528160208060048301528251908160248401526000935b82851061089d575050604492506000838284010152601f80199101168101030190fd5b848101820151868601604401529381019385935061087a56fea2646970667358221220272bc75c7d160683408129b6f0dbfc841df4c2adede0335077cf8b96708b3a0564736f6c63430008140033",
  "linkReferences": {},
  "deployedLinkReferences": {}
}