{
  "_format": "hh-sol-artifact-1",
  "contractName": "YieldVaultV3",
  "sourceName": "contracts/YieldVaultV3.sol",
  "abi": [
    {
      "inputs": [
        {
          "internalType": "address",
          "name": "_usdt",
          "type": "address"
        },
        {
          "internalType": "address",
          "name": "_owner",
          "type": "address"
        },
        {
          "internalType": "string",
          "name": "_name",
          "type": "string"
        },
        {
          "internalType": "string",
          "name": "_symbol",
          "type": "string"
        }
      ],
      "stateMutability": "nonpayable",
      "type": "constructor"
    },
    {
      "anonymous": false,
      "inputs": [
        {
          "indexed": true,
          "internalType": "address",
          "name": "sender",
          "type": "address"
        },
        {
          "indexed": true,
          "internalType": "address",
          "name": "owner",
          "type": "address"
        },
        {
          "indexed": false,
          "internalType": "uint256",
          "name": "assets",
          "type": "uint256"
        },
        {
          "indexed": false,
          "internalType": "uint256",
          "name": "shares",
          "type": "uint256"
        }
      ],
      "name": "Deposit",
      "type": "event"
    },
    {
      "anonymous": false,
      "inputs": [
        {
          "indexed": true,
          "internalType": "address",
          "name": "previousOwner",
          "type": "address"
        },
        {
          "indexed": true,
          "internalType": "address",
          "name": "newOwner",
          "type": "address"
        }
      ],
      "name": "OwnershipTransferred",
      "type": "event"
    },
    {
      "anonymous": false,
      "inputs": [
        {
          "indexed": false,
          "internalType": "address",
          "name": "account",
          "type": "address"
        }
      ],
      "name": "Paused",
      "type": "event"
    },
    {
      "anonymous": false,
      "inputs": [
        {
          "indexed": false,
          "internalType": "address",
          "name": "account",
          "type": "address"
        }
      ],
      "name": "Unpaused",
      "type": "event"
    },
    {
      "anonymous": false,
      "inputs": [
        {
          "indexed": true,
          "internalType": "address",
          "name": "sender",
          "type": "address"
        },
        {
          "indexed": true,
          "internalType": "address",
          "name": "receiver",
          "type": "address"
        },
        {
          "indexed": true,
          "internalType": "address",
          "name": "owner",
          "type": "address"
        },
        {
          "indexed": false,
          "internalType": "uint256",
          "name": "assets",
          "type": "uint256"
        },
        {
          "indexed": false,
          "internalType": "uint256",
          "name": "shares",
          "type": "uint256"
        }
      ],
      "name": "Withdraw",
      "type": "event"
    },
    {
      "inputs": [],
      "name": "asset",
      "outputs": [
        {
          "internalType": "address",
          "name": "",
          "type": "address"
        }
      ],
      "stateMutability": "view",
      "type": "function"
    },
    {
      "inputs": [
        {
          "internalType": "address",
          "name": "",
          "type": "address"
        }
      ],
      "name": "balanceOf",
      "outputs": [
        {
          "internalType": "uint256",
          "name": "",
          "type": "uint256"
        }
      ],
      "stateMutability": "view",
      "type": "function"
    },
    {
      "inputs": [],
      "name": "config",
      "outputs": [
        {
          "internalType": "address",
          "name": "",
          "type": "address"
        }
      ],
      "stateMutability": "view",
      "type": "function"
    },
    {
      "inputs": [
        {
          "internalType": "uint256",
          "name": "shares",
          "type": "uint256"
        }
      ],
      "name": "convertToAssets",
      "outputs": [
        {
          "internalType": "uint256",
          "name": "",
          "type": "uint256"
        }
      ],
      "stateMutability": "view",
      "type": "function"
    },
    {
      "inputs": [
        {
          "internalType": "uint256",
          "name": "assetsAmount",
          "type": "uint256"
        }
      ],
      "name": "convertToShares",
      "outputs": [
        {
          "internalType": "uint256",
          "name": "",
          "type": "uint256"
        }
      ],
      "stateMutability": "view",
      "type": "function"
    },
    {
      "inputs": [
        {
          "internalType": "uint256",
          "name": "assetsAmount",
          "type": "uint256"
        },
        {
          "internalType": "address",
          "name": "receiver",
          "type": "address"
        }
      ],
      "name": "deposit",
      "outputs": [
        {
          "internalType": "uint256",
          "name": "",
          "type": "uint256"
        }
      ],
      "stateMutability": "nonpayable",
      "type": "function"
    },
    {
      "inputs": [],
      "name": "depositFeeBP",
      "outputs": [
        {
          "internalType": "uint256",
          "name": "",
          "type": "uint256"
        }
      ],
      "stateMutability": "view",
      "type": "function"
    },
    {
      "inputs": [
        {
          "internalType": "uint256",
          "name": "amount",
          "type": "uint256"
        }
      ],
      "name": "emergencyWithdraw",
      "outputs": [],
      "stateMutability": "nonpayable",
      "type": "function"
    },
    {
      "inputs": [],
      "name": "feeDistributor",
      "outputs": [
        {
          "internalType": "address",
          "name": "",
          "type": "address"
        }
      ],
      "stateMutability": "view",
      "type": "function"
    },
    {
      "inputs": [],
      "name": "localStrategyManager",
      "outputs": [
        {
          "internalType": "address",
          "name": "",
          "type": "address"
        }
      ],
      "stateMutability": "view",
      "type": "function"
    },
    {
      "inputs": [],
      "name": "managementFeeBP",
      "outputs": [
        {
          "internalType": "uint256",
          "name": "",
          "type": "uint256"
        }
      ],
      "stateMutability": "view",
      "type": "function"
    },
    {
      "inputs": [],
      "name": "name",
      "outputs": [
        {
          "internalType": "string",
          "name": "",
          "type": "string"
        }
      ],
      "stateMutability": "view",
      "type": "function"
    },
    {
      "inputs": [],
      "name": "owner",
      "outputs": [
        {
          "internalType": "address",
          "name": "",
          "type": "address"
        }
      ],
      "stateMutability": "view",
      "type": "function"
    },
    {
      "inputs": [],
      "name": "pause",
      "outputs": [],
      "stateMutability": "nonpayable",
      "type": "function"
    },
    {
      "inputs": [],
      "name": "paused",
      "outputs": [
        {
          "internalType": "bool",
          "name": "",
          "type": "bool"
        }
      ],
      "stateMutability": "view",
      "type": "function"
    },
    {
      "inputs": [],
      "name": "performanceFeeBP",
      "outputs": [
        {
          "internalType": "uint256",
          "name": "",
          "type": "uint256"
        }
      ],
      "stateMutability": "view",
      "type": "function"
    },
    {
      "inputs": [],
      "name": "referralSystem",
      "outputs": [
        {
          "internalType": "address",
          "name": "",
          "type": "address"
        }
      ],
      "stateMutability": "view",
      "type": "function"
    },
    {
      "inputs": [],
      "name": "renounceOwnership",
      "outputs": [],
      "stateMutability": "nonpayable",
      "type": "function"
    },
    {
      "inputs": [
        {
          "internalType": "address",
          "name": "_config",
          "type": "address"
        }
      ],
      "name": "setConfig",
      "outputs": [],
      "stateMutability": "nonpayable",
      "type": "function"
    },
    {
      "inputs": [
        {
          "internalType": "address",
          "name": "_feeDistributor",
          "type": "address"
        }
      ],
      "name": "setFeeDistributor",
      "outputs": [],
      "stateMutability": "nonpayable",
      "type": "function"
    },
    {
      "inputs": [
        {
          "internalType": "uint256",
          "name": "_depositFeeBP",
          "type": "uint256"
        },
        {
          "internalType": "uint256",
          "name": "_performanceFeeBP",
          "type": "uint256"
        },
        {
          "internalType": "uint256",
          "name": "_managementFeeBP",
          "type": "uint256"
        },
        {
          "internalType": "uint256",
          "name": "_withdrawalFeeBP",
          "type": "uint256"
        }
      ],
      "name": "setFees",
      "outputs": [],
      "stateMutability": "nonpayable",
      "type": "function"
    },
    {
      "inputs": [
        {
          "internalType": "address",
          "name": "_manager",
          "type": "address"
        }
      ],
      "name": "setLocalStrategyManager",
      "outputs": [],
      "stateMutability": "nonpayable",
      "type": "function"
    },
    {
      "inputs": [
        {
          "internalType": "address",
          "name": "_referralSystem",
          "type": "address"
        }
      ],
      "name": "setReferralSystem",
      "outputs": [],
      "stateMutability": "nonpayable",
      "type": "function"
    },
    {
      "inputs": [],
      "name": "symbol",
      "outputs": [
        {
          "internalType": "string",
          "name": "",
          "type": "string"
        }
      ],
      "stateMutability": "view",
      "type": "function"
    },
    {
      "inputs": [],
      "name": "totalAssets",
      "outputs": [
        {
          "internalType": "uint256",
          "name": "",
          "type": "uint256"
        }
      ],
      "stateMutability": "view",
      "type": "function"
    },
    {
      "inputs": [],
      "name": "totalSupply",
      "outputs": [
        {
          "internalType": "uint256",
          "name": "",
          "type": "uint256"
        }
      ],
      "stateMutability": "view",
      "type": "function"
    },
    {
      "inputs": [
        {
          "internalType": "address",
          "name": "newOwner",
          "type": "address"
        }
      ],
      "name": "transferOwnership",
      "outputs": [],
      "stateMutability": "nonpayable",
      "type": "function"
    },
    {
      "inputs": [],
      "name": "unpause",
      "outputs": [],
      "stateMutability": "nonpayable",
      "type": "function"
    },
    {
      "inputs": [],
      "name": "usdtAsset",
      "outputs": [
        {
          "internalType": "contract IERC20",
          "name": "",
          "type": "address"
        }
      ],
      "stateMutability": "view",
      "type": "function"
    },
    {
      "inputs": [
        {
          "internalType": "uint256",
          "name": "shares",
          "type": "uint256"
        },
        {
          "internalType": "address",
          "name": "receiver",
          "type": "address"
        },
        {
          "internalType": "address",
          "name": "ownerAddr",
          "type": "address"
        }
      ],
      "name": "withdraw",
      "outputs": [
        {
          "internalType": "uint256",
          "name": "",
          "type": "uint256"
        }
      ],
      "stateMutability": "nonpayable",
      "type": "function"
    },
    {
      "inputs": [],
      "name": "withdrawalFeeBP",
      "outputs": [
        {
          "internalType": "uint256",
          "name": "",
          "type": "uint256"
        }
      ],
      "stateMutability": "view",
      "type": "function"
    }
  ],
  "bytecode": "0x60a0604052346200039f576200182f803803806200001d81620003a4565b92833981016080828203126200039f576200003882620003e0565b9160209062000049828201620003e0565b604082015190936001600160401b039290918381116200039f578262000071918301620003f5565b9160608201518481116200039f576200008b9201620003f5565b620000963362000467565b6000805460ff60a01b1916815560018080556101f4600a556107d0600b5560c8600c55600d8290556001600160a01b0390971660805282518481116200038b57600254938885811c9516801562000380575b8786101462000287578190601f958681116200032c575b508790868311600114620002c6578492620002ba575b5050600019600383901b1c191690881b176002555b8151938411620002a65760039485548881811c911680156200029b575b8282101462000287578481116200023f575b5080938511600114620001d557506200018d969092849283620001c9575b50501b9160001990841b1c191617905562000467565b6040516113809081620004af8239608051818181610394015281816103fe0152818161095c01528181610b4c01528181610c210152610f150152f35b01519250388062000177565b9693929091601f1984169786845280842093905b89821062000227575050836200018d98106200020e575b505050811b01905562000467565b015160001983861b60f8161c1916905538808062000200565b808785968294968601518155019501930190620001e9565b8683528183208580880160051c8201928489106200027d575b0160051c019089905b8281106200027157505062000159565b84815501899062000261565b9250819262000258565b634e487b7160e01b83526022600452602483fd5b90607f169062000147565b634e487b7160e01b81526041600452602490fd5b01519050388062000115565b600285528885208b94509190601f198416865b8b828210620003155750508411620002fb575b505050811b016002556200012a565b015160001960f88460031b161c19169055388080620002ec565b8385015186558e97909501949384019301620002d9565b909150600284528784208680850160051c8201928a861062000376575b918c91869594930160051c01915b82811062000367575050620000ff565b8681558594508c910162000357565b9250819262000349565b94607f1694620000e8565b634e487b7160e01b82526041600452602482fd5b600080fd5b6040519190601f01601f191682016001600160401b03811183821017620003ca57604052565b634e487b7160e01b600052604160045260246000fd5b51906001600160a01b03821682036200039f57565b919080601f840112156200039f5782516001600160401b038111620003ca576020906200042b601f8201601f19168301620003a4565b928184528282870101116200039f5760005b8181106200045357508260009394955001015290565b85810183015184820184015282016200043d565b600080546001600160a01b039283166001600160a01b03198216811783559216907f8be0079c531659141344cd1fd0a4f28419497f9722a3daafe3b4186f6b6457e09080a356fe6040608081526004908136101561001557600080fd5b600091823560e01c806301e1d11414610dd357806306fdde0314610d1557806307a2d13a14610cf55780630d43e8ad14610ccc5780631481ed0f14610cad57806318160ddd14610c9057806320e3dbd414610c5057806338d52e0f14610c0c5780633c4f7ca114610c0c5780633f4ba83a14610b735780635312ea8e14610b1d57806354747a7014610afe5780635c6a4b2314610adf5780635c975abb14610aba5780636e553f65146109005780636fcba377146107b357806370a082311461077b578063715018a61461072157806379502c55146106f85780637f67eec4146106b85780638456cb59146106595780638da5cb5b1461063157806395d89b411461052f5780639a01126c146104ef578063a04e876c146104c6578063ae3bc866146104a7578063b460af94146102d2578063c6e6f592146102ab578063ccfc2e8d14610268578063ef5e20af1461023b5763f2fde38b1461017657600080fd5b346102375760203660031901126102375761018f610e71565b90610198610ea2565b6001600160a01b039182169283156101e557505082546001600160a01b0319811683178455167f8be0079c531659141344cd1fd0a4f28419497f9722a3daafe3b4186f6b6457e08380a380f35b906020608492519162461bcd60e51b8352820152602660248201527f4f776e61626c653a206e6577206f776e657220697320746865207a65726f206160448201526564647265737360d01b6064820152fd5b8280fd5b50503461026457816003193601126102645760085490516001600160a01b039091168152602090f35b5080fd5b83346102a85760203660031901126102a857610282610e71565b61028a610ea2565b60018060a01b03166001600160601b0360a01b600954161760095580f35b80fd5b5091346102a85760203660031901126102a857506102cb60209235610fd4565b9051908152f35b509190346102645760603660031901126102645782356102f0610e8c565b6001600160a01b036044358181169392908490036104a3576103106110a3565b61031b831515611022565b83865260209660058852838688205410610469578433036104355761033f84610fff565b908661035b612710610353600d5486610f8b565b048094611330565b9887815260058b522061036f868254611330565b905561037c858254611330565b905580151580610428575b6103f3575b506103b886827f00000000000000000000000000000000000000000000000000000000000000006110f9565b8451928684528784015216907ffbde797d201c681b91056529119e0b02407c7bb96a4a2c75c01fc9667232c8db843392a46001805551908152f35b6104229083600954167f00000000000000000000000000000000000000000000000000000000000000006110f9565b3861038c565b5082600954161515610387565b855162461bcd60e51b8152908101889052600e60248201526d139bdd08185d5d1a1bdc9a5e995960921b6044820152606490fd5b855162461bcd60e51b81529081018890526014602482015273496e73756666696369656e742062616c616e636560601b6044820152606490fd5b8580fd5b505034610264578160031936011261026457602090600d549051908152f35b50503461026457816003193601126102645760075490516001600160a01b039091168152602090f35b83346102a85760203660031901126102a857610509610e71565b610511610ea2565b60018060a01b03166001600160601b0360a01b600754161760075580f35b509034610237578260031936011261023757805191836003549060019082821c928281168015610627575b602095868610821461061457508488529081156105f25750600114610599575b610595868661058b828b0383610df0565b5191829182610e28565b0390f35b929550600383527fc2575a0e9e593c00f959f8c92f12db2869c3395a3b0502d05e2516446f71f85b5b8284106105df57505050826105959461058b92820101943861057a565b80548685018801529286019281016105c2565b60ff191687860152505050151560051b830101925061058b826105953861057a565b634e487b7160e01b845260229052602483fd5b93607f169361055a565b505034610264578160031936011261026457905490516001600160a01b039091168152602090f35b50503461026457816003193601126102645760207f62e78cea01bee320cd4e420270b5ea74000d11b0c9f74754ebdbfc544b05a25891610697610ea2565b61069f61105c565b835460ff60a01b1916600160a01b17845551338152a180f35b83346102a85760203660031901126102a8576106d2610e71565b6106da610ea2565b60018060a01b03166001600160601b0360a01b600854161760085580f35b50503461026457816003193601126102645760065490516001600160a01b039091168152602090f35b83346102a857806003193601126102a85761073a610ea2565b80546001600160a01b03198116825581906001600160a01b03167f8be0079c531659141344cd1fd0a4f28419497f9722a3daafe3b4186f6b6457e08280a380f35b5050346102645760203660031901126102645760209181906001600160a01b036107a3610e71565b1681526005845220549051908152f35b50346102375760803660031901126102375780356024359060443592606435946107db610ea2565b6103e883116108c757610bb88411610884576101f480861161084957861161080e575050600a55600b55600c55600d5580f35b906020606492519162461bcd60e51b835282015260156024820152745769746864726177616c20666565206d617820352560581b6044820152fd5b815162461bcd60e51b815260208185015260156024820152744d616e6167656d656e7420666565206d617820352560581b6044820152606490fd5b906020606492519162461bcd60e51b8352820152601760248201527f506572666f726d616e636520666565206d6178203330250000000000000000006044820152fd5b906020606492519162461bcd60e51b835282015260136024820152724465706f73697420666565206d61782031302560681b6044820152fd5b5091903461026457806003193601126102645782359161091e610e8c565b926109276110a3565b61092f61105c565b8015610a895761093e81610fd4565b9361094a851515611022565b612710610959600a5484610f8b565b047f00000000000000000000000000000000000000000000000000000000000000009085516323b872dd60e01b60208201523360248201523060448201528460648201526064815260a0810181811067ffffffffffffffff821117610a7657916109cc88949260209b969486528361114b565b80151580610a62575b610a43575b50506001600160a01b031680855260058852932080546109fb90879061133d565b9055610a0885825461133d565b9055825190815283858201527fdcbc1c05240f31ff3ad067ef1ee35ce4997762752e3a095284754544f4c709d7833392a36001805551908152f35b600954610a5b926001600160a01b03909116906110f9565b38806109da565b506009546001600160a01b031615156109d5565b634e487b7160e01b875260418a52602487fd5b825162461bcd60e51b8152602081870152600b60248201526a16995c9bc8185b5bdd5b9d60aa1b6044820152606490fd5b50503461026457816003193601126102645760ff6020925460a01c1690519015158152f35b505034610264578160031936011261026457602090600b549051908152f35b505034610264578160031936011261026457602090600a549051908152f35b83823461026457602036600319011261026457610b7090610b3c610ea2565b82549035906001600160a01b03167f00000000000000000000000000000000000000000000000000000000000000006110f9565b80f35b5034610237578260031936011261023757610b8c610ea2565b82549060ff8260a01c1615610bd2575060ff60a01b19168255513381527f5db9ee0a495bf2e6ff9c91a7834c1ba4fdd244a5e8aa4e537bd38aeae4b073aa90602090a180f35b606490602084519162461bcd60e51b8352820152601460248201527314185d5cd8589b194e881b9bdd081c185d5cd95960621b6044820152fd5b505034610264578160031936011261026457517f00000000000000000000000000000000000000000000000000000000000000006001600160a01b03168152602090f35b83346102a85760203660031901126102a857610c6a610e71565b610c72610ea2565b60018060a01b03166001600160601b0360a01b600654161760065580f35b503461023757826003193601126102375760209250549051908152f35b505034610264578160031936011261026457602090600c549051908152f35b50503461026457816003193601126102645760095490516001600160a01b039091168152602090f35b5091346102a85760203660031901126102a857506102cb60209235610fff565b509034610237578260031936011261023757805191836002549060019082821c928281168015610dc9575b602095868610821461061457508488529081156105f25750600114610d7057610595868661058b828b0383610df0565b929550600283527f405787fa12a823e0f2b7631cc41b3ba8828b3321ca811111fa75cd3aa3bb5ace5b828410610db657505050826105959461058b92820101943861057a565b8054868501880152928601928101610d99565b93607f1693610d40565b5050346102645781600319360112610264576020906102cb610efa565b90601f8019910116810190811067ffffffffffffffff821117610e1257604052565b634e487b7160e01b600052604160045260246000fd5b6020808252825181830181905290939260005b828110610e5d57505060409293506000838284010152601f8019910116010190565b818101860151848201604001528501610e3b565b600435906001600160a01b0382168203610e8757565b600080fd5b602435906001600160a01b0382168203610e8757565b6000546001600160a01b03163303610eb657565b606460405162461bcd60e51b815260206004820152602060248201527f4f776e61626c653a2063616c6c6572206973206e6f7420746865206f776e65726044820152fd5b6040516370a0823160e01b81523060048201526020816024817f00000000000000000000000000000000000000000000000000000000000000006001600160a01b03165afa908115610f7f57600091610f51575090565b906020823d8211610f77575b81610f6a60209383610df0565b810103126102a857505190565b3d9150610f5d565b6040513d6000823e3d90fd5b81810292918115918404141715610f9e57565b634e487b7160e01b600052601160045260246000fd5b8115610fbe570490565b634e487b7160e01b600052601260045260246000fd5b6004548015610ffb57610fea90610ff892610f8b565b610ff2610efa565b90610fb4565b90565b5090565b6004548015610ffb5761101d610ff892611017610efa565b90610f8b565b610fb4565b1561102957565b60405162461bcd60e51b815260206004820152600b60248201526a5a65726f2073686172657360a81b6044820152606490fd5b60ff60005460a01c1661106b57565b60405162461bcd60e51b815260206004820152601060248201526f14185d5cd8589b194e881c185d5cd95960821b6044820152606490fd5b6002600154146110b4576002600155565b60405162461bcd60e51b815260206004820152601f60248201527f5265656e7472616e637947756172643a207265656e7472616e742063616c6c006044820152606490fd5b60405163a9059cbb60e01b60208201526001600160a01b039092166024830152604480830193909352918152608081019167ffffffffffffffff831182841017610e12576111499260405261114b565b565b60018060a01b0316906040516040810167ffffffffffffffff9082811082821117610e12576040526020938483527f5361666545524332303a206c6f772d6c6576656c2063616c6c206661696c6564858401526000808587829751910182855af1903d15611290573d92831161127c57906111e6939291604051926111d988601f19601f8401160185610df0565b83523d868885013e61129b565b805191821591848315611258575b5050509050156112015750565b6084906040519062461bcd60e51b82526004820152602a60248201527f5361666545524332303a204552433230206f7065726174696f6e20646964206e6044820152691bdd081cdd58d8d9595960b21b6064820152fd5b919381809450010312610264578201519081151582036102a85750803880846111f4565b634e487b7160e01b85526041600452602485fd5b906111e69392506060915b919290156112fd57508151156112af575090565b3b156112b85790565b60405162461bcd60e51b815260206004820152601d60248201527f416464726573733a2063616c6c20746f206e6f6e2d636f6e74726163740000006044820152606490fd5b8251909150156113105750805190602001fd5b60405162461bcd60e51b815290819061132c9060048301610e28565b0390fd5b91908203918211610f9e57565b91908201809211610f9e5756fea26469706673582212203c337592826238441b7648cad0855fb974c0e4a81dc0ff27c703b69b185c086d64736f6c63430008140033",
  "linkReferences": {},
  "deployedLinkReferences": {}
}