{"contracts/LocalStrategyManagerV3.sol":{"LocalStrategyManagerV3":{"abi":[{"inputs":[{"internalType":"address","name":"_usdt","type":"address"},{"internalType":"address","name":"_owner","type":"address"},{"internalType":"address","name":"_referral","type":"address"},{"internalType":"address","name":"_feeDistributor","type":"address"}],"stateMutability":"nonpayable","type":"constructor"},{"anonymous":false,"inputs":[{"indexed":true,"internalType":"address","name":"user","type":"address"},{"indexed":false,"internalType":"uint256","name":"amount","type":"uint256"},{"indexed":false,"internalType":"uint256","name":"fee","type":"uint256"}],"name":"Deposited","type":"event"},{"anonymous":false,"inputs":[{"indexed":true,"internalType":"address","name":"previousOwner","type":"address"},{"indexed":true,"internalType":"address","name":"newOwner","type":"address"}],"name":"OwnershipTransferred","type":"event"},{"anonymous":false,"inputs":[{"indexed":true,"internalType":"address","name":"user","type":"address"},{"indexed":false,"internalType":"uint256","name":"amount","type":"uint256"}],"name":"RewardsClaimed","type":"event"},{"anonymous":false,"inputs":[{"indexed":true,"internalType":"address","name":"user","type":"address"},{"indexed":false,"internalType":"uint256","name":"amount","type":"uint256"}],"name":"Withdrawn","type":"event"},{"inputs":[],"name":"COMPOUND_INTERVAL","outputs":[{"internalType":"uint256","name":"","type":"uint256"}],"stateMutability":"view","type":"function"},{"inputs":[],"name":"INTEREST_RATE_BPS","outputs":[{"internalType":"uint256","name":"","type":"uint256"}],"stateMutability":"view","type":"function"},{"inputs":[],"name":"MAX_BPS","outputs":[{"internalType":"uint256","name":"","type":"uint256"}],"stateMutability":"view","type":"function"},{"inputs":[],"name":"claimRewards","outputs":[],"stateMutability":"nonpayable","type":"function"},{"inputs":[{"internalType":"uint256","name":"_amount","type":"uint256"}],"name":"deposit","outputs":[],"stateMutability":"nonpayable","type":"function"},{"inputs":[],"name":"depositFeeBP","outputs":[{"internalType":"uint256","name":"","type":"uint256"}],"stateMutability":"view","type":"function"},{"inputs":[{"internalType":"uint256","name":"_amount","type":"uint256"}],"name":"emergencyWithdraw","outputs":[],"stateMutability":"nonpayable","type":"function"},{"inputs":[],"name":"feeDistributor","outputs":[{"internalType":"contract IFeeDistributorV3","name":"","type":"address"}],"stateMutability":"view","type":"function"},{"inputs":[{"internalType":"address","name":"_user","type":"address"}],"name":"getUserInfo","outputs":[{"internalType":"uint256","name":"deposited","type":"uint256"},{"internalType":"uint256","name":"withdrawn","type":"uint256"},{"internalType":"uint256","name":"pendingRewards","type":"uint256"},{"internalType":"uint256","name":"totalValue","type":"uint256"}],"stateMutability":"view","type":"function"},{"inputs":[],"name":"owner","outputs":[{"internalType":"address","name":"","type":"address"}],"stateMutability":"view","type":"function"},{"inputs":[],"name":"performanceFeeBP","outputs":[{"internalType":"uint256","name":"","type":"uint256"}],"stateMutability":"view","type":"function"},{"inputs":[],"name":"referral","outputs":[{"internalType":"contract IReferralV3","name":"","type":"address"}],"stateMutability":"view","type":"function"},{"inputs":[],"name":"renounceOwnership","outputs":[],"stateMutability":"nonpayable","type":"function"},{"inputs":[{"internalType":"uint256","name":"_feeBP","type":"uint256"}],"name":"setDepositFeeBP","outputs":[],"stateMutability":"nonpayable","type":"function"},{"inputs":[{"internalType":"uint256","name":"_feeBP","type":"uint256"}],"name":"setPerformanceFeeBP","outputs":[],"stateMutability":"nonpayable","type":"function"},{"inputs":[],"name":"sweep","outputs":[],"stateMutability":"nonpayable","type":"function"},{"inputs":[],"name":"totalDeposited","outputs":[{"internalType":"uint256","name":"","type":"uint256"}],"stateMutability":"view","type":"function"},{"inputs":[],"name":"totalRewardsDistributed","outputs":[{"internalType":"uint256","name":"","type":"uint256"}],"stateMutability":"view","type":"function"},{"inputs":[],"name":"totalWithdrawn","outputs":[{"internalType":"uint256","name":"","type":"uint256"}],"stateMutability":"view","type":"function"},{"inputs":[{"internalType":"address","name":"newOwner","type":"address"}],"name":"transferOwnership","outputs":[],"stateMutability":"nonpayable","type":"function"},{"inputs":[],"name":"usdt","outputs":[{"internalType":"contract IERC20","name":"","type":"address"}],"stateMutability":"view","type":"function"},{"inputs":[{"internalType":"address","name":"","type":"address"}],"name":"userInfo","outputs":[{"internalType":"uint256","name":"deposited","type":"uint256"},{"internalType":"uint256","name":"withdrawn","type":"uint256"},{"internalType":"uint256","name":"lastDepositTime","type":"uint256"},{"internalType":"uint256","name":"pendingRewards","type":"uint256"}],"stateMutability":"view","type":"function"},{"inputs":[{"internalType":"uint256","name":"_amount","type":"uint256"}],"name":"withdraw","outputs":[],"stateMutability":"nonpayable","type":"function"}],"evm":{"bytecode":{"linkReferences":{},"object":"60a0346200010f57601f6200145d38819003918201601f19168301916001600160401b0383118484101762000114578084926080946040528339810103126200010f576200004d816200012a565b6200005b602083016200012a565b620000996200007b606062000073604087016200012a565b95016200012a565b9162000087336200013f565b6101f46006556103e86007556200013f565b6001600160a01b03918216608052600180546001600160a01b03199081169484169490941790556002805490931691161790556040516112d6908162000187823960805181818161034e01528181610854015281816108e6015281816109a101528181610a4e01528181610ae2015261119f0152f35b600080fd5b634e487b7160e01b600052604160045260246000fd5b51906001600160a01b03821682036200010f57565b600080546001600160a01b039283166001600160a01b03198216811783559216907f8be0079c531659141344cd1fd0a4f28419497f9722a3daafe3b4186f6b6457e09080a356fe608060408181526004918236101561001657600080fd5b600092833560e01c9182630d43e8ad14610bf6575081631441a5a914610bcd5781631959a00214610b6d5781632e1a7d4d14610a7d5781632f48ab7d14610a3957816335faa41614610967578163372500ab146108995781634b3197131461087b5781635312ea8e1461082557816354747a70146108065781635c6a4b23146107e75781636386c1c714610775578163715018a6146107185781638da5cb5b146106f0578163960ea6d1146106905781639bd344e514610674578163b6b55f25146102d5578163cccfe39414610275578163d9bade8f14610257578163ee17254614610238578163f2fde38b1461015f57508063fd967f47146101435763ff50abdc1461012257600080fd5b3461013f578160031936011261013f576020906003549051908152f35b5080fd5b503461013f578160031936011261013f57602090516127108152f35b91905034610234576020366003190112610234576001600160a01b0382358181169391929084900361023057610193610c1b565b83156101de575050600054826bffffffffffffffffffffffff60a01b821617600055167f8be0079c531659141344cd1fd0a4f28419497f9722a3daafe3b4186f6b6457e0600080a380f35b906020608492519162461bcd60e51b8352820152602660248201527f4f776e61626c653a206e6577206f776e657220697320746865207a65726f206160448201526564647265737360d01b6064820152fd5b8480fd5b8280fd5b50503461013f578160031936011261013f576020906005549051908152f35b50503461013f578160031936011261013f5760209051620151808152f35b90503461023457602036600319011261023457803591610293610c1b565b6107d083116102a457505060075580f35b906020606492519162461bcd60e51b8352820152600b60248201526a466565206d61782032302560a81b6044820152fd5b8391503461013f5760209283600319360112610234578135916102f9831515610c73565b610302336110de565b61271061031160065485610cad565b049061031d8285610cd6565b83516323b872dd60e01b888201523360248201523060448201526064808201879052815267ffffffffffffffff92907f00000000000000000000000000000000000000000000000000000000000000009060a08101858111828210176106615787526103899082610e81565b8415158061064d575b6105c6575b50338752600888528487206103ad838254610d2f565b81556002429101556103c182600354610d2f565b6003556001546001600160a01b0390811691908261040e575b88887f73a19dd210f1a7f902193214c0ee91dd35ee5b4d920cba8d519eca65a7b488ca89898e82519485528401523392a280f35b8651634a9fefc760e01b815233838201528a81602481875afa8a918161058b575b5061043b575b506103da565b16610448575b8080610435565b855163a8031a1d60e01b81523391810191825260208201939093529192918791849182908490829060400103925af1801561058157610489575b8080610441565b3d8087843e6104988184610d0d565b820191848184031261055a57805182811161057d57810183601f8201121561057d57805189806104c783611288565b6104d38a519182610d0d565b838152019160051b8301019185831161057957908a809201905b838210610562575050905081015191821161055a570181601f8201121561055e57805190878061051c84611288565b61052888519182610d0d565b848152019260051b82010192831161055a578701905b82821061054b5750610482565b8151815290870190870161053e565b8680fd5b8580fd5b82809161056e8461126f565b8152019101906104ed565b8980fd5b8780fd5b84513d88823e3d90fd5b9091508b81813d83116105bf575b6105a38183610d0d565b810103126105bb576105b49061126f565b908c61042f565b8a80fd5b503d610599565b6002546001600160a01b03906105e0908790831684610d3c565b806002541691823b156105795787516348fef59560e01b815291166001600160a01b0316838201908152602081018790529091899183919082908490829060400103925af1801561064357156103975761063c90979197610ce3565b9588610397565b86513d8a823e3d90fd5b506002546001600160a01b03161515610392565b634e487b7160e01b8a526041845260248afd5b50503461013f578160031936011261013f576020905160648152f35b905034610234576020366003190112610234578035916106ae610c1b565b6103e883116106bf57505060065580f35b906020606492519162461bcd60e51b8352820152600b60248201526a466565206d61782031302560a81b6044820152fd5b50503461013f578160031936011261013f57905490516001600160a01b039091168152602090f35b8334610772578060031936011261077257610731610c1b565b80546001600160a01b03198116825581906001600160a01b03167f8be0079c531659141344cd1fd0a4f28419497f9722a3daafe3b4186f6b6457e08280a380f35b80fd5b90503461023457602036600319011261023457356001600160a01b03811690819003610234579181928152600860205220906107e3825491600360018501549401546107c18185610d2f565b9151948594859094939260609260808301968352602083015260408201520152565b0390f35b50503461013f578160031936011261013f576020906007549051908152f35b50503461013f578160031936011261013f576020906006549051908152f35b83903461013f57602036600319011261013f5761087890610844610c1b565b82549035906001600160a01b03167f00000000000000000000000000000000000000000000000000000000000000006110a5565b80f35b90503461023457826003193601126102345760209250549051908152f35b919050346102345782600319360112610234576108b5336110de565b3383526008602052600381842001805492831561093757508390556108dc82600554610d2f565b60055561090a82337f00000000000000000000000000000000000000000000000000000000000000006110a5565b519081527ffc30cddea38e2bf4d6ea7d3f9ed3b6ad7f176419f4963bd81318067a4aee73fe60203392a280f35b606490602084519162461bcd60e51b8352820152600a6024820152694e6f207265776172647360b01b6044820152fd5b91905034610234578260031936011261023457610982610c1b565b80516370a0823160e01b815230928101929092526001600160a01b03917f0000000000000000000000000000000000000000000000000000000000000000906020816024818786165afa928315610a30575084926109f9575b50816109e5578380f35b6109f292845416906110a5565b3880808380f35b9091506020813d8211610a28575b81610a1460209383610d0d565b81010312610a24575190386109db565b8380fd5b3d9150610a07565b513d86823e3d90fd5b50503461013f578160031936011261013f57517f00000000000000000000000000000000000000000000000000000000000000006001600160a01b03168152602090f35b9190503461023457602036600319011261023457813591610a9f831515610c73565b338452600860205281842083815410610b3357610abb336110de565b610ac6848254610cd6565b8155600242910155610ad9838254610d2f565b9055610b0682337f00000000000000000000000000000000000000000000000000000000000000006110a5565b519081527f7084f5476618d8e60b11ef0d7d3f06914655adb8793e28ff7f018d4c76d505d560203392a280f35b506020606492519162461bcd60e51b83528201526014602482015273496e73756666696369656e742062616c616e636560601b6044820152fd5b90503461023457602036600319011261023457356001600160a01b03811690819003610234578252600860209081529181902080546001820154600283015460039093015493519182529381019390935260408301526060820152608090f35b50503461013f578160031936011261013f5760015490516001600160a01b039091168152602090f35b84903461013f578160031936011261013f576002546001600160a01b03168152602090f35b6000546001600160a01b03163303610c2f57565b606460405162461bcd60e51b815260206004820152602060248201527f4f776e61626c653a2063616c6c6572206973206e6f7420746865206f776e65726044820152fd5b15610c7a57565b60405162461bcd60e51b815260206004820152600b60248201526a16995c9bc8185b5bdd5b9d60aa1b6044820152606490fd5b81810292918115918404141715610cc057565b634e487b7160e01b600052601160045260246000fd5b91908203918211610cc057565b67ffffffffffffffff8111610cf757604052565b634e487b7160e01b600052604160045260246000fd5b90601f8019910116810190811067ffffffffffffffff821117610cf757604052565b91908201809211610cc057565b91909181158015610dfc575b15610d985760405163095ea7b360e01b60208201526001600160a01b0390931660248401526044830191909152610d969190610d9182606481015b03601f198101845283610d0d565b610e81565b565b60405162461bcd60e51b815260206004820152603660248201527f5361666545524332303a20617070726f76652066726f6d206e6f6e2d7a65726f60448201527520746f206e6f6e2d7a65726f20616c6c6f77616e636560501b6064820152608490fd5b50604051636eb1769f60e11b81523060048201526001600160a01b0384811660248301526020908290604490829086165afa908115610e7557600091610e44575b5015610d48565b906020823d8211610e6d575b81610e5d60209383610d0d565b8101031261077257505138610e3d565b3d9150610e50565b6040513d6000823e3d90fd5b60018060a01b0316906040516040810167ffffffffffffffff9082811082821117610cf7576040526020938483527f5361666545524332303a206c6f772d6c6576656c2063616c6c206661696c6564858401526000808587829751910182855af1903d15610fc6573d928311610fb25790610f1c93929160405192610f0f88601f19601f8401160185610d0d565b83523d868885013e610fd1565b805191821591848315610f8e575b505050905015610f375750565b6084906040519062461bcd60e51b82526004820152602a60248201527f5361666545524332303a204552433230206f7065726174696f6e20646964206e6044820152691bdd081cdd58d8d9595960b21b6064820152fd5b91938180945001031261013f57820151908115158203610772575080388084610f2a565b634e487b7160e01b85526041600452602485fd5b90610f1c9392506060915b919290156110335750815115610fe5575090565b3b15610fee5790565b60405162461bcd60e51b815260206004820152601d60248201527f416464726573733a2063616c6c20746f206e6f6e2d636f6e74726163740000006044820152606490fd5b8251909150156110465750805190602001fd5b6040519062461bcd60e51b82528160208060048301528251908160248401526000935b82851061108c575050604492506000838284010152601f80199101168101030190fd5b8481018201518686016044015293810193859350611069565b60405163a9059cbb60e01b60208201526001600160a01b0390921660248301526044820192909252610d9691610d918260648101610d83565b60018060a01b0380600092168252600860205260408220908154801592831580611262575b61110f575b5050505050565b600281019161111f835442610cd6565b90620151809586831015611136575b505050611108565b60648202918204606414171561124e5761117661118092611160600393612710998a930490610cad565b049661116e60075489610cad565b048097610cd6565b9201918254610d2f565b905542905581151580611241575b61119d575b808080808061112e565b7f0000000000000000000000000000000000000000000000000000000000000000906111ce83826002541684610d3c565b806002541691823b15610230576040516348fef59560e01b815291166001600160a01b031660048201526024810192909252909190819083908183816044810103925af19081156112355750611226575b8080611193565b61122f90610ce3565b3861121f565b604051903d90823e3d90fd5b508060025416151561118e565b634e487b7160e01b87526011600452602487fd5b5060028101541515611103565b51906001600160a01b038216820361128357565b600080fd5b67ffffffffffffffff8111610cf75760051b6020019056fea264697066735822122092a8a9311c3e644b992af3eed97b75c56d13bb8219c3dce5b406565b26a45dc764736f6c63430008140033","opcodes":"PUSH1 0xA0 CALLVALUE PUSH3 0x10F JUMPI PUSH1 0x1F PUSH3 0x145D CODESIZE DUP2 SWAP1 SUB SWAP2 DUP3 ADD PUSH1 0x1F NOT AND DUP4 ADD SWAP2 PUSH1 0x1 PUSH1 0x1 PUSH1 0x40 SHL SUB DUP4 GT DUP5 DUP5 LT OR PUSH3 0x114 JUMPI DUP1 DUP5 SWAP3 PUSH1 0x80 SWAP5 PUSH1 0x40 MSTORE DUP4 CODECOPY DUP2 ADD SUB SLT PUSH3 0x10F JUMPI PUSH3 0x4D DUP2 PUSH3 0x12A JUMP JUMPDEST PUSH3 0x5B PUSH1 0x20 DUP4 ADD PUSH3 0x12A JUMP JUMPDEST PUSH3 0x99 PUSH3 0x7B PUSH1 0x60 PUSH3 0x73 PUSH1 0x40 DUP8 ADD PUSH3 0x12A JUMP JUMPDEST SWAP6 ADD PUSH3 0x12A JUMP JUMPDEST SWAP2 PUSH3 0x87 CALLER PUSH3 0x13F JUMP JUMPDEST PUSH2 0x1F4 PUSH1 0x6 SSTORE PUSH2 0x3E8 PUSH1 0x7 SSTORE PUSH3 0x13F JUMP JUMPDEST PUSH1 0x1 PUSH1 0x1 PUSH1 0xA0 SHL SUB SWAP2 DUP3 AND PUSH1 0x80 MSTORE PUSH1 0x1 DUP1 SLOAD PUSH1 0x1 PUSH1 0x1 PUSH1 0xA0 SHL SUB NOT SWAP1 DUP2 AND SWAP5 DUP5 AND SWAP5 SWAP1 SWAP5 OR SWAP1 SSTORE PUSH1 0x2 DUP1 SLOAD SWAP1 SWAP4 AND SWAP2 AND OR SWAP1 SSTORE PUSH1 0x40 MLOAD PUSH2 0x12D6 SWAP1 DUP2 PUSH3 0x187 DUP3 CODECOPY PUSH1 0x80 MLOAD DUP2 DUP2 DUP2 PUSH2 0x34E ADD MSTORE DUP2 DUP2 PUSH2 0x854 ADD MSTORE DUP2 DUP2 PUSH2 0x8E6 ADD MSTORE DUP2 DUP2 PUSH2 0x9A1 ADD MSTORE DUP2 DUP2 PUSH2 0xA4E ADD MSTORE DUP2 DUP2 PUSH2 0xAE2 ADD MSTORE PUSH2 0x119F ADD MSTORE RETURN JUMPDEST PUSH1 0x0 DUP1 REVERT JUMPDEST PUSH4 0x4E487B71 PUSH1 0xE0 SHL PUSH1 0x0 MSTORE PUSH1 0x41 PUSH1 0x4 MSTORE PUSH1 0x24 PUSH1 0x0 REVERT JUMPDEST MLOAD SWAP1 PUSH1 0x1 PUSH1 0x1 PUSH1 0xA0 SHL SUB DUP3 AND DUP3 SUB PUSH3 0x10F JUMPI JUMP JUMPDEST PUSH1 0x0 DUP1 SLOAD PUSH1 0x1 PUSH1 0x1 PUSH1 0xA0 SHL SUB SWAP3 DUP4 AND PUSH1 0x1 PUSH1 0x1 PUSH1 0xA0 SHL SUB NOT DUP3 AND DUP2 OR DUP4 SSTORE SWAP3 AND SWAP1 PUSH32 0x8BE0079C531659141344CD1FD0A4F28419497F9722A3DAAFE3B4186F6B6457E0 SWAP1 DUP1 LOG3 JUMP INVALID PUSH1 0x80 PUSH1 0x40 DUP2 DUP2 MSTORE PUSH1 0x4 SWAP2 DUP3 CALLDATASIZE LT ISZERO PUSH2 0x16 JUMPI PUSH1 0x0 DUP1 REVERT JUMPDEST PUSH1 0x0 SWAP3 DUP4 CALLDATALOAD PUSH1 0xE0 SHR SWAP2 DUP3 PUSH4 0xD43E8AD EQ PUSH2 0xBF6 JUMPI POP DUP2 PUSH4 0x1441A5A9 EQ PUSH2 0xBCD JUMPI DUP2 PUSH4 0x1959A002 EQ PUSH2 0xB6D JUMPI DUP2 PUSH4 0x2E1A7D4D EQ PUSH2 0xA7D JUMPI DUP2 PUSH4 0x2F48AB7D EQ PUSH2 0xA39 JUMPI DUP2 PUSH4 0x35FAA416 EQ PUSH2 0x967 JUMPI DUP2 PUSH4 0x372500AB EQ PUSH2 0x899 JUMPI DUP2 PUSH4 0x4B319713 EQ PUSH2 0x87B JUMPI DUP2 PUSH4 0x5312EA8E EQ PUSH2 0x825 JUMPI DUP2 PUSH4 0x54747A70 EQ PUSH2 0x806 JUMPI DUP2 PUSH4 0x5C6A4B23 EQ PUSH2 0x7E7 JUMPI DUP2 PUSH4 0x6386C1C7 EQ PUSH2 0x775 JUMPI DUP2 PUSH4 0x715018A6 EQ PUSH2 0x718 JUMPI DUP2 PUSH4 0x8DA5CB5B EQ PUSH2 0x6F0 JUMPI DUP2 PUSH4 0x960EA6D1 EQ PUSH2 0x690 JUMPI DUP2 PUSH4 0x9BD344E5 EQ PUSH2 0x674 JUMPI DUP2 PUSH4 0xB6B55F25 EQ PUSH2 0x2D5 JUMPI DUP2 PUSH4 0xCCCFE394 EQ PUSH2 0x275 JUMPI DUP2 PUSH4 0xD9BADE8F EQ PUSH2 0x257 JUMPI DUP2 PUSH4 0xEE172546 EQ PUSH2 0x238 JUMPI DUP2 PUSH4 0xF2FDE38B EQ PUSH2 0x15F JUMPI POP DUP1 PUSH4 0xFD967F47 EQ PUSH2 0x143 JUMPI PUSH4 0xFF50ABDC EQ PUSH2 0x122 JUMPI PUSH1 0x0 DUP1 REVERT JUMPDEST CALLVALUE PUSH2 0x13F JUMPI DUP2 PUSH1 0x3 NOT CALLDATASIZE ADD SLT PUSH2 0x13F JUMPI PUSH1 0x20 SWAP1 PUSH1 0x3 SLOAD SWAP1 MLOAD SWAP1 DUP2 MSTORE RETURN JUMPDEST POP DUP1 REVERT JUMPDEST POP CALLVALUE PUSH2 0x13F JUMPI DUP2 PUSH1 0x3 NOT CALLDATASIZE ADD SLT PUSH2 0x13F JUMPI PUSH1 0x20 SWAP1 MLOAD PUSH2 0x2710 DUP2 MSTORE RETURN JUMPDEST SWAP2 SWAP1 POP CALLVALUE PUSH2 0x234 JUMPI PUSH1 0x20 CALLDATASIZE PUSH1 0x3 NOT ADD SLT PUSH2 0x234 JUMPI PUSH1 0x1 PUSH1 0x1 PUSH1 0xA0 SHL SUB DUP3 CALLDATALOAD DUP2 DUP2 AND SWAP4 SWAP2 SWAP3 SWAP1 DUP5 SWAP1 SUB PUSH2 0x230 JUMPI PUSH2 0x193 PUSH2 0xC1B JUMP JUMPDEST DUP4 ISZERO PUSH2 0x1DE JUMPI POP POP PUSH1 0x0 SLOAD DUP3 PUSH12 0xFFFFFFFFFFFFFFFFFFFFFFFF PUSH1 0xA0 SHL DUP3 AND OR PUSH1 0x0 SSTORE AND PUSH32 0x8BE0079C531659141344CD1FD0A4F28419497F9722A3DAAFE3B4186F6B6457E0 PUSH1 0x0 DUP1 LOG3 DUP1 RETURN JUMPDEST SWAP1 PUSH1 0x20 PUSH1 0x84 SWAP3 MLOAD SWAP2 PUSH3 0x461BCD PUSH1 0xE5 SHL DUP4 MSTORE DUP3 ADD MSTORE PUSH1 0x26 PUSH1 0x24 DUP3 ADD MSTORE PUSH32 0x4F776E61626C653A206E6577206F776E657220697320746865207A65726F2061 PUSH1 0x44 DUP3 ADD MSTORE PUSH6 0x646472657373 PUSH1 0xD0 SHL PUSH1 0x64 DUP3 ADD MSTORE REVERT JUMPDEST DUP5 DUP1 REVERT JUMPDEST DUP3 DUP1 REVERT JUMPDEST POP POP CALLVALUE PUSH2 0x13F JUMPI DUP2 PUSH1 0x3 NOT CALLDATASIZE ADD SLT PUSH2 0x13F JUMPI PUSH1 0x20 SWAP1 PUSH1 0x5 SLOAD SWAP1 MLOAD SWAP1 DUP2 MSTORE RETURN JUMPDEST POP POP CALLVALUE PUSH2 0x13F JUMPI DUP2 PUSH1 0x3 NOT CALLDATASIZE ADD SLT PUSH2 0x13F JUMPI PUSH1 0x20 SWAP1 MLOAD PUSH3 0x15180 DUP2 MSTORE RETURN JUMPDEST SWAP1 POP CALLVALUE PUSH2 0x234 JUMPI PUSH1 0x20 CALLDATASIZE PUSH1 0x3 NOT ADD SLT PUSH2 0x234 JUMPI DUP1 CALLDATALOAD SWAP2 PUSH2 0x293 PUSH2 0xC1B JUMP JUMPDEST PUSH2 0x7D0 DUP4 GT PUSH2 0x2A4 JUMPI POP POP PUSH1 0x7 SSTORE DUP1 RETURN JUMPDEST SWAP1 PUSH1 0x20 PUSH1 0x64 SWAP3 MLOAD SWAP2 PUSH3 0x461BCD PUSH1 0xE5 SHL DUP4 MSTORE DUP3 ADD MSTORE PUSH1 0xB PUSH1 0x24 DUP3 ADD MSTORE PUSH11 0x466565206D617820323025 PUSH1 0xA8 SHL PUSH1 0x44 DUP3 ADD MSTORE REVERT JUMPDEST DUP4 SWAP2 POP CALLVALUE PUSH2 0x13F JUMPI PUSH1 0x20 SWAP3 DUP4 PUSH1 0x3 NOT CALLDATASIZE ADD SLT PUSH2 0x234 JUMPI DUP2 CALLDATALOAD SWAP2 PUSH2 0x2F9 DUP4 ISZERO ISZERO PUSH2 0xC73 JUMP JUMPDEST PUSH2 0x302 CALLER PUSH2 0x10DE JUMP JUMPDEST PUSH2 0x2710 PUSH2 0x311 PUSH1 0x6 SLOAD DUP6 PUSH2 0xCAD JUMP JUMPDEST DIV SWAP1 PUSH2 0x31D DUP3 DUP6 PUSH2 0xCD6 JUMP JUMPDEST DUP4 MLOAD PUSH4 0x23B872DD PUSH1 0xE0 SHL DUP9 DUP3 ADD MSTORE CALLER PUSH1 0x24 DUP3 ADD MSTORE ADDRESS PUSH1 0x44 DUP3 ADD MSTORE PUSH1 0x64 DUP1 DUP3 ADD DUP8 SWAP1 MSTORE DUP2 MSTORE PUSH8 0xFFFFFFFFFFFFFFFF SWAP3 SWAP1 PUSH32 0x0 SWAP1 PUSH1 0xA0 DUP2 ADD DUP6 DUP2 GT DUP3 DUP3 LT OR PUSH2 0x661 JUMPI DUP8 MSTORE PUSH2 0x389 SWAP1 DUP3 PUSH2 0xE81 JUMP JUMPDEST DUP5 ISZERO ISZERO DUP1 PUSH2 0x64D JUMPI JUMPDEST PUSH2 0x5C6 JUMPI JUMPDEST POP CALLER DUP8 MSTORE PUSH1 0x8 DUP9 MSTORE DUP5 DUP8 KECCAK256 PUSH2 0x3AD DUP4 DUP3 SLOAD PUSH2 0xD2F JUMP JUMPDEST DUP2 SSTORE PUSH1 0x2 TIMESTAMP SWAP2 ADD SSTORE PUSH2 0x3C1 DUP3 PUSH1 0x3 SLOAD PUSH2 0xD2F JUMP JUMPDEST PUSH1 0x3 SSTORE PUSH1 0x1 SLOAD PUSH1 0x1 PUSH1 0x1 PUSH1 0xA0 SHL SUB SWAP1 DUP2 AND SWAP2 SWAP1 DUP3 PUSH2 0x40E JUMPI JUMPDEST DUP9 DUP9 PUSH32 0x73A19DD210F1A7F902193214C0EE91DD35EE5B4D920CBA8D519ECA65A7B488CA DUP10 DUP10 DUP15 DUP3 MLOAD SWAP5 DUP6 MSTORE DUP5 ADD MSTORE CALLER SWAP3 LOG2 DUP1 RETURN JUMPDEST DUP7 MLOAD PUSH4 0x4A9FEFC7 PUSH1 0xE0 SHL DUP2 MSTORE CALLER DUP4 DUP3 ADD MSTORE DUP11 DUP2 PUSH1 0x24 DUP2 DUP8 GAS STATICCALL DUP11 SWAP2 DUP2 PUSH2 0x58B JUMPI JUMPDEST POP PUSH2 0x43B JUMPI JUMPDEST POP PUSH2 0x3DA JUMP JUMPDEST AND PUSH2 0x448 JUMPI JUMPDEST DUP1 DUP1 PUSH2 0x435 JUMP JUMPDEST DUP6 MLOAD PUSH4 0xA8031A1D PUSH1 0xE0 SHL DUP2 MSTORE CALLER SWAP2 DUP2 ADD SWAP2 DUP3 MSTORE PUSH1 0x20 DUP3 ADD SWAP4 SWAP1 SWAP4 MSTORE SWAP2 SWAP3 SWAP2 DUP8 SWAP2 DUP5 SWAP2 DUP3 SWAP1 DUP5 SWAP1 DUP3 SWAP1 PUSH1 0x40 ADD SUB SWAP3 GAS CALL DUP1 ISZERO PUSH2 0x581 JUMPI PUSH2 0x489 JUMPI JUMPDEST DUP1 DUP1 PUSH2 0x441 JUMP JUMPDEST RETURNDATASIZE DUP1 DUP8 DUP5 RETURNDATACOPY PUSH2 0x498 DUP2 DUP5 PUSH2 0xD0D JUMP JUMPDEST DUP3 ADD SWAP2 DUP5 DUP2 DUP5 SUB SLT PUSH2 0x55A JUMPI DUP1 MLOAD DUP3 DUP2 GT PUSH2 0x57D JUMPI DUP2 ADD DUP4 PUSH1 0x1F DUP3 ADD SLT ISZERO PUSH2 0x57D JUMPI DUP1 MLOAD DUP10 DUP1 PUSH2 0x4C7 DUP4 PUSH2 0x1288 JUMP JUMPDEST PUSH2 0x4D3 DUP11 MLOAD SWAP2 DUP3 PUSH2 0xD0D JUMP JUMPDEST DUP4 DUP2 MSTORE ADD SWAP2 PUSH1 0x5 SHL DUP4 ADD ADD SWAP2 DUP6 DUP4 GT PUSH2 0x579 JUMPI SWAP1 DUP11 DUP1 SWAP3 ADD SWAP1 JUMPDEST DUP4 DUP3 LT PUSH2 0x562 JUMPI POP POP SWAP1 POP DUP2 ADD MLOAD SWAP2 DUP3 GT PUSH2 0x55A JUMPI ADD DUP2 PUSH1 0x1F DUP3 ADD SLT ISZERO PUSH2 0x55E JUMPI DUP1 MLOAD SWAP1 DUP8 DUP1 PUSH2 0x51C DUP5 PUSH2 0x1288 JUMP JUMPDEST PUSH2 0x528 DUP9 MLOAD SWAP2 DUP3 PUSH2 0xD0D JUMP JUMPDEST DUP5 DUP2 MSTORE ADD SWAP3 PUSH1 0x5 SHL DUP3 ADD ADD SWAP3 DUP4 GT PUSH2 0x55A JUMPI DUP8 ADD SWAP1 JUMPDEST DUP3 DUP3 LT PUSH2 0x54B JUMPI POP PUSH2 0x482 JUMP JUMPDEST DUP2 MLOAD DUP2 MSTORE SWAP1 DUP8 ADD SWAP1 DUP8 ADD PUSH2 0x53E JUMP JUMPDEST DUP7 DUP1 REVERT JUMPDEST DUP6 DUP1 REVERT JUMPDEST DUP3 DUP1 SWAP2 PUSH2 0x56E DUP5 PUSH2 0x126F JUMP JUMPDEST DUP2 MSTORE ADD SWAP2 ADD SWAP1 PUSH2 0x4ED JUMP JUMPDEST DUP10 DUP1 REVERT JUMPDEST DUP8 DUP1 REVERT JUMPDEST DUP5 MLOAD RETURNDATASIZE DUP9 DUP3 RETURNDATACOPY RETURNDATASIZE SWAP1 REVERT JUMPDEST SWAP1 SWAP2 POP DUP12 DUP2 DUP2 RETURNDATASIZE DUP4 GT PUSH2 0x5BF JUMPI JUMPDEST PUSH2 0x5A3 DUP2 DUP4 PUSH2 0xD0D JUMP JUMPDEST DUP2 ADD SUB SLT PUSH2 0x5BB JUMPI PUSH2 0x5B4 SWAP1 PUSH2 0x126F JUMP JUMPDEST SWAP1 DUP13 PUSH2 0x42F JUMP JUMPDEST DUP11 DUP1 REVERT JUMPDEST POP RETURNDATASIZE PUSH2 0x599 JUMP JUMPDEST PUSH1 0x2 SLOAD PUSH1 0x1 PUSH1 0x1 PUSH1 0xA0 SHL SUB SWAP1 PUSH2 0x5E0 SWAP1 DUP8 SWAP1 DUP4 AND DUP5 PUSH2 0xD3C JUMP JUMPDEST DUP1 PUSH1 0x2 SLOAD AND SWAP2 DUP3 EXTCODESIZE ISZERO PUSH2 0x579 JUMPI DUP8 MLOAD PUSH4 0x48FEF595 PUSH1 0xE0 SHL DUP2 MSTORE SWAP2 AND PUSH1 0x1 PUSH1 0x1 PUSH1 0xA0 SHL SUB AND DUP4 DUP3 ADD SWAP1 DUP2 MSTORE PUSH1 0x20 DUP2 ADD DUP8 SWAP1 MSTORE SWAP1 SWAP2 DUP10 SWAP2 DUP4 SWAP2 SWAP1 DUP3 SWAP1 DUP5 SWAP1 DUP3 SWAP1 PUSH1 0x40 ADD SUB SWAP3 GAS CALL DUP1 ISZERO PUSH2 0x643 JUMPI ISZERO PUSH2 0x397 JUMPI PUSH2 0x63C SWAP1 SWAP8 SWAP2 SWAP8 PUSH2 0xCE3 JUMP JUMPDEST SWAP6 DUP9 PUSH2 0x397 JUMP JUMPDEST DUP7 MLOAD RETURNDATASIZE DUP11 DUP3 RETURNDATACOPY RETURNDATASIZE SWAP1 REVERT JUMPDEST POP PUSH1 0x2 SLOAD PUSH1 0x1 PUSH1 0x1 PUSH1 0xA0 SHL SUB AND ISZERO ISZERO PUSH2 0x392 JUMP JUMPDEST PUSH4 0x4E487B71 PUSH1 0xE0 SHL DUP11 MSTORE PUSH1 0x41 DUP5 MSTORE PUSH1 0x24 DUP11 REVERT JUMPDEST POP POP CALLVALUE PUSH2 0x13F JUMPI DUP2 PUSH1 0x3 NOT CALLDATASIZE ADD SLT PUSH2 0x13F JUMPI PUSH1 0x20 SWAP1 MLOAD PUSH1 0x64 DUP2 MSTORE RETURN JUMPDEST SWAP1 POP CALLVALUE PUSH2 0x234 JUMPI PUSH1 0x20 CALLDATASIZE PUSH1 0x3 NOT ADD SLT PUSH2 0x234 JUMPI DUP1 CALLDATALOAD SWAP2 PUSH2 0x6AE PUSH2 0xC1B JUMP JUMPDEST PUSH2 0x3E8 DUP4 GT PUSH2 0x6BF JUMPI POP POP PUSH1 0x6 SSTORE DUP1 RETURN JUMPDEST SWAP1 PUSH1 0x20 PUSH1 0x64 SWAP3 MLOAD SWAP2 PUSH3 0x461BCD PUSH1 0xE5 SHL DUP4 MSTORE DUP3 ADD MSTORE PUSH1 0xB PUSH1 0x24 DUP3 ADD MSTORE PUSH11 0x466565206D617820313025 PUSH1 0xA8 SHL PUSH1 0x44 DUP3 ADD MSTORE REVERT JUMPDEST POP POP CALLVALUE PUSH2 0x13F JUMPI DUP2 PUSH1 0x3 NOT CALLDATASIZE ADD SLT PUSH2 0x13F JUMPI SWAP1 SLOAD SWAP1 MLOAD PUSH1 0x1 PUSH1 0x1 PUSH1 0xA0 SHL SUB SWAP1 SWAP2 AND DUP2 MSTORE PUSH1 0x20 SWAP1 RETURN JUMPDEST DUP4 CALLVALUE PUSH2 0x772 JUMPI DUP1 PUSH1 0x3 NOT CALLDATASIZE ADD SLT PUSH2 0x772 JUMPI PUSH2 0x731 PUSH2 0xC1B JUMP JUMPDEST DUP1 SLOAD PUSH1 0x1 PUSH1 0x1 PUSH1 0xA0 SHL SUB NOT DUP2 AND DUP3 SSTORE DUP2 SWAP1 PUSH1 0x1 PUSH1 0x1 PUSH1 0xA0 SHL SUB AND PUSH32 0x8BE0079C531659141344CD1FD0A4F28419497F9722A3DAAFE3B4186F6B6457E0 DUP3 DUP1 LOG3 DUP1 RETURN JUMPDEST DUP1 REVERT JUMPDEST SWAP1 POP CALLVALUE PUSH2 0x234 JUMPI PUSH1 0x20 CALLDATASIZE PUSH1 0x3 NOT ADD SLT PUSH2 0x234 JUMPI CALLDATALOAD PUSH1 0x1 PUSH1 0x1 PUSH1 0xA0 SHL SUB DUP2 AND SWAP1 DUP2 SWAP1 SUB PUSH2 0x234 JUMPI SWAP2 DUP2 SWAP3 DUP2 MSTORE PUSH1 0x8 PUSH1 0x20 MSTORE KECCAK256 SWAP1 PUSH2 0x7E3 DUP3 SLOAD SWAP2 PUSH1 0x3 PUSH1 0x1 DUP6 ADD SLOAD SWAP5 ADD SLOAD PUSH2 0x7C1 DUP2 DUP6 PUSH2 0xD2F JUMP JUMPDEST SWAP2 MLOAD SWAP5 DUP6 SWAP5 DUP6 SWAP1 SWAP5 SWAP4 SWAP3 PUSH1 0x60 SWAP3 PUSH1 0x80 DUP4 ADD SWAP7 DUP4 MSTORE PUSH1 0x20 DUP4 ADD MSTORE PUSH1 0x40 DUP3 ADD MSTORE ADD MSTORE JUMP JUMPDEST SUB SWAP1 RETURN JUMPDEST POP POP CALLVALUE PUSH2 0x13F JUMPI DUP2 PUSH1 0x3 NOT CALLDATASIZE ADD SLT PUSH2 0x13F JUMPI PUSH1 0x20 SWAP1 PUSH1 0x7 SLOAD SWAP1 MLOAD SWAP1 DUP2 MSTORE RETURN JUMPDEST POP POP CALLVALUE PUSH2 0x13F JUMPI DUP2 PUSH1 0x3 NOT CALLDATASIZE ADD SLT PUSH2 0x13F JUMPI PUSH1 0x20 SWAP1 PUSH1 0x6 SLOAD SWAP1 MLOAD SWAP1 DUP2 MSTORE RETURN JUMPDEST DUP4 SWAP1 CALLVALUE PUSH2 0x13F JUMPI PUSH1 0x20 CALLDATASIZE PUSH1 0x3 NOT ADD SLT PUSH2 0x13F JUMPI PUSH2 0x878 SWAP1 PUSH2 0x844 PUSH2 0xC1B JUMP JUMPDEST DUP3 SLOAD SWAP1 CALLDATALOAD SWAP1 PUSH1 0x1 PUSH1 0x1 PUSH1 0xA0 SHL SUB AND PUSH32 0x0 PUSH2 0x10A5 JUMP JUMPDEST DUP1 RETURN JUMPDEST SWAP1 POP CALLVALUE PUSH2 0x234 JUMPI DUP3 PUSH1 0x3 NOT CALLDATASIZE ADD SLT PUSH2 0x234 JUMPI PUSH1 0x20 SWAP3 POP SLOAD SWAP1 MLOAD SWAP1 DUP2 MSTORE RETURN JUMPDEST SWAP2 SWAP1 POP CALLVALUE PUSH2 0x234 JUMPI DUP3 PUSH1 0x3 NOT CALLDATASIZE ADD SLT PUSH2 0x234 JUMPI PUSH2 0x8B5 CALLER PUSH2 0x10DE JUMP JUMPDEST CALLER DUP4 MSTORE PUSH1 0x8 PUSH1 0x20 MSTORE PUSH1 0x3 DUP2 DUP5 KECCAK256 ADD DUP1 SLOAD SWAP3 DUP4 ISZERO PUSH2 0x937 JUMPI POP DUP4 SWAP1 SSTORE PUSH2 0x8DC DUP3 PUSH1 0x5 SLOAD PUSH2 0xD2F JUMP JUMPDEST PUSH1 0x5 SSTORE PUSH2 0x90A DUP3 CALLER PUSH32 0x0 PUSH2 0x10A5 JUMP JUMPDEST MLOAD SWAP1 DUP2 MSTORE PUSH32 0xFC30CDDEA38E2BF4D6EA7D3F9ED3B6AD7F176419F4963BD81318067A4AEE73FE PUSH1 0x20 CALLER SWAP3 LOG2 DUP1 RETURN JUMPDEST PUSH1 0x64 SWAP1 PUSH1 0x20 DUP5 MLOAD SWAP2 PUSH3 0x461BCD PUSH1 0xE5 SHL DUP4 MSTORE DUP3 ADD MSTORE PUSH1 0xA PUSH1 0x24 DUP3 ADD MSTORE PUSH10 0x4E6F2072657761726473 PUSH1 0xB0 SHL PUSH1 0x44 DUP3 ADD MSTORE REVERT JUMPDEST SWAP2 SWAP1 POP CALLVALUE PUSH2 0x234 JUMPI DUP3 PUSH1 0x3 NOT CALLDATASIZE ADD SLT PUSH2 0x234 JUMPI PUSH2 0x982 PUSH2 0xC1B JUMP JUMPDEST DUP1 MLOAD PUSH4 0x70A08231 PUSH1 0xE0 SHL DUP2 MSTORE ADDRESS SWAP3 DUP2 ADD SWAP3 SWAP1 SWAP3 MSTORE PUSH1 0x1 PUSH1 0x1 PUSH1 0xA0 SHL SUB SWAP2 PUSH32 0x0 SWAP1 PUSH1 0x20 DUP2 PUSH1 0x24 DUP2 DUP8 DUP7 AND GAS STATICCALL SWAP3 DUP4 ISZERO PUSH2 0xA30 JUMPI POP DUP5 SWAP3 PUSH2 0x9F9 JUMPI JUMPDEST POP DUP2 PUSH2 0x9E5 JUMPI DUP4 DUP1 RETURN JUMPDEST PUSH2 0x9F2 SWAP3 DUP5 SLOAD AND SWAP1 PUSH2 0x10A5 JUMP JUMPDEST CODESIZE DUP1 DUP1 DUP4 DUP1 RETURN JUMPDEST SWAP1 SWAP2 POP PUSH1 0x20 DUP2 RETURNDATASIZE DUP3 GT PUSH2 0xA28 JUMPI JUMPDEST DUP2 PUSH2 0xA14 PUSH1 0x20 SWAP4 DUP4 PUSH2 0xD0D JUMP JUMPDEST DUP2 ADD SUB SLT PUSH2 0xA24 JUMPI MLOAD SWAP1 CODESIZE PUSH2 0x9DB JUMP JUMPDEST DUP4 DUP1 REVERT JUMPDEST RETURNDATASIZE SWAP2 POP PUSH2 0xA07 JUMP JUMPDEST MLOAD RETURNDATASIZE DUP7 DUP3 RETURNDATACOPY RETURNDATASIZE SWAP1 REVERT JUMPDEST POP POP CALLVALUE PUSH2 0x13F JUMPI DUP2 PUSH1 0x3 NOT CALLDATASIZE ADD SLT PUSH2 0x13F JUMPI MLOAD PUSH32 0x0 PUSH1 0x1 PUSH1 0x1 PUSH1 0xA0 SHL SUB AND DUP2 MSTORE PUSH1 0x20 SWAP1 RETURN JUMPDEST SWAP2 SWAP1 POP CALLVALUE PUSH2 0x234 JUMPI PUSH1 0x20 CALLDATASIZE PUSH1 0x3 NOT ADD SLT PUSH2 0x234 JUMPI DUP2 CALLDATALOAD SWAP2 PUSH2 0xA9F DUP4 ISZERO ISZERO PUSH2 0xC73 JUMP JUMPDEST CALLER DUP5 MSTORE PUSH1 0x8 PUSH1 0x20 MSTORE DUP2 DUP5 KECCAK256 DUP4 DUP2 SLOAD LT PUSH2 0xB33 JUMPI PUSH2 0xABB CALLER PUSH2 0x10DE JUMP JUMPDEST PUSH2 0xAC6 DUP5 DUP3 SLOAD PUSH2 0xCD6 JUMP JUMPDEST DUP2 SSTORE PUSH1 0x2 TIMESTAMP SWAP2 ADD SSTORE PUSH2 0xAD9 DUP4 DUP3 SLOAD PUSH2 0xD2F JUMP JUMPDEST SWAP1 SSTORE PUSH2 0xB06 DUP3 CALLER PUSH32 0x0 PUSH2 0x10A5 JUMP JUMPDEST MLOAD SWAP1 DUP2 MSTORE PUSH32 0x7084F5476618D8E60B11EF0D7D3F06914655ADB8793E28FF7F018D4C76D505D5 PUSH1 0x20 CALLER SWAP3 LOG2 DUP1 RETURN JUMPDEST POP PUSH1 0x20 PUSH1 0x64 SWAP3 MLOAD SWAP2 PUSH3 0x461BCD PUSH1 0xE5 SHL DUP4 MSTORE DUP3 ADD MSTORE PUSH1 0x14 PUSH1 0x24 DUP3 ADD MSTORE PUSH20 0x496E73756666696369656E742062616C616E6365 PUSH1 0x60 SHL PUSH1 0x44 DUP3 ADD MSTORE REVERT JUMPDEST SWAP1 POP CALLVALUE PUSH2 0x234 JUMPI PUSH1 0x20 CALLDATASIZE PUSH1 0x3 NOT ADD SLT PUSH2 0x234 JUMPI CALLDATALOAD PUSH1 0x1 PUSH1 0x1 PUSH1 0xA0 SHL SUB DUP2 AND SWAP1 DUP2 SWAP1 SUB PUSH2 0x234 JUMPI DUP3 MSTORE PUSH1 0x8 PUSH1 0x20 SWAP1 DUP2 MSTORE SWAP2 DUP2 SWAP1 KECCAK256 DUP1 SLOAD PUSH1 0x1 DUP3 ADD SLOAD PUSH1 0x2 DUP4 ADD SLOAD PUSH1 0x3 SWAP1 SWAP4 ADD SLOAD SWAP4 MLOAD SWAP2 DUP3 MSTORE SWAP4 DUP2 ADD SWAP4 SWAP1 SWAP4 MSTORE PUSH1 0x40 DUP4 ADD MSTORE PUSH1 0x60 DUP3 ADD MSTORE PUSH1 0x80 SWAP1 RETURN JUMPDEST POP POP CALLVALUE PUSH2 0x13F JUMPI DUP2 PUSH1 0x3 NOT CALLDATASIZE ADD SLT PUSH2 0x13F JUMPI PUSH1 0x1 SLOAD SWAP1 MLOAD PUSH1 0x1 PUSH1 0x1 PUSH1 0xA0 SHL SUB SWAP1 SWAP2 AND DUP2 MSTORE PUSH1 0x20 SWAP1 RETURN JUMPDEST DUP5 SWAP1 CALLVALUE PUSH2 0x13F JUMPI DUP2 PUSH1 0x3 NOT CALLDATASIZE ADD SLT PUSH2 0x13F JUMPI PUSH1 0x2 SLOAD PUSH1 0x1 PUSH1 0x1 PUSH1 0xA0 SHL SUB AND DUP2 MSTORE PUSH1 0x20 SWAP1 RETURN JUMPDEST PUSH1 0x0 SLOAD PUSH1 0x1 PUSH1 0x1 PUSH1 0xA0 SHL SUB AND CALLER SUB PUSH2 0xC2F JUMPI JUMP JUMPDEST PUSH1 0x64 PUSH1 0x40 MLOAD PUSH3 0x461BCD PUSH1 0xE5 SHL DUP2 MSTORE PUSH1 0x20 PUSH1 0x4 DUP3 ADD MSTORE PUSH1 0x20 PUSH1 0x24 DUP3 ADD MSTORE PUSH32 0x4F776E61626C653A2063616C6C6572206973206E6F7420746865206F776E6572 PUSH1 0x44 DUP3 ADD MSTORE REVERT JUMPDEST ISZERO PUSH2 0xC7A JUMPI JUMP JUMPDEST PUSH1 0x40 MLOAD PUSH3 0x461BCD PUSH1 0xE5 SHL DUP2 MSTORE PUSH1 0x20 PUSH1 0x4 DUP3 ADD MSTORE PUSH1 0xB PUSH1 0x24 DUP3 ADD MSTORE PUSH11 0x16995C9BC8185B5BDD5B9D PUSH1 0xAA SHL PUSH1 0x44 DUP3 ADD MSTORE PUSH1 0x64 SWAP1 REVERT JUMPDEST DUP2 DUP2 MUL SWAP3 SWAP2 DUP2 ISZERO SWAP2 DUP5 DIV EQ OR ISZERO PUSH2 0xCC0 JUMPI JUMP JUMPDEST PUSH4 0x4E487B71 PUSH1 0xE0 SHL PUSH1 0x0 MSTORE PUSH1 0x11 PUSH1 0x4 MSTORE PUSH1 0x24 PUSH1 0x0 REVERT JUMPDEST SWAP2 SWAP1 DUP3 SUB SWAP2 DUP3 GT PUSH2 0xCC0 JUMPI JUMP JUMPDEST PUSH8 0xFFFFFFFFFFFFFFFF DUP2 GT PUSH2 0xCF7 JUMPI PUSH1 0x40 MSTORE JUMP JUMPDEST PUSH4 0x4E487B71 PUSH1 0xE0 SHL PUSH1 0x0 MSTORE PUSH1 0x41 PUSH1 0x4 MSTORE PUSH1 0x24 PUSH1 0x0 REVERT JUMPDEST SWAP1 PUSH1 0x1F DUP1 NOT SWAP2 ADD AND DUP2 ADD SWAP1 DUP2 LT PUSH8 0xFFFFFFFFFFFFFFFF DUP3 GT OR PUSH2 0xCF7 JUMPI PUSH1 0x40 MSTORE JUMP JUMPDEST SWAP2 SWAP1 DUP3 ADD DUP1 SWAP3 GT PUSH2 0xCC0 JUMPI JUMP JUMPDEST SWAP2 SWAP1 SWAP2 DUP2 ISZERO DUP1 ISZERO PUSH2 0xDFC JUMPI JUMPDEST ISZERO PUSH2 0xD98 JUMPI PUSH1 0x40 MLOAD PUSH4 0x95EA7B3 PUSH1 0xE0 SHL PUSH1 0x20 DUP3 ADD MSTORE PUSH1 0x1 PUSH1 0x1 PUSH1 0xA0 SHL SUB SWAP1 SWAP4 AND PUSH1 0x24 DUP5 ADD MSTORE PUSH1 0x44 DUP4 ADD SWAP2 SWAP1 SWAP2 MSTORE PUSH2 0xD96 SWAP2 SWAP1 PUSH2 0xD91 DUP3 PUSH1 0x64 DUP2 ADD JUMPDEST SUB PUSH1 0x1F NOT DUP2 ADD DUP5 MSTORE DUP4 PUSH2 0xD0D JUMP JUMPDEST PUSH2 0xE81 JUMP JUMPDEST JUMP JUMPDEST PUSH1 0x40 MLOAD PUSH3 0x461BCD PUSH1 0xE5 SHL DUP2 MSTORE PUSH1 0x20 PUSH1 0x4 DUP3 ADD MSTORE PUSH1 0x36 PUSH1 0x24 DUP3 ADD MSTORE PUSH32 0x5361666545524332303A20617070726F76652066726F6D206E6F6E2D7A65726F PUSH1 0x44 DUP3 ADD MSTORE PUSH22 0x20746F206E6F6E2D7A65726F20616C6C6F77616E6365 PUSH1 0x50 SHL PUSH1 0x64 DUP3 ADD MSTORE PUSH1 0x84 SWAP1 REVERT JUMPDEST POP PUSH1 0x40 MLOAD PUSH4 0x6EB1769F PUSH1 0xE1 SHL DUP2 MSTORE ADDRESS PUSH1 0x4 DUP3 ADD MSTORE PUSH1 0x1 PUSH1 0x1 PUSH1 0xA0 SHL SUB DUP5 DUP2 AND PUSH1 0x24 DUP4 ADD MSTORE PUSH1 0x20 SWAP1 DUP3 SWAP1 PUSH1 0x44 SWAP1 DUP3 SWAP1 DUP7 AND GAS STATICCALL SWAP1 DUP2 ISZERO PUSH2 0xE75 JUMPI PUSH1 0x0 SWAP2 PUSH2 0xE44 JUMPI JUMPDEST POP ISZERO PUSH2 0xD48 JUMP JUMPDEST SWAP1 PUSH1 0x20 DUP3 RETURNDATASIZE DUP3 GT PUSH2 0xE6D JUMPI JUMPDEST DUP2 PUSH2 0xE5D PUSH1 0x20 SWAP4 DUP4 PUSH2 0xD0D JUMP JUMPDEST DUP2 ADD SUB SLT PUSH2 0x772 JUMPI POP MLOAD CODESIZE PUSH2 0xE3D JUMP JUMPDEST RETURNDATASIZE SWAP2 POP PUSH2 0xE50 JUMP JUMPDEST PUSH1 0x40 MLOAD RETURNDATASIZE PUSH1 0x0 DUP3 RETURNDATACOPY RETURNDATASIZE SWAP1 REVERT JUMPDEST PUSH1 0x1 DUP1 PUSH1 0xA0 SHL SUB AND SWAP1 PUSH1 0x40 MLOAD PUSH1 0x40 DUP2 ADD PUSH8 0xFFFFFFFFFFFFFFFF SWAP1 DUP3 DUP2 LT DUP3 DUP3 GT OR PUSH2 0xCF7 JUMPI PUSH1 0x40 MSTORE PUSH1 0x20 SWAP4 DUP5 DUP4 MSTORE PUSH32 0x5361666545524332303A206C6F772D6C6576656C2063616C6C206661696C6564 DUP6 DUP5 ADD MSTORE PUSH1 0x0 DUP1 DUP6 DUP8 DUP3 SWAP8 MLOAD SWAP2 ADD DUP3 DUP6 GAS CALL SWAP1 RETURNDATASIZE ISZERO PUSH2 0xFC6 JUMPI RETURNDATASIZE SWAP3 DUP4 GT PUSH2 0xFB2 JUMPI SWAP1 PUSH2 0xF1C SWAP4 SWAP3 SWAP2 PUSH1 0x40 MLOAD SWAP3 PUSH2 0xF0F DUP9 PUSH1 0x1F NOT PUSH1 0x1F DUP5 ADD AND ADD DUP6 PUSH2 0xD0D JUMP JUMPDEST DUP4 MSTORE RETURNDATASIZE DUP7 DUP9 DUP6 ADD RETURNDATACOPY PUSH2 0xFD1 JUMP JUMPDEST DUP1 MLOAD SWAP2 DUP3 ISZERO SWAP2 DUP5 DUP4 ISZERO PUSH2 0xF8E JUMPI JUMPDEST POP POP POP SWAP1 POP ISZERO PUSH2 0xF37 JUMPI POP JUMP JUMPDEST PUSH1 0x84 SWAP1 PUSH1 0x40 MLOAD SWAP1 PUSH3 0x461BCD PUSH1 0xE5 SHL DUP3 MSTORE PUSH1 0x4 DUP3 ADD MSTORE PUSH1 0x2A PUSH1 0x24 DUP3 ADD MSTORE PUSH32 0x5361666545524332303A204552433230206F7065726174696F6E20646964206E PUSH1 0x44 DUP3 ADD MSTORE PUSH10 0x1BDD081CDD58D8D95959 PUSH1 0xB2 SHL PUSH1 0x64 DUP3 ADD MSTORE REVERT JUMPDEST SWAP2 SWAP4 DUP2 DUP1 SWAP5 POP ADD SUB SLT PUSH2 0x13F JUMPI DUP3 ADD MLOAD SWAP1 DUP2 ISZERO ISZERO DUP3 SUB PUSH2 0x772 JUMPI POP DUP1 CODESIZE DUP1 DUP5 PUSH2 0xF2A JUMP JUMPDEST PUSH4 0x4E487B71 PUSH1 0xE0 SHL DUP6 MSTORE PUSH1 0x41 PUSH1 0x4 MSTORE PUSH1 0x24 DUP6 REVERT JUMPDEST SWAP1 PUSH2 0xF1C SWAP4 SWAP3 POP PUSH1 0x60 SWAP2 JUMPDEST SWAP2 SWAP3 SWAP1 ISZERO PUSH2 0x1033 JUMPI POP DUP2 MLOAD ISZERO PUSH2 0xFE5 JUMPI POP SWAP1 JUMP JUMPDEST EXTCODESIZE ISZERO PUSH2 0xFEE JUMPI SWAP1 JUMP JUMPDEST PUSH1 0x40 MLOAD PUSH3 0x461BCD PUSH1 0xE5 SHL DUP2 MSTORE PUSH1 0x20 PUSH1 0x4 DUP3 ADD MSTORE PUSH1 0x1D PUSH1 0x24 DUP3 ADD MSTORE PUSH32 0x416464726573733A2063616C6C20746F206E6F6E2D636F6E7472616374000000 PUSH1 0x44 DUP3 ADD MSTORE PUSH1 0x64 SWAP1 REVERT JUMPDEST DUP3 MLOAD SWAP1 SWAP2 POP ISZERO PUSH2 0x1046 JUMPI POP DUP1 MLOAD SWAP1 PUSH1 0x20 ADD REVERT JUMPDEST PUSH1 0x40 MLOAD SWAP1 PUSH3 0x461BCD PUSH1 0xE5 SHL DUP3 MSTORE DUP2 PUSH1 0x20 DUP1 PUSH1 0x4 DUP4 ADD MSTORE DUP3 MLOAD SWAP1 DUP2 PUSH1 0x24 DUP5 ADD MSTORE PUSH1 0x0 SWAP4 JUMPDEST DUP3 DUP6 LT PUSH2 0x108C JUMPI POP POP PUSH1 0x44 SWAP3 POP PUSH1 0x0 DUP4 DUP3 DUP5 ADD ADD MSTORE PUSH1 0x1F DUP1 NOT SWAP2 ADD AND DUP2 ADD SUB ADD SWAP1 REVERT JUMPDEST DUP5 DUP2 ADD DUP3 ADD MLOAD DUP7 DUP7 ADD PUSH1 0x44 ADD MSTORE SWAP4 DUP2 ADD SWAP4 DUP6 SWAP4 POP PUSH2 0x1069 JUMP JUMPDEST PUSH1 0x40 MLOAD PUSH4 0xA9059CBB PUSH1 0xE0 SHL PUSH1 0x20 DUP3 ADD MSTORE PUSH1 0x1 PUSH1 0x1 PUSH1 0xA0 SHL SUB SWAP1 SWAP3 AND PUSH1 0x24 DUP4 ADD MSTORE PUSH1 0x44 DUP3 ADD SWAP3 SWAP1 SWAP3 MSTORE PUSH2 0xD96 SWAP2 PUSH2 0xD91 DUP3 PUSH1 0x64 DUP2 ADD PUSH2 0xD83 JUMP JUMPDEST PUSH1 0x1 DUP1 PUSH1 0xA0 SHL SUB DUP1 PUSH1 0x0 SWAP3 AND DUP3 MSTORE PUSH1 0x8 PUSH1 0x20 MSTORE PUSH1 0x40 DUP3 KECCAK256 SWAP1 DUP2 SLOAD DUP1 ISZERO SWAP3 DUP4 ISZERO DUP1 PUSH2 0x1262 JUMPI JUMPDEST PUSH2 0x110F JUMPI JUMPDEST POP POP POP POP POP JUMP JUMPDEST PUSH1 0x2 DUP2 ADD SWAP2 PUSH2 0x111F DUP4 SLOAD TIMESTAMP PUSH2 0xCD6 JUMP JUMPDEST SWAP1 PUSH3 0x15180 SWAP6 DUP7 DUP4 LT ISZERO PUSH2 0x1136 JUMPI JUMPDEST POP POP POP PUSH2 0x1108 JUMP JUMPDEST PUSH1 0x64 DUP3 MUL SWAP2 DUP3 DIV PUSH1 0x64 EQ OR ISZERO PUSH2 0x124E JUMPI PUSH2 0x1176 PUSH2 0x1180 SWAP3 PUSH2 0x1160 PUSH1 0x3 SWAP4 PUSH2 0x2710 SWAP10 DUP11 SWAP4 DIV SWAP1 PUSH2 0xCAD JUMP JUMPDEST DIV SWAP7 PUSH2 0x116E PUSH1 0x7 SLOAD DUP10 PUSH2 0xCAD JUMP JUMPDEST DIV DUP1 SWAP8 PUSH2 0xCD6 JUMP JUMPDEST SWAP3 ADD SWAP2 DUP3 SLOAD PUSH2 0xD2F JUMP JUMPDEST SWAP1 SSTORE TIMESTAMP SWAP1 SSTORE DUP2 ISZERO ISZERO DUP1 PUSH2 0x1241 JUMPI JUMPDEST PUSH2 0x119D JUMPI JUMPDEST DUP1 DUP1 DUP1 DUP1 DUP1 PUSH2 0x112E JUMP JUMPDEST PUSH32 0x0 SWAP1 PUSH2 0x11CE DUP4 DUP3 PUSH1 0x2 SLOAD AND DUP5 PUSH2 0xD3C JUMP JUMPDEST DUP1 PUSH1 0x2 SLOAD AND SWAP2 DUP3 EXTCODESIZE ISZERO PUSH2 0x230 JUMPI PUSH1 0x40 MLOAD PUSH4 0x48FEF595 PUSH1 0xE0 SHL DUP2 MSTORE SWAP2 AND PUSH1 0x1 PUSH1 0x1 PUSH1 0xA0 SHL SUB AND PUSH1 0x4 DUP3 ADD MSTORE PUSH1 0x24 DUP2 ADD SWAP3 SWAP1 SWAP3 MSTORE SWAP1 SWAP2 SWAP1 DUP2 SWAP1 DUP4 SWAP1 DUP2 DUP4 DUP2 PUSH1 0x44 DUP2 ADD SUB SWAP3 GAS CALL SWAP1 DUP2 ISZERO PUSH2 0x1235 JUMPI POP PUSH2 0x1226 JUMPI JUMPDEST DUP1 DUP1 PUSH2 0x1193 JUMP JUMPDEST PUSH2 0x122F SWAP1 PUSH2 0xCE3 JUMP JUMPDEST CODESIZE PUSH2 0x121F JUMP JUMPDEST PUSH1 0x40 MLOAD SWAP1 RETURNDATASIZE SWAP1 DUP3 RETURNDATACOPY RETURNDATASIZE SWAP1 REVERT JUMPDEST POP DUP1 PUSH1 0x2 SLOAD AND ISZERO ISZERO PUSH2 0x118E JUMP JUMPDEST PUSH4 0x4E487B71 PUSH1 0xE0 SHL DUP8 MSTORE PUSH1 0x11 PUSH1 0x4 MSTORE PUSH1 0x24 DUP8 REVERT JUMPDEST POP PUSH1 0x2 DUP2 ADD SLOAD ISZERO ISZERO PUSH2 0x1103 JUMP JUMPDEST MLOAD SWAP1 PUSH1 0x1 PUSH1 0x1 PUSH1 0xA0 SHL SUB DUP3 AND DUP3 SUB PUSH2 0x1283 JUMPI JUMP JUMPDEST PUSH1 0x0 DUP1 REVERT JUMPDEST PUSH8 0xFFFFFFFFFFFFFFFF DUP2 GT PUSH2 0xCF7 JUMPI PUSH1 0x5 SHL PUSH1 0x20 ADD SWAP1 JUMP INVALID LOG2 PUSH5 0x6970667358 0x22 SLT KECCAK256 SWAP3 0xA8 0xA9 BALANCE SHR RETURNDATACOPY PUSH5 0x4B992AF3EE 0xD9 PUSH28 0x75C56D13BB8219C3DCE5B406565B26A45DC764736F6C634300081400 CALLER "},"methodIdentifiers":{"COMPOUND_INTERVAL()":"d9bade8f","INTEREST_RATE_BPS()":"9bd344e5","MAX_BPS()":"fd967f47","claimRewards()":"372500ab","deposit(uint256)":"b6b55f25","depositFeeBP()":"54747a70","emergencyWithdraw(uint256)":"5312ea8e","feeDistributor()":"0d43e8ad","getUserInfo(address)":"6386c1c7","owner()":"8da5cb5b","performanceFeeBP()":"5c6a4b23","referral()":"1441a5a9","renounceOwnership()":"715018a6","setDepositFeeBP(uint256)":"960ea6d1","setPerformanceFeeBP(uint256)":"cccfe394","sweep()":"35faa416","totalDeposited()":"ff50abdc","totalRewardsDistributed()":"ee172546","totalWithdrawn()":"4b319713","transferOwnership(address)":"f2fde38b","usdt()":"2f48ab7d","userInfo(address)":"1959a002","withdraw(uint256)":"2e1a7d4d"}}}}}