{"contracts/ConfigV3.sol":{"ConfigV3":{"abi":[{"inputs":[{"internalType":"address","name":"_owner","type":"address"}],"stateMutability":"nonpayable","type":"constructor"},{"anonymous":false,"inputs":[{"indexed":false,"internalType":"address","name":"feeDistributor","type":"address"}],"name":"FeeDistributorUpdated","type":"event"},{"anonymous":false,"inputs":[{"indexed":false,"internalType":"uint256","name":"depositFee","type":"uint256"},{"indexed":false,"internalType":"uint256","name":"performanceFee","type":"uint256"},{"indexed":false,"internalType":"uint256","name":"managementFee","type":"uint256"},{"indexed":false,"internalType":"uint256","name":"withdrawalFee","type":"uint256"}],"name":"FeesUpdated","type":"event"},{"anonymous":false,"inputs":[{"indexed":false,"internalType":"address","name":"manager","type":"address"}],"name":"LocalStrategyManagerUpdated","type":"event"},{"anonymous":false,"inputs":[{"indexed":true,"internalType":"address","name":"previousOwner","type":"address"},{"indexed":true,"internalType":"address","name":"newOwner","type":"address"}],"name":"OwnershipTransferred","type":"event"},{"anonymous":false,"inputs":[{"indexed":false,"internalType":"address","name":"referral","type":"address"}],"name":"ReferralUpdated","type":"event"},{"anonymous":false,"inputs":[{"indexed":false,"internalType":"address","name":"vault","type":"address"}],"name":"VaultUpdated","type":"event"},{"inputs":[],"name":"depositFeeBP","outputs":[{"internalType":"uint256","name":"","type":"uint256"}],"stateMutability":"view","type":"function"},{"inputs":[],"name":"feeDistributor","outputs":[{"internalType":"address","name":"","type":"address"}],"stateMutability":"view","type":"function"},{"inputs":[],"name":"localStrategyManager","outputs":[{"internalType":"address","name":"","type":"address"}],"stateMutability":"view","type":"function"},{"inputs":[],"name":"managementFeeBP","outputs":[{"internalType":"uint256","name":"","type":"uint256"}],"stateMutability":"view","type":"function"},{"inputs":[],"name":"owner","outputs":[{"internalType":"address","name":"","type":"address"}],"stateMutability":"view","type":"function"},{"inputs":[],"name":"performanceFeeBP","outputs":[{"internalType":"uint256","name":"","type":"uint256"}],"stateMutability":"view","type":"function"},{"inputs":[],"name":"referral","outputs":[{"internalType":"address","name":"","type":"address"}],"stateMutability":"view","type":"function"},{"inputs":[],"name":"renounceOwnership","outputs":[],"stateMutability":"nonpayable","type":"function"},{"inputs":[{"internalType":"address","name":"_feeDistributor","type":"address"}],"name":"setFeeDistributor","outputs":[],"stateMutability":"nonpayable","type":"function"},{"inputs":[{"internalType":"uint256","name":"_depositFeeBP","type":"uint256"},{"internalType":"uint256","name":"_performanceFeeBP","type":"uint256"},{"internalType":"uint256","name":"_managementFeeBP","type":"uint256"},{"internalType":"uint256","name":"_withdrawalFeeBP","type":"uint256"}],"name":"setFees","outputs":[],"stateMutability":"nonpayable","type":"function"},{"inputs":[{"internalType":"address","name":"_manager","type":"address"}],"name":"setLocalStrategyManager","outputs":[],"stateMutability":"nonpayable","type":"function"},{"inputs":[{"internalType":"address","name":"_referral","type":"address"}],"name":"setReferral","outputs":[],"stateMutability":"nonpayable","type":"function"},{"inputs":[{"internalType":"address","name":"_vault","type":"address"}],"name":"setVault","outputs":[],"stateMutability":"nonpayable","type":"function"},{"inputs":[{"internalType":"address","name":"newOwner","type":"address"}],"name":"transferOwnership","outputs":[],"stateMutability":"nonpayable","type":"function"},{"inputs":[],"name":"vault","outputs":[{"internalType":"address","name":"","type":"address"}],"stateMutability":"view","type":"function"},{"inputs":[],"name":"withdrawalFeeBP","outputs":[{"internalType":"uint256","name":"","type":"uint256"}],"stateMutability":"view","type":"function"}],"evm":{"bytecode":{"linkReferences":{},"object":"60803461008657601f61080038819003918201601f19168301916001600160401b0383118484101761008b5780849260209460405283398101031261008657516001600160a01b0381168103610086576100779061005c336100a1565b6101f46001556107d060025560c860035560006004556100a1565b60405161071790816100e98239f35b600080fd5b634e487b7160e01b600052604160045260246000fd5b600080546001600160a01b039283166001600160a01b03198216811783559216907f8be0079c531659141344cd1fd0a4f28419497f9722a3daafe3b4186f6b6457e09080a356fe608060408181526004918236101561001657600080fd5b600092833560e01c9182630d43e8ad14610664575081631441a5a91461063b5781631481ed0f1461061c57816354747a70146105fd5781635c6a4b23146105de5781636817031b146105705781636fcba377146103e5578163715018a6146103885781637f67eec41461031a5781638da5cb5b146102f25781639e5914da14610284578163ae3bc86614610266578163ccfc2e8d146101f8578163ef5e20af146101cf578163f2fde38b14610100575063fbfa77cf146100d557600080fd5b346100fc57816003193601126100fc5760055490516001600160a01b039091168152602090f35b5080fd5b919050346101cb5760203660031901126101cb576001600160a01b038235818116939192908490036101c757610134610689565b831561017557505082546001600160a01b0319811683178455167f8be0079c531659141344cd1fd0a4f28419497f9722a3daafe3b4186f6b6457e08380a380f35b906020608492519162461bcd60e51b8352820152602660248201527f4f776e61626c653a206e6577206f776e657220697320746865207a65726f206160448201526564647265737360d01b6064820152fd5b8480fd5b8280fd5b5050346100fc57816003193601126100fc5760085490516001600160a01b039091168152602090f35b9050346101cb5760203660031901126101cb57356001600160a01b03811691908290036101cb577f98b244c47458fedc88c0cf9958073e565e971d8ae9d8d1c50dfc6920fe939cbb9160209161024c610689565b600780546001600160a01b0319168317905551908152a180f35b9050346101cb57826003193601126101cb5760209250549051908152f35b9050346101cb5760203660031901126101cb57356001600160a01b03811691908290036101cb577f5e71a15d1be6f162dc632909413dea6eb05ec443222493a0709e7ce488ee2467916020916102d8610689565b600680546001600160a01b0319168317905551908152a180f35b5050346100fc57816003193601126100fc57905490516001600160a01b039091168152602090f35b9050346101cb5760203660031901126101cb57356001600160a01b03811691908290036101cb577f66ca2681bf6749ccc2636f61828e3a09a0350ee2c86c114e7c3cc3440c46bf679160209161036e610689565b600880546001600160a01b0319168317905551908152a180f35b83346103e257806003193601126103e2576103a1610689565b80546001600160a01b03198116825581906001600160a01b03167f8be0079c531659141344cd1fd0a4f28419497f9722a3daafe3b4186f6b6457e08280a380f35b80fd5b839150346100fc5760803660031901126100fc57803590602435604435906064359261040f610689565b6103e8851161053757610bb882116104f4576101f48084116104b957841161047e579186849260809587957f16e6f67290546b8dd0e587f4b7f67d4f61932ae17ffd8c60d3509dbc05c175fe98600155826002558460035555815194855260208501528301526060820152a180f35b606490602088519162461bcd60e51b835282015260156024820152745769746864726177616c20666565206d617820352560581b6044820152fd5b875162461bcd60e51b815260208184015260156024820152744d616e6167656d656e7420666565206d617820352560581b6044820152606490fd5b606490602088519162461bcd60e51b8352820152601760248201527f506572666f726d616e636520666565206d6178203330250000000000000000006044820152fd5b606490602088519162461bcd60e51b835282015260136024820152724465706f73697420666565206d61782031302560681b6044820152fd5b9050346101cb5760203660031901126101cb57356001600160a01b03811691908290036101cb577f161584aed96e7f34998117c9ad67e2d21ff46d2a42775c22b11ed282f3c7b2cd916020916105c4610689565b600580546001600160a01b0319168317905551908152a180f35b5050346100fc57816003193601126100fc576020906002549051908152f35b5050346100fc57816003193601126100fc576020906001549051908152f35b5050346100fc57816003193601126100fc576020906003549051908152f35b5050346100fc57816003193601126100fc5760065490516001600160a01b039091168152602090f35b8490346100fc57816003193601126100fc576007546001600160a01b03168152602090f35b6000546001600160a01b0316330361069d57565b606460405162461bcd60e51b815260206004820152602060248201527f4f776e61626c653a2063616c6c6572206973206e6f7420746865206f776e65726044820152fdfea2646970667358221220ba7cc23bffe442a3049a1e9963fb281ee5472893ddc3328a8b9c78172977ba5e64736f6c63430008140033","opcodes":"PUSH1 0x80 CALLVALUE PUSH2 0x86 JUMPI PUSH1 0x1F PUSH2 0x800 CODESIZE DUP2 SWAP1 SUB SWAP2 DUP3 ADD PUSH1 0x1F NOT AND DUP4 ADD SWAP2 PUSH1 0x1 PUSH1 0x1 PUSH1 0x40 SHL SUB DUP4 GT DUP5 DUP5 LT OR PUSH2 0x8B JUMPI DUP1 DUP5 SWAP3 PUSH1 0x20 SWAP5 PUSH1 0x40 MSTORE DUP4 CODECOPY DUP2 ADD SUB SLT PUSH2 0x86 JUMPI MLOAD PUSH1 0x1 PUSH1 0x1 PUSH1 0xA0 SHL SUB DUP2 AND DUP2 SUB PUSH2 0x86 JUMPI PUSH2 0x77 SWAP1 PUSH2 0x5C CALLER PUSH2 0xA1 JUMP JUMPDEST PUSH2 0x1F4 PUSH1 0x1 SSTORE PUSH2 0x7D0 PUSH1 0x2 SSTORE PUSH1 0xC8 PUSH1 0x3 SSTORE PUSH1 0x0 PUSH1 0x4 SSTORE PUSH2 0xA1 JUMP JUMPDEST PUSH1 0x40 MLOAD PUSH2 0x717 SWAP1 DUP2 PUSH2 0xE9 DUP3 CODECOPY RETURN JUMPDEST PUSH1 0x0 DUP1 REVERT JUMPDEST PUSH4 0x4E487B71 PUSH1 0xE0 SHL PUSH1 0x0 MSTORE PUSH1 0x41 PUSH1 0x4 MSTORE PUSH1 0x24 PUSH1 0x0 REVERT JUMPDEST PUSH1 0x0 DUP1 SLOAD PUSH1 0x1 PUSH1 0x1 PUSH1 0xA0 SHL SUB SWAP3 DUP4 AND PUSH1 0x1 PUSH1 0x1 PUSH1 0xA0 SHL SUB NOT DUP3 AND DUP2 OR DUP4 SSTORE SWAP3 AND SWAP1 PUSH32 0x8BE0079C531659141344CD1FD0A4F28419497F9722A3DAAFE3B4186F6B6457E0 SWAP1 DUP1 LOG3 JUMP INVALID PUSH1 0x80 PUSH1 0x40 DUP2 DUP2 MSTORE PUSH1 0x4 SWAP2 DUP3 CALLDATASIZE LT ISZERO PUSH2 0x16 JUMPI PUSH1 0x0 DUP1 REVERT JUMPDEST PUSH1 0x0 SWAP3 DUP4 CALLDATALOAD PUSH1 0xE0 SHR SWAP2 DUP3 PUSH4 0xD43E8AD EQ PUSH2 0x664 JUMPI POP DUP2 PUSH4 0x1441A5A9 EQ PUSH2 0x63B JUMPI DUP2 PUSH4 0x1481ED0F EQ PUSH2 0x61C JUMPI DUP2 PUSH4 0x54747A70 EQ PUSH2 0x5FD JUMPI DUP2 PUSH4 0x5C6A4B23 EQ PUSH2 0x5DE JUMPI DUP2 PUSH4 0x6817031B EQ PUSH2 0x570 JUMPI DUP2 PUSH4 0x6FCBA377 EQ PUSH2 0x3E5 JUMPI DUP2 PUSH4 0x715018A6 EQ PUSH2 0x388 JUMPI DUP2 PUSH4 0x7F67EEC4 EQ PUSH2 0x31A JUMPI DUP2 PUSH4 0x8DA5CB5B EQ PUSH2 0x2F2 JUMPI DUP2 PUSH4 0x9E5914DA EQ PUSH2 0x284 JUMPI DUP2 PUSH4 0xAE3BC866 EQ PUSH2 0x266 JUMPI DUP2 PUSH4 0xCCFC2E8D EQ PUSH2 0x1F8 JUMPI DUP2 PUSH4 0xEF5E20AF EQ PUSH2 0x1CF JUMPI DUP2 PUSH4 0xF2FDE38B EQ PUSH2 0x100 JUMPI POP PUSH4 0xFBFA77CF EQ PUSH2 0xD5 JUMPI PUSH1 0x0 DUP1 REVERT JUMPDEST CALLVALUE PUSH2 0xFC JUMPI DUP2 PUSH1 0x3 NOT CALLDATASIZE ADD SLT PUSH2 0xFC JUMPI PUSH1 0x5 SLOAD SWAP1 MLOAD PUSH1 0x1 PUSH1 0x1 PUSH1 0xA0 SHL SUB SWAP1 SWAP2 AND DUP2 MSTORE PUSH1 0x20 SWAP1 RETURN JUMPDEST POP DUP1 REVERT JUMPDEST SWAP2 SWAP1 POP CALLVALUE PUSH2 0x1CB JUMPI PUSH1 0x20 CALLDATASIZE PUSH1 0x3 NOT ADD SLT PUSH2 0x1CB JUMPI PUSH1 0x1 PUSH1 0x1 PUSH1 0xA0 SHL SUB DUP3 CALLDATALOAD DUP2 DUP2 AND SWAP4 SWAP2 SWAP3 SWAP1 DUP5 SWAP1 SUB PUSH2 0x1C7 JUMPI PUSH2 0x134 PUSH2 0x689 JUMP JUMPDEST DUP4 ISZERO PUSH2 0x175 JUMPI POP POP DUP3 SLOAD PUSH1 0x1 PUSH1 0x1 PUSH1 0xA0 SHL SUB NOT DUP2 AND DUP4 OR DUP5 SSTORE AND PUSH32 0x8BE0079C531659141344CD1FD0A4F28419497F9722A3DAAFE3B4186F6B6457E0 DUP4 DUP1 LOG3 DUP1 RETURN JUMPDEST SWAP1 PUSH1 0x20 PUSH1 0x84 SWAP3 MLOAD SWAP2 PUSH3 0x461BCD PUSH1 0xE5 SHL DUP4 MSTORE DUP3 ADD MSTORE PUSH1 0x26 PUSH1 0x24 DUP3 ADD MSTORE PUSH32 0x4F776E61626C653A206E6577206F776E657220697320746865207A65726F2061 PUSH1 0x44 DUP3 ADD MSTORE PUSH6 0x646472657373 PUSH1 0xD0 SHL PUSH1 0x64 DUP3 ADD MSTORE REVERT JUMPDEST DUP5 DUP1 REVERT JUMPDEST DUP3 DUP1 REVERT JUMPDEST POP POP CALLVALUE PUSH2 0xFC JUMPI DUP2 PUSH1 0x3 NOT CALLDATASIZE ADD SLT PUSH2 0xFC JUMPI PUSH1 0x8 SLOAD SWAP1 MLOAD PUSH1 0x1 PUSH1 0x1 PUSH1 0xA0 SHL SUB SWAP1 SWAP2 AND DUP2 MSTORE PUSH1 0x20 SWAP1 RETURN JUMPDEST SWAP1 POP CALLVALUE PUSH2 0x1CB JUMPI PUSH1 0x20 CALLDATASIZE PUSH1 0x3 NOT ADD SLT PUSH2 0x1CB JUMPI CALLDATALOAD PUSH1 0x1 PUSH1 0x1 PUSH1 0xA0 SHL SUB DUP2 AND SWAP2 SWAP1 DUP3 SWAP1 SUB PUSH2 0x1CB JUMPI PUSH32 0x98B244C47458FEDC88C0CF9958073E565E971D8AE9D8D1C50DFC6920FE939CBB SWAP2 PUSH1 0x20 SWAP2 PUSH2 0x24C PUSH2 0x689 JUMP JUMPDEST PUSH1 0x7 DUP1 SLOAD PUSH1 0x1 PUSH1 0x1 PUSH1 0xA0 SHL SUB NOT AND DUP4 OR SWAP1 SSTORE MLOAD SWAP1 DUP2 MSTORE LOG1 DUP1 RETURN JUMPDEST SWAP1 POP CALLVALUE PUSH2 0x1CB JUMPI DUP3 PUSH1 0x3 NOT CALLDATASIZE ADD SLT PUSH2 0x1CB JUMPI PUSH1 0x20 SWAP3 POP SLOAD SWAP1 MLOAD SWAP1 DUP2 MSTORE RETURN JUMPDEST SWAP1 POP CALLVALUE PUSH2 0x1CB JUMPI PUSH1 0x20 CALLDATASIZE PUSH1 0x3 NOT ADD SLT PUSH2 0x1CB JUMPI CALLDATALOAD PUSH1 0x1 PUSH1 0x1 PUSH1 0xA0 SHL SUB DUP2 AND SWAP2 SWAP1 DUP3 SWAP1 SUB PUSH2 0x1CB JUMPI PUSH32 0x5E71A15D1BE6F162DC632909413DEA6EB05EC443222493A0709E7CE488EE2467 SWAP2 PUSH1 0x20 SWAP2 PUSH2 0x2D8 PUSH2 0x689 JUMP JUMPDEST PUSH1 0x6 DUP1 SLOAD PUSH1 0x1 PUSH1 0x1 PUSH1 0xA0 SHL SUB NOT AND DUP4 OR SWAP1 SSTORE MLOAD SWAP1 DUP2 MSTORE LOG1 DUP1 RETURN JUMPDEST POP POP CALLVALUE PUSH2 0xFC JUMPI DUP2 PUSH1 0x3 NOT CALLDATASIZE ADD SLT PUSH2 0xFC JUMPI SWAP1 SLOAD SWAP1 MLOAD PUSH1 0x1 PUSH1 0x1 PUSH1 0xA0 SHL SUB SWAP1 SWAP2 AND DUP2 MSTORE PUSH1 0x20 SWAP1 RETURN JUMPDEST SWAP1 POP CALLVALUE PUSH2 0x1CB JUMPI PUSH1 0x20 CALLDATASIZE PUSH1 0x3 NOT ADD SLT PUSH2 0x1CB JUMPI CALLDATALOAD PUSH1 0x1 PUSH1 0x1 PUSH1 0xA0 SHL SUB DUP2 AND SWAP2 SWAP1 DUP3 SWAP1 SUB PUSH2 0x1CB JUMPI PUSH32 0x66CA2681BF6749CCC2636F61828E3A09A0350EE2C86C114E7C3CC3440C46BF67 SWAP2 PUSH1 0x20 SWAP2 PUSH2 0x36E PUSH2 0x689 JUMP JUMPDEST PUSH1 0x8 DUP1 SLOAD PUSH1 0x1 PUSH1 0x1 PUSH1 0xA0 SHL SUB NOT AND DUP4 OR SWAP1 SSTORE MLOAD SWAP1 DUP2 MSTORE LOG1 DUP1 RETURN JUMPDEST DUP4 CALLVALUE PUSH2 0x3E2 JUMPI DUP1 PUSH1 0x3 NOT CALLDATASIZE ADD SLT PUSH2 0x3E2 JUMPI PUSH2 0x3A1 PUSH2 0x689 JUMP JUMPDEST DUP1 SLOAD PUSH1 0x1 PUSH1 0x1 PUSH1 0xA0 SHL SUB NOT DUP2 AND DUP3 SSTORE DUP2 SWAP1 PUSH1 0x1 PUSH1 0x1 PUSH1 0xA0 SHL SUB AND PUSH32 0x8BE0079C531659141344CD1FD0A4F28419497F9722A3DAAFE3B4186F6B6457E0 DUP3 DUP1 LOG3 DUP1 RETURN JUMPDEST DUP1 REVERT JUMPDEST DUP4 SWAP2 POP CALLVALUE PUSH2 0xFC JUMPI PUSH1 0x80 CALLDATASIZE PUSH1 0x3 NOT ADD SLT PUSH2 0xFC JUMPI DUP1 CALLDATALOAD SWAP1 PUSH1 0x24 CALLDATALOAD PUSH1 0x44 CALLDATALOAD SWAP1 PUSH1 0x64 CALLDATALOAD SWAP3 PUSH2 0x40F PUSH2 0x689 JUMP JUMPDEST PUSH2 0x3E8 DUP6 GT PUSH2 0x537 JUMPI PUSH2 0xBB8 DUP3 GT PUSH2 0x4F4 JUMPI PUSH2 0x1F4 DUP1 DUP5 GT PUSH2 0x4B9 JUMPI DUP5 GT PUSH2 0x47E JUMPI SWAP2 DUP7 DUP5 SWAP3 PUSH1 0x80 SWAP6 DUP8 SWAP6 PUSH32 0x16E6F67290546B8DD0E587F4B7F67D4F61932AE17FFD8C60D3509DBC05C175FE SWAP9 PUSH1 0x1 SSTORE DUP3 PUSH1 0x2 SSTORE DUP5 PUSH1 0x3 SSTORE SSTORE DUP2 MLOAD SWAP5 DUP6 MSTORE PUSH1 0x20 DUP6 ADD MSTORE DUP4 ADD MSTORE PUSH1 0x60 DUP3 ADD MSTORE LOG1 DUP1 RETURN JUMPDEST PUSH1 0x64 SWAP1 PUSH1 0x20 DUP9 MLOAD SWAP2 PUSH3 0x461BCD PUSH1 0xE5 SHL DUP4 MSTORE DUP3 ADD MSTORE PUSH1 0x15 PUSH1 0x24 DUP3 ADD MSTORE PUSH21 0x5769746864726177616C20666565206D6178203525 PUSH1 0x58 SHL PUSH1 0x44 DUP3 ADD MSTORE REVERT JUMPDEST DUP8 MLOAD PUSH3 0x461BCD PUSH1 0xE5 SHL DUP2 MSTORE PUSH1 0x20 DUP2 DUP5 ADD MSTORE PUSH1 0x15 PUSH1 0x24 DUP3 ADD MSTORE PUSH21 0x4D616E6167656D656E7420666565206D6178203525 PUSH1 0x58 SHL PUSH1 0x44 DUP3 ADD MSTORE PUSH1 0x64 SWAP1 REVERT JUMPDEST PUSH1 0x64 SWAP1 PUSH1 0x20 DUP9 MLOAD SWAP2 PUSH3 0x461BCD PUSH1 0xE5 SHL DUP4 MSTORE DUP3 ADD MSTORE PUSH1 0x17 PUSH1 0x24 DUP3 ADD MSTORE PUSH32 0x506572666F726D616E636520666565206D617820333025000000000000000000 PUSH1 0x44 DUP3 ADD MSTORE REVERT JUMPDEST PUSH1 0x64 SWAP1 PUSH1 0x20 DUP9 MLOAD SWAP2 PUSH3 0x461BCD PUSH1 0xE5 SHL DUP4 MSTORE DUP3 ADD MSTORE PUSH1 0x13 PUSH1 0x24 DUP3 ADD MSTORE PUSH19 0x4465706F73697420666565206D617820313025 PUSH1 0x68 SHL PUSH1 0x44 DUP3 ADD MSTORE REVERT JUMPDEST SWAP1 POP CALLVALUE PUSH2 0x1CB JUMPI PUSH1 0x20 CALLDATASIZE PUSH1 0x3 NOT ADD SLT PUSH2 0x1CB JUMPI CALLDATALOAD PUSH1 0x1 PUSH1 0x1 PUSH1 0xA0 SHL SUB DUP2 AND SWAP2 SWAP1 DUP3 SWAP1 SUB PUSH2 0x1CB JUMPI PUSH32 0x161584AED96E7F34998117C9AD67E2D21FF46D2A42775C22B11ED282F3C7B2CD SWAP2 PUSH1 0x20 SWAP2 PUSH2 0x5C4 PUSH2 0x689 JUMP JUMPDEST PUSH1 0x5 DUP1 SLOAD PUSH1 0x1 PUSH1 0x1 PUSH1 0xA0 SHL SUB NOT AND DUP4 OR SWAP1 SSTORE MLOAD SWAP1 DUP2 MSTORE LOG1 DUP1 RETURN JUMPDEST POP POP CALLVALUE PUSH2 0xFC JUMPI DUP2 PUSH1 0x3 NOT CALLDATASIZE ADD SLT PUSH2 0xFC JUMPI PUSH1 0x20 SWAP1 PUSH1 0x2 SLOAD SWAP1 MLOAD SWAP1 DUP2 MSTORE RETURN JUMPDEST POP POP CALLVALUE PUSH2 0xFC JUMPI DUP2 PUSH1 0x3 NOT CALLDATASIZE ADD SLT PUSH2 0xFC JUMPI PUSH1 0x20 SWAP1 PUSH1 0x1 SLOAD SWAP1 MLOAD SWAP1 DUP2 MSTORE RETURN JUMPDEST POP POP CALLVALUE PUSH2 0xFC JUMPI DUP2 PUSH1 0x3 NOT CALLDATASIZE ADD SLT PUSH2 0xFC JUMPI PUSH1 0x20 SWAP1 PUSH1 0x3 SLOAD SWAP1 MLOAD SWAP1 DUP2 MSTORE RETURN JUMPDEST POP POP CALLVALUE PUSH2 0xFC JUMPI DUP2 PUSH1 0x3 NOT CALLDATASIZE ADD SLT PUSH2 0xFC JUMPI PUSH1 0x6 SLOAD SWAP1 MLOAD PUSH1 0x1 PUSH1 0x1 PUSH1 0xA0 SHL SUB SWAP1 SWAP2 AND DUP2 MSTORE PUSH1 0x20 SWAP1 RETURN JUMPDEST DUP5 SWAP1 CALLVALUE PUSH2 0xFC JUMPI DUP2 PUSH1 0x3 NOT CALLDATASIZE ADD SLT PUSH2 0xFC JUMPI PUSH1 0x7 SLOAD PUSH1 0x1 PUSH1 0x1 PUSH1 0xA0 SHL SUB AND DUP2 MSTORE PUSH1 0x20 SWAP1 RETURN JUMPDEST PUSH1 0x0 SLOAD PUSH1 0x1 PUSH1 0x1 PUSH1 0xA0 SHL SUB AND CALLER SUB PUSH2 0x69D JUMPI JUMP JUMPDEST PUSH1 0x64 PUSH1 0x40 MLOAD PUSH3 0x461BCD PUSH1 0xE5 SHL DUP2 MSTORE PUSH1 0x20 PUSH1 0x4 DUP3 ADD MSTORE PUSH1 0x20 PUSH1 0x24 DUP3 ADD MSTORE PUSH32 0x4F776E61626C653A2063616C6C6572206973206E6F7420746865206F776E6572 PUSH1 0x44 DUP3 ADD MSTORE REVERT INVALID LOG2 PUSH5 0x6970667358 0x22 SLT KECCAK256 0xBA PUSH29 0xC23BFFE442A3049A1E9963FB281EE5472893DDC3328A8B9C78172977BA 0x5E PUSH5 0x736F6C6343 STOP ADDMOD EQ STOP CALLER "},"methodIdentifiers":{"depositFeeBP()":"54747a70","feeDistributor()":"0d43e8ad","localStrategyManager()":"ef5e20af","managementFeeBP()":"1481ed0f","owner()":"8da5cb5b","performanceFeeBP()":"5c6a4b23","referral()":"1441a5a9","renounceOwnership()":"715018a6","setFeeDistributor(address)":"ccfc2e8d","setFees(uint256,uint256,uint256,uint256)":"6fcba377","setLocalStrategyManager(address)":"7f67eec4","setReferral(address)":"9e5914da","setVault(address)":"6817031b","transferOwnership(address)":"f2fde38b","vault()":"fbfa77cf","withdrawalFeeBP()":"ae3bc866"}}}}}