{"contracts/YieldVaultV3.sol":{"YieldVaultV3":{"abi":[{"inputs":[{"internalType":"address","name":"_usdt","type":"address"},{"internalType":"address","name":"_owner","type":"address"},{"internalType":"string","name":"_name","type":"string"},{"internalType":"string","name":"_symbol","type":"string"}],"stateMutability":"nonpayable","type":"constructor"},{"anonymous":false,"inputs":[{"indexed":true,"internalType":"address","name":"sender","type":"address"},{"indexed":true,"internalType":"address","name":"owner","type":"address"},{"indexed":false,"internalType":"uint256","name":"assets","type":"uint256"},{"indexed":false,"internalType":"uint256","name":"shares","type":"uint256"}],"name":"Deposit","type":"event"},{"anonymous":false,"inputs":[{"indexed":true,"internalType":"address","name":"previousOwner","type":"address"},{"indexed":true,"internalType":"address","name":"newOwner","type":"address"}],"name":"OwnershipTransferred","type":"event"},{"anonymous":false,"inputs":[{"indexed":false,"internalType":"address","name":"account","type":"address"}],"name":"Paused","type":"event"},{"anonymous":false,"inputs":[{"indexed":false,"internalType":"address","name":"account","type":"address"}],"name":"Unpaused","type":"event"},{"anonymous":false,"inputs":[{"indexed":true,"internalType":"address","name":"sender","type":"address"},{"indexed":true,"internalType":"address","name":"receiver","type":"address"},{"indexed":true,"internalType":"address","name":"owner","type":"address"},{"indexed":false,"internalType":"uint256","name":"assets","type":"uint256"},{"indexed":false,"internalType":"uint256","name":"shares","type":"uint256"}],"name":"Withdraw","type":"event"},{"inputs":[],"name":"asset","outputs":[{"internalType":"address","name":"","type":"address"}],"stateMutability":"view","type":"function"},{"inputs":[{"internalType":"address","name":"","type":"address"}],"name":"balanceOf","outputs":[{"internalType":"uint256","name":"","type":"uint256"}],"stateMutability":"view","type":"function"},{"inputs":[],"name":"config","outputs":[{"internalType":"address","name":"","type":"address"}],"stateMutability":"view","type":"function"},{"inputs":[{"internalType":"uint256","name":"shares","type":"uint256"}],"name":"convertToAssets","outputs":[{"internalType":"uint256","name":"","type":"uint256"}],"stateMutability":"view","type":"function"},{"inputs":[{"internalType":"uint256","name":"assetsAmount","type":"uint256"}],"name":"convertToShares","outputs":[{"internalType":"uint256","name":"","type":"uint256"}],"stateMutability":"view","type":"function"},{"inputs":[{"internalType":"uint256","name":"assetsAmount","type":"uint256"},{"internalType":"address","name":"receiver","type":"address"}],"name":"deposit","outputs":[{"internalType":"uint256","name":"","type":"uint256"}],"stateMutability":"nonpayable","type":"function"},{"inputs":[],"name":"depositFeeBP","outputs":[{"internalType":"uint256","name":"","type":"uint256"}],"stateMutability":"view","type":"function"},{"inputs":[{"internalType":"uint256","name":"amount","type":"uint256"}],"name":"emergencyWithdraw","outputs":[],"stateMutability":"nonpayable","type":"function"},{"inputs":[],"name":"feeDistributor","outputs":[{"internalType":"address","name":"","type":"address"}],"stateMutability":"view","type":"function"},{"inputs":[],"name":"localStrategyManager","outputs":[{"internalType":"address","name":"","type":"address"}],"stateMutability":"view","type":"function"},{"inputs":[],"name":"managementFeeBP","outputs":[{"internalType":"uint256","name":"","type":"uint256"}],"stateMutability":"view","type":"function"},{"inputs":[],"name":"name","outputs":[{"internalType":"string","name":"","type":"string"}],"stateMutability":"view","type":"function"},{"inputs":[],"name":"owner","outputs":[{"internalType":"address","name":"","type":"address"}],"stateMutability":"view","type":"function"},{"inputs":[],"name":"pause","outputs":[],"stateMutability":"nonpayable","type":"function"},{"inputs":[],"name":"paused","outputs":[{"internalType":"bool","name":"","type":"bool"}],"stateMutability":"view","type":"function"},{"inputs":[],"name":"performanceFeeBP","outputs":[{"internalType":"uint256","name":"","type":"uint256"}],"stateMutability":"view","type":"function"},{"inputs":[],"name":"referralSystem","outputs":[{"internalType":"address","name":"","type":"address"}],"stateMutability":"view","type":"function"},{"inputs":[],"name":"renounceOwnership","outputs":[],"stateMutability":"nonpayable","type":"function"},{"inputs":[{"internalType":"address","name":"_config","type":"address"}],"name":"setConfig","outputs":[],"stateMutability":"nonpayable","type":"function"},{"inputs":[{"internalType":"address","name":"_feeDistributor","type":"address"}],"name":"setFeeDistributor","outputs":[],"stateMutability":"nonpayable","type":"function"},{"inputs":[{"internalType":"uint256","name":"_depositFeeBP","type":"uint256"},{"internalType":"uint256","name":"_performanceFeeBP","type":"uint256"},{"internalType":"uint256","name":"_managementFeeBP","type":"uint256"},{"internalType":"uint256","name":"_withdrawalFeeBP","type":"uint256"}],"name":"setFees","outputs":[],"stateMutability":"nonpayable","type":"function"},{"inputs":[{"internalType":"address","name":"_manager","type":"address"}],"name":"setLocalStrategyManager","outputs":[],"stateMutability":"nonpayable","type":"function"},{"inputs":[{"internalType":"address","name":"_referralSystem","type":"address"}],"name":"setReferralSystem","outputs":[],"stateMutability":"nonpayable","type":"function"},{"inputs":[],"name":"symbol","outputs":[{"internalType":"string","name":"","type":"string"}],"stateMutability":"view","type":"function"},{"inputs":[],"name":"totalAssets","outputs":[{"internalType":"uint256","name":"","type":"uint256"}],"stateMutability":"view","type":"function"},{"inputs":[],"name":"totalSupply","outputs":[{"internalType":"uint256","name":"","type":"uint256"}],"stateMutability":"view","type":"function"},{"inputs":[{"internalType":"address","name":"newOwner","type":"address"}],"name":"transferOwnership","outputs":[],"stateMutability":"nonpayable","type":"function"},{"inputs":[],"name":"unpause","outputs":[],"stateMutability":"nonpayable","type":"function"},{"inputs":[],"name":"usdtAsset","outputs":[{"internalType":"contract IERC20","name":"","type":"address"}],"stateMutability":"view","type":"function"},{"inputs":[{"internalType":"uint256","name":"shares","type":"uint256"},{"internalType":"address","name":"receiver","type":"address"},{"internalType":"address","name":"ownerAddr","type":"address"}],"name":"withdraw","outputs":[{"internalType":"uint256","name":"","type":"uint256"}],"stateMutability":"nonpayable","type":"function"},{"inputs":[],"name":"withdrawalFeeBP","outputs":[{"internalType":"uint256","name":"","type":"uint256"}],"stateMutability":"view","type":"function"}],"evm":{"bytecode":{"linkReferences":{},"object":"60a0604052346200039f576200182f803803806200001d81620003a4565b92833981016080828203126200039f576200003882620003e0565b9160209062000049828201620003e0565b604082015190936001600160401b039290918381116200039f578262000071918301620003f5565b9160608201518481116200039f576200008b9201620003f5565b620000963362000467565b6000805460ff60a01b1916815560018080556101f4600a556107d0600b5560c8600c55600d8290556001600160a01b0390971660805282518481116200038b57600254938885811c9516801562000380575b8786101462000287578190601f958681116200032c575b508790868311600114620002c6578492620002ba575b5050600019600383901b1c191690881b176002555b8151938411620002a65760039485548881811c911680156200029b575b8282101462000287578481116200023f575b5080938511600114620001d557506200018d969092849283620001c9575b50501b9160001990841b1c191617905562000467565b6040516113809081620004af8239608051818181610394015281816103fe0152818161095c01528181610b4c01528181610c210152610f150152f35b01519250388062000177565b9693929091601f1984169786845280842093905b89821062000227575050836200018d98106200020e575b505050811b01905562000467565b015160001983861b60f8161c1916905538808062000200565b808785968294968601518155019501930190620001e9565b8683528183208580880160051c8201928489106200027d575b0160051c019089905b8281106200027157505062000159565b84815501899062000261565b9250819262000258565b634e487b7160e01b83526022600452602483fd5b90607f169062000147565b634e487b7160e01b81526041600452602490fd5b01519050388062000115565b600285528885208b94509190601f198416865b8b828210620003155750508411620002fb575b505050811b016002556200012a565b015160001960f88460031b161c19169055388080620002ec565b8385015186558e97909501949384019301620002d9565b909150600284528784208680850160051c8201928a861062000376575b918c91869594930160051c01915b82811062000367575050620000ff565b8681558594508c910162000357565b9250819262000349565b94607f1694620000e8565b634e487b7160e01b82526041600452602482fd5b600080fd5b6040519190601f01601f191682016001600160401b03811183821017620003ca57604052565b634e487b7160e01b600052604160045260246000fd5b51906001600160a01b03821682036200039f57565b919080601f840112156200039f5782516001600160401b038111620003ca576020906200042b601f8201601f19168301620003a4565b928184528282870101116200039f5760005b8181106200045357508260009394955001015290565b85810183015184820184015282016200043d565b600080546001600160a01b039283166001600160a01b03198216811783559216907f8be0079c531659141344cd1fd0a4f28419497f9722a3daafe3b4186f6b6457e09080a356fe6040608081526004908136101561001557600080fd5b600091823560e01c806301e1d11414610dd357806306fdde0314610d1557806307a2d13a14610cf55780630d43e8ad14610ccc5780631481ed0f14610cad57806318160ddd14610c9057806320e3dbd414610c5057806338d52e0f14610c0c5780633c4f7ca114610c0c5780633f4ba83a14610b735780635312ea8e14610b1d57806354747a7014610afe5780635c6a4b2314610adf5780635c975abb14610aba5780636e553f65146109005780636fcba377146107b357806370a082311461077b578063715018a61461072157806379502c55146106f85780637f67eec4146106b85780638456cb59146106595780638da5cb5b1461063157806395d89b411461052f5780639a01126c146104ef578063a04e876c146104c6578063ae3bc866146104a7578063b460af94146102d2578063c6e6f592146102ab578063ccfc2e8d14610268578063ef5e20af1461023b5763f2fde38b1461017657600080fd5b346102375760203660031901126102375761018f610e71565b90610198610ea2565b6001600160a01b039182169283156101e557505082546001600160a01b0319811683178455167f8be0079c531659141344cd1fd0a4f28419497f9722a3daafe3b4186f6b6457e08380a380f35b906020608492519162461bcd60e51b8352820152602660248201527f4f776e61626c653a206e6577206f776e657220697320746865207a65726f206160448201526564647265737360d01b6064820152fd5b8280fd5b50503461026457816003193601126102645760085490516001600160a01b039091168152602090f35b5080fd5b83346102a85760203660031901126102a857610282610e71565b61028a610ea2565b60018060a01b03166001600160601b0360a01b600954161760095580f35b80fd5b5091346102a85760203660031901126102a857506102cb60209235610fd4565b9051908152f35b509190346102645760603660031901126102645782356102f0610e8c565b6001600160a01b036044358181169392908490036104a3576103106110a3565b61031b831515611022565b83865260209660058852838688205410610469578433036104355761033f84610fff565b908661035b612710610353600d5486610f8b565b048094611330565b9887815260058b522061036f868254611330565b905561037c858254611330565b905580151580610428575b6103f3575b506103b886827f00000000000000000000000000000000000000000000000000000000000000006110f9565b8451928684528784015216907ffbde797d201c681b91056529119e0b02407c7bb96a4a2c75c01fc9667232c8db843392a46001805551908152f35b6104229083600954167f00000000000000000000000000000000000000000000000000000000000000006110f9565b3861038c565b5082600954161515610387565b855162461bcd60e51b8152908101889052600e60248201526d139bdd08185d5d1a1bdc9a5e995960921b6044820152606490fd5b855162461bcd60e51b81529081018890526014602482015273496e73756666696369656e742062616c616e636560601b6044820152606490fd5b8580fd5b505034610264578160031936011261026457602090600d549051908152f35b50503461026457816003193601126102645760075490516001600160a01b039091168152602090f35b83346102a85760203660031901126102a857610509610e71565b610511610ea2565b60018060a01b03166001600160601b0360a01b600754161760075580f35b509034610237578260031936011261023757805191836003549060019082821c928281168015610627575b602095868610821461061457508488529081156105f25750600114610599575b610595868661058b828b0383610df0565b5191829182610e28565b0390f35b929550600383527fc2575a0e9e593c00f959f8c92f12db2869c3395a3b0502d05e2516446f71f85b5b8284106105df57505050826105959461058b92820101943861057a565b80548685018801529286019281016105c2565b60ff191687860152505050151560051b830101925061058b826105953861057a565b634e487b7160e01b845260229052602483fd5b93607f169361055a565b505034610264578160031936011261026457905490516001600160a01b039091168152602090f35b50503461026457816003193601126102645760207f62e78cea01bee320cd4e420270b5ea74000d11b0c9f74754ebdbfc544b05a25891610697610ea2565b61069f61105c565b835460ff60a01b1916600160a01b17845551338152a180f35b83346102a85760203660031901126102a8576106d2610e71565b6106da610ea2565b60018060a01b03166001600160601b0360a01b600854161760085580f35b50503461026457816003193601126102645760065490516001600160a01b039091168152602090f35b83346102a857806003193601126102a85761073a610ea2565b80546001600160a01b03198116825581906001600160a01b03167f8be0079c531659141344cd1fd0a4f28419497f9722a3daafe3b4186f6b6457e08280a380f35b5050346102645760203660031901126102645760209181906001600160a01b036107a3610e71565b1681526005845220549051908152f35b50346102375760803660031901126102375780356024359060443592606435946107db610ea2565b6103e883116108c757610bb88411610884576101f480861161084957861161080e575050600a55600b55600c55600d5580f35b906020606492519162461bcd60e51b835282015260156024820152745769746864726177616c20666565206d617820352560581b6044820152fd5b815162461bcd60e51b815260208185015260156024820152744d616e6167656d656e7420666565206d617820352560581b6044820152606490fd5b906020606492519162461bcd60e51b8352820152601760248201527f506572666f726d616e636520666565206d6178203330250000000000000000006044820152fd5b906020606492519162461bcd60e51b835282015260136024820152724465706f73697420666565206d61782031302560681b6044820152fd5b5091903461026457806003193601126102645782359161091e610e8c565b926109276110a3565b61092f61105c565b8015610a895761093e81610fd4565b9361094a851515611022565b612710610959600a5484610f8b565b047f00000000000000000000000000000000000000000000000000000000000000009085516323b872dd60e01b60208201523360248201523060448201528460648201526064815260a0810181811067ffffffffffffffff821117610a7657916109cc88949260209b969486528361114b565b80151580610a62575b610a43575b50506001600160a01b031680855260058852932080546109fb90879061133d565b9055610a0885825461133d565b9055825190815283858201527fdcbc1c05240f31ff3ad067ef1ee35ce4997762752e3a095284754544f4c709d7833392a36001805551908152f35b600954610a5b926001600160a01b03909116906110f9565b38806109da565b506009546001600160a01b031615156109d5565b634e487b7160e01b875260418a52602487fd5b825162461bcd60e51b8152602081870152600b60248201526a16995c9bc8185b5bdd5b9d60aa1b6044820152606490fd5b50503461026457816003193601126102645760ff6020925460a01c1690519015158152f35b505034610264578160031936011261026457602090600b549051908152f35b505034610264578160031936011261026457602090600a549051908152f35b83823461026457602036600319011261026457610b7090610b3c610ea2565b82549035906001600160a01b03167f00000000000000000000000000000000000000000000000000000000000000006110f9565b80f35b5034610237578260031936011261023757610b8c610ea2565b82549060ff8260a01c1615610bd2575060ff60a01b19168255513381527f5db9ee0a495bf2e6ff9c91a7834c1ba4fdd244a5e8aa4e537bd38aeae4b073aa90602090a180f35b606490602084519162461bcd60e51b8352820152601460248201527314185d5cd8589b194e881b9bdd081c185d5cd95960621b6044820152fd5b505034610264578160031936011261026457517f00000000000000000000000000000000000000000000000000000000000000006001600160a01b03168152602090f35b83346102a85760203660031901126102a857610c6a610e71565b610c72610ea2565b60018060a01b03166001600160601b0360a01b600654161760065580f35b503461023757826003193601126102375760209250549051908152f35b505034610264578160031936011261026457602090600c549051908152f35b50503461026457816003193601126102645760095490516001600160a01b039091168152602090f35b5091346102a85760203660031901126102a857506102cb60209235610fff565b509034610237578260031936011261023757805191836002549060019082821c928281168015610dc9575b602095868610821461061457508488529081156105f25750600114610d7057610595868661058b828b0383610df0565b929550600283527f405787fa12a823e0f2b7631cc41b3ba8828b3321ca811111fa75cd3aa3bb5ace5b828410610db657505050826105959461058b92820101943861057a565b8054868501880152928601928101610d99565b93607f1693610d40565b5050346102645781600319360112610264576020906102cb610efa565b90601f8019910116810190811067ffffffffffffffff821117610e1257604052565b634e487b7160e01b600052604160045260246000fd5b6020808252825181830181905290939260005b828110610e5d57505060409293506000838284010152601f8019910116010190565b818101860151848201604001528501610e3b565b600435906001600160a01b0382168203610e8757565b600080fd5b602435906001600160a01b0382168203610e8757565b6000546001600160a01b03163303610eb657565b606460405162461bcd60e51b815260206004820152602060248201527f4f776e61626c653a2063616c6c6572206973206e6f7420746865206f776e65726044820152fd5b6040516370a0823160e01b81523060048201526020816024817f00000000000000000000000000000000000000000000000000000000000000006001600160a01b03165afa908115610f7f57600091610f51575090565b906020823d8211610f77575b81610f6a60209383610df0565b810103126102a857505190565b3d9150610f5d565b6040513d6000823e3d90fd5b81810292918115918404141715610f9e57565b634e487b7160e01b600052601160045260246000fd5b8115610fbe570490565b634e487b7160e01b600052601260045260246000fd5b6004548015610ffb57610fea90610ff892610f8b565b610ff2610efa565b90610fb4565b90565b5090565b6004548015610ffb5761101d610ff892611017610efa565b90610f8b565b610fb4565b1561102957565b60405162461bcd60e51b815260206004820152600b60248201526a5a65726f2073686172657360a81b6044820152606490fd5b60ff60005460a01c1661106b57565b60405162461bcd60e51b815260206004820152601060248201526f14185d5cd8589b194e881c185d5cd95960821b6044820152606490fd5b6002600154146110b4576002600155565b60405162461bcd60e51b815260206004820152601f60248201527f5265656e7472616e637947756172643a207265656e7472616e742063616c6c006044820152606490fd5b60405163a9059cbb60e01b60208201526001600160a01b039092166024830152604480830193909352918152608081019167ffffffffffffffff831182841017610e12576111499260405261114b565b565b60018060a01b0316906040516040810167ffffffffffffffff9082811082821117610e12576040526020938483527f5361666545524332303a206c6f772d6c6576656c2063616c6c206661696c6564858401526000808587829751910182855af1903d15611290573d92831161127c57906111e6939291604051926111d988601f19601f8401160185610df0565b83523d868885013e61129b565b805191821591848315611258575b5050509050156112015750565b6084906040519062461bcd60e51b82526004820152602a60248201527f5361666545524332303a204552433230206f7065726174696f6e20646964206e6044820152691bdd081cdd58d8d9595960b21b6064820152fd5b919381809450010312610264578201519081151582036102a85750803880846111f4565b634e487b7160e01b85526041600452602485fd5b906111e69392506060915b919290156112fd57508151156112af575090565b3b156112b85790565b60405162461bcd60e51b815260206004820152601d60248201527f416464726573733a2063616c6c20746f206e6f6e2d636f6e74726163740000006044820152606490fd5b8251909150156113105750805190602001fd5b60405162461bcd60e51b815290819061132c9060048301610e28565b0390fd5b91908203918211610f9e57565b91908201809211610f9e5756fea26469706673582212203c337592826238441b7648cad0855fb974c0e4a81dc0ff27c703b69b185c086d64736f6c63430008140033","opcodes":"PUSH1 0xA0 PUSH1 0x40 MSTORE CALLVALUE PUSH3 0x39F JUMPI PUSH3 0x182F DUP1 CODESIZE SUB DUP1 PUSH3 0x1D DUP2 PUSH3 0x3A4 JUMP JUMPDEST SWAP3 DUP4 CODECOPY DUP2 ADD PUSH1 0x80 DUP3 DUP3 SUB SLT PUSH3 0x39F JUMPI PUSH3 0x38 DUP3 PUSH3 0x3E0 JUMP JUMPDEST SWAP2 PUSH1 0x20 SWAP1 PUSH3 0x49 DUP3 DUP3 ADD PUSH3 0x3E0 JUMP JUMPDEST PUSH1 0x40 DUP3 ADD MLOAD SWAP1 SWAP4 PUSH1 0x1 PUSH1 0x1 PUSH1 0x40 SHL SUB SWAP3 SWAP1 SWAP2 DUP4 DUP2 GT PUSH3 0x39F JUMPI DUP3 PUSH3 0x71 SWAP2 DUP4 ADD PUSH3 0x3F5 JUMP JUMPDEST SWAP2 PUSH1 0x60 DUP3 ADD MLOAD DUP5 DUP2 GT PUSH3 0x39F JUMPI PUSH3 0x8B SWAP3 ADD PUSH3 0x3F5 JUMP JUMPDEST PUSH3 0x96 CALLER PUSH3 0x467 JUMP JUMPDEST PUSH1 0x0 DUP1 SLOAD PUSH1 0xFF PUSH1 0xA0 SHL NOT AND DUP2 SSTORE PUSH1 0x1 DUP1 DUP1 SSTORE PUSH2 0x1F4 PUSH1 0xA SSTORE PUSH2 0x7D0 PUSH1 0xB SSTORE PUSH1 0xC8 PUSH1 0xC SSTORE PUSH1 0xD DUP3 SWAP1 SSTORE PUSH1 0x1 PUSH1 0x1 PUSH1 0xA0 SHL SUB SWAP1 SWAP8 AND PUSH1 0x80 MSTORE DUP3 MLOAD DUP5 DUP2 GT PUSH3 0x38B JUMPI PUSH1 0x2 SLOAD SWAP4 DUP9 DUP6 DUP2 SHR SWAP6 AND DUP1 ISZERO PUSH3 0x380 JUMPI JUMPDEST DUP8 DUP7 LT EQ PUSH3 0x287 JUMPI DUP2 SWAP1 PUSH1 0x1F SWAP6 DUP7 DUP2 GT PUSH3 0x32C JUMPI JUMPDEST POP DUP8 SWAP1 DUP7 DUP4 GT PUSH1 0x1 EQ PUSH3 0x2C6 JUMPI DUP5 SWAP3 PUSH3 0x2BA JUMPI JUMPDEST POP POP PUSH1 0x0 NOT PUSH1 0x3 DUP4 SWAP1 SHL SHR NOT AND SWAP1 DUP9 SHL OR PUSH1 0x2 SSTORE JUMPDEST DUP2 MLOAD SWAP4 DUP5 GT PUSH3 0x2A6 JUMPI PUSH1 0x3 SWAP5 DUP6 SLOAD DUP9 DUP2 DUP2 SHR SWAP2 AND DUP1 ISZERO PUSH3 0x29B JUMPI JUMPDEST DUP3 DUP3 LT EQ PUSH3 0x287 JUMPI DUP5 DUP2 GT PUSH3 0x23F JUMPI JUMPDEST POP DUP1 SWAP4 DUP6 GT PUSH1 0x1 EQ PUSH3 0x1D5 JUMPI POP PUSH3 0x18D SWAP7 SWAP1 SWAP3 DUP5 SWAP3 DUP4 PUSH3 0x1C9 JUMPI JUMPDEST POP POP SHL SWAP2 PUSH1 0x0 NOT SWAP1 DUP5 SHL SHR NOT AND OR SWAP1 SSTORE PUSH3 0x467 JUMP JUMPDEST PUSH1 0x40 MLOAD PUSH2 0x1380 SWAP1 DUP2 PUSH3 0x4AF DUP3 CODECOPY PUSH1 0x80 MLOAD DUP2 DUP2 DUP2 PUSH2 0x394 ADD MSTORE DUP2 DUP2 PUSH2 0x3FE ADD MSTORE DUP2 DUP2 PUSH2 0x95C ADD MSTORE DUP2 DUP2 PUSH2 0xB4C ADD MSTORE DUP2 DUP2 PUSH2 0xC21 ADD MSTORE PUSH2 0xF15 ADD MSTORE RETURN JUMPDEST ADD MLOAD SWAP3 POP CODESIZE DUP1 PUSH3 0x177 JUMP JUMPDEST SWAP7 SWAP4 SWAP3 SWAP1 SWAP2 PUSH1 0x1F NOT DUP5 AND SWAP8 DUP7 DUP5 MSTORE DUP1 DUP5 KECCAK256 SWAP4 SWAP1 JUMPDEST DUP10 DUP3 LT PUSH3 0x227 JUMPI POP POP DUP4 PUSH3 0x18D SWAP9 LT PUSH3 0x20E JUMPI JUMPDEST POP POP POP DUP2 SHL ADD SWAP1 SSTORE PUSH3 0x467 JUMP JUMPDEST ADD MLOAD PUSH1 0x0 NOT DUP4 DUP7 SHL PUSH1 0xF8 AND SHR NOT AND SWAP1 SSTORE CODESIZE DUP1 DUP1 PUSH3 0x200 JUMP JUMPDEST DUP1 DUP8 DUP6 SWAP7 DUP3 SWAP5 SWAP7 DUP7 ADD MLOAD DUP2 SSTORE ADD SWAP6 ADD SWAP4 ADD SWAP1 PUSH3 0x1E9 JUMP JUMPDEST DUP7 DUP4 MSTORE DUP2 DUP4 KECCAK256 DUP6 DUP1 DUP9 ADD PUSH1 0x5 SHR DUP3 ADD SWAP3 DUP5 DUP10 LT PUSH3 0x27D JUMPI JUMPDEST ADD PUSH1 0x5 SHR ADD SWAP1 DUP10 SWAP1 JUMPDEST DUP3 DUP2 LT PUSH3 0x271 JUMPI POP POP PUSH3 0x159 JUMP JUMPDEST DUP5 DUP2 SSTORE ADD DUP10 SWAP1 PUSH3 0x261 JUMP JUMPDEST SWAP3 POP DUP2 SWAP3 PUSH3 0x258 JUMP JUMPDEST PUSH4 0x4E487B71 PUSH1 0xE0 SHL DUP4 MSTORE PUSH1 0x22 PUSH1 0x4 MSTORE PUSH1 0x24 DUP4 REVERT JUMPDEST SWAP1 PUSH1 0x7F AND SWAP1 PUSH3 0x147 JUMP JUMPDEST PUSH4 0x4E487B71 PUSH1 0xE0 SHL DUP2 MSTORE PUSH1 0x41 PUSH1 0x4 MSTORE PUSH1 0x24 SWAP1 REVERT JUMPDEST ADD MLOAD SWAP1 POP CODESIZE DUP1 PUSH3 0x115 JUMP JUMPDEST PUSH1 0x2 DUP6 MSTORE DUP9 DUP6 KECCAK256 DUP12 SWAP5 POP SWAP2 SWAP1 PUSH1 0x1F NOT DUP5 AND DUP7 JUMPDEST DUP12 DUP3 DUP3 LT PUSH3 0x315 JUMPI POP POP DUP5 GT PUSH3 0x2FB JUMPI JUMPDEST POP POP POP DUP2 SHL ADD PUSH1 0x2 SSTORE PUSH3 0x12A JUMP JUMPDEST ADD MLOAD PUSH1 0x0 NOT PUSH1 0xF8 DUP5 PUSH1 0x3 SHL AND SHR NOT AND SWAP1 SSTORE CODESIZE DUP1 DUP1 PUSH3 0x2EC JUMP JUMPDEST DUP4 DUP6 ADD MLOAD DUP7 SSTORE DUP15 SWAP8 SWAP1 SWAP6 ADD SWAP5 SWAP4 DUP5 ADD SWAP4 ADD PUSH3 0x2D9 JUMP JUMPDEST SWAP1 SWAP2 POP PUSH1 0x2 DUP5 MSTORE DUP8 DUP5 KECCAK256 DUP7 DUP1 DUP6 ADD PUSH1 0x5 SHR DUP3 ADD SWAP3 DUP11 DUP7 LT PUSH3 0x376 JUMPI JUMPDEST SWAP2 DUP13 SWAP2 DUP7 SWAP6 SWAP5 SWAP4 ADD PUSH1 0x5 SHR ADD SWAP2 JUMPDEST DUP3 DUP2 LT PUSH3 0x367 JUMPI POP POP PUSH3 0xFF JUMP JUMPDEST DUP7 DUP2 SSTORE DUP6 SWAP5 POP DUP13 SWAP2 ADD PUSH3 0x357 JUMP JUMPDEST SWAP3 POP DUP2 SWAP3 PUSH3 0x349 JUMP JUMPDEST SWAP5 PUSH1 0x7F AND SWAP5 PUSH3 0xE8 JUMP JUMPDEST PUSH4 0x4E487B71 PUSH1 0xE0 SHL DUP3 MSTORE PUSH1 0x41 PUSH1 0x4 MSTORE PUSH1 0x24 DUP3 REVERT JUMPDEST PUSH1 0x0 DUP1 REVERT JUMPDEST PUSH1 0x40 MLOAD SWAP2 SWAP1 PUSH1 0x1F ADD PUSH1 0x1F NOT AND DUP3 ADD PUSH1 0x1 PUSH1 0x1 PUSH1 0x40 SHL SUB DUP2 GT DUP4 DUP3 LT OR PUSH3 0x3CA JUMPI PUSH1 0x40 MSTORE JUMP JUMPDEST PUSH4 0x4E487B71 PUSH1 0xE0 SHL PUSH1 0x0 MSTORE PUSH1 0x41 PUSH1 0x4 MSTORE PUSH1 0x24 PUSH1 0x0 REVERT JUMPDEST MLOAD SWAP1 PUSH1 0x1 PUSH1 0x1 PUSH1 0xA0 SHL SUB DUP3 AND DUP3 SUB PUSH3 0x39F JUMPI JUMP JUMPDEST SWAP2 SWAP1 DUP1 PUSH1 0x1F DUP5 ADD SLT ISZERO PUSH3 0x39F JUMPI DUP3 MLOAD PUSH1 0x1 PUSH1 0x1 PUSH1 0x40 SHL SUB DUP2 GT PUSH3 0x3CA JUMPI PUSH1 0x20 SWAP1 PUSH3 0x42B PUSH1 0x1F DUP3 ADD PUSH1 0x1F NOT AND DUP4 ADD PUSH3 0x3A4 JUMP JUMPDEST SWAP3 DUP2 DUP5 MSTORE DUP3 DUP3 DUP8 ADD ADD GT PUSH3 0x39F JUMPI PUSH1 0x0 JUMPDEST DUP2 DUP2 LT PUSH3 0x453 JUMPI POP DUP3 PUSH1 0x0 SWAP4 SWAP5 SWAP6 POP ADD ADD MSTORE SWAP1 JUMP JUMPDEST DUP6 DUP2 ADD DUP4 ADD MLOAD DUP5 DUP3 ADD DUP5 ADD MSTORE DUP3 ADD PUSH3 0x43D JUMP JUMPDEST PUSH1 0x0 DUP1 SLOAD PUSH1 0x1 PUSH1 0x1 PUSH1 0xA0 SHL SUB SWAP3 DUP4 AND PUSH1 0x1 PUSH1 0x1 PUSH1 0xA0 SHL SUB NOT DUP3 AND DUP2 OR DUP4 SSTORE SWAP3 AND SWAP1 PUSH32 0x8BE0079C531659141344CD1FD0A4F28419497F9722A3DAAFE3B4186F6B6457E0 SWAP1 DUP1 LOG3 JUMP INVALID PUSH1 0x40 PUSH1 0x80 DUP2 MSTORE PUSH1 0x4 SWAP1 DUP2 CALLDATASIZE LT ISZERO PUSH2 0x15 JUMPI PUSH1 0x0 DUP1 REVERT JUMPDEST PUSH1 0x0 SWAP2 DUP3 CALLDATALOAD PUSH1 0xE0 SHR DUP1 PUSH4 0x1E1D114 EQ PUSH2 0xDD3 JUMPI DUP1 PUSH4 0x6FDDE03 EQ PUSH2 0xD15 JUMPI DUP1 PUSH4 0x7A2D13A EQ PUSH2 0xCF5 JUMPI DUP1 PUSH4 0xD43E8AD EQ PUSH2 0xCCC JUMPI DUP1 PUSH4 0x1481ED0F EQ PUSH2 0xCAD JUMPI DUP1 PUSH4 0x18160DDD EQ PUSH2 0xC90 JUMPI DUP1 PUSH4 0x20E3DBD4 EQ PUSH2 0xC50 JUMPI DUP1 PUSH4 0x38D52E0F EQ PUSH2 0xC0C JUMPI DUP1 PUSH4 0x3C4F7CA1 EQ PUSH2 0xC0C JUMPI DUP1 PUSH4 0x3F4BA83A EQ PUSH2 0xB73 JUMPI DUP1 PUSH4 0x5312EA8E EQ PUSH2 0xB1D JUMPI DUP1 PUSH4 0x54747A70 EQ PUSH2 0xAFE JUMPI DUP1 PUSH4 0x5C6A4B23 EQ PUSH2 0xADF JUMPI DUP1 PUSH4 0x5C975ABB EQ PUSH2 0xABA JUMPI DUP1 PUSH4 0x6E553F65 EQ PUSH2 0x900 JUMPI DUP1 PUSH4 0x6FCBA377 EQ PUSH2 0x7B3 JUMPI DUP1 PUSH4 0x70A08231 EQ PUSH2 0x77B JUMPI DUP1 PUSH4 0x715018A6 EQ PUSH2 0x721 JUMPI DUP1 PUSH4 0x79502C55 EQ PUSH2 0x6F8 JUMPI DUP1 PUSH4 0x7F67EEC4 EQ PUSH2 0x6B8 JUMPI DUP1 PUSH4 0x8456CB59 EQ PUSH2 0x659 JUMPI DUP1 PUSH4 0x8DA5CB5B EQ PUSH2 0x631 JUMPI DUP1 PUSH4 0x95D89B41 EQ PUSH2 0x52F JUMPI DUP1 PUSH4 0x9A01126C EQ PUSH2 0x4EF JUMPI DUP1 PUSH4 0xA04E876C EQ PUSH2 0x4C6 JUMPI DUP1 PUSH4 0xAE3BC866 EQ PUSH2 0x4A7 JUMPI DUP1 PUSH4 0xB460AF94 EQ PUSH2 0x2D2 JUMPI DUP1 PUSH4 0xC6E6F592 EQ PUSH2 0x2AB JUMPI DUP1 PUSH4 0xCCFC2E8D EQ PUSH2 0x268 JUMPI DUP1 PUSH4 0xEF5E20AF EQ PUSH2 0x23B JUMPI PUSH4 0xF2FDE38B EQ PUSH2 0x176 JUMPI PUSH1 0x0 DUP1 REVERT JUMPDEST CALLVALUE PUSH2 0x237 JUMPI PUSH1 0x20 CALLDATASIZE PUSH1 0x3 NOT ADD SLT PUSH2 0x237 JUMPI PUSH2 0x18F PUSH2 0xE71 JUMP JUMPDEST SWAP1 PUSH2 0x198 PUSH2 0xEA2 JUMP JUMPDEST PUSH1 0x1 PUSH1 0x1 PUSH1 0xA0 SHL SUB SWAP2 DUP3 AND SWAP3 DUP4 ISZERO PUSH2 0x1E5 JUMPI POP POP DUP3 SLOAD PUSH1 0x1 PUSH1 0x1 PUSH1 0xA0 SHL SUB NOT DUP2 AND DUP4 OR DUP5 SSTORE AND PUSH32 0x8BE0079C531659141344CD1FD0A4F28419497F9722A3DAAFE3B4186F6B6457E0 DUP4 DUP1 LOG3 DUP1 RETURN JUMPDEST SWAP1 PUSH1 0x20 PUSH1 0x84 SWAP3 MLOAD SWAP2 PUSH3 0x461BCD PUSH1 0xE5 SHL DUP4 MSTORE DUP3 ADD MSTORE PUSH1 0x26 PUSH1 0x24 DUP3 ADD MSTORE PUSH32 0x4F776E61626C653A206E6577206F776E657220697320746865207A65726F2061 PUSH1 0x44 DUP3 ADD MSTORE PUSH6 0x646472657373 PUSH1 0xD0 SHL PUSH1 0x64 DUP3 ADD MSTORE REVERT JUMPDEST DUP3 DUP1 REVERT JUMPDEST POP POP CALLVALUE PUSH2 0x264 JUMPI DUP2 PUSH1 0x3 NOT CALLDATASIZE ADD SLT PUSH2 0x264 JUMPI PUSH1 0x8 SLOAD SWAP1 MLOAD PUSH1 0x1 PUSH1 0x1 PUSH1 0xA0 SHL SUB SWAP1 SWAP2 AND DUP2 MSTORE PUSH1 0x20 SWAP1 RETURN JUMPDEST POP DUP1 REVERT JUMPDEST DUP4 CALLVALUE PUSH2 0x2A8 JUMPI PUSH1 0x20 CALLDATASIZE PUSH1 0x3 NOT ADD SLT PUSH2 0x2A8 JUMPI PUSH2 0x282 PUSH2 0xE71 JUMP JUMPDEST PUSH2 0x28A PUSH2 0xEA2 JUMP JUMPDEST PUSH1 0x1 DUP1 PUSH1 0xA0 SHL SUB AND PUSH1 0x1 PUSH1 0x1 PUSH1 0x60 SHL SUB PUSH1 0xA0 SHL PUSH1 0x9 SLOAD AND OR PUSH1 0x9 SSTORE DUP1 RETURN JUMPDEST DUP1 REVERT JUMPDEST POP SWAP2 CALLVALUE PUSH2 0x2A8 JUMPI PUSH1 0x20 CALLDATASIZE PUSH1 0x3 NOT ADD SLT PUSH2 0x2A8 JUMPI POP PUSH2 0x2CB PUSH1 0x20 SWAP3 CALLDATALOAD PUSH2 0xFD4 JUMP JUMPDEST SWAP1 MLOAD SWAP1 DUP2 MSTORE RETURN JUMPDEST POP SWAP2 SWAP1 CALLVALUE PUSH2 0x264 JUMPI PUSH1 0x60 CALLDATASIZE PUSH1 0x3 NOT ADD SLT PUSH2 0x264 JUMPI DUP3 CALLDATALOAD PUSH2 0x2F0 PUSH2 0xE8C JUMP JUMPDEST PUSH1 0x1 PUSH1 0x1 PUSH1 0xA0 SHL SUB PUSH1 0x44 CALLDATALOAD DUP2 DUP2 AND SWAP4 SWAP3 SWAP1 DUP5 SWAP1 SUB PUSH2 0x4A3 JUMPI PUSH2 0x310 PUSH2 0x10A3 JUMP JUMPDEST PUSH2 0x31B DUP4 ISZERO ISZERO PUSH2 0x1022 JUMP JUMPDEST DUP4 DUP7 MSTORE PUSH1 0x20 SWAP7 PUSH1 0x5 DUP9 MSTORE DUP4 DUP7 DUP9 KECCAK256 SLOAD LT PUSH2 0x469 JUMPI DUP5 CALLER SUB PUSH2 0x435 JUMPI PUSH2 0x33F DUP5 PUSH2 0xFFF JUMP JUMPDEST SWAP1 DUP7 PUSH2 0x35B PUSH2 0x2710 PUSH2 0x353 PUSH1 0xD SLOAD DUP7 PUSH2 0xF8B JUMP JUMPDEST DIV DUP1 SWAP5 PUSH2 0x1330 JUMP JUMPDEST SWAP9 DUP8 DUP2 MSTORE PUSH1 0x5 DUP12 MSTORE KECCAK256 PUSH2 0x36F DUP7 DUP3 SLOAD PUSH2 0x1330 JUMP JUMPDEST SWAP1 SSTORE PUSH2 0x37C DUP6 DUP3 SLOAD PUSH2 0x1330 JUMP JUMPDEST SWAP1 SSTORE DUP1 ISZERO ISZERO DUP1 PUSH2 0x428 JUMPI JUMPDEST PUSH2 0x3F3 JUMPI JUMPDEST POP PUSH2 0x3B8 DUP7 DUP3 PUSH32 0x0 PUSH2 0x10F9 JUMP JUMPDEST DUP5 MLOAD SWAP3 DUP7 DUP5 MSTORE DUP8 DUP5 ADD MSTORE AND SWAP1 PUSH32 0xFBDE797D201C681B91056529119E0B02407C7BB96A4A2C75C01FC9667232C8DB DUP5 CALLER SWAP3 LOG4 PUSH1 0x1 DUP1 SSTORE MLOAD SWAP1 DUP2 MSTORE RETURN JUMPDEST PUSH2 0x422 SWAP1 DUP4 PUSH1 0x9 SLOAD AND PUSH32 0x0 PUSH2 0x10F9 JUMP JUMPDEST CODESIZE PUSH2 0x38C JUMP JUMPDEST POP DUP3 PUSH1 0x9 SLOAD AND ISZERO ISZERO PUSH2 0x387 JUMP JUMPDEST DUP6 MLOAD PUSH3 0x461BCD PUSH1 0xE5 SHL DUP2 MSTORE SWAP1 DUP2 ADD DUP9 SWAP1 MSTORE PUSH1 0xE PUSH1 0x24 DUP3 ADD MSTORE PUSH14 0x139BDD08185D5D1A1BDC9A5E9959 PUSH1 0x92 SHL PUSH1 0x44 DUP3 ADD MSTORE PUSH1 0x64 SWAP1 REVERT JUMPDEST DUP6 MLOAD PUSH3 0x461BCD PUSH1 0xE5 SHL DUP2 MSTORE SWAP1 DUP2 ADD DUP9 SWAP1 MSTORE PUSH1 0x14 PUSH1 0x24 DUP3 ADD MSTORE PUSH20 0x496E73756666696369656E742062616C616E6365 PUSH1 0x60 SHL PUSH1 0x44 DUP3 ADD MSTORE PUSH1 0x64 SWAP1 REVERT JUMPDEST DUP6 DUP1 REVERT JUMPDEST POP POP CALLVALUE PUSH2 0x264 JUMPI DUP2 PUSH1 0x3 NOT CALLDATASIZE ADD SLT PUSH2 0x264 JUMPI PUSH1 0x20 SWAP1 PUSH1 0xD SLOAD SWAP1 MLOAD SWAP1 DUP2 MSTORE RETURN JUMPDEST POP POP CALLVALUE PUSH2 0x264 JUMPI DUP2 PUSH1 0x3 NOT CALLDATASIZE ADD SLT PUSH2 0x264 JUMPI PUSH1 0x7 SLOAD SWAP1 MLOAD PUSH1 0x1 PUSH1 0x1 PUSH1 0xA0 SHL SUB SWAP1 SWAP2 AND DUP2 MSTORE PUSH1 0x20 SWAP1 RETURN JUMPDEST DUP4 CALLVALUE PUSH2 0x2A8 JUMPI PUSH1 0x20 CALLDATASIZE PUSH1 0x3 NOT ADD SLT PUSH2 0x2A8 JUMPI PUSH2 0x509 PUSH2 0xE71 JUMP JUMPDEST PUSH2 0x511 PUSH2 0xEA2 JUMP JUMPDEST PUSH1 0x1 DUP1 PUSH1 0xA0 SHL SUB AND PUSH1 0x1 PUSH1 0x1 PUSH1 0x60 SHL SUB PUSH1 0xA0 SHL PUSH1 0x7 SLOAD AND OR PUSH1 0x7 SSTORE DUP1 RETURN JUMPDEST POP SWAP1 CALLVALUE PUSH2 0x237 JUMPI DUP3 PUSH1 0x3 NOT CALLDATASIZE ADD SLT PUSH2 0x237 JUMPI DUP1 MLOAD SWAP2 DUP4 PUSH1 0x3 SLOAD SWAP1 PUSH1 0x1 SWAP1 DUP3 DUP3 SHR SWAP3 DUP3 DUP2 AND DUP1 ISZERO PUSH2 0x627 JUMPI JUMPDEST PUSH1 0x20 SWAP6 DUP7 DUP7 LT DUP3 EQ PUSH2 0x614 JUMPI POP DUP5 DUP9 MSTORE SWAP1 DUP2 ISZERO PUSH2 0x5F2 JUMPI POP PUSH1 0x1 EQ PUSH2 0x599 JUMPI JUMPDEST PUSH2 0x595 DUP7 DUP7 PUSH2 0x58B DUP3 DUP12 SUB DUP4 PUSH2 0xDF0 JUMP JUMPDEST MLOAD SWAP2 DUP3 SWAP2 DUP3 PUSH2 0xE28 JUMP JUMPDEST SUB SWAP1 RETURN JUMPDEST SWAP3 SWAP6 POP PUSH1 0x3 DUP4 MSTORE PUSH32 0xC2575A0E9E593C00F959F8C92F12DB2869C3395A3B0502D05E2516446F71F85B JUMPDEST DUP3 DUP5 LT PUSH2 0x5DF JUMPI POP POP POP DUP3 PUSH2 0x595 SWAP5 PUSH2 0x58B SWAP3 DUP3 ADD ADD SWAP5 CODESIZE PUSH2 0x57A JUMP JUMPDEST DUP1 SLOAD DUP7 DUP6 ADD DUP9 ADD MSTORE SWAP3 DUP7 ADD SWAP3 DUP2 ADD PUSH2 0x5C2 JUMP JUMPDEST PUSH1 0xFF NOT AND DUP8 DUP7 ADD MSTORE POP POP POP ISZERO ISZERO PUSH1 0x5 SHL DUP4 ADD ADD SWAP3 POP PUSH2 0x58B DUP3 PUSH2 0x595 CODESIZE PUSH2 0x57A JUMP JUMPDEST PUSH4 0x4E487B71 PUSH1 0xE0 SHL DUP5 MSTORE PUSH1 0x22 SWAP1 MSTORE PUSH1 0x24 DUP4 REVERT JUMPDEST SWAP4 PUSH1 0x7F AND SWAP4 PUSH2 0x55A JUMP JUMPDEST POP POP CALLVALUE PUSH2 0x264 JUMPI DUP2 PUSH1 0x3 NOT CALLDATASIZE ADD SLT PUSH2 0x264 JUMPI SWAP1 SLOAD SWAP1 MLOAD PUSH1 0x1 PUSH1 0x1 PUSH1 0xA0 SHL SUB SWAP1 SWAP2 AND DUP2 MSTORE PUSH1 0x20 SWAP1 RETURN JUMPDEST POP POP CALLVALUE PUSH2 0x264 JUMPI DUP2 PUSH1 0x3 NOT CALLDATASIZE ADD SLT PUSH2 0x264 JUMPI PUSH1 0x20 PUSH32 0x62E78CEA01BEE320CD4E420270B5EA74000D11B0C9F74754EBDBFC544B05A258 SWAP2 PUSH2 0x697 PUSH2 0xEA2 JUMP JUMPDEST PUSH2 0x69F PUSH2 0x105C JUMP JUMPDEST DUP4 SLOAD PUSH1 0xFF PUSH1 0xA0 SHL NOT AND PUSH1 0x1 PUSH1 0xA0 SHL OR DUP5 SSTORE MLOAD CALLER DUP2 MSTORE LOG1 DUP1 RETURN JUMPDEST DUP4 CALLVALUE PUSH2 0x2A8 JUMPI PUSH1 0x20 CALLDATASIZE PUSH1 0x3 NOT ADD SLT PUSH2 0x2A8 JUMPI PUSH2 0x6D2 PUSH2 0xE71 JUMP JUMPDEST PUSH2 0x6DA PUSH2 0xEA2 JUMP JUMPDEST PUSH1 0x1 DUP1 PUSH1 0xA0 SHL SUB AND PUSH1 0x1 PUSH1 0x1 PUSH1 0x60 SHL SUB PUSH1 0xA0 SHL PUSH1 0x8 SLOAD AND OR PUSH1 0x8 SSTORE DUP1 RETURN JUMPDEST POP POP CALLVALUE PUSH2 0x264 JUMPI DUP2 PUSH1 0x3 NOT CALLDATASIZE ADD SLT PUSH2 0x264 JUMPI PUSH1 0x6 SLOAD SWAP1 MLOAD PUSH1 0x1 PUSH1 0x1 PUSH1 0xA0 SHL SUB SWAP1 SWAP2 AND DUP2 MSTORE PUSH1 0x20 SWAP1 RETURN JUMPDEST DUP4 CALLVALUE PUSH2 0x2A8 JUMPI DUP1 PUSH1 0x3 NOT CALLDATASIZE ADD SLT PUSH2 0x2A8 JUMPI PUSH2 0x73A PUSH2 0xEA2 JUMP JUMPDEST DUP1 SLOAD PUSH1 0x1 PUSH1 0x1 PUSH1 0xA0 SHL SUB NOT DUP2 AND DUP3 SSTORE DUP2 SWAP1 PUSH1 0x1 PUSH1 0x1 PUSH1 0xA0 SHL SUB AND PUSH32 0x8BE0079C531659141344CD1FD0A4F28419497F9722A3DAAFE3B4186F6B6457E0 DUP3 DUP1 LOG3 DUP1 RETURN JUMPDEST POP POP CALLVALUE PUSH2 0x264 JUMPI PUSH1 0x20 CALLDATASIZE PUSH1 0x3 NOT ADD SLT PUSH2 0x264 JUMPI PUSH1 0x20 SWAP2 DUP2 SWAP1 PUSH1 0x1 PUSH1 0x1 PUSH1 0xA0 SHL SUB PUSH2 0x7A3 PUSH2 0xE71 JUMP JUMPDEST AND DUP2 MSTORE PUSH1 0x5 DUP5 MSTORE KECCAK256 SLOAD SWAP1 MLOAD SWAP1 DUP2 MSTORE RETURN JUMPDEST POP CALLVALUE PUSH2 0x237 JUMPI PUSH1 0x80 CALLDATASIZE PUSH1 0x3 NOT ADD SLT PUSH2 0x237 JUMPI DUP1 CALLDATALOAD PUSH1 0x24 CALLDATALOAD SWAP1 PUSH1 0x44 CALLDATALOAD SWAP3 PUSH1 0x64 CALLDATALOAD SWAP5 PUSH2 0x7DB PUSH2 0xEA2 JUMP JUMPDEST PUSH2 0x3E8 DUP4 GT PUSH2 0x8C7 JUMPI PUSH2 0xBB8 DUP5 GT PUSH2 0x884 JUMPI PUSH2 0x1F4 DUP1 DUP7 GT PUSH2 0x849 JUMPI DUP7 GT PUSH2 0x80E JUMPI POP POP PUSH1 0xA SSTORE PUSH1 0xB SSTORE PUSH1 0xC SSTORE PUSH1 0xD SSTORE DUP1 RETURN JUMPDEST SWAP1 PUSH1 0x20 PUSH1 0x64 SWAP3 MLOAD SWAP2 PUSH3 0x461BCD PUSH1 0xE5 SHL DUP4 MSTORE DUP3 ADD MSTORE PUSH1 0x15 PUSH1 0x24 DUP3 ADD MSTORE PUSH21 0x5769746864726177616C20666565206D6178203525 PUSH1 0x58 SHL PUSH1 0x44 DUP3 ADD MSTORE REVERT JUMPDEST DUP2 MLOAD PUSH3 0x461BCD PUSH1 0xE5 SHL DUP2 MSTORE PUSH1 0x20 DUP2 DUP6 ADD MSTORE PUSH1 0x15 PUSH1 0x24 DUP3 ADD MSTORE PUSH21 0x4D616E6167656D656E7420666565206D6178203525 PUSH1 0x58 SHL PUSH1 0x44 DUP3 ADD MSTORE PUSH1 0x64 SWAP1 REVERT JUMPDEST SWAP1 PUSH1 0x20 PUSH1 0x64 SWAP3 MLOAD SWAP2 PUSH3 0x461BCD PUSH1 0xE5 SHL DUP4 MSTORE DUP3 ADD MSTORE PUSH1 0x17 PUSH1 0x24 DUP3 ADD MSTORE PUSH32 0x506572666F726D616E636520666565206D617820333025000000000000000000 PUSH1 0x44 DUP3 ADD MSTORE REVERT JUMPDEST SWAP1 PUSH1 0x20 PUSH1 0x64 SWAP3 MLOAD SWAP2 PUSH3 0x461BCD PUSH1 0xE5 SHL DUP4 MSTORE DUP3 ADD MSTORE PUSH1 0x13 PUSH1 0x24 DUP3 ADD MSTORE PUSH19 0x4465706F73697420666565206D617820313025 PUSH1 0x68 SHL PUSH1 0x44 DUP3 ADD MSTORE REVERT JUMPDEST POP SWAP2 SWAP1 CALLVALUE PUSH2 0x264 JUMPI DUP1 PUSH1 0x3 NOT CALLDATASIZE ADD SLT PUSH2 0x264 JUMPI DUP3 CALLDATALOAD SWAP2 PUSH2 0x91E PUSH2 0xE8C JUMP JUMPDEST SWAP3 PUSH2 0x927 PUSH2 0x10A3 JUMP JUMPDEST PUSH2 0x92F PUSH2 0x105C JUMP JUMPDEST DUP1 ISZERO PUSH2 0xA89 JUMPI PUSH2 0x93E DUP2 PUSH2 0xFD4 JUMP JUMPDEST SWAP4 PUSH2 0x94A DUP6 ISZERO ISZERO PUSH2 0x1022 JUMP JUMPDEST PUSH2 0x2710 PUSH2 0x959 PUSH1 0xA SLOAD DUP5 PUSH2 0xF8B JUMP JUMPDEST DIV PUSH32 0x0 SWAP1 DUP6 MLOAD PUSH4 0x23B872DD PUSH1 0xE0 SHL PUSH1 0x20 DUP3 ADD MSTORE CALLER PUSH1 0x24 DUP3 ADD MSTORE ADDRESS PUSH1 0x44 DUP3 ADD MSTORE DUP5 PUSH1 0x64 DUP3 ADD MSTORE PUSH1 0x64 DUP2 MSTORE PUSH1 0xA0 DUP2 ADD DUP2 DUP2 LT PUSH8 0xFFFFFFFFFFFFFFFF DUP3 GT OR PUSH2 0xA76 JUMPI SWAP2 PUSH2 0x9CC DUP9 SWAP5 SWAP3 PUSH1 0x20 SWAP12 SWAP7 SWAP5 DUP7 MSTORE DUP4 PUSH2 0x114B JUMP JUMPDEST DUP1 ISZERO ISZERO DUP1 PUSH2 0xA62 JUMPI JUMPDEST PUSH2 0xA43 JUMPI JUMPDEST POP POP PUSH1 0x1 PUSH1 0x1 PUSH1 0xA0 SHL SUB AND DUP1 DUP6 MSTORE PUSH1 0x5 DUP9 MSTORE SWAP4 KECCAK256 DUP1 SLOAD PUSH2 0x9FB SWAP1 DUP8 SWAP1 PUSH2 0x133D JUMP JUMPDEST SWAP1 SSTORE PUSH2 0xA08 DUP6 DUP3 SLOAD PUSH2 0x133D JUMP JUMPDEST SWAP1 SSTORE DUP3 MLOAD SWAP1 DUP2 MSTORE DUP4 DUP6 DUP3 ADD MSTORE PUSH32 0xDCBC1C05240F31FF3AD067EF1EE35CE4997762752E3A095284754544F4C709D7 DUP4 CALLER SWAP3 LOG3 PUSH1 0x1 DUP1 SSTORE MLOAD SWAP1 DUP2 MSTORE RETURN JUMPDEST PUSH1 0x9 SLOAD PUSH2 0xA5B SWAP3 PUSH1 0x1 PUSH1 0x1 PUSH1 0xA0 SHL SUB SWAP1 SWAP2 AND SWAP1 PUSH2 0x10F9 JUMP JUMPDEST CODESIZE DUP1 PUSH2 0x9DA JUMP JUMPDEST POP PUSH1 0x9 SLOAD PUSH1 0x1 PUSH1 0x1 PUSH1 0xA0 SHL SUB AND ISZERO ISZERO PUSH2 0x9D5 JUMP JUMPDEST PUSH4 0x4E487B71 PUSH1 0xE0 SHL DUP8 MSTORE PUSH1 0x41 DUP11 MSTORE PUSH1 0x24 DUP8 REVERT JUMPDEST DUP3 MLOAD PUSH3 0x461BCD PUSH1 0xE5 SHL DUP2 MSTORE PUSH1 0x20 DUP2 DUP8 ADD MSTORE PUSH1 0xB PUSH1 0x24 DUP3 ADD MSTORE PUSH11 0x16995C9BC8185B5BDD5B9D PUSH1 0xAA SHL PUSH1 0x44 DUP3 ADD MSTORE PUSH1 0x64 SWAP1 REVERT JUMPDEST POP POP CALLVALUE PUSH2 0x264 JUMPI DUP2 PUSH1 0x3 NOT CALLDATASIZE ADD SLT PUSH2 0x264 JUMPI PUSH1 0xFF PUSH1 0x20 SWAP3 SLOAD PUSH1 0xA0 SHR AND SWAP1 MLOAD SWAP1 ISZERO ISZERO DUP2 MSTORE RETURN JUMPDEST POP POP CALLVALUE PUSH2 0x264 JUMPI DUP2 PUSH1 0x3 NOT CALLDATASIZE ADD SLT PUSH2 0x264 JUMPI PUSH1 0x20 SWAP1 PUSH1 0xB SLOAD SWAP1 MLOAD SWAP1 DUP2 MSTORE RETURN JUMPDEST POP POP CALLVALUE PUSH2 0x264 JUMPI DUP2 PUSH1 0x3 NOT CALLDATASIZE ADD SLT PUSH2 0x264 JUMPI PUSH1 0x20 SWAP1 PUSH1 0xA SLOAD SWAP1 MLOAD SWAP1 DUP2 MSTORE RETURN JUMPDEST DUP4 DUP3 CALLVALUE PUSH2 0x264 JUMPI PUSH1 0x20 CALLDATASIZE PUSH1 0x3 NOT ADD SLT PUSH2 0x264 JUMPI PUSH2 0xB70 SWAP1 PUSH2 0xB3C PUSH2 0xEA2 JUMP JUMPDEST DUP3 SLOAD SWAP1 CALLDATALOAD SWAP1 PUSH1 0x1 PUSH1 0x1 PUSH1 0xA0 SHL SUB AND PUSH32 0x0 PUSH2 0x10F9 JUMP JUMPDEST DUP1 RETURN JUMPDEST POP CALLVALUE PUSH2 0x237 JUMPI DUP3 PUSH1 0x3 NOT CALLDATASIZE ADD SLT PUSH2 0x237 JUMPI PUSH2 0xB8C PUSH2 0xEA2 JUMP JUMPDEST DUP3 SLOAD SWAP1 PUSH1 0xFF DUP3 PUSH1 0xA0 SHR AND ISZERO PUSH2 0xBD2 JUMPI POP PUSH1 0xFF PUSH1 0xA0 SHL NOT AND DUP3 SSTORE MLOAD CALLER DUP2 MSTORE PUSH32 0x5DB9EE0A495BF2E6FF9C91A7834C1BA4FDD244A5E8AA4E537BD38AEAE4B073AA SWAP1 PUSH1 0x20 SWAP1 LOG1 DUP1 RETURN JUMPDEST PUSH1 0x64 SWAP1 PUSH1 0x20 DUP5 MLOAD SWAP2 PUSH3 0x461BCD PUSH1 0xE5 SHL DUP4 MSTORE DUP3 ADD MSTORE PUSH1 0x14 PUSH1 0x24 DUP3 ADD MSTORE PUSH20 0x14185D5CD8589B194E881B9BDD081C185D5CD959 PUSH1 0x62 SHL PUSH1 0x44 DUP3 ADD MSTORE REVERT JUMPDEST POP POP CALLVALUE PUSH2 0x264 JUMPI DUP2 PUSH1 0x3 NOT CALLDATASIZE ADD SLT PUSH2 0x264 JUMPI MLOAD PUSH32 0x0 PUSH1 0x1 PUSH1 0x1 PUSH1 0xA0 SHL SUB AND DUP2 MSTORE PUSH1 0x20 SWAP1 RETURN JUMPDEST DUP4 CALLVALUE PUSH2 0x2A8 JUMPI PUSH1 0x20 CALLDATASIZE PUSH1 0x3 NOT ADD SLT PUSH2 0x2A8 JUMPI PUSH2 0xC6A PUSH2 0xE71 JUMP JUMPDEST PUSH2 0xC72 PUSH2 0xEA2 JUMP JUMPDEST PUSH1 0x1 DUP1 PUSH1 0xA0 SHL SUB AND PUSH1 0x1 PUSH1 0x1 PUSH1 0x60 SHL SUB PUSH1 0xA0 SHL PUSH1 0x6 SLOAD AND OR PUSH1 0x6 SSTORE DUP1 RETURN JUMPDEST POP CALLVALUE PUSH2 0x237 JUMPI DUP3 PUSH1 0x3 NOT CALLDATASIZE ADD SLT PUSH2 0x237 JUMPI PUSH1 0x20 SWAP3 POP SLOAD SWAP1 MLOAD SWAP1 DUP2 MSTORE RETURN JUMPDEST POP POP CALLVALUE PUSH2 0x264 JUMPI DUP2 PUSH1 0x3 NOT CALLDATASIZE ADD SLT PUSH2 0x264 JUMPI PUSH1 0x20 SWAP1 PUSH1 0xC SLOAD SWAP1 MLOAD SWAP1 DUP2 MSTORE RETURN JUMPDEST POP POP CALLVALUE PUSH2 0x264 JUMPI DUP2 PUSH1 0x3 NOT CALLDATASIZE ADD SLT PUSH2 0x264 JUMPI PUSH1 0x9 SLOAD SWAP1 MLOAD PUSH1 0x1 PUSH1 0x1 PUSH1 0xA0 SHL SUB SWAP1 SWAP2 AND DUP2 MSTORE PUSH1 0x20 SWAP1 RETURN JUMPDEST POP SWAP2 CALLVALUE PUSH2 0x2A8 JUMPI PUSH1 0x20 CALLDATASIZE PUSH1 0x3 NOT ADD SLT PUSH2 0x2A8 JUMPI POP PUSH2 0x2CB PUSH1 0x20 SWAP3 CALLDATALOAD PUSH2 0xFFF JUMP JUMPDEST POP SWAP1 CALLVALUE PUSH2 0x237 JUMPI DUP3 PUSH1 0x3 NOT CALLDATASIZE ADD SLT PUSH2 0x237 JUMPI DUP1 MLOAD SWAP2 DUP4 PUSH1 0x2 SLOAD SWAP1 PUSH1 0x1 SWAP1 DUP3 DUP3 SHR SWAP3 DUP3 DUP2 AND DUP1 ISZERO PUSH2 0xDC9 JUMPI JUMPDEST PUSH1 0x20 SWAP6 DUP7 DUP7 LT DUP3 EQ PUSH2 0x614 JUMPI POP DUP5 DUP9 MSTORE SWAP1 DUP2 ISZERO PUSH2 0x5F2 JUMPI POP PUSH1 0x1 EQ PUSH2 0xD70 JUMPI PUSH2 0x595 DUP7 DUP7 PUSH2 0x58B DUP3 DUP12 SUB DUP4 PUSH2 0xDF0 JUMP JUMPDEST SWAP3 SWAP6 POP PUSH1 0x2 DUP4 MSTORE PUSH32 0x405787FA12A823E0F2B7631CC41B3BA8828B3321CA811111FA75CD3AA3BB5ACE JUMPDEST DUP3 DUP5 LT PUSH2 0xDB6 JUMPI POP POP POP DUP3 PUSH2 0x595 SWAP5 PUSH2 0x58B SWAP3 DUP3 ADD ADD SWAP5 CODESIZE PUSH2 0x57A JUMP JUMPDEST DUP1 SLOAD DUP7 DUP6 ADD DUP9 ADD MSTORE SWAP3 DUP7 ADD SWAP3 DUP2 ADD PUSH2 0xD99 JUMP JUMPDEST SWAP4 PUSH1 0x7F AND SWAP4 PUSH2 0xD40 JUMP JUMPDEST POP POP CALLVALUE PUSH2 0x264 JUMPI DUP2 PUSH1 0x3 NOT CALLDATASIZE ADD SLT PUSH2 0x264 JUMPI PUSH1 0x20 SWAP1 PUSH2 0x2CB PUSH2 0xEFA JUMP JUMPDEST SWAP1 PUSH1 0x1F DUP1 NOT SWAP2 ADD AND DUP2 ADD SWAP1 DUP2 LT PUSH8 0xFFFFFFFFFFFFFFFF DUP3 GT OR PUSH2 0xE12 JUMPI PUSH1 0x40 MSTORE JUMP JUMPDEST PUSH4 0x4E487B71 PUSH1 0xE0 SHL PUSH1 0x0 MSTORE PUSH1 0x41 PUSH1 0x4 MSTORE PUSH1 0x24 PUSH1 0x0 REVERT JUMPDEST PUSH1 0x20 DUP1 DUP3 MSTORE DUP3 MLOAD DUP2 DUP4 ADD DUP2 SWAP1 MSTORE SWAP1 SWAP4 SWAP3 PUSH1 0x0 JUMPDEST DUP3 DUP2 LT PUSH2 0xE5D JUMPI POP POP PUSH1 0x40 SWAP3 SWAP4 POP PUSH1 0x0 DUP4 DUP3 DUP5 ADD ADD MSTORE PUSH1 0x1F DUP1 NOT SWAP2 ADD AND ADD ADD SWAP1 JUMP JUMPDEST DUP2 DUP2 ADD DUP7 ADD MLOAD DUP5 DUP3 ADD PUSH1 0x40 ADD MSTORE DUP6 ADD PUSH2 0xE3B JUMP JUMPDEST PUSH1 0x4 CALLDATALOAD SWAP1 PUSH1 0x1 PUSH1 0x1 PUSH1 0xA0 SHL SUB DUP3 AND DUP3 SUB PUSH2 0xE87 JUMPI JUMP JUMPDEST PUSH1 0x0 DUP1 REVERT JUMPDEST PUSH1 0x24 CALLDATALOAD SWAP1 PUSH1 0x1 PUSH1 0x1 PUSH1 0xA0 SHL SUB DUP3 AND DUP3 SUB PUSH2 0xE87 JUMPI JUMP JUMPDEST PUSH1 0x0 SLOAD PUSH1 0x1 PUSH1 0x1 PUSH1 0xA0 SHL SUB AND CALLER SUB PUSH2 0xEB6 JUMPI JUMP JUMPDEST PUSH1 0x64 PUSH1 0x40 MLOAD PUSH3 0x461BCD PUSH1 0xE5 SHL DUP2 MSTORE PUSH1 0x20 PUSH1 0x4 DUP3 ADD MSTORE PUSH1 0x20 PUSH1 0x24 DUP3 ADD MSTORE PUSH32 0x4F776E61626C653A2063616C6C6572206973206E6F7420746865206F776E6572 PUSH1 0x44 DUP3 ADD MSTORE REVERT JUMPDEST PUSH1 0x40 MLOAD PUSH4 0x70A08231 PUSH1 0xE0 SHL DUP2 MSTORE ADDRESS PUSH1 0x4 DUP3 ADD MSTORE PUSH1 0x20 DUP2 PUSH1 0x24 DUP2 PUSH32 0x0 PUSH1 0x1 PUSH1 0x1 PUSH1 0xA0 SHL SUB AND GAS STATICCALL SWAP1 DUP2 ISZERO PUSH2 0xF7F JUMPI PUSH1 0x0 SWAP2 PUSH2 0xF51 JUMPI POP SWAP1 JUMP JUMPDEST SWAP1 PUSH1 0x20 DUP3 RETURNDATASIZE DUP3 GT PUSH2 0xF77 JUMPI JUMPDEST DUP2 PUSH2 0xF6A PUSH1 0x20 SWAP4 DUP4 PUSH2 0xDF0 JUMP JUMPDEST DUP2 ADD SUB SLT PUSH2 0x2A8 JUMPI POP MLOAD SWAP1 JUMP JUMPDEST RETURNDATASIZE SWAP2 POP PUSH2 0xF5D JUMP JUMPDEST PUSH1 0x40 MLOAD RETURNDATASIZE PUSH1 0x0 DUP3 RETURNDATACOPY RETURNDATASIZE SWAP1 REVERT JUMPDEST DUP2 DUP2 MUL SWAP3 SWAP2 DUP2 ISZERO SWAP2 DUP5 DIV EQ OR ISZERO PUSH2 0xF9E JUMPI JUMP JUMPDEST PUSH4 0x4E487B71 PUSH1 0xE0 SHL PUSH1 0x0 MSTORE PUSH1 0x11 PUSH1 0x4 MSTORE PUSH1 0x24 PUSH1 0x0 REVERT JUMPDEST DUP2 ISZERO PUSH2 0xFBE JUMPI DIV SWAP1 JUMP JUMPDEST PUSH4 0x4E487B71 PUSH1 0xE0 SHL PUSH1 0x0 MSTORE PUSH1 0x12 PUSH1 0x4 MSTORE PUSH1 0x24 PUSH1 0x0 REVERT JUMPDEST PUSH1 0x4 SLOAD DUP1 ISZERO PUSH2 0xFFB JUMPI PUSH2 0xFEA SWAP1 PUSH2 0xFF8 SWAP3 PUSH2 0xF8B JUMP JUMPDEST PUSH2 0xFF2 PUSH2 0xEFA JUMP JUMPDEST SWAP1 PUSH2 0xFB4 JUMP JUMPDEST SWAP1 JUMP JUMPDEST POP SWAP1 JUMP JUMPDEST PUSH1 0x4 SLOAD DUP1 ISZERO PUSH2 0xFFB JUMPI PUSH2 0x101D PUSH2 0xFF8 SWAP3 PUSH2 0x1017 PUSH2 0xEFA JUMP JUMPDEST SWAP1 PUSH2 0xF8B JUMP JUMPDEST PUSH2 0xFB4 JUMP JUMPDEST ISZERO PUSH2 0x1029 JUMPI JUMP JUMPDEST PUSH1 0x40 MLOAD PUSH3 0x461BCD PUSH1 0xE5 SHL DUP2 MSTORE PUSH1 0x20 PUSH1 0x4 DUP3 ADD MSTORE PUSH1 0xB PUSH1 0x24 DUP3 ADD MSTORE PUSH11 0x5A65726F20736861726573 PUSH1 0xA8 SHL PUSH1 0x44 DUP3 ADD MSTORE PUSH1 0x64 SWAP1 REVERT JUMPDEST PUSH1 0xFF PUSH1 0x0 SLOAD PUSH1 0xA0 SHR AND PUSH2 0x106B JUMPI JUMP JUMPDEST PUSH1 0x40 MLOAD PUSH3 0x461BCD PUSH1 0xE5 SHL DUP2 MSTORE PUSH1 0x20 PUSH1 0x4 DUP3 ADD MSTORE PUSH1 0x10 PUSH1 0x24 DUP3 ADD MSTORE PUSH16 0x14185D5CD8589B194E881C185D5CD959 PUSH1 0x82 SHL PUSH1 0x44 DUP3 ADD MSTORE PUSH1 0x64 SWAP1 REVERT JUMPDEST PUSH1 0x2 PUSH1 0x1 SLOAD EQ PUSH2 0x10B4 JUMPI PUSH1 0x2 PUSH1 0x1 SSTORE JUMP JUMPDEST PUSH1 0x40 MLOAD PUSH3 0x461BCD PUSH1 0xE5 SHL DUP2 MSTORE PUSH1 0x20 PUSH1 0x4 DUP3 ADD MSTORE PUSH1 0x1F PUSH1 0x24 DUP3 ADD MSTORE PUSH32 0x5265656E7472616E637947756172643A207265656E7472616E742063616C6C00 PUSH1 0x44 DUP3 ADD MSTORE PUSH1 0x64 SWAP1 REVERT JUMPDEST PUSH1 0x40 MLOAD PUSH4 0xA9059CBB PUSH1 0xE0 SHL PUSH1 0x20 DUP3 ADD MSTORE PUSH1 0x1 PUSH1 0x1 PUSH1 0xA0 SHL SUB SWAP1 SWAP3 AND PUSH1 0x24 DUP4 ADD MSTORE PUSH1 0x44 DUP1 DUP4 ADD SWAP4 SWAP1 SWAP4 MSTORE SWAP2 DUP2 MSTORE PUSH1 0x80 DUP2 ADD SWAP2 PUSH8 0xFFFFFFFFFFFFFFFF DUP4 GT DUP3 DUP5 LT OR PUSH2 0xE12 JUMPI PUSH2 0x1149 SWAP3 PUSH1 0x40 MSTORE PUSH2 0x114B JUMP JUMPDEST JUMP JUMPDEST PUSH1 0x1 DUP1 PUSH1 0xA0 SHL SUB AND SWAP1 PUSH1 0x40 MLOAD PUSH1 0x40 DUP2 ADD PUSH8 0xFFFFFFFFFFFFFFFF SWAP1 DUP3 DUP2 LT DUP3 DUP3 GT OR PUSH2 0xE12 JUMPI PUSH1 0x40 MSTORE PUSH1 0x20 SWAP4 DUP5 DUP4 MSTORE PUSH32 0x5361666545524332303A206C6F772D6C6576656C2063616C6C206661696C6564 DUP6 DUP5 ADD MSTORE PUSH1 0x0 DUP1 DUP6 DUP8 DUP3 SWAP8 MLOAD SWAP2 ADD DUP3 DUP6 GAS CALL SWAP1 RETURNDATASIZE ISZERO PUSH2 0x1290 JUMPI RETURNDATASIZE SWAP3 DUP4 GT PUSH2 0x127C JUMPI SWAP1 PUSH2 0x11E6 SWAP4 SWAP3 SWAP2 PUSH1 0x40 MLOAD SWAP3 PUSH2 0x11D9 DUP9 PUSH1 0x1F NOT PUSH1 0x1F DUP5 ADD AND ADD DUP6 PUSH2 0xDF0 JUMP JUMPDEST DUP4 MSTORE RETURNDATASIZE DUP7 DUP9 DUP6 ADD RETURNDATACOPY PUSH2 0x129B JUMP JUMPDEST DUP1 MLOAD SWAP2 DUP3 ISZERO SWAP2 DUP5 DUP4 ISZERO PUSH2 0x1258 JUMPI JUMPDEST POP POP POP SWAP1 POP ISZERO PUSH2 0x1201 JUMPI POP JUMP JUMPDEST PUSH1 0x84 SWAP1 PUSH1 0x40 MLOAD SWAP1 PUSH3 0x461BCD PUSH1 0xE5 SHL DUP3 MSTORE PUSH1 0x4 DUP3 ADD MSTORE PUSH1 0x2A PUSH1 0x24 DUP3 ADD MSTORE PUSH32 0x5361666545524332303A204552433230206F7065726174696F6E20646964206E PUSH1 0x44 DUP3 ADD MSTORE PUSH10 0x1BDD081CDD58D8D95959 PUSH1 0xB2 SHL PUSH1 0x64 DUP3 ADD MSTORE REVERT JUMPDEST SWAP2 SWAP4 DUP2 DUP1 SWAP5 POP ADD SUB SLT PUSH2 0x264 JUMPI DUP3 ADD MLOAD SWAP1 DUP2 ISZERO ISZERO DUP3 SUB PUSH2 0x2A8 JUMPI POP DUP1 CODESIZE DUP1 DUP5 PUSH2 0x11F4 JUMP JUMPDEST PUSH4 0x4E487B71 PUSH1 0xE0 SHL DUP6 MSTORE PUSH1 0x41 PUSH1 0x4 MSTORE PUSH1 0x24 DUP6 REVERT JUMPDEST SWAP1 PUSH2 0x11E6 SWAP4 SWAP3 POP PUSH1 0x60 SWAP2 JUMPDEST SWAP2 SWAP3 SWAP1 ISZERO PUSH2 0x12FD JUMPI POP DUP2 MLOAD ISZERO PUSH2 0x12AF JUMPI POP SWAP1 JUMP JUMPDEST EXTCODESIZE ISZERO PUSH2 0x12B8 JUMPI SWAP1 JUMP JUMPDEST PUSH1 0x40 MLOAD PUSH3 0x461BCD PUSH1 0xE5 SHL DUP2 MSTORE PUSH1 0x20 PUSH1 0x4 DUP3 ADD MSTORE PUSH1 0x1D PUSH1 0x24 DUP3 ADD MSTORE PUSH32 0x416464726573733A2063616C6C20746F206E6F6E2D636F6E7472616374000000 PUSH1 0x44 DUP3 ADD MSTORE PUSH1 0x64 SWAP1 REVERT JUMPDEST DUP3 MLOAD SWAP1 SWAP2 POP ISZERO PUSH2 0x1310 JUMPI POP DUP1 MLOAD SWAP1 PUSH1 0x20 ADD REVERT JUMPDEST PUSH1 0x40 MLOAD PUSH3 0x461BCD PUSH1 0xE5 SHL DUP2 MSTORE SWAP1 DUP2 SWAP1 PUSH2 0x132C SWAP1 PUSH1 0x4 DUP4 ADD PUSH2 0xE28 JUMP JUMPDEST SUB SWAP1 REVERT JUMPDEST SWAP2 SWAP1 DUP3 SUB SWAP2 DUP3 GT PUSH2 0xF9E JUMPI JUMP JUMPDEST SWAP2 SWAP1 DUP3 ADD DUP1 SWAP3 GT PUSH2 0xF9E JUMPI JUMP INVALID LOG2 PUSH5 0x6970667358 0x22 SLT KECCAK256 EXTCODECOPY CALLER PUSH22 0x92826238441B7648CAD0855FB974C0E4A81DC0FF27C7 SUB 0xB6 SWAP12 XOR 0x5C ADDMOD PUSH14 0x64736F6C63430008140033000000 "},"methodIdentifiers":{"asset()":"38d52e0f","balanceOf(address)":"70a08231","config()":"79502c55","convertToAssets(uint256)":"07a2d13a","convertToShares(uint256)":"c6e6f592","deposit(uint256,address)":"6e553f65","depositFeeBP()":"54747a70","emergencyWithdraw(uint256)":"5312ea8e","feeDistributor()":"0d43e8ad","localStrategyManager()":"ef5e20af","managementFeeBP()":"1481ed0f","name()":"06fdde03","owner()":"8da5cb5b","pause()":"8456cb59","paused()":"5c975abb","performanceFeeBP()":"5c6a4b23","referralSystem()":"a04e876c","renounceOwnership()":"715018a6","setConfig(address)":"20e3dbd4","setFeeDistributor(address)":"ccfc2e8d","setFees(uint256,uint256,uint256,uint256)":"6fcba377","setLocalStrategyManager(address)":"7f67eec4","setReferralSystem(address)":"9a01126c","symbol()":"95d89b41","totalAssets()":"01e1d114","totalSupply()":"18160ddd","transferOwnership(address)":"f2fde38b","unpause()":"3f4ba83a","usdtAsset()":"3c4f7ca1","withdraw(uint256,address,address)":"b460af94","withdrawalFeeBP()":"ae3bc866"}}}}}