{"contracts/ReferralV3.sol":{"ReferralV3":{"abi":[{"inputs":[{"internalType":"address","name":"_owner","type":"address"}],"stateMutability":"nonpayable","type":"constructor"},{"anonymous":false,"inputs":[{"indexed":true,"internalType":"address","name":"previousOwner","type":"address"},{"indexed":true,"internalType":"address","name":"newOwner","type":"address"}],"name":"OwnershipTransferred","type":"event"},{"anonymous":false,"inputs":[{"indexed":true,"internalType":"address","name":"user","type":"address"},{"indexed":false,"internalType":"uint256","name":"amount","type":"uint256"},{"indexed":false,"internalType":"address[]","name":"referrers","type":"address[]"},{"indexed":false,"internalType":"uint256[]","name":"amounts","type":"uint256[]"}],"name":"RewardsDistributed","type":"event"},{"anonymous":false,"inputs":[{"indexed":true,"internalType":"address","name":"user","type":"address"},{"indexed":true,"internalType":"address","name":"referrer","type":"address"},{"indexed":false,"internalType":"string","name":"code","type":"string"}],"name":"UserRegistered","type":"event"},{"inputs":[],"name":"MAX_BPS","outputs":[{"internalType":"uint256","name":"","type":"uint256"}],"stateMutability":"view","type":"function"},{"inputs":[],"name":"MAX_LEVELS","outputs":[{"internalType":"uint256","name":"","type":"uint256"}],"stateMutability":"view","type":"function"},{"inputs":[{"internalType":"string","name":"","type":"string"}],"name":"codeToUser","outputs":[{"internalType":"address","name":"","type":"address"}],"stateMutability":"view","type":"function"},{"inputs":[{"internalType":"address","name":"_user","type":"address"},{"internalType":"uint256","name":"_amount","type":"uint256"}],"name":"distributeRewards","outputs":[{"internalType":"address[]","name":"","type":"address[]"},{"internalType":"uint256[]","name":"","type":"uint256[]"}],"stateMutability":"nonpayable","type":"function"},{"inputs":[{"internalType":"address","name":"_user","type":"address"}],"name":"getReferralCode","outputs":[{"internalType":"string","name":"","type":"string"}],"stateMutability":"view","type":"function"},{"inputs":[{"internalType":"address","name":"_user","type":"address"}],"name":"getReferrer","outputs":[{"internalType":"address","name":"","type":"address"}],"stateMutability":"view","type":"function"},{"inputs":[{"internalType":"address","name":"_user","type":"address"}],"name":"isRegistered","outputs":[{"internalType":"bool","name":"","type":"bool"}],"stateMutability":"view","type":"function"},{"inputs":[{"internalType":"uint256","name":"","type":"uint256"}],"name":"levelRates","outputs":[{"internalType":"uint256","name":"","type":"uint256"}],"stateMutability":"view","type":"function"},{"inputs":[],"name":"owner","outputs":[{"internalType":"address","name":"","type":"address"}],"stateMutability":"view","type":"function"},{"inputs":[{"internalType":"string","name":"_code","type":"string"}],"name":"register","outputs":[],"stateMutability":"nonpayable","type":"function"},{"inputs":[],"name":"renounceOwnership","outputs":[],"stateMutability":"nonpayable","type":"function"},{"inputs":[{"internalType":"uint256[]","name":"_rates","type":"uint256[]"}],"name":"setLevelRates","outputs":[],"stateMutability":"nonpayable","type":"function"},{"inputs":[{"internalType":"address","name":"newOwner","type":"address"}],"name":"transferOwnership","outputs":[],"stateMutability":"nonpayable","type":"function"},{"inputs":[{"internalType":"address","name":"","type":"address"}],"name":"users","outputs":[{"internalType":"address","name":"referrer","type":"address"},{"internalType":"string","name":"code","type":"string"},{"internalType":"uint256","name":"totalRewards","type":"uint256"},{"internalType":"uint256","name":"referralCount","type":"uint256"}],"stateMutability":"view","type":"function"}],"evm":{"bytecode":{"linkReferences":{},"object":"60806040818152346200044c578162001510803803809162000022828562000451565b83396020938491810103126200044c5751906001600160a01b0382168083036200044c576200005133620004bb565b81516001600160401b03949060a081018681118282101762000436578452610fa081526109c4828201526105dc848201526104b0606082015260809561032087830152600380549260059384835580851062000416575b509660009782895285892090895b868110620003ff57505050620000cc81620004bb565b8651606091821b6001600160601b0319168682019081524260348084019190915282529181019184831182841017620003eb57828952815190209960a0820183811086821117620003d757895260089a8b84528736838501378a5b8c8110620002ef575050505090620001559392918751948591612cab60f11b8884015260228301906200048e565b03976200016b601f19998a810187528662000451565b8681526001908187528189822001948651948511620002db5785548381811c91168015620002d0575b89821014620002bc57601f81116200027f575b50508699601f8511600114620002195750839291620001e698999a8492946200020d575b501b92600019911b1c19161790555b8451928380926200048e565b600281520301902080546001600160a01b03191690911790555161100d9081620005038239f35b87015193508b620001cb565b84939192941699858352878320925b8b811062000269575083620001e6999a9b106200024e575b505050811b019055620001da565b8601519060f884600019921b161c1916905588808062000240565b8782015184559285019290880190880162000228565b868352888320620002a992601f8801811c8201928b8910620002b1575b601f01901c019062000475565b8a80620001a7565b91925082916200029c565b634e487b7160e01b83526022600452602483fd5b90607f169062000194565b634e487b7160e01b82526041600452602482fd5b88811015620003c35781811a600a811015620003805760300160ff81116200036c5760f81b6001600160f81b0319165b855182101562000358578c1a8382860101536000198114620003445760010162000127565b634e487b7160e01b8c52601160045260248cfd5b634e487b7160e01b8d52603260045260248dfd5b634e487b7160e01b8d52601160045260248dfd5b60610160ff90818111620003af578116600919019081116200036c5760f81b6001600160f81b0319166200031f565b634e487b7160e01b8e52601160045260248efd5b634e487b7160e01b8c52603260045260248cfd5b634e487b7160e01b8b52604160045260248bfd5b634e487b7160e01b8a52604160045260248afd5b815161ffff168382015590870190600101620000b6565b6200042f90836000528587600020918201910162000475565b38620000a8565b634e487b7160e01b600052604160045260246000fd5b600080fd5b601f909101601f19168101906001600160401b038211908210176200043657604052565b81811062000481575050565b6000815560010162000475565b9081519160005b838110620004a7575050016000815290565b806020809284010151818501520162000495565b600080546001600160a01b039283166001600160a01b03198216811783559216907f8be0079c531659141344cd1fd0a4f28419497f9722a3daafe3b4186f6b6457e09080a356fe608080604052600436101561001357600080fd5b60003560e01c908163152c172514610c7d57508063345b5b8514610ac85780634a9fefc714610a8d5780636702c7bf14610a71578063715018a614610a185780637879b5ef146109e05780638da5cb5b146109b757806392c4034414610955578063a8031a1d146107ab578063a87430ba14610726578063c3c5a547146106df578063f2c298be146101a4578063f2fde38b146100db5763fd967f47146100b957600080fd5b346100d65760003660031901126100d65760206040516127108152f35b600080fd5b346100d65760203660031901126100d6576100f4610d85565b6100fc610f38565b6001600160a01b0390811690811561015057600054826bffffffffffffffffffffffff60a01b821617600055167f8be0079c531659141344cd1fd0a4f28419497f9722a3daafe3b4186f6b6457e0600080a3005b60405162461bcd60e51b815260206004820152602660248201527f4f776e61626c653a206e6577206f776e657220697320746865207a65726f206160448201526564647265737360d01b6064820152608490fd5b346100d65760203660031901126100d65760043567ffffffffffffffff81116100d657366023820112156100d657806004013567ffffffffffffffff81116100d657602482019160248236920101116100d6576040518183823760028183019081528190036020019020546001600160a01b0316156106ab57336000908152600160205260409020546001600160a01b031661067157806040519283378101906002825260208160018060a01b039303019020541633600052600160205260406000206bffffffffffffffffffffffff60a01b90828282541617905560405191602083013360601b81524260348501526034845283606081011067ffffffffffffffff6060860111176105b05760608401604052835190209260a0810160608201811067ffffffffffffffff8211176105b057604052600860608201526080936020368684013760005b600881106105c657505060226103259461033592604051968792612cab60f11b602085015260608301519283918686019101610d62565b8101036002810186520184610d40565b3360005260016020526001604060002001835167ffffffffffffffff81116105b0576103618254610e68565b601f8111610573575b50602094601f821160011461050d57948192939495600092610502575b50508160011b916000199060031b1c19161790555b6000905b600582106104a9575b50503360005260016020526001604060002001604051908160008254926103cf84610e68565b936001811690811561048f5750600114610453575b50602092506002815203019020903390825416179055336000526001602052604060002060018060a01b03815416907f01be19eddd591828517da57e6c20f06c0259b80c6df19796958b0b8b50604aa1604051602081528061044e33946001602084019101610ea2565b0390a3005b9150506000528160206000206000905b8382106104775750506020918101856103e4565b60209192508060019154848701520191018391610463565b60ff191684525060209380151502830191508690506103e4565b6001600160a01b031680156104fd5780600052600160205260036040600020016104d38154610fa7565b90556000908152600160205260409020546001600160a01b0316906104f790610fa7565b906103a0565b6103a9565b015190508580610387565b601f198216958360005260206000209160005b88811061055b57508360019596979810610542575b505050811b01905561039c565b015160001960f88460031b161c19169055858080610535565b91926020600181928685015181550194019201610520565b6105a090836000526020600020601f840160051c810191602085106105a6575b601f0160051c0190610f90565b8561036a565b9091508190610593565b634e487b7160e01b600052604160045260246000fd5b60208110156106185781811a600a8110156106445760300160ff811161062e5760f81b6001600160f81b031916905b6060840151811015610618576106139160001a878286010153610fa7565b6102ee565b634e487b7160e01b600052603260045260246000fd5b634e487b7160e01b600052601160045260246000fd5b60610160ff9081811161062e5781166009190190811161062e5760f81b6001600160f81b031916906105f5565b60405162461bcd60e51b8152602060048201526012602482015271105b1c9958591e481c9959da5cdd195c995960721b6044820152606490fd5b60405162461bcd60e51b815260206004820152600c60248201526b496e76616c696420636f646560a01b6044820152606490fd5b346100d65760203660031901126100d6576001600160a01b03610700610d85565b166000526001602052602061071c600160406000200154610e68565b1515604051908152f35b346100d65760203660031901126100d6576001600160a01b0380610748610d85565b166000526001602052604060002090815416604051916107768361076f8160018501610ea2565b0384610d40565b6003600282015491015461079c6040519485948552608060208601526080850190610dd2565b91604084015260608301520390f35b346100d65760403660031901126100d6576107c4610d85565b60405160248035926107d583610d24565b60059182845260209260a03685870137604051926107f284610d24565b81845260a0368686013760018060a01b038091169283600052600190818752826040600020541660008a15915b8682106108a7575b6108968b6108a38c8f8c7f8b2bc56c62594afde5b520e83e1ca19ebd071798db21382e328014f47b31ce578f926040519081526060858201528061087f610871606083018a610df7565b828103604084015286610e34565b0390a2604051948594604086526040860190610df7565b9184830390850152610e34565b0390f35b85168015610950576108b882610d9b565b90549060031b1c808d02908d82041484171561093b576127109004818b848e8985610901575b5050505050506000528389526108fb856040600020541691610fa7565b9061081f565b610924938560005252600260406000200161091d868254610fb6565b9055610fc3565b5261092f838b610fc3565b528c818b848e896108de565b84634e487b7160e01b60005260116004526000fd5b610827565b346100d65760203660031901126100d6576001600160a01b03610976610d85565b1660005260016020526108a361099c6109a3600160406000200160405192838092610ea2565b0382610d40565b604051918291602083526020830190610dd2565b346100d65760003660031901126100d6576000546040516001600160a01b039091168152602090f35b346100d65760203660031901126100d6576004356003548110156100d657610a09602091610d9b565b90549060031b1c604051908152f35b346100d65760003660031901126100d657610a31610f38565b600080546001600160a01b0319811682556001600160a01b03167f8be0079c531659141344cd1fd0a4f28419497f9722a3daafe3b4186f6b6457e08280a3005b346100d65760003660031901126100d657602060405160058152f35b346100d65760203660031901126100d65760206001600160a01b0380610ab1610d85565b166000526001825260406000205416604051908152f35b346100d6576020806003193601126100d65767ffffffffffffffff6004358181116100d657366023820112156100d65780600401359182116100d6576024906005368385831b840101116100d657610b1e610f38565b808403610c4257600080915b858310610c1f5750612710915011610be657680100000000000000008311610bd15760035483600355808410610b9b575b500160005b828110610b6957005b81357fc2575a0e9e593c00f959f8c92f12db2869c3395a3b0502d05e2516446f71f85b82015590830190600101610b60565b610bcb90847fc2575a0e9e593c00f959f8c92f12db2869c3395a3b0502d05e2516446f71f85b9182019101610f90565b84610b5b565b50634e487b7160e01b60009081526041600452fd5b60405162461bcd60e51b81526004810185905260128184015271546f74616c2065786365656473203130302560701b6044820152606490fd5b90610c35610c3b918685851b8701013590610fb6565b92610fa7565b9190610b2a565b60405162461bcd60e51b81526004810186905260148185015273092dcecc2d8d2c840e4c2e8cae640d8cadccee8d60631b6044820152606490fd5b346100d657602090816003193601126100d6576004359067ffffffffffffffff8083116100d657366023840112156100d65782600401359081116105b057610cce601f8201601f1916850183610d40565b8082528382019236602483830101116100d657816000926024879301863783010152610d0260405192839251928391610d62565b600290820190815281900382019020546040516001600160a01b039091168152f35b60c0810190811067ffffffffffffffff8211176105b057604052565b90601f8019910116810190811067ffffffffffffffff8211176105b057604052565b60005b838110610d755750506000910152565b8181015183820152602001610d65565b600435906001600160a01b03821682036100d657565b6003548110156106185760036000527fc2575a0e9e593c00f959f8c92f12db2869c3395a3b0502d05e2516446f71f85b0190600090565b90602091610deb81518092818552858086019101610d62565b601f01601f1916010190565b90815180825260208080930193019160005b828110610e17575050505090565b83516001600160a01b031685529381019392810192600101610e09565b90815180825260208080930193019160005b828110610e54575050505090565b835185529381019392810192600101610e46565b90600182811c92168015610e98575b6020831014610e8257565b634e487b7160e01b600052602260045260246000fd5b91607f1691610e77565b9060009291805491610eb383610e68565b918282526001938481169081600014610f155750600114610ed5575b50505050565b90919394506000526020928360002092846000945b838610610f01575050505001019038808080610ecf565b805485870183015294019385908201610eea565b9294505050602093945060ff191683830152151560051b01019038808080610ecf565b6000546001600160a01b03163303610f4c57565b606460405162461bcd60e51b815260206004820152602060248201527f4f776e61626c653a2063616c6c6572206973206e6f7420746865206f776e65726044820152fd5b818110610f9b575050565b60008155600101610f90565b600019811461062e5760010190565b9190820180921161062e57565b80518210156106185760209160051b01019056fea26469706673582212201066954550e54aa9af265ede5568633d16674e1e858b2a53038fc1aadbdc146664736f6c63430008140033","opcodes":"PUSH1 0x80 PUSH1 0x40 DUP2 DUP2 MSTORE CALLVALUE PUSH3 0x44C JUMPI DUP2 PUSH3 0x1510 DUP1 CODESIZE SUB DUP1 SWAP2 PUSH3 0x22 DUP3 DUP6 PUSH3 0x451 JUMP JUMPDEST DUP4 CODECOPY PUSH1 0x20 SWAP4 DUP5 SWAP2 DUP2 ADD SUB SLT PUSH3 0x44C JUMPI MLOAD SWAP1 PUSH1 0x1 PUSH1 0x1 PUSH1 0xA0 SHL SUB DUP3 AND DUP1 DUP4 SUB PUSH3 0x44C JUMPI PUSH3 0x51 CALLER PUSH3 0x4BB JUMP JUMPDEST DUP2 MLOAD PUSH1 0x1 PUSH1 0x1 PUSH1 0x40 SHL SUB SWAP5 SWAP1 PUSH1 0xA0 DUP2 ADD DUP7 DUP2 GT DUP3 DUP3 LT OR PUSH3 0x436 JUMPI DUP5 MSTORE PUSH2 0xFA0 DUP2 MSTORE PUSH2 0x9C4 DUP3 DUP3 ADD MSTORE PUSH2 0x5DC DUP5 DUP3 ADD MSTORE PUSH2 0x4B0 PUSH1 0x60 DUP3 ADD MSTORE PUSH1 0x80 SWAP6 PUSH2 0x320 DUP8 DUP4 ADD MSTORE PUSH1 0x3 DUP1 SLOAD SWAP3 PUSH1 0x5 SWAP4 DUP5 DUP4 SSTORE DUP1 DUP6 LT PUSH3 0x416 JUMPI JUMPDEST POP SWAP7 PUSH1 0x0 SWAP8 DUP3 DUP10 MSTORE DUP6 DUP10 KECCAK256 SWAP1 DUP10 JUMPDEST DUP7 DUP2 LT PUSH3 0x3FF JUMPI POP POP POP PUSH3 0xCC DUP2 PUSH3 0x4BB JUMP JUMPDEST DUP7 MLOAD PUSH1 0x60 SWAP2 DUP3 SHL PUSH1 0x1 PUSH1 0x1 PUSH1 0x60 SHL SUB NOT AND DUP7 DUP3 ADD SWAP1 DUP2 MSTORE TIMESTAMP PUSH1 0x34 DUP1 DUP5 ADD SWAP2 SWAP1 SWAP2 MSTORE DUP3 MSTORE SWAP2 DUP2 ADD SWAP2 DUP5 DUP4 GT DUP3 DUP5 LT OR PUSH3 0x3EB JUMPI DUP3 DUP10 MSTORE DUP2 MLOAD SWAP1 KECCAK256 SWAP10 PUSH1 0xA0 DUP3 ADD DUP4 DUP2 LT DUP7 DUP3 GT OR PUSH3 0x3D7 JUMPI DUP10 MSTORE PUSH1 0x8 SWAP11 DUP12 DUP5 MSTORE DUP8 CALLDATASIZE DUP4 DUP6 ADD CALLDATACOPY DUP11 JUMPDEST DUP13 DUP2 LT PUSH3 0x2EF JUMPI POP POP POP POP SWAP1 PUSH3 0x155 SWAP4 SWAP3 SWAP2 DUP8 MLOAD SWAP5 DUP6 SWAP2 PUSH2 0x2CAB PUSH1 0xF1 SHL DUP9 DUP5 ADD MSTORE PUSH1 0x22 DUP4 ADD SWAP1 PUSH3 0x48E JUMP JUMPDEST SUB SWAP8 PUSH3 0x16B PUSH1 0x1F NOT SWAP10 DUP11 DUP2 ADD DUP8 MSTORE DUP7 PUSH3 0x451 JUMP JUMPDEST DUP7 DUP2 MSTORE PUSH1 0x1 SWAP1 DUP2 DUP8 MSTORE DUP2 DUP10 DUP3 KECCAK256 ADD SWAP5 DUP7 MLOAD SWAP5 DUP6 GT PUSH3 0x2DB JUMPI DUP6 SLOAD DUP4 DUP2 DUP2 SHR SWAP2 AND DUP1 ISZERO PUSH3 0x2D0 JUMPI JUMPDEST DUP10 DUP3 LT EQ PUSH3 0x2BC JUMPI PUSH1 0x1F DUP2 GT PUSH3 0x27F JUMPI JUMPDEST POP POP DUP7 SWAP10 PUSH1 0x1F DUP6 GT PUSH1 0x1 EQ PUSH3 0x219 JUMPI POP DUP4 SWAP3 SWAP2 PUSH3 0x1E6 SWAP9 SWAP10 SWAP11 DUP5 SWAP3 SWAP5 PUSH3 0x20D JUMPI JUMPDEST POP SHL SWAP3 PUSH1 0x0 NOT SWAP2 SHL SHR NOT AND OR SWAP1 SSTORE JUMPDEST DUP5 MLOAD SWAP3 DUP4 DUP1 SWAP3 PUSH3 0x48E JUMP JUMPDEST PUSH1 0x2 DUP2 MSTORE SUB ADD SWAP1 KECCAK256 DUP1 SLOAD PUSH1 0x1 PUSH1 0x1 PUSH1 0xA0 SHL SUB NOT AND SWAP1 SWAP2 OR SWAP1 SSTORE MLOAD PUSH2 0x100D SWAP1 DUP2 PUSH3 0x503 DUP3 CODECOPY RETURN JUMPDEST DUP8 ADD MLOAD SWAP4 POP DUP12 PUSH3 0x1CB JUMP JUMPDEST DUP5 SWAP4 SWAP2 SWAP3 SWAP5 AND SWAP10 DUP6 DUP4 MSTORE DUP8 DUP4 KECCAK256 SWAP3 JUMPDEST DUP12 DUP2 LT PUSH3 0x269 JUMPI POP DUP4 PUSH3 0x1E6 SWAP10 SWAP11 SWAP12 LT PUSH3 0x24E JUMPI JUMPDEST POP POP POP DUP2 SHL ADD SWAP1 SSTORE PUSH3 0x1DA JUMP JUMPDEST DUP7 ADD MLOAD SWAP1 PUSH1 0xF8 DUP5 PUSH1 0x0 NOT SWAP3 SHL AND SHR NOT AND SWAP1 SSTORE DUP9 DUP1 DUP1 PUSH3 0x240 JUMP JUMPDEST DUP8 DUP3 ADD MLOAD DUP5 SSTORE SWAP3 DUP6 ADD SWAP3 SWAP1 DUP9 ADD SWAP1 DUP9 ADD PUSH3 0x228 JUMP JUMPDEST DUP7 DUP4 MSTORE DUP9 DUP4 KECCAK256 PUSH3 0x2A9 SWAP3 PUSH1 0x1F DUP9 ADD DUP2 SHR DUP3 ADD SWAP3 DUP12 DUP10 LT PUSH3 0x2B1 JUMPI JUMPDEST PUSH1 0x1F ADD SWAP1 SHR ADD SWAP1 PUSH3 0x475 JUMP JUMPDEST DUP11 DUP1 PUSH3 0x1A7 JUMP JUMPDEST SWAP2 SWAP3 POP DUP3 SWAP2 PUSH3 0x29C JUMP JUMPDEST PUSH4 0x4E487B71 PUSH1 0xE0 SHL DUP4 MSTORE PUSH1 0x22 PUSH1 0x4 MSTORE PUSH1 0x24 DUP4 REVERT JUMPDEST SWAP1 PUSH1 0x7F AND SWAP1 PUSH3 0x194 JUMP JUMPDEST PUSH4 0x4E487B71 PUSH1 0xE0 SHL DUP3 MSTORE PUSH1 0x41 PUSH1 0x4 MSTORE PUSH1 0x24 DUP3 REVERT JUMPDEST DUP9 DUP2 LT ISZERO PUSH3 0x3C3 JUMPI DUP2 DUP2 BYTE PUSH1 0xA DUP2 LT ISZERO PUSH3 0x380 JUMPI PUSH1 0x30 ADD PUSH1 0xFF DUP2 GT PUSH3 0x36C JUMPI PUSH1 0xF8 SHL PUSH1 0x1 PUSH1 0x1 PUSH1 0xF8 SHL SUB NOT AND JUMPDEST DUP6 MLOAD DUP3 LT ISZERO PUSH3 0x358 JUMPI DUP13 BYTE DUP4 DUP3 DUP7 ADD ADD MSTORE8 PUSH1 0x0 NOT DUP2 EQ PUSH3 0x344 JUMPI PUSH1 0x1 ADD PUSH3 0x127 JUMP JUMPDEST PUSH4 0x4E487B71 PUSH1 0xE0 SHL DUP13 MSTORE PUSH1 0x11 PUSH1 0x4 MSTORE PUSH1 0x24 DUP13 REVERT JUMPDEST PUSH4 0x4E487B71 PUSH1 0xE0 SHL DUP14 MSTORE PUSH1 0x32 PUSH1 0x4 MSTORE PUSH1 0x24 DUP14 REVERT JUMPDEST PUSH4 0x4E487B71 PUSH1 0xE0 SHL DUP14 MSTORE PUSH1 0x11 PUSH1 0x4 MSTORE PUSH1 0x24 DUP14 REVERT JUMPDEST PUSH1 0x61 ADD PUSH1 0xFF SWAP1 DUP2 DUP2 GT PUSH3 0x3AF JUMPI DUP2 AND PUSH1 0x9 NOT ADD SWAP1 DUP2 GT PUSH3 0x36C JUMPI PUSH1 0xF8 SHL PUSH1 0x1 PUSH1 0x1 PUSH1 0xF8 SHL SUB NOT AND PUSH3 0x31F JUMP JUMPDEST PUSH4 0x4E487B71 PUSH1 0xE0 SHL DUP15 MSTORE PUSH1 0x11 PUSH1 0x4 MSTORE PUSH1 0x24 DUP15 REVERT JUMPDEST PUSH4 0x4E487B71 PUSH1 0xE0 SHL DUP13 MSTORE PUSH1 0x32 PUSH1 0x4 MSTORE PUSH1 0x24 DUP13 REVERT JUMPDEST PUSH4 0x4E487B71 PUSH1 0xE0 SHL DUP12 MSTORE PUSH1 0x41 PUSH1 0x4 MSTORE PUSH1 0x24 DUP12 REVERT JUMPDEST PUSH4 0x4E487B71 PUSH1 0xE0 SHL DUP11 MSTORE PUSH1 0x41 PUSH1 0x4 MSTORE PUSH1 0x24 DUP11 REVERT JUMPDEST DUP2 MLOAD PUSH2 0xFFFF AND DUP4 DUP3 ADD SSTORE SWAP1 DUP8 ADD SWAP1 PUSH1 0x1 ADD PUSH3 0xB6 JUMP JUMPDEST PUSH3 0x42F SWAP1 DUP4 PUSH1 0x0 MSTORE DUP6 DUP8 PUSH1 0x0 KECCAK256 SWAP2 DUP3 ADD SWAP2 ADD PUSH3 0x475 JUMP JUMPDEST CODESIZE PUSH3 0xA8 JUMP JUMPDEST PUSH4 0x4E487B71 PUSH1 0xE0 SHL PUSH1 0x0 MSTORE PUSH1 0x41 PUSH1 0x4 MSTORE PUSH1 0x24 PUSH1 0x0 REVERT JUMPDEST PUSH1 0x0 DUP1 REVERT JUMPDEST PUSH1 0x1F SWAP1 SWAP2 ADD PUSH1 0x1F NOT AND DUP2 ADD SWAP1 PUSH1 0x1 PUSH1 0x1 PUSH1 0x40 SHL SUB DUP3 GT SWAP1 DUP3 LT OR PUSH3 0x436 JUMPI PUSH1 0x40 MSTORE JUMP JUMPDEST DUP2 DUP2 LT PUSH3 0x481 JUMPI POP POP JUMP JUMPDEST PUSH1 0x0 DUP2 SSTORE PUSH1 0x1 ADD PUSH3 0x475 JUMP JUMPDEST SWAP1 DUP2 MLOAD SWAP2 PUSH1 0x0 JUMPDEST DUP4 DUP2 LT PUSH3 0x4A7 JUMPI POP POP ADD PUSH1 0x0 DUP2 MSTORE SWAP1 JUMP JUMPDEST DUP1 PUSH1 0x20 DUP1 SWAP3 DUP5 ADD ADD MLOAD DUP2 DUP6 ADD MSTORE ADD PUSH3 0x495 JUMP JUMPDEST PUSH1 0x0 DUP1 SLOAD PUSH1 0x1 PUSH1 0x1 PUSH1 0xA0 SHL SUB SWAP3 DUP4 AND PUSH1 0x1 PUSH1 0x1 PUSH1 0xA0 SHL SUB NOT DUP3 AND DUP2 OR DUP4 SSTORE SWAP3 AND SWAP1 PUSH32 0x8BE0079C531659141344CD1FD0A4F28419497F9722A3DAAFE3B4186F6B6457E0 SWAP1 DUP1 LOG3 JUMP INVALID PUSH1 0x80 DUP1 PUSH1 0x40 MSTORE PUSH1 0x4 CALLDATASIZE LT ISZERO PUSH2 0x13 JUMPI PUSH1 0x0 DUP1 REVERT JUMPDEST PUSH1 0x0 CALLDATALOAD PUSH1 0xE0 SHR SWAP1 DUP2 PUSH4 0x152C1725 EQ PUSH2 0xC7D JUMPI POP DUP1 PUSH4 0x345B5B85 EQ PUSH2 0xAC8 JUMPI DUP1 PUSH4 0x4A9FEFC7 EQ PUSH2 0xA8D JUMPI DUP1 PUSH4 0x6702C7BF EQ PUSH2 0xA71 JUMPI DUP1 PUSH4 0x715018A6 EQ PUSH2 0xA18 JUMPI DUP1 PUSH4 0x7879B5EF EQ PUSH2 0x9E0 JUMPI DUP1 PUSH4 0x8DA5CB5B EQ PUSH2 0x9B7 JUMPI DUP1 PUSH4 0x92C40344 EQ PUSH2 0x955 JUMPI DUP1 PUSH4 0xA8031A1D EQ PUSH2 0x7AB JUMPI DUP1 PUSH4 0xA87430BA EQ PUSH2 0x726 JUMPI DUP1 PUSH4 0xC3C5A547 EQ PUSH2 0x6DF JUMPI DUP1 PUSH4 0xF2C298BE EQ PUSH2 0x1A4 JUMPI DUP1 PUSH4 0xF2FDE38B EQ PUSH2 0xDB JUMPI PUSH4 0xFD967F47 EQ PUSH2 0xB9 JUMPI PUSH1 0x0 DUP1 REVERT JUMPDEST CALLVALUE PUSH2 0xD6 JUMPI PUSH1 0x0 CALLDATASIZE PUSH1 0x3 NOT ADD SLT PUSH2 0xD6 JUMPI PUSH1 0x20 PUSH1 0x40 MLOAD PUSH2 0x2710 DUP2 MSTORE RETURN JUMPDEST PUSH1 0x0 DUP1 REVERT JUMPDEST CALLVALUE PUSH2 0xD6 JUMPI PUSH1 0x20 CALLDATASIZE PUSH1 0x3 NOT ADD SLT PUSH2 0xD6 JUMPI PUSH2 0xF4 PUSH2 0xD85 JUMP JUMPDEST PUSH2 0xFC PUSH2 0xF38 JUMP JUMPDEST PUSH1 0x1 PUSH1 0x1 PUSH1 0xA0 SHL SUB SWAP1 DUP2 AND SWAP1 DUP2 ISZERO PUSH2 0x150 JUMPI PUSH1 0x0 SLOAD DUP3 PUSH12 0xFFFFFFFFFFFFFFFFFFFFFFFF PUSH1 0xA0 SHL DUP3 AND OR PUSH1 0x0 SSTORE AND PUSH32 0x8BE0079C531659141344CD1FD0A4F28419497F9722A3DAAFE3B4186F6B6457E0 PUSH1 0x0 DUP1 LOG3 STOP JUMPDEST PUSH1 0x40 MLOAD PUSH3 0x461BCD PUSH1 0xE5 SHL DUP2 MSTORE PUSH1 0x20 PUSH1 0x4 DUP3 ADD MSTORE PUSH1 0x26 PUSH1 0x24 DUP3 ADD MSTORE PUSH32 0x4F776E61626C653A206E6577206F776E657220697320746865207A65726F2061 PUSH1 0x44 DUP3 ADD MSTORE PUSH6 0x646472657373 PUSH1 0xD0 SHL PUSH1 0x64 DUP3 ADD MSTORE PUSH1 0x84 SWAP1 REVERT JUMPDEST CALLVALUE PUSH2 0xD6 JUMPI PUSH1 0x20 CALLDATASIZE PUSH1 0x3 NOT ADD SLT PUSH2 0xD6 JUMPI PUSH1 0x4 CALLDATALOAD PUSH8 0xFFFFFFFFFFFFFFFF DUP2 GT PUSH2 0xD6 JUMPI CALLDATASIZE PUSH1 0x23 DUP3 ADD SLT ISZERO PUSH2 0xD6 JUMPI DUP1 PUSH1 0x4 ADD CALLDATALOAD PUSH8 0xFFFFFFFFFFFFFFFF DUP2 GT PUSH2 0xD6 JUMPI PUSH1 0x24 DUP3 ADD SWAP2 PUSH1 0x24 DUP3 CALLDATASIZE SWAP3 ADD ADD GT PUSH2 0xD6 JUMPI PUSH1 0x40 MLOAD DUP2 DUP4 DUP3 CALLDATACOPY PUSH1 0x2 DUP2 DUP4 ADD SWAP1 DUP2 MSTORE DUP2 SWAP1 SUB PUSH1 0x20 ADD SWAP1 KECCAK256 SLOAD PUSH1 0x1 PUSH1 0x1 PUSH1 0xA0 SHL SUB AND ISZERO PUSH2 0x6AB JUMPI CALLER PUSH1 0x0 SWAP1 DUP2 MSTORE PUSH1 0x1 PUSH1 0x20 MSTORE PUSH1 0x40 SWAP1 KECCAK256 SLOAD PUSH1 0x1 PUSH1 0x1 PUSH1 0xA0 SHL SUB AND PUSH2 0x671 JUMPI DUP1 PUSH1 0x40 MLOAD SWAP3 DUP4 CALLDATACOPY DUP2 ADD SWAP1 PUSH1 0x2 DUP3 MSTORE PUSH1 0x20 DUP2 PUSH1 0x1 DUP1 PUSH1 0xA0 SHL SUB SWAP4 SUB ADD SWAP1 KECCAK256 SLOAD AND CALLER PUSH1 0x0 MSTORE PUSH1 0x1 PUSH1 0x20 MSTORE PUSH1 0x40 PUSH1 0x0 KECCAK256 PUSH12 0xFFFFFFFFFFFFFFFFFFFFFFFF PUSH1 0xA0 SHL SWAP1 DUP3 DUP3 DUP3 SLOAD AND OR SWAP1 SSTORE PUSH1 0x40 MLOAD SWAP2 PUSH1 0x20 DUP4 ADD CALLER PUSH1 0x60 SHL DUP2 MSTORE TIMESTAMP PUSH1 0x34 DUP6 ADD MSTORE PUSH1 0x34 DUP5 MSTORE DUP4 PUSH1 0x60 DUP2 ADD LT PUSH8 0xFFFFFFFFFFFFFFFF PUSH1 0x60 DUP7 ADD GT OR PUSH2 0x5B0 JUMPI PUSH1 0x60 DUP5 ADD PUSH1 0x40 MSTORE DUP4 MLOAD SWAP1 KECCAK256 SWAP3 PUSH1 0xA0 DUP2 ADD PUSH1 0x60 DUP3 ADD DUP2 LT PUSH8 0xFFFFFFFFFFFFFFFF DUP3 GT OR PUSH2 0x5B0 JUMPI PUSH1 0x40 MSTORE PUSH1 0x8 PUSH1 0x60 DUP3 ADD MSTORE PUSH1 0x80 SWAP4 PUSH1 0x20 CALLDATASIZE DUP7 DUP5 ADD CALLDATACOPY PUSH1 0x0 JUMPDEST PUSH1 0x8 DUP2 LT PUSH2 0x5C6 JUMPI POP POP PUSH1 0x22 PUSH2 0x325 SWAP5 PUSH2 0x335 SWAP3 PUSH1 0x40 MLOAD SWAP7 DUP8 SWAP3 PUSH2 0x2CAB PUSH1 0xF1 SHL PUSH1 0x20 DUP6 ADD MSTORE PUSH1 0x60 DUP4 ADD MLOAD SWAP3 DUP4 SWAP2 DUP7 DUP7 ADD SWAP2 ADD PUSH2 0xD62 JUMP JUMPDEST DUP2 ADD SUB PUSH1 0x2 DUP2 ADD DUP7 MSTORE ADD DUP5 PUSH2 0xD40 JUMP JUMPDEST CALLER PUSH1 0x0 MSTORE PUSH1 0x1 PUSH1 0x20 MSTORE PUSH1 0x1 PUSH1 0x40 PUSH1 0x0 KECCAK256 ADD DUP4 MLOAD PUSH8 0xFFFFFFFFFFFFFFFF DUP2 GT PUSH2 0x5B0 JUMPI PUSH2 0x361 DUP3 SLOAD PUSH2 0xE68 JUMP JUMPDEST PUSH1 0x1F DUP2 GT PUSH2 0x573 JUMPI JUMPDEST POP PUSH1 0x20 SWAP5 PUSH1 0x1F DUP3 GT PUSH1 0x1 EQ PUSH2 0x50D JUMPI SWAP5 DUP2 SWAP3 SWAP4 SWAP5 SWAP6 PUSH1 0x0 SWAP3 PUSH2 0x502 JUMPI JUMPDEST POP POP DUP2 PUSH1 0x1 SHL SWAP2 PUSH1 0x0 NOT SWAP1 PUSH1 0x3 SHL SHR NOT AND OR SWAP1 SSTORE JUMPDEST PUSH1 0x0 SWAP1 JUMPDEST PUSH1 0x5 DUP3 LT PUSH2 0x4A9 JUMPI JUMPDEST POP POP CALLER PUSH1 0x0 MSTORE PUSH1 0x1 PUSH1 0x20 MSTORE PUSH1 0x1 PUSH1 0x40 PUSH1 0x0 KECCAK256 ADD PUSH1 0x40 MLOAD SWAP1 DUP2 PUSH1 0x0 DUP3 SLOAD SWAP3 PUSH2 0x3CF DUP5 PUSH2 0xE68 JUMP JUMPDEST SWAP4 PUSH1 0x1 DUP2 AND SWAP1 DUP2 ISZERO PUSH2 0x48F JUMPI POP PUSH1 0x1 EQ PUSH2 0x453 JUMPI JUMPDEST POP PUSH1 0x20 SWAP3 POP PUSH1 0x2 DUP2 MSTORE SUB ADD SWAP1 KECCAK256 SWAP1 CALLER SWAP1 DUP3 SLOAD AND OR SWAP1 SSTORE CALLER PUSH1 0x0 MSTORE PUSH1 0x1 PUSH1 0x20 MSTORE PUSH1 0x40 PUSH1 0x0 KECCAK256 PUSH1 0x1 DUP1 PUSH1 0xA0 SHL SUB DUP2 SLOAD AND SWAP1 PUSH32 0x1BE19EDDD591828517DA57E6C20F06C0259B80C6DF19796958B0B8B50604AA1 PUSH1 0x40 MLOAD PUSH1 0x20 DUP2 MSTORE DUP1 PUSH2 0x44E CALLER SWAP5 PUSH1 0x1 PUSH1 0x20 DUP5 ADD SWAP2 ADD PUSH2 0xEA2 JUMP JUMPDEST SUB SWAP1 LOG3 STOP JUMPDEST SWAP2 POP POP PUSH1 0x0 MSTORE DUP2 PUSH1 0x20 PUSH1 0x0 KECCAK256 PUSH1 0x0 SWAP1 JUMPDEST DUP4 DUP3 LT PUSH2 0x477 JUMPI POP POP PUSH1 0x20 SWAP2 DUP2 ADD DUP6 PUSH2 0x3E4 JUMP JUMPDEST PUSH1 0x20 SWAP2 SWAP3 POP DUP1 PUSH1 0x1 SWAP2 SLOAD DUP5 DUP8 ADD MSTORE ADD SWAP2 ADD DUP4 SWAP2 PUSH2 0x463 JUMP JUMPDEST PUSH1 0xFF NOT AND DUP5 MSTORE POP PUSH1 0x20 SWAP4 DUP1 ISZERO ISZERO MUL DUP4 ADD SWAP2 POP DUP7 SWAP1 POP PUSH2 0x3E4 JUMP JUMPDEST PUSH1 0x1 PUSH1 0x1 PUSH1 0xA0 SHL SUB AND DUP1 ISZERO PUSH2 0x4FD JUMPI DUP1 PUSH1 0x0 MSTORE PUSH1 0x1 PUSH1 0x20 MSTORE PUSH1 0x3 PUSH1 0x40 PUSH1 0x0 KECCAK256 ADD PUSH2 0x4D3 DUP2 SLOAD PUSH2 0xFA7 JUMP JUMPDEST SWAP1 SSTORE PUSH1 0x0 SWAP1 DUP2 MSTORE PUSH1 0x1 PUSH1 0x20 MSTORE PUSH1 0x40 SWAP1 KECCAK256 SLOAD PUSH1 0x1 PUSH1 0x1 PUSH1 0xA0 SHL SUB AND SWAP1 PUSH2 0x4F7 SWAP1 PUSH2 0xFA7 JUMP JUMPDEST SWAP1 PUSH2 0x3A0 JUMP JUMPDEST PUSH2 0x3A9 JUMP JUMPDEST ADD MLOAD SWAP1 POP DUP6 DUP1 PUSH2 0x387 JUMP JUMPDEST PUSH1 0x1F NOT DUP3 AND SWAP6 DUP4 PUSH1 0x0 MSTORE PUSH1 0x20 PUSH1 0x0 KECCAK256 SWAP2 PUSH1 0x0 JUMPDEST DUP9 DUP2 LT PUSH2 0x55B JUMPI POP DUP4 PUSH1 0x1 SWAP6 SWAP7 SWAP8 SWAP9 LT PUSH2 0x542 JUMPI JUMPDEST POP POP POP DUP2 SHL ADD SWAP1 SSTORE PUSH2 0x39C JUMP JUMPDEST ADD MLOAD PUSH1 0x0 NOT PUSH1 0xF8 DUP5 PUSH1 0x3 SHL AND SHR NOT AND SWAP1 SSTORE DUP6 DUP1 DUP1 PUSH2 0x535 JUMP JUMPDEST SWAP2 SWAP3 PUSH1 0x20 PUSH1 0x1 DUP2 SWAP3 DUP7 DUP6 ADD MLOAD DUP2 SSTORE ADD SWAP5 ADD SWAP3 ADD PUSH2 0x520 JUMP JUMPDEST PUSH2 0x5A0 SWAP1 DUP4 PUSH1 0x0 MSTORE PUSH1 0x20 PUSH1 0x0 KECCAK256 PUSH1 0x1F DUP5 ADD PUSH1 0x5 SHR DUP2 ADD SWAP2 PUSH1 0x20 DUP6 LT PUSH2 0x5A6 JUMPI JUMPDEST PUSH1 0x1F ADD PUSH1 0x5 SHR ADD SWAP1 PUSH2 0xF90 JUMP JUMPDEST DUP6 PUSH2 0x36A JUMP JUMPDEST SWAP1 SWAP2 POP DUP2 SWAP1 PUSH2 0x593 JUMP JUMPDEST PUSH4 0x4E487B71 PUSH1 0xE0 SHL PUSH1 0x0 MSTORE PUSH1 0x41 PUSH1 0x4 MSTORE PUSH1 0x24 PUSH1 0x0 REVERT JUMPDEST PUSH1 0x20 DUP2 LT ISZERO PUSH2 0x618 JUMPI DUP2 DUP2 BYTE PUSH1 0xA DUP2 LT ISZERO PUSH2 0x644 JUMPI PUSH1 0x30 ADD PUSH1 0xFF DUP2 GT PUSH2 0x62E JUMPI PUSH1 0xF8 SHL PUSH1 0x1 PUSH1 0x1 PUSH1 0xF8 SHL SUB NOT AND SWAP1 JUMPDEST PUSH1 0x60 DUP5 ADD MLOAD DUP2 LT ISZERO PUSH2 0x618 JUMPI PUSH2 0x613 SWAP2 PUSH1 0x0 BYTE DUP8 DUP3 DUP7 ADD ADD MSTORE8 PUSH2 0xFA7 JUMP JUMPDEST PUSH2 0x2EE JUMP JUMPDEST PUSH4 0x4E487B71 PUSH1 0xE0 SHL PUSH1 0x0 MSTORE PUSH1 0x32 PUSH1 0x4 MSTORE PUSH1 0x24 PUSH1 0x0 REVERT JUMPDEST PUSH4 0x4E487B71 PUSH1 0xE0 SHL PUSH1 0x0 MSTORE PUSH1 0x11 PUSH1 0x4 MSTORE PUSH1 0x24 PUSH1 0x0 REVERT JUMPDEST PUSH1 0x61 ADD PUSH1 0xFF SWAP1 DUP2 DUP2 GT PUSH2 0x62E JUMPI DUP2 AND PUSH1 0x9 NOT ADD SWAP1 DUP2 GT PUSH2 0x62E JUMPI PUSH1 0xF8 SHL PUSH1 0x1 PUSH1 0x1 PUSH1 0xF8 SHL SUB NOT AND SWAP1 PUSH2 0x5F5 JUMP JUMPDEST PUSH1 0x40 MLOAD PUSH3 0x461BCD PUSH1 0xE5 SHL DUP2 MSTORE PUSH1 0x20 PUSH1 0x4 DUP3 ADD MSTORE PUSH1 0x12 PUSH1 0x24 DUP3 ADD MSTORE PUSH18 0x105B1C9958591E481C9959DA5CDD195C9959 PUSH1 0x72 SHL PUSH1 0x44 DUP3 ADD MSTORE PUSH1 0x64 SWAP1 REVERT JUMPDEST PUSH1 0x40 MLOAD PUSH3 0x461BCD PUSH1 0xE5 SHL DUP2 MSTORE PUSH1 0x20 PUSH1 0x4 DUP3 ADD MSTORE PUSH1 0xC PUSH1 0x24 DUP3 ADD MSTORE PUSH12 0x496E76616C696420636F6465 PUSH1 0xA0 SHL PUSH1 0x44 DUP3 ADD MSTORE PUSH1 0x64 SWAP1 REVERT JUMPDEST CALLVALUE PUSH2 0xD6 JUMPI PUSH1 0x20 CALLDATASIZE PUSH1 0x3 NOT ADD SLT PUSH2 0xD6 JUMPI PUSH1 0x1 PUSH1 0x1 PUSH1 0xA0 SHL SUB PUSH2 0x700 PUSH2 0xD85 JUMP JUMPDEST AND PUSH1 0x0 MSTORE PUSH1 0x1 PUSH1 0x20 MSTORE PUSH1 0x20 PUSH2 0x71C PUSH1 0x1 PUSH1 0x40 PUSH1 0x0 KECCAK256 ADD SLOAD PUSH2 0xE68 JUMP JUMPDEST ISZERO ISZERO PUSH1 0x40 MLOAD SWAP1 DUP2 MSTORE RETURN JUMPDEST CALLVALUE PUSH2 0xD6 JUMPI PUSH1 0x20 CALLDATASIZE PUSH1 0x3 NOT ADD SLT PUSH2 0xD6 JUMPI PUSH1 0x1 PUSH1 0x1 PUSH1 0xA0 SHL SUB DUP1 PUSH2 0x748 PUSH2 0xD85 JUMP JUMPDEST AND PUSH1 0x0 MSTORE PUSH1 0x1 PUSH1 0x20 MSTORE PUSH1 0x40 PUSH1 0x0 KECCAK256 SWAP1 DUP2 SLOAD AND PUSH1 0x40 MLOAD SWAP2 PUSH2 0x776 DUP4 PUSH2 0x76F DUP2 PUSH1 0x1 DUP6 ADD PUSH2 0xEA2 JUMP JUMPDEST SUB DUP5 PUSH2 0xD40 JUMP JUMPDEST PUSH1 0x3 PUSH1 0x2 DUP3 ADD SLOAD SWAP2 ADD SLOAD PUSH2 0x79C PUSH1 0x40 MLOAD SWAP5 DUP6 SWAP5 DUP6 MSTORE PUSH1 0x80 PUSH1 0x20 DUP7 ADD MSTORE PUSH1 0x80 DUP6 ADD SWAP1 PUSH2 0xDD2 JUMP JUMPDEST SWAP2 PUSH1 0x40 DUP5 ADD MSTORE PUSH1 0x60 DUP4 ADD MSTORE SUB SWAP1 RETURN JUMPDEST CALLVALUE PUSH2 0xD6 JUMPI PUSH1 0x40 CALLDATASIZE PUSH1 0x3 NOT ADD SLT PUSH2 0xD6 JUMPI PUSH2 0x7C4 PUSH2 0xD85 JUMP JUMPDEST PUSH1 0x40 MLOAD PUSH1 0x24 DUP1 CALLDATALOAD SWAP3 PUSH2 0x7D5 DUP4 PUSH2 0xD24 JUMP JUMPDEST PUSH1 0x5 SWAP2 DUP3 DUP5 MSTORE PUSH1 0x20 SWAP3 PUSH1 0xA0 CALLDATASIZE DUP6 DUP8 ADD CALLDATACOPY PUSH1 0x40 MLOAD SWAP3 PUSH2 0x7F2 DUP5 PUSH2 0xD24 JUMP JUMPDEST DUP2 DUP5 MSTORE PUSH1 0xA0 CALLDATASIZE DUP7 DUP7 ADD CALLDATACOPY PUSH1 0x1 DUP1 PUSH1 0xA0 SHL SUB DUP1 SWAP2 AND SWAP3 DUP4 PUSH1 0x0 MSTORE PUSH1 0x1 SWAP1 DUP2 DUP8 MSTORE DUP3 PUSH1 0x40 PUSH1 0x0 KECCAK256 SLOAD AND PUSH1 0x0 DUP11 ISZERO SWAP2 JUMPDEST DUP7 DUP3 LT PUSH2 0x8A7 JUMPI JUMPDEST PUSH2 0x896 DUP12 PUSH2 0x8A3 DUP13 DUP16 DUP13 PUSH32 0x8B2BC56C62594AFDE5B520E83E1CA19EBD071798DB21382E328014F47B31CE57 DUP16 SWAP3 PUSH1 0x40 MLOAD SWAP1 DUP2 MSTORE PUSH1 0x60 DUP6 DUP3 ADD MSTORE DUP1 PUSH2 0x87F PUSH2 0x871 PUSH1 0x60 DUP4 ADD DUP11 PUSH2 0xDF7 JUMP JUMPDEST DUP3 DUP2 SUB PUSH1 0x40 DUP5 ADD MSTORE DUP7 PUSH2 0xE34 JUMP JUMPDEST SUB SWAP1 LOG2 PUSH1 0x40 MLOAD SWAP5 DUP6 SWAP5 PUSH1 0x40 DUP7 MSTORE PUSH1 0x40 DUP7 ADD SWAP1 PUSH2 0xDF7 JUMP JUMPDEST SWAP2 DUP5 DUP4 SUB SWAP1 DUP6 ADD MSTORE PUSH2 0xE34 JUMP JUMPDEST SUB SWAP1 RETURN JUMPDEST DUP6 AND DUP1 ISZERO PUSH2 0x950 JUMPI PUSH2 0x8B8 DUP3 PUSH2 0xD9B JUMP JUMPDEST SWAP1 SLOAD SWAP1 PUSH1 0x3 SHL SHR DUP1 DUP14 MUL SWAP1 DUP14 DUP3 DIV EQ DUP5 OR ISZERO PUSH2 0x93B JUMPI PUSH2 0x2710 SWAP1 DIV DUP2 DUP12 DUP5 DUP15 DUP10 DUP6 PUSH2 0x901 JUMPI JUMPDEST POP POP POP POP POP POP PUSH1 0x0 MSTORE DUP4 DUP10 MSTORE PUSH2 0x8FB DUP6 PUSH1 0x40 PUSH1 0x0 KECCAK256 SLOAD AND SWAP2 PUSH2 0xFA7 JUMP JUMPDEST SWAP1 PUSH2 0x81F JUMP JUMPDEST PUSH2 0x924 SWAP4 DUP6 PUSH1 0x0 MSTORE MSTORE PUSH1 0x2 PUSH1 0x40 PUSH1 0x0 KECCAK256 ADD PUSH2 0x91D DUP7 DUP3 SLOAD PUSH2 0xFB6 JUMP JUMPDEST SWAP1 SSTORE PUSH2 0xFC3 JUMP JUMPDEST MSTORE PUSH2 0x92F DUP4 DUP12 PUSH2 0xFC3 JUMP JUMPDEST MSTORE DUP13 DUP2 DUP12 DUP5 DUP15 DUP10 PUSH2 0x8DE JUMP JUMPDEST DUP5 PUSH4 0x4E487B71 PUSH1 0xE0 SHL PUSH1 0x0 MSTORE PUSH1 0x11 PUSH1 0x4 MSTORE PUSH1 0x0 REVERT JUMPDEST PUSH2 0x827 JUMP JUMPDEST CALLVALUE PUSH2 0xD6 JUMPI PUSH1 0x20 CALLDATASIZE PUSH1 0x3 NOT ADD SLT PUSH2 0xD6 JUMPI PUSH1 0x1 PUSH1 0x1 PUSH1 0xA0 SHL SUB PUSH2 0x976 PUSH2 0xD85 JUMP JUMPDEST AND PUSH1 0x0 MSTORE PUSH1 0x1 PUSH1 0x20 MSTORE PUSH2 0x8A3 PUSH2 0x99C PUSH2 0x9A3 PUSH1 0x1 PUSH1 0x40 PUSH1 0x0 KECCAK256 ADD PUSH1 0x40 MLOAD SWAP3 DUP4 DUP1 SWAP3 PUSH2 0xEA2 JUMP JUMPDEST SUB DUP3 PUSH2 0xD40 JUMP JUMPDEST PUSH1 0x40 MLOAD SWAP2 DUP3 SWAP2 PUSH1 0x20 DUP4 MSTORE PUSH1 0x20 DUP4 ADD SWAP1 PUSH2 0xDD2 JUMP JUMPDEST CALLVALUE PUSH2 0xD6 JUMPI PUSH1 0x0 CALLDATASIZE PUSH1 0x3 NOT ADD SLT PUSH2 0xD6 JUMPI PUSH1 0x0 SLOAD PUSH1 0x40 MLOAD PUSH1 0x1 PUSH1 0x1 PUSH1 0xA0 SHL SUB SWAP1 SWAP2 AND DUP2 MSTORE PUSH1 0x20 SWAP1 RETURN JUMPDEST CALLVALUE PUSH2 0xD6 JUMPI PUSH1 0x20 CALLDATASIZE PUSH1 0x3 NOT ADD SLT PUSH2 0xD6 JUMPI PUSH1 0x4 CALLDATALOAD PUSH1 0x3 SLOAD DUP2 LT ISZERO PUSH2 0xD6 JUMPI PUSH2 0xA09 PUSH1 0x20 SWAP2 PUSH2 0xD9B JUMP JUMPDEST SWAP1 SLOAD SWAP1 PUSH1 0x3 SHL SHR PUSH1 0x40 MLOAD SWAP1 DUP2 MSTORE RETURN JUMPDEST CALLVALUE PUSH2 0xD6 JUMPI PUSH1 0x0 CALLDATASIZE PUSH1 0x3 NOT ADD SLT PUSH2 0xD6 JUMPI PUSH2 0xA31 PUSH2 0xF38 JUMP JUMPDEST PUSH1 0x0 DUP1 SLOAD PUSH1 0x1 PUSH1 0x1 PUSH1 0xA0 SHL SUB NOT DUP2 AND DUP3 SSTORE PUSH1 0x1 PUSH1 0x1 PUSH1 0xA0 SHL SUB AND PUSH32 0x8BE0079C531659141344CD1FD0A4F28419497F9722A3DAAFE3B4186F6B6457E0 DUP3 DUP1 LOG3 STOP JUMPDEST CALLVALUE PUSH2 0xD6 JUMPI PUSH1 0x0 CALLDATASIZE PUSH1 0x3 NOT ADD SLT PUSH2 0xD6 JUMPI PUSH1 0x20 PUSH1 0x40 MLOAD PUSH1 0x5 DUP2 MSTORE RETURN JUMPDEST CALLVALUE PUSH2 0xD6 JUMPI PUSH1 0x20 CALLDATASIZE PUSH1 0x3 NOT ADD SLT PUSH2 0xD6 JUMPI PUSH1 0x20 PUSH1 0x1 PUSH1 0x1 PUSH1 0xA0 SHL SUB DUP1 PUSH2 0xAB1 PUSH2 0xD85 JUMP JUMPDEST AND PUSH1 0x0 MSTORE PUSH1 0x1 DUP3 MSTORE PUSH1 0x40 PUSH1 0x0 KECCAK256 SLOAD AND PUSH1 0x40 MLOAD SWAP1 DUP2 MSTORE RETURN JUMPDEST CALLVALUE PUSH2 0xD6 JUMPI PUSH1 0x20 DUP1 PUSH1 0x3 NOT CALLDATASIZE ADD SLT PUSH2 0xD6 JUMPI PUSH8 0xFFFFFFFFFFFFFFFF PUSH1 0x4 CALLDATALOAD DUP2 DUP2 GT PUSH2 0xD6 JUMPI CALLDATASIZE PUSH1 0x23 DUP3 ADD SLT ISZERO PUSH2 0xD6 JUMPI DUP1 PUSH1 0x4 ADD CALLDATALOAD SWAP2 DUP3 GT PUSH2 0xD6 JUMPI PUSH1 0x24 SWAP1 PUSH1 0x5 CALLDATASIZE DUP4 DUP6 DUP4 SHL DUP5 ADD ADD GT PUSH2 0xD6 JUMPI PUSH2 0xB1E PUSH2 0xF38 JUMP JUMPDEST DUP1 DUP5 SUB PUSH2 0xC42 JUMPI PUSH1 0x0 DUP1 SWAP2 JUMPDEST DUP6 DUP4 LT PUSH2 0xC1F JUMPI POP PUSH2 0x2710 SWAP2 POP GT PUSH2 0xBE6 JUMPI PUSH9 0x10000000000000000 DUP4 GT PUSH2 0xBD1 JUMPI PUSH1 0x3 SLOAD DUP4 PUSH1 0x3 SSTORE DUP1 DUP5 LT PUSH2 0xB9B JUMPI JUMPDEST POP ADD PUSH1 0x0 JUMPDEST DUP3 DUP2 LT PUSH2 0xB69 JUMPI STOP JUMPDEST DUP2 CALLDATALOAD PUSH32 0xC2575A0E9E593C00F959F8C92F12DB2869C3395A3B0502D05E2516446F71F85B DUP3 ADD SSTORE SWAP1 DUP4 ADD SWAP1 PUSH1 0x1 ADD PUSH2 0xB60 JUMP JUMPDEST PUSH2 0xBCB SWAP1 DUP5 PUSH32 0xC2575A0E9E593C00F959F8C92F12DB2869C3395A3B0502D05E2516446F71F85B SWAP2 DUP3 ADD SWAP2 ADD PUSH2 0xF90 JUMP JUMPDEST DUP5 PUSH2 0xB5B JUMP JUMPDEST POP PUSH4 0x4E487B71 PUSH1 0xE0 SHL PUSH1 0x0 SWAP1 DUP2 MSTORE PUSH1 0x41 PUSH1 0x4 MSTORE REVERT JUMPDEST PUSH1 0x40 MLOAD PUSH3 0x461BCD PUSH1 0xE5 SHL DUP2 MSTORE PUSH1 0x4 DUP2 ADD DUP6 SWAP1 MSTORE PUSH1 0x12 DUP2 DUP5 ADD MSTORE PUSH18 0x546F74616C20657863656564732031303025 PUSH1 0x70 SHL PUSH1 0x44 DUP3 ADD MSTORE PUSH1 0x64 SWAP1 REVERT JUMPDEST SWAP1 PUSH2 0xC35 PUSH2 0xC3B SWAP2 DUP7 DUP6 DUP6 SHL DUP8 ADD ADD CALLDATALOAD SWAP1 PUSH2 0xFB6 JUMP JUMPDEST SWAP3 PUSH2 0xFA7 JUMP JUMPDEST SWAP2 SWAP1 PUSH2 0xB2A JUMP JUMPDEST PUSH1 0x40 MLOAD PUSH3 0x461BCD PUSH1 0xE5 SHL DUP2 MSTORE PUSH1 0x4 DUP2 ADD DUP7 SWAP1 MSTORE PUSH1 0x14 DUP2 DUP6 ADD MSTORE PUSH20 0x92DCECC2D8D2C840E4C2E8CAE640D8CADCCEE8D PUSH1 0x63 SHL PUSH1 0x44 DUP3 ADD MSTORE PUSH1 0x64 SWAP1 REVERT JUMPDEST CALLVALUE PUSH2 0xD6 JUMPI PUSH1 0x20 SWAP1 DUP2 PUSH1 0x3 NOT CALLDATASIZE ADD SLT PUSH2 0xD6 JUMPI PUSH1 0x4 CALLDATALOAD SWAP1 PUSH8 0xFFFFFFFFFFFFFFFF DUP1 DUP4 GT PUSH2 0xD6 JUMPI CALLDATASIZE PUSH1 0x23 DUP5 ADD SLT ISZERO PUSH2 0xD6 JUMPI DUP3 PUSH1 0x4 ADD CALLDATALOAD SWAP1 DUP2 GT PUSH2 0x5B0 JUMPI PUSH2 0xCCE PUSH1 0x1F DUP3 ADD PUSH1 0x1F NOT AND DUP6 ADD DUP4 PUSH2 0xD40 JUMP JUMPDEST DUP1 DUP3 MSTORE DUP4 DUP3 ADD SWAP3 CALLDATASIZE PUSH1 0x24 DUP4 DUP4 ADD ADD GT PUSH2 0xD6 JUMPI DUP2 PUSH1 0x0 SWAP3 PUSH1 0x24 DUP8 SWAP4 ADD DUP7 CALLDATACOPY DUP4 ADD ADD MSTORE PUSH2 0xD02 PUSH1 0x40 MLOAD SWAP3 DUP4 SWAP3 MLOAD SWAP3 DUP4 SWAP2 PUSH2 0xD62 JUMP JUMPDEST PUSH1 0x2 SWAP1 DUP3 ADD SWAP1 DUP2 MSTORE DUP2 SWAP1 SUB DUP3 ADD SWAP1 KECCAK256 SLOAD PUSH1 0x40 MLOAD PUSH1 0x1 PUSH1 0x1 PUSH1 0xA0 SHL SUB SWAP1 SWAP2 AND DUP2 MSTORE RETURN JUMPDEST PUSH1 0xC0 DUP2 ADD SWAP1 DUP2 LT PUSH8 0xFFFFFFFFFFFFFFFF DUP3 GT OR PUSH2 0x5B0 JUMPI PUSH1 0x40 MSTORE JUMP JUMPDEST SWAP1 PUSH1 0x1F DUP1 NOT SWAP2 ADD AND DUP2 ADD SWAP1 DUP2 LT PUSH8 0xFFFFFFFFFFFFFFFF DUP3 GT OR PUSH2 0x5B0 JUMPI PUSH1 0x40 MSTORE JUMP JUMPDEST PUSH1 0x0 JUMPDEST DUP4 DUP2 LT PUSH2 0xD75 JUMPI POP POP PUSH1 0x0 SWAP2 ADD MSTORE JUMP JUMPDEST DUP2 DUP2 ADD MLOAD DUP4 DUP3 ADD MSTORE PUSH1 0x20 ADD PUSH2 0xD65 JUMP JUMPDEST PUSH1 0x4 CALLDATALOAD SWAP1 PUSH1 0x1 PUSH1 0x1 PUSH1 0xA0 SHL SUB DUP3 AND DUP3 SUB PUSH2 0xD6 JUMPI JUMP JUMPDEST PUSH1 0x3 SLOAD DUP2 LT ISZERO PUSH2 0x618 JUMPI PUSH1 0x3 PUSH1 0x0 MSTORE PUSH32 0xC2575A0E9E593C00F959F8C92F12DB2869C3395A3B0502D05E2516446F71F85B ADD SWAP1 PUSH1 0x0 SWAP1 JUMP JUMPDEST SWAP1 PUSH1 0x20 SWAP2 PUSH2 0xDEB DUP2 MLOAD DUP1 SWAP3 DUP2 DUP6 MSTORE DUP6 DUP1 DUP7 ADD SWAP2 ADD PUSH2 0xD62 JUMP JUMPDEST PUSH1 0x1F ADD PUSH1 0x1F NOT AND ADD ADD SWAP1 JUMP JUMPDEST SWAP1 DUP2 MLOAD DUP1 DUP3 MSTORE PUSH1 0x20 DUP1 DUP1 SWAP4 ADD SWAP4 ADD SWAP2 PUSH1 0x0 JUMPDEST DUP3 DUP2 LT PUSH2 0xE17 JUMPI POP POP POP POP SWAP1 JUMP JUMPDEST DUP4 MLOAD PUSH1 0x1 PUSH1 0x1 PUSH1 0xA0 SHL SUB AND DUP6 MSTORE SWAP4 DUP2 ADD SWAP4 SWAP3 DUP2 ADD SWAP3 PUSH1 0x1 ADD PUSH2 0xE09 JUMP JUMPDEST SWAP1 DUP2 MLOAD DUP1 DUP3 MSTORE PUSH1 0x20 DUP1 DUP1 SWAP4 ADD SWAP4 ADD SWAP2 PUSH1 0x0 JUMPDEST DUP3 DUP2 LT PUSH2 0xE54 JUMPI POP POP POP POP SWAP1 JUMP JUMPDEST DUP4 MLOAD DUP6 MSTORE SWAP4 DUP2 ADD SWAP4 SWAP3 DUP2 ADD SWAP3 PUSH1 0x1 ADD PUSH2 0xE46 JUMP JUMPDEST SWAP1 PUSH1 0x1 DUP3 DUP2 SHR SWAP3 AND DUP1 ISZERO PUSH2 0xE98 JUMPI JUMPDEST PUSH1 0x20 DUP4 LT EQ PUSH2 0xE82 JUMPI JUMP JUMPDEST PUSH4 0x4E487B71 PUSH1 0xE0 SHL PUSH1 0x0 MSTORE PUSH1 0x22 PUSH1 0x4 MSTORE PUSH1 0x24 PUSH1 0x0 REVERT JUMPDEST SWAP2 PUSH1 0x7F AND SWAP2 PUSH2 0xE77 JUMP JUMPDEST SWAP1 PUSH1 0x0 SWAP3 SWAP2 DUP1 SLOAD SWAP2 PUSH2 0xEB3 DUP4 PUSH2 0xE68 JUMP JUMPDEST SWAP2 DUP3 DUP3 MSTORE PUSH1 0x1 SWAP4 DUP5 DUP2 AND SWAP1 DUP2 PUSH1 0x0 EQ PUSH2 0xF15 JUMPI POP PUSH1 0x1 EQ PUSH2 0xED5 JUMPI JUMPDEST POP POP POP POP JUMP JUMPDEST SWAP1 SWAP2 SWAP4 SWAP5 POP PUSH1 0x0 MSTORE PUSH1 0x20 SWAP3 DUP4 PUSH1 0x0 KECCAK256 SWAP3 DUP5 PUSH1 0x0 SWAP5 JUMPDEST DUP4 DUP7 LT PUSH2 0xF01 JUMPI POP POP POP POP ADD ADD SWAP1 CODESIZE DUP1 DUP1 DUP1 PUSH2 0xECF JUMP JUMPDEST DUP1 SLOAD DUP6 DUP8 ADD DUP4 ADD MSTORE SWAP5 ADD SWAP4 DUP6 SWAP1 DUP3 ADD PUSH2 0xEEA JUMP JUMPDEST SWAP3 SWAP5 POP POP POP PUSH1 0x20 SWAP4 SWAP5 POP PUSH1 0xFF NOT AND DUP4 DUP4 ADD MSTORE ISZERO ISZERO PUSH1 0x5 SHL ADD ADD SWAP1 CODESIZE DUP1 DUP1 DUP1 PUSH2 0xECF JUMP JUMPDEST PUSH1 0x0 SLOAD PUSH1 0x1 PUSH1 0x1 PUSH1 0xA0 SHL SUB AND CALLER SUB PUSH2 0xF4C JUMPI JUMP JUMPDEST PUSH1 0x64 PUSH1 0x40 MLOAD PUSH3 0x461BCD PUSH1 0xE5 SHL DUP2 MSTORE PUSH1 0x20 PUSH1 0x4 DUP3 ADD MSTORE PUSH1 0x20 PUSH1 0x24 DUP3 ADD MSTORE PUSH32 0x4F776E61626C653A2063616C6C6572206973206E6F7420746865206F776E6572 PUSH1 0x44 DUP3 ADD MSTORE REVERT JUMPDEST DUP2 DUP2 LT PUSH2 0xF9B JUMPI POP POP JUMP JUMPDEST PUSH1 0x0 DUP2 SSTORE PUSH1 0x1 ADD PUSH2 0xF90 JUMP JUMPDEST PUSH1 0x0 NOT DUP2 EQ PUSH2 0x62E JUMPI PUSH1 0x1 ADD SWAP1 JUMP JUMPDEST SWAP2 SWAP1 DUP3 ADD DUP1 SWAP3 GT PUSH2 0x62E JUMPI JUMP JUMPDEST DUP1 MLOAD DUP3 LT ISZERO PUSH2 0x618 JUMPI PUSH1 0x20 SWAP2 PUSH1 0x5 SHL ADD ADD SWAP1 JUMP INVALID LOG2 PUSH5 0x6970667358 0x22 SLT KECCAK256 LT PUSH7 0x954550E54AA9AF 0x26 0x5E 0xDE SSTORE PUSH9 0x633D16674E1E858B2A MSTORE8 SUB DUP16 0xC1 0xAA 0xDB 0xDC EQ PUSH7 0x64736F6C634300 ADDMOD EQ STOP CALLER "},"methodIdentifiers":{"MAX_BPS()":"fd967f47","MAX_LEVELS()":"6702c7bf","codeToUser(string)":"152c1725","distributeRewards(address,uint256)":"a8031a1d","getReferralCode(address)":"92c40344","getReferrer(address)":"4a9fefc7","isRegistered(address)":"c3c5a547","levelRates(uint256)":"7879b5ef","owner()":"8da5cb5b","register(string)":"f2c298be","renounceOwnership()":"715018a6","setLevelRates(uint256[])":"345b5b85","transferOwnership(address)":"f2fde38b","users(address)":"a87430ba"}}}}}