{"contracts/ReferralV3.sol":{"ReferralV3":{"abi":[{"inputs":[{"internalType":"address","name":"_owner","type":"address"}],"stateMutability":"nonpayable","type":"constructor"},{"anonymous":false,"inputs":[{"indexed":true,"internalType":"address","name":"previousOwner","type":"address"},{"indexed":true,"internalType":"address","name":"newOwner","type":"address"}],"name":"OwnershipTransferred","type":"event"},{"anonymous":false,"inputs":[{"indexed":true,"internalType":"address","name":"user","type":"address"},{"indexed":false,"internalType":"uint256","name":"amount","type":"uint256"}],"name":"RewardsDistributed","type":"event"},{"anonymous":false,"inputs":[{"indexed":true,"internalType":"address","name":"user","type":"address"},{"indexed":true,"internalType":"address","name":"referrer","type":"address"},{"indexed":false,"internalType":"bytes8","name":"code","type":"bytes8"}],"name":"UserRegistered","type":"event"},{"inputs":[],"name":"MAX_BPS","outputs":[{"internalType":"uint256","name":"","type":"uint256"}],"stateMutability":"view","type":"function"},{"inputs":[],"name":"MAX_LEVELS","outputs":[{"internalType":"uint256","name":"","type":"uint256"}],"stateMutability":"view","type":"function"},{"inputs":[{"internalType":"bytes8","name":"","type":"bytes8"}],"name":"codeToUser","outputs":[{"internalType":"address","name":"","type":"address"}],"stateMutability":"view","type":"function"},{"inputs":[{"internalType":"address","name":"_user","type":"address"},{"internalType":"uint256","name":"_amount","type":"uint256"}],"name":"distributeRewards","outputs":[],"stateMutability":"nonpayable","type":"function"},{"inputs":[{"internalType":"address","name":"_user","type":"address"}],"name":"getReferralCode","outputs":[{"internalType":"bytes8","name":"","type":"bytes8"}],"stateMutability":"view","type":"function"},{"inputs":[{"internalType":"address","name":"_user","type":"address"}],"name":"getReferrer","outputs":[{"internalType":"address","name":"","type":"address"}],"stateMutability":"view","type":"function"},{"inputs":[{"internalType":"address","name":"_user","type":"address"}],"name":"isRegistered","outputs":[{"internalType":"bool","name":"","type":"bool"}],"stateMutability":"view","type":"function"},{"inputs":[{"internalType":"uint256","name":"","type":"uint256"}],"name":"levelRates","outputs":[{"internalType":"uint256","name":"","type":"uint256"}],"stateMutability":"view","type":"function"},{"inputs":[],"name":"owner","outputs":[{"internalType":"address","name":"","type":"address"}],"stateMutability":"view","type":"function"},{"inputs":[{"internalType":"bytes8","name":"_code","type":"bytes8"}],"name":"register","outputs":[],"stateMutability":"nonpayable","type":"function"},{"inputs":[],"name":"renounceOwnership","outputs":[],"stateMutability":"nonpayable","type":"function"},{"inputs":[{"internalType":"uint256[]","name":"_rates","type":"uint256[]"}],"name":"setLevelRates","outputs":[],"stateMutability":"nonpayable","type":"function"},{"inputs":[{"internalType":"address","name":"newOwner","type":"address"}],"name":"transferOwnership","outputs":[],"stateMutability":"nonpayable","type":"function"},{"inputs":[{"internalType":"address","name":"","type":"address"}],"name":"users","outputs":[{"internalType":"address","name":"referrer","type":"address"},{"internalType":"bytes8","name":"code","type":"bytes8"},{"internalType":"uint256","name":"totalRewards","type":"uint256"},{"internalType":"uint256","name":"referralCount","type":"uint256"}],"stateMutability":"view","type":"function"}],"evm":{"bytecode":{"linkReferences":{},"object":"60803461018757601f610ba038819003918201601f1916830192916001600160401b03919082851184861017610171578084926040968752833960209384918101031261018757516001600160a01b0381169290838103610187576100633361018c565b61006c8161018c565b84519260a0840190811184821017610171578552610fa083526109c4828401526105dc858401526104b0606084015261032060808401526003549260059384600355808510610148575b5090859392919260009360038552838520855b8381106101335750505085845250600182528383208054600160a01b600160e01b03191660a083901b600160a01b600160e01b031617905560c01b6001600160c01b0319168252600290522080546001600160a01b0319169091179055516109cc90816101d48239f35b825181830155899750918501916001016100c9565b6000600381528585822092830192015b8281106101665750506100b6565b818155600101610158565b634e487b7160e01b600052604160045260246000fd5b600080fd5b600080546001600160a01b039283166001600160a01b03198216811783559216907f8be0079c531659141344cd1fd0a4f28419497f9722a3daafe3b4186f6b6457e09080a356fe608060408181526004918236101561001657600080fd5b600092833560e01c9182628765661461085e57508163345b5b85146106a95781634279182b146104b45781634a9fefc7146104795781636702c7bf1461045d578163715018a6146104035781637879b5ef146103c75781638da5cb5b1461039f57816392c403441461035b578163a8031a1d14610253578163a87430ba146101ea578163c3c5a547146101a4578163f2fde38b146100dd575063fd967f47146100be57600080fd5b346100d957816003193601126100d957602090516127108152f35b5080fd5b9050346101a05760203660031901126101a0576100f86108a4565b9061010161090c565b6001600160a01b0391821692831561014e57505082546001600160a01b0319811683178455167f8be0079c531659141344cd1fd0a4f28419497f9722a3daafe3b4186f6b6457e08380a380f35b906020608492519162461bcd60e51b8352820152602660248201527f4f776e61626c653a206e6577206f776e657220697320746865207a65726f206160448201526564647265737360d01b6064820152fd5b8280fd5b5050346100d95760203660031901126100d9576020916001600160a01b036101ca6108a4565b1681526001835281902054905190821b6001600160c01b03191615158152f35b5050346100d95760203660031901126100d9576080916001600160a01b0391908190836102156108a4565b16815260016020522080549160026001830154920154928151948116855267ffffffffffffffff60c01b9060201b1660208501528301526060820152f35b8383346100d957806003193601126100d95761026d6108a4565b6001600160a01b03908116808452600160208181528486205460248035989496929592948894928a159085165b600587106102d1575b8a8a7fdf29796aad820e4bb192f3a8d631b76519bcd2cbe77cc85af20e9df53cece0868b8f8c51908152a280f35b85168015610356576102e2876108bf565b90549060031b1c808d02908d82041483171561034457612710900489868a8e84610325575b93505050505283885261031f85888c20541696610964565b9561029a565b8261033894878352522001918254610989565b90558c89868a8e610307565b634e487b7160e01b8c5260118452848cfd5b6102a3565b5050346100d95760203660031901126100d9576020916001600160a01b036103816108a4565b1681526001835281902054905190821b6001600160c01b0319168152f35b5050346100d957816003193601126100d957905490516001600160a01b039091168152602090f35b9050346101a05760203660031901126101a057359160035483101561040057506103f26020926108bf565b90549060031b1c9051908152f35b80fd5b833461040057806003193601126104005761041c61090c565b80546001600160a01b03198116825581906001600160a01b03167f8be0079c531659141344cd1fd0a4f28419497f9722a3daafe3b4186f6b6457e08280a380f35b5050346100d957816003193601126100d9576020905160058152f35b5050346100d95760203660031901126100d9576020916001600160a01b03908290826104a36108a4565b168152600185522054169051908152f35b9050346101a0576020806003193601126106a55781359267ffffffffffffffff60c01b928385168095036106a1578486526002808452828720546001600160a01b03969192919087161561066f5733885260019182865287858a2054166106375733895282865286858a2054871b1661060157508752818452828720543380895282865284892080546001600160e01b03191692891692831760a083901b67ffffffffffffffff60a01b1617905560c081901b90961680895283865284892080546001600160a01b031916909717909655958791875b600584106105c3575b8989897f8d5f328890c161f6ef9ba784da3badf597de5a9f9cb6d9f231b7baef2224f08f8a8a519283523392a380f35b821680156105fc57808a5281875284868b20016105e08154610964565b905589528086526105f682868b20541693610964565b9261058a565b610593565b845162461bcd60e51b8152908101869052601060248201526f416c72656164792068617320636f646560801b6044820152606490fd5b845162461bcd60e51b81529081018690526012602482015271105b1c9958591e481c9959da5cdd195c995960721b6044820152606490fd5b835162461bcd60e51b8152808301869052600c60248201526b496e76616c696420636f646560a01b6044820152606490fd5b8580fd5b8380fd5b919050346101a057602090816003193601126106a557823567ffffffffffffffff938482116106a157366023830112156106a157818101359485116106a1576024926005368588831b8601011161085a5761070261090c565b808703610827578788915b88831061080457506127109150116107d457506801000000000000000085116107c2575060035484600355808510610782575b500190835b838110610750578480f35b82357fc2575a0e9e593c00f959f8c92f12db2869c3395a3b0502d05e2516446f71f85b82015591810191600101610745565b847fc2575a0e9e593c00f959f8c92f12db2869c3395a3b0502d05e2516446f71f85b91820191015b8181106107b75750610740565b8681556001016107aa565b634e487b7160e01b8652604190528185fd5b5162461bcd60e51b8152908101849052600c818401526b546f74616c203e203130302560a01b6044820152606490fd5b9061081a610820918885851b8901013590610989565b92610964565b919061070d565b815162461bcd60e51b8152808401879052600e818701526d092dcecc2d8d2c840d8cadccee8d60931b6044820152606490fd5b8780fd5b848492346100d95760203660031901126100d957359267ffffffffffffffff60c01b84168094036100d95792815260026020908152929020546001600160a01b03168152f35b600435906001600160a01b03821682036108ba57565b600080fd5b6003548110156108f65760036000527fc2575a0e9e593c00f959f8c92f12db2869c3395a3b0502d05e2516446f71f85b0190600090565b634e487b7160e01b600052603260045260246000fd5b6000546001600160a01b0316330361092057565b606460405162461bcd60e51b815260206004820152602060248201527f4f776e61626c653a2063616c6c6572206973206e6f7420746865206f776e65726044820152fd5b60001981146109735760010190565b634e487b7160e01b600052601160045260246000fd5b919082018092116109735756fea26469706673582212207d9f13129496f6ed1ee4ade71541ffffc5fd5001351de427e606f0717f85578864736f6c63430008140033","opcodes":"PUSH1 0x80 CALLVALUE PUSH2 0x187 JUMPI PUSH1 0x1F PUSH2 0xBA0 CODESIZE DUP2 SWAP1 SUB SWAP2 DUP3 ADD PUSH1 0x1F NOT AND DUP4 ADD SWAP3 SWAP2 PUSH1 0x1 PUSH1 0x1 PUSH1 0x40 SHL SUB SWAP2 SWAP1 DUP3 DUP6 GT DUP5 DUP7 LT OR PUSH2 0x171 JUMPI DUP1 DUP5 SWAP3 PUSH1 0x40 SWAP7 DUP8 MSTORE DUP4 CODECOPY PUSH1 0x20 SWAP4 DUP5 SWAP2 DUP2 ADD SUB SLT PUSH2 0x187 JUMPI MLOAD PUSH1 0x1 PUSH1 0x1 PUSH1 0xA0 SHL SUB DUP2 AND SWAP3 SWAP1 DUP4 DUP2 SUB PUSH2 0x187 JUMPI PUSH2 0x63 CALLER PUSH2 0x18C JUMP JUMPDEST PUSH2 0x6C DUP2 PUSH2 0x18C JUMP JUMPDEST DUP5 MLOAD SWAP3 PUSH1 0xA0 DUP5 ADD SWAP1 DUP2 GT DUP5 DUP3 LT OR PUSH2 0x171 JUMPI DUP6 MSTORE PUSH2 0xFA0 DUP4 MSTORE PUSH2 0x9C4 DUP3 DUP5 ADD MSTORE PUSH2 0x5DC DUP6 DUP5 ADD MSTORE PUSH2 0x4B0 PUSH1 0x60 DUP5 ADD MSTORE PUSH2 0x320 PUSH1 0x80 DUP5 ADD MSTORE PUSH1 0x3 SLOAD SWAP3 PUSH1 0x5 SWAP4 DUP5 PUSH1 0x3 SSTORE DUP1 DUP6 LT PUSH2 0x148 JUMPI JUMPDEST POP SWAP1 DUP6 SWAP4 SWAP3 SWAP2 SWAP3 PUSH1 0x0 SWAP4 PUSH1 0x3 DUP6 MSTORE DUP4 DUP6 KECCAK256 DUP6 JUMPDEST DUP4 DUP2 LT PUSH2 0x133 JUMPI POP POP POP DUP6 DUP5 MSTORE POP PUSH1 0x1 DUP3 MSTORE DUP4 DUP4 KECCAK256 DUP1 SLOAD PUSH1 0x1 PUSH1 0xA0 SHL PUSH1 0x1 PUSH1 0xE0 SHL SUB NOT AND PUSH1 0xA0 DUP4 SWAP1 SHL PUSH1 0x1 PUSH1 0xA0 SHL PUSH1 0x1 PUSH1 0xE0 SHL SUB AND OR SWAP1 SSTORE PUSH1 0xC0 SHL PUSH1 0x1 PUSH1 0x1 PUSH1 0xC0 SHL SUB NOT AND DUP3 MSTORE PUSH1 0x2 SWAP1 MSTORE KECCAK256 DUP1 SLOAD PUSH1 0x1 PUSH1 0x1 PUSH1 0xA0 SHL SUB NOT AND SWAP1 SWAP2 OR SWAP1 SSTORE MLOAD PUSH2 0x9CC SWAP1 DUP2 PUSH2 0x1D4 DUP3 CODECOPY RETURN JUMPDEST DUP3 MLOAD DUP2 DUP4 ADD SSTORE DUP10 SWAP8 POP SWAP2 DUP6 ADD SWAP2 PUSH1 0x1 ADD PUSH2 0xC9 JUMP JUMPDEST PUSH1 0x0 PUSH1 0x3 DUP2 MSTORE DUP6 DUP6 DUP3 KECCAK256 SWAP3 DUP4 ADD SWAP3 ADD JUMPDEST DUP3 DUP2 LT PUSH2 0x166 JUMPI POP POP PUSH2 0xB6 JUMP JUMPDEST DUP2 DUP2 SSTORE PUSH1 0x1 ADD PUSH2 0x158 JUMP JUMPDEST PUSH4 0x4E487B71 PUSH1 0xE0 SHL PUSH1 0x0 MSTORE PUSH1 0x41 PUSH1 0x4 MSTORE PUSH1 0x24 PUSH1 0x0 REVERT JUMPDEST PUSH1 0x0 DUP1 REVERT JUMPDEST PUSH1 0x0 DUP1 SLOAD PUSH1 0x1 PUSH1 0x1 PUSH1 0xA0 SHL SUB SWAP3 DUP4 AND PUSH1 0x1 PUSH1 0x1 PUSH1 0xA0 SHL SUB NOT DUP3 AND DUP2 OR DUP4 SSTORE SWAP3 AND SWAP1 PUSH32 0x8BE0079C531659141344CD1FD0A4F28419497F9722A3DAAFE3B4186F6B6457E0 SWAP1 DUP1 LOG3 JUMP INVALID PUSH1 0x80 PUSH1 0x40 DUP2 DUP2 MSTORE PUSH1 0x4 SWAP2 DUP3 CALLDATASIZE LT ISZERO PUSH2 0x16 JUMPI PUSH1 0x0 DUP1 REVERT JUMPDEST PUSH1 0x0 SWAP3 DUP4 CALLDATALOAD PUSH1 0xE0 SHR SWAP2 DUP3 PUSH3 0x876566 EQ PUSH2 0x85E JUMPI POP DUP2 PUSH4 0x345B5B85 EQ PUSH2 0x6A9 JUMPI DUP2 PUSH4 0x4279182B EQ PUSH2 0x4B4 JUMPI DUP2 PUSH4 0x4A9FEFC7 EQ PUSH2 0x479 JUMPI DUP2 PUSH4 0x6702C7BF EQ PUSH2 0x45D JUMPI DUP2 PUSH4 0x715018A6 EQ PUSH2 0x403 JUMPI DUP2 PUSH4 0x7879B5EF EQ PUSH2 0x3C7 JUMPI DUP2 PUSH4 0x8DA5CB5B EQ PUSH2 0x39F JUMPI DUP2 PUSH4 0x92C40344 EQ PUSH2 0x35B JUMPI DUP2 PUSH4 0xA8031A1D EQ PUSH2 0x253 JUMPI DUP2 PUSH4 0xA87430BA EQ PUSH2 0x1EA JUMPI DUP2 PUSH4 0xC3C5A547 EQ PUSH2 0x1A4 JUMPI DUP2 PUSH4 0xF2FDE38B EQ PUSH2 0xDD JUMPI POP PUSH4 0xFD967F47 EQ PUSH2 0xBE JUMPI PUSH1 0x0 DUP1 REVERT JUMPDEST CALLVALUE PUSH2 0xD9 JUMPI DUP2 PUSH1 0x3 NOT CALLDATASIZE ADD SLT PUSH2 0xD9 JUMPI PUSH1 0x20 SWAP1 MLOAD PUSH2 0x2710 DUP2 MSTORE RETURN JUMPDEST POP DUP1 REVERT JUMPDEST SWAP1 POP CALLVALUE PUSH2 0x1A0 JUMPI PUSH1 0x20 CALLDATASIZE PUSH1 0x3 NOT ADD SLT PUSH2 0x1A0 JUMPI PUSH2 0xF8 PUSH2 0x8A4 JUMP JUMPDEST SWAP1 PUSH2 0x101 PUSH2 0x90C JUMP JUMPDEST PUSH1 0x1 PUSH1 0x1 PUSH1 0xA0 SHL SUB SWAP2 DUP3 AND SWAP3 DUP4 ISZERO PUSH2 0x14E JUMPI POP POP DUP3 SLOAD PUSH1 0x1 PUSH1 0x1 PUSH1 0xA0 SHL SUB NOT DUP2 AND DUP4 OR DUP5 SSTORE AND PUSH32 0x8BE0079C531659141344CD1FD0A4F28419497F9722A3DAAFE3B4186F6B6457E0 DUP4 DUP1 LOG3 DUP1 RETURN JUMPDEST SWAP1 PUSH1 0x20 PUSH1 0x84 SWAP3 MLOAD SWAP2 PUSH3 0x461BCD PUSH1 0xE5 SHL DUP4 MSTORE DUP3 ADD MSTORE PUSH1 0x26 PUSH1 0x24 DUP3 ADD MSTORE PUSH32 0x4F776E61626C653A206E6577206F776E657220697320746865207A65726F2061 PUSH1 0x44 DUP3 ADD MSTORE PUSH6 0x646472657373 PUSH1 0xD0 SHL PUSH1 0x64 DUP3 ADD MSTORE REVERT JUMPDEST DUP3 DUP1 REVERT JUMPDEST POP POP CALLVALUE PUSH2 0xD9 JUMPI PUSH1 0x20 CALLDATASIZE PUSH1 0x3 NOT ADD SLT PUSH2 0xD9 JUMPI PUSH1 0x20 SWAP2 PUSH1 0x1 PUSH1 0x1 PUSH1 0xA0 SHL SUB PUSH2 0x1CA PUSH2 0x8A4 JUMP JUMPDEST AND DUP2 MSTORE PUSH1 0x1 DUP4 MSTORE DUP2 SWAP1 KECCAK256 SLOAD SWAP1 MLOAD SWAP1 DUP3 SHL PUSH1 0x1 PUSH1 0x1 PUSH1 0xC0 SHL SUB NOT AND ISZERO ISZERO DUP2 MSTORE RETURN JUMPDEST POP POP CALLVALUE PUSH2 0xD9 JUMPI PUSH1 0x20 CALLDATASIZE PUSH1 0x3 NOT ADD SLT PUSH2 0xD9 JUMPI PUSH1 0x80 SWAP2 PUSH1 0x1 PUSH1 0x1 PUSH1 0xA0 SHL SUB SWAP2 SWAP1 DUP2 SWAP1 DUP4 PUSH2 0x215 PUSH2 0x8A4 JUMP JUMPDEST AND DUP2 MSTORE PUSH1 0x1 PUSH1 0x20 MSTORE KECCAK256 DUP1 SLOAD SWAP2 PUSH1 0x2 PUSH1 0x1 DUP4 ADD SLOAD SWAP3 ADD SLOAD SWAP3 DUP2 MLOAD SWAP5 DUP2 AND DUP6 MSTORE PUSH8 0xFFFFFFFFFFFFFFFF PUSH1 0xC0 SHL SWAP1 PUSH1 0x20 SHL AND PUSH1 0x20 DUP6 ADD MSTORE DUP4 ADD MSTORE PUSH1 0x60 DUP3 ADD MSTORE RETURN JUMPDEST DUP4 DUP4 CALLVALUE PUSH2 0xD9 JUMPI DUP1 PUSH1 0x3 NOT CALLDATASIZE ADD SLT PUSH2 0xD9 JUMPI PUSH2 0x26D PUSH2 0x8A4 JUMP JUMPDEST PUSH1 0x1 PUSH1 0x1 PUSH1 0xA0 SHL SUB SWAP1 DUP2 AND DUP1 DUP5 MSTORE PUSH1 0x1 PUSH1 0x20 DUP2 DUP2 MSTORE DUP5 DUP7 KECCAK256 SLOAD PUSH1 0x24 DUP1 CALLDATALOAD SWAP9 SWAP5 SWAP7 SWAP3 SWAP6 SWAP3 SWAP5 DUP9 SWAP5 SWAP3 DUP11 ISZERO SWAP1 DUP6 AND JUMPDEST PUSH1 0x5 DUP8 LT PUSH2 0x2D1 JUMPI JUMPDEST DUP11 DUP11 PUSH32 0xDF29796AAD820E4BB192F3A8D631B76519BCD2CBE77CC85AF20E9DF53CECE086 DUP12 DUP16 DUP13 MLOAD SWAP1 DUP2 MSTORE LOG2 DUP1 RETURN JUMPDEST DUP6 AND DUP1 ISZERO PUSH2 0x356 JUMPI PUSH2 0x2E2 DUP8 PUSH2 0x8BF JUMP JUMPDEST SWAP1 SLOAD SWAP1 PUSH1 0x3 SHL SHR DUP1 DUP14 MUL SWAP1 DUP14 DUP3 DIV EQ DUP4 OR ISZERO PUSH2 0x344 JUMPI PUSH2 0x2710 SWAP1 DIV DUP10 DUP7 DUP11 DUP15 DUP5 PUSH2 0x325 JUMPI JUMPDEST SWAP4 POP POP POP POP MSTORE DUP4 DUP9 MSTORE PUSH2 0x31F DUP6 DUP9 DUP13 KECCAK256 SLOAD AND SWAP7 PUSH2 0x964 JUMP JUMPDEST SWAP6 PUSH2 0x29A JUMP JUMPDEST DUP3 PUSH2 0x338 SWAP5 DUP8 DUP4 MSTORE MSTORE KECCAK256 ADD SWAP2 DUP3 SLOAD PUSH2 0x989 JUMP JUMPDEST SWAP1 SSTORE DUP13 DUP10 DUP7 DUP11 DUP15 PUSH2 0x307 JUMP JUMPDEST PUSH4 0x4E487B71 PUSH1 0xE0 SHL DUP13 MSTORE PUSH1 0x11 DUP5 MSTORE DUP5 DUP13 REVERT JUMPDEST PUSH2 0x2A3 JUMP JUMPDEST POP POP CALLVALUE PUSH2 0xD9 JUMPI PUSH1 0x20 CALLDATASIZE PUSH1 0x3 NOT ADD SLT PUSH2 0xD9 JUMPI PUSH1 0x20 SWAP2 PUSH1 0x1 PUSH1 0x1 PUSH1 0xA0 SHL SUB PUSH2 0x381 PUSH2 0x8A4 JUMP JUMPDEST AND DUP2 MSTORE PUSH1 0x1 DUP4 MSTORE DUP2 SWAP1 KECCAK256 SLOAD SWAP1 MLOAD SWAP1 DUP3 SHL PUSH1 0x1 PUSH1 0x1 PUSH1 0xC0 SHL SUB NOT AND DUP2 MSTORE RETURN JUMPDEST POP POP CALLVALUE PUSH2 0xD9 JUMPI DUP2 PUSH1 0x3 NOT CALLDATASIZE ADD SLT PUSH2 0xD9 JUMPI SWAP1 SLOAD SWAP1 MLOAD PUSH1 0x1 PUSH1 0x1 PUSH1 0xA0 SHL SUB SWAP1 SWAP2 AND DUP2 MSTORE PUSH1 0x20 SWAP1 RETURN JUMPDEST SWAP1 POP CALLVALUE PUSH2 0x1A0 JUMPI PUSH1 0x20 CALLDATASIZE PUSH1 0x3 NOT ADD SLT PUSH2 0x1A0 JUMPI CALLDATALOAD SWAP2 PUSH1 0x3 SLOAD DUP4 LT ISZERO PUSH2 0x400 JUMPI POP PUSH2 0x3F2 PUSH1 0x20 SWAP3 PUSH2 0x8BF JUMP JUMPDEST SWAP1 SLOAD SWAP1 PUSH1 0x3 SHL SHR SWAP1 MLOAD SWAP1 DUP2 MSTORE RETURN JUMPDEST DUP1 REVERT JUMPDEST DUP4 CALLVALUE PUSH2 0x400 JUMPI DUP1 PUSH1 0x3 NOT CALLDATASIZE ADD SLT PUSH2 0x400 JUMPI PUSH2 0x41C PUSH2 0x90C JUMP JUMPDEST DUP1 SLOAD PUSH1 0x1 PUSH1 0x1 PUSH1 0xA0 SHL SUB NOT DUP2 AND DUP3 SSTORE DUP2 SWAP1 PUSH1 0x1 PUSH1 0x1 PUSH1 0xA0 SHL SUB AND PUSH32 0x8BE0079C531659141344CD1FD0A4F28419497F9722A3DAAFE3B4186F6B6457E0 DUP3 DUP1 LOG3 DUP1 RETURN JUMPDEST POP POP CALLVALUE PUSH2 0xD9 JUMPI DUP2 PUSH1 0x3 NOT CALLDATASIZE ADD SLT PUSH2 0xD9 JUMPI PUSH1 0x20 SWAP1 MLOAD PUSH1 0x5 DUP2 MSTORE RETURN JUMPDEST POP POP CALLVALUE PUSH2 0xD9 JUMPI PUSH1 0x20 CALLDATASIZE PUSH1 0x3 NOT ADD SLT PUSH2 0xD9 JUMPI PUSH1 0x20 SWAP2 PUSH1 0x1 PUSH1 0x1 PUSH1 0xA0 SHL SUB SWAP1 DUP3 SWAP1 DUP3 PUSH2 0x4A3 PUSH2 0x8A4 JUMP JUMPDEST AND DUP2 MSTORE PUSH1 0x1 DUP6 MSTORE KECCAK256 SLOAD AND SWAP1 MLOAD SWAP1 DUP2 MSTORE RETURN JUMPDEST SWAP1 POP CALLVALUE PUSH2 0x1A0 JUMPI PUSH1 0x20 DUP1 PUSH1 0x3 NOT CALLDATASIZE ADD SLT PUSH2 0x6A5 JUMPI DUP2 CALLDATALOAD SWAP3 PUSH8 0xFFFFFFFFFFFFFFFF PUSH1 0xC0 SHL SWAP3 DUP4 DUP6 AND DUP1 SWAP6 SUB PUSH2 0x6A1 JUMPI DUP5 DUP7 MSTORE PUSH1 0x2 DUP1 DUP5 MSTORE DUP3 DUP8 KECCAK256 SLOAD PUSH1 0x1 PUSH1 0x1 PUSH1 0xA0 SHL SUB SWAP7 SWAP2 SWAP3 SWAP2 SWAP1 DUP8 AND ISZERO PUSH2 0x66F JUMPI CALLER DUP9 MSTORE PUSH1 0x1 SWAP2 DUP3 DUP7 MSTORE DUP8 DUP6 DUP11 KECCAK256 SLOAD AND PUSH2 0x637 JUMPI CALLER DUP10 MSTORE DUP3 DUP7 MSTORE DUP7 DUP6 DUP11 KECCAK256 SLOAD DUP8 SHL AND PUSH2 0x601 JUMPI POP DUP8 MSTORE DUP2 DUP5 MSTORE DUP3 DUP8 KECCAK256 SLOAD CALLER DUP1 DUP10 MSTORE DUP3 DUP7 MSTORE DUP5 DUP10 KECCAK256 DUP1 SLOAD PUSH1 0x1 PUSH1 0x1 PUSH1 0xE0 SHL SUB NOT AND SWAP3 DUP10 AND SWAP3 DUP4 OR PUSH1 0xA0 DUP4 SWAP1 SHL PUSH8 0xFFFFFFFFFFFFFFFF PUSH1 0xA0 SHL AND OR SWAP1 SSTORE PUSH1 0xC0 DUP2 SWAP1 SHL SWAP1 SWAP7 AND DUP1 DUP10 MSTORE DUP4 DUP7 MSTORE DUP5 DUP10 KECCAK256 DUP1 SLOAD PUSH1 0x1 PUSH1 0x1 PUSH1 0xA0 SHL SUB NOT AND SWAP1 SWAP8 OR SWAP1 SWAP7 SSTORE SWAP6 DUP8 SWAP2 DUP8 JUMPDEST PUSH1 0x5 DUP5 LT PUSH2 0x5C3 JUMPI JUMPDEST DUP10 DUP10 DUP10 PUSH32 0x8D5F328890C161F6EF9BA784DA3BADF597DE5A9F9CB6D9F231B7BAEF2224F08F DUP11 DUP11 MLOAD SWAP3 DUP4 MSTORE CALLER SWAP3 LOG3 DUP1 RETURN JUMPDEST DUP3 AND DUP1 ISZERO PUSH2 0x5FC JUMPI DUP1 DUP11 MSTORE DUP2 DUP8 MSTORE DUP5 DUP7 DUP12 KECCAK256 ADD PUSH2 0x5E0 DUP2 SLOAD PUSH2 0x964 JUMP JUMPDEST SWAP1 SSTORE DUP10 MSTORE DUP1 DUP7 MSTORE PUSH2 0x5F6 DUP3 DUP7 DUP12 KECCAK256 SLOAD AND SWAP4 PUSH2 0x964 JUMP JUMPDEST SWAP3 PUSH2 0x58A JUMP JUMPDEST PUSH2 0x593 JUMP JUMPDEST DUP5 MLOAD PUSH3 0x461BCD PUSH1 0xE5 SHL DUP2 MSTORE SWAP1 DUP2 ADD DUP7 SWAP1 MSTORE PUSH1 0x10 PUSH1 0x24 DUP3 ADD MSTORE PUSH16 0x416C72656164792068617320636F6465 PUSH1 0x80 SHL PUSH1 0x44 DUP3 ADD MSTORE PUSH1 0x64 SWAP1 REVERT JUMPDEST DUP5 MLOAD PUSH3 0x461BCD PUSH1 0xE5 SHL DUP2 MSTORE SWAP1 DUP2 ADD DUP7 SWAP1 MSTORE PUSH1 0x12 PUSH1 0x24 DUP3 ADD MSTORE PUSH18 0x105B1C9958591E481C9959DA5CDD195C9959 PUSH1 0x72 SHL PUSH1 0x44 DUP3 ADD MSTORE PUSH1 0x64 SWAP1 REVERT JUMPDEST DUP4 MLOAD PUSH3 0x461BCD PUSH1 0xE5 SHL DUP2 MSTORE DUP1 DUP4 ADD DUP7 SWAP1 MSTORE PUSH1 0xC PUSH1 0x24 DUP3 ADD MSTORE PUSH12 0x496E76616C696420636F6465 PUSH1 0xA0 SHL PUSH1 0x44 DUP3 ADD MSTORE PUSH1 0x64 SWAP1 REVERT JUMPDEST DUP6 DUP1 REVERT JUMPDEST DUP4 DUP1 REVERT JUMPDEST SWAP2 SWAP1 POP CALLVALUE PUSH2 0x1A0 JUMPI PUSH1 0x20 SWAP1 DUP2 PUSH1 0x3 NOT CALLDATASIZE ADD SLT PUSH2 0x6A5 JUMPI DUP3 CALLDATALOAD PUSH8 0xFFFFFFFFFFFFFFFF SWAP4 DUP5 DUP3 GT PUSH2 0x6A1 JUMPI CALLDATASIZE PUSH1 0x23 DUP4 ADD SLT ISZERO PUSH2 0x6A1 JUMPI DUP2 DUP2 ADD CALLDATALOAD SWAP5 DUP6 GT PUSH2 0x6A1 JUMPI PUSH1 0x24 SWAP3 PUSH1 0x5 CALLDATASIZE DUP6 DUP9 DUP4 SHL DUP7 ADD ADD GT PUSH2 0x85A JUMPI PUSH2 0x702 PUSH2 0x90C JUMP JUMPDEST DUP1 DUP8 SUB PUSH2 0x827 JUMPI DUP8 DUP9 SWAP2 JUMPDEST DUP9 DUP4 LT PUSH2 0x804 JUMPI POP PUSH2 0x2710 SWAP2 POP GT PUSH2 0x7D4 JUMPI POP PUSH9 0x10000000000000000 DUP6 GT PUSH2 0x7C2 JUMPI POP PUSH1 0x3 SLOAD DUP5 PUSH1 0x3 SSTORE DUP1 DUP6 LT PUSH2 0x782 JUMPI JUMPDEST POP ADD SWAP1 DUP4 JUMPDEST DUP4 DUP2 LT PUSH2 0x750 JUMPI DUP5 DUP1 RETURN JUMPDEST DUP3 CALLDATALOAD PUSH32 0xC2575A0E9E593C00F959F8C92F12DB2869C3395A3B0502D05E2516446F71F85B DUP3 ADD SSTORE SWAP2 DUP2 ADD SWAP2 PUSH1 0x1 ADD PUSH2 0x745 JUMP JUMPDEST DUP5 PUSH32 0xC2575A0E9E593C00F959F8C92F12DB2869C3395A3B0502D05E2516446F71F85B SWAP2 DUP3 ADD SWAP2 ADD JUMPDEST DUP2 DUP2 LT PUSH2 0x7B7 JUMPI POP PUSH2 0x740 JUMP JUMPDEST DUP7 DUP2 SSTORE PUSH1 0x1 ADD PUSH2 0x7AA JUMP JUMPDEST PUSH4 0x4E487B71 PUSH1 0xE0 SHL DUP7 MSTORE PUSH1 0x41 SWAP1 MSTORE DUP2 DUP6 REVERT JUMPDEST MLOAD PUSH3 0x461BCD PUSH1 0xE5 SHL DUP2 MSTORE SWAP1 DUP2 ADD DUP5 SWAP1 MSTORE PUSH1 0xC DUP2 DUP5 ADD MSTORE PUSH12 0x546F74616C203E2031303025 PUSH1 0xA0 SHL PUSH1 0x44 DUP3 ADD MSTORE PUSH1 0x64 SWAP1 REVERT JUMPDEST SWAP1 PUSH2 0x81A PUSH2 0x820 SWAP2 DUP9 DUP6 DUP6 SHL DUP10 ADD ADD CALLDATALOAD SWAP1 PUSH2 0x989 JUMP JUMPDEST SWAP3 PUSH2 0x964 JUMP JUMPDEST SWAP2 SWAP1 PUSH2 0x70D JUMP JUMPDEST DUP2 MLOAD PUSH3 0x461BCD PUSH1 0xE5 SHL DUP2 MSTORE DUP1 DUP5 ADD DUP8 SWAP1 MSTORE PUSH1 0xE DUP2 DUP8 ADD MSTORE PUSH14 0x92DCECC2D8D2C840D8CADCCEE8D PUSH1 0x93 SHL PUSH1 0x44 DUP3 ADD MSTORE PUSH1 0x64 SWAP1 REVERT JUMPDEST DUP8 DUP1 REVERT JUMPDEST DUP5 DUP5 SWAP3 CALLVALUE PUSH2 0xD9 JUMPI PUSH1 0x20 CALLDATASIZE PUSH1 0x3 NOT ADD SLT PUSH2 0xD9 JUMPI CALLDATALOAD SWAP3 PUSH8 0xFFFFFFFFFFFFFFFF PUSH1 0xC0 SHL DUP5 AND DUP1 SWAP5 SUB PUSH2 0xD9 JUMPI SWAP3 DUP2 MSTORE PUSH1 0x2 PUSH1 0x20 SWAP1 DUP2 MSTORE SWAP3 SWAP1 KECCAK256 SLOAD PUSH1 0x1 PUSH1 0x1 PUSH1 0xA0 SHL SUB AND DUP2 MSTORE RETURN JUMPDEST PUSH1 0x4 CALLDATALOAD SWAP1 PUSH1 0x1 PUSH1 0x1 PUSH1 0xA0 SHL SUB DUP3 AND DUP3 SUB PUSH2 0x8BA JUMPI JUMP JUMPDEST PUSH1 0x0 DUP1 REVERT JUMPDEST PUSH1 0x3 SLOAD DUP2 LT ISZERO PUSH2 0x8F6 JUMPI PUSH1 0x3 PUSH1 0x0 MSTORE PUSH32 0xC2575A0E9E593C00F959F8C92F12DB2869C3395A3B0502D05E2516446F71F85B ADD SWAP1 PUSH1 0x0 SWAP1 JUMP JUMPDEST PUSH4 0x4E487B71 PUSH1 0xE0 SHL PUSH1 0x0 MSTORE PUSH1 0x32 PUSH1 0x4 MSTORE PUSH1 0x24 PUSH1 0x0 REVERT JUMPDEST PUSH1 0x0 SLOAD PUSH1 0x1 PUSH1 0x1 PUSH1 0xA0 SHL SUB AND CALLER SUB PUSH2 0x920 JUMPI JUMP JUMPDEST PUSH1 0x64 PUSH1 0x40 MLOAD PUSH3 0x461BCD PUSH1 0xE5 SHL DUP2 MSTORE PUSH1 0x20 PUSH1 0x4 DUP3 ADD MSTORE PUSH1 0x20 PUSH1 0x24 DUP3 ADD MSTORE PUSH32 0x4F776E61626C653A2063616C6C6572206973206E6F7420746865206F776E6572 PUSH1 0x44 DUP3 ADD MSTORE REVERT JUMPDEST PUSH1 0x0 NOT DUP2 EQ PUSH2 0x973 JUMPI PUSH1 0x1 ADD SWAP1 JUMP JUMPDEST PUSH4 0x4E487B71 PUSH1 0xE0 SHL PUSH1 0x0 MSTORE PUSH1 0x11 PUSH1 0x4 MSTORE PUSH1 0x24 PUSH1 0x0 REVERT JUMPDEST SWAP2 SWAP1 DUP3 ADD DUP1 SWAP3 GT PUSH2 0x973 JUMPI JUMP INVALID LOG2 PUSH5 0x6970667358 0x22 SLT KECCAK256 PUSH30 0x9F13129496F6ED1EE4ADE71541FFFFC5FD5001351DE427E606F0717F8557 DUP9 PUSH5 0x736F6C6343 STOP ADDMOD EQ STOP CALLER "},"methodIdentifiers":{"MAX_BPS()":"fd967f47","MAX_LEVELS()":"6702c7bf","codeToUser(bytes8)":"00876566","distributeRewards(address,uint256)":"a8031a1d","getReferralCode(address)":"92c40344","getReferrer(address)":"4a9fefc7","isRegistered(address)":"c3c5a547","levelRates(uint256)":"7879b5ef","owner()":"8da5cb5b","register(bytes8)":"4279182b","renounceOwnership()":"715018a6","setLevelRates(uint256[])":"345b5b85","transferOwnership(address)":"f2fde38b","users(address)":"a87430ba"}}}}}