{"contracts/strategies/StrategyControllerV3.sol":{"StrategyControllerV3":{"abi":[{"inputs":[{"internalType":"address","name":"_want","type":"address"},{"internalType":"address","name":"_vault","type":"address"},{"internalType":"address","name":"_owner","type":"address"}],"stateMutability":"nonpayable","type":"constructor"},{"anonymous":false,"inputs":[{"indexed":true,"internalType":"address","name":"strategy","type":"address"},{"indexed":false,"internalType":"uint256","name":"newAllocation","type":"uint256"}],"name":"AllocationUpdated","type":"event"},{"anonymous":false,"inputs":[{"indexed":true,"internalType":"address","name":"strategy","type":"address"},{"indexed":false,"internalType":"uint256","name":"amount","type":"uint256"}],"name":"Deposited","type":"event"},{"anonymous":false,"inputs":[{"indexed":true,"internalType":"address","name":"strategy","type":"address"},{"indexed":false,"internalType":"uint256","name":"profit","type":"uint256"},{"indexed":false,"internalType":"uint256","name":"loss","type":"uint256"}],"name":"Harvested","type":"event"},{"anonymous":false,"inputs":[{"indexed":true,"internalType":"address","name":"previousOwner","type":"address"},{"indexed":true,"internalType":"address","name":"newOwner","type":"address"}],"name":"OwnershipTransferred","type":"event"},{"anonymous":false,"inputs":[{"indexed":false,"internalType":"address","name":"account","type":"address"}],"name":"Paused","type":"event"},{"anonymous":false,"inputs":[],"name":"Rebalanced","type":"event"},{"anonymous":false,"inputs":[{"indexed":true,"internalType":"address","name":"strategy","type":"address"},{"indexed":false,"internalType":"string","name":"name","type":"string"},{"indexed":false,"internalType":"uint256","name":"allocation","type":"uint256"}],"name":"StrategyAdded","type":"event"},{"anonymous":false,"inputs":[{"indexed":true,"internalType":"address","name":"strategy","type":"address"}],"name":"StrategyRemoved","type":"event"},{"anonymous":false,"inputs":[{"indexed":false,"internalType":"address","name":"account","type":"address"}],"name":"Unpaused","type":"event"},{"anonymous":false,"inputs":[{"indexed":true,"internalType":"address","name":"strategy","type":"address"},{"indexed":false,"internalType":"uint256","name":"amount","type":"uint256"}],"name":"Withdrawn","type":"event"},{"inputs":[{"internalType":"address","name":"_strategy","type":"address"},{"internalType":"uint256","name":"_allocation","type":"uint256"}],"name":"addStrategy","outputs":[],"stateMutability":"nonpayable","type":"function"},{"inputs":[],"name":"averageAPY","outputs":[{"internalType":"uint256","name":"","type":"uint256"}],"stateMutability":"view","type":"function"},{"inputs":[{"internalType":"uint256","name":"_amount","type":"uint256"}],"name":"deposit","outputs":[],"stateMutability":"nonpayable","type":"function"},{"inputs":[{"internalType":"address","name":"_to","type":"address"}],"name":"emergencyWithdrawAll","outputs":[],"stateMutability":"nonpayable","type":"function"},{"inputs":[],"name":"getActiveStrategies","outputs":[{"internalType":"address[]","name":"","type":"address[]"}],"stateMutability":"view","type":"function"},{"inputs":[],"name":"getAllStrategies","outputs":[{"components":[{"internalType":"address","name":"strategy","type":"address"},{"internalType":"string","name":"name","type":"string"},{"internalType":"uint256","name":"allocation","type":"uint256"},{"internalType":"bool","name":"active","type":"bool"},{"internalType":"uint256","name":"lastHarvest","type":"uint256"},{"internalType":"uint256","name":"totalDeposited","type":"uint256"},{"internalType":"uint256","name":"totalWithdrawn","type":"uint256"}],"internalType":"struct StrategyControllerV3.StrategyInfo[]","name":"","type":"tuple[]"}],"stateMutability":"view","type":"function"},{"inputs":[],"name":"harvestAll","outputs":[],"stateMutability":"nonpayable","type":"function"},{"inputs":[{"internalType":"address","name":"","type":"address"}],"name":"isStrategy","outputs":[{"internalType":"bool","name":"","type":"bool"}],"stateMutability":"view","type":"function"},{"inputs":[],"name":"owner","outputs":[{"internalType":"address","name":"","type":"address"}],"stateMutability":"view","type":"function"},{"inputs":[],"name":"pause","outputs":[],"stateMutability":"nonpayable","type":"function"},{"inputs":[],"name":"paused","outputs":[{"internalType":"bool","name":"","type":"bool"}],"stateMutability":"view","type":"function"},{"inputs":[],"name":"rebalance","outputs":[],"stateMutability":"nonpayable","type":"function"},{"inputs":[{"internalType":"address","name":"_strategy","type":"address"}],"name":"removeStrategy","outputs":[],"stateMutability":"nonpayable","type":"function"},{"inputs":[],"name":"renounceOwnership","outputs":[],"stateMutability":"nonpayable","type":"function"},{"inputs":[{"internalType":"address","name":"_strategy","type":"address"},{"internalType":"uint256","name":"_allocation","type":"uint256"}],"name":"setAllocation","outputs":[],"stateMutability":"nonpayable","type":"function"},{"inputs":[{"internalType":"address","name":"_strategy","type":"address"},{"internalType":"bool","name":"_active","type":"bool"}],"name":"setStrategyActive","outputs":[],"stateMutability":"nonpayable","type":"function"},{"inputs":[{"internalType":"address","name":"_vault","type":"address"}],"name":"setVault","outputs":[],"stateMutability":"nonpayable","type":"function"},{"inputs":[{"internalType":"address","name":"","type":"address"}],"name":"strategies","outputs":[{"internalType":"address","name":"strategy","type":"address"},{"internalType":"string","name":"name","type":"string"},{"internalType":"uint256","name":"allocation","type":"uint256"},{"internalType":"bool","name":"active","type":"bool"},{"internalType":"uint256","name":"lastHarvest","type":"uint256"},{"internalType":"uint256","name":"totalDeposited","type":"uint256"},{"internalType":"uint256","name":"totalWithdrawn","type":"uint256"}],"stateMutability":"view","type":"function"},{"inputs":[{"internalType":"uint256","name":"","type":"uint256"}],"name":"strategyList","outputs":[{"internalType":"address","name":"","type":"address"}],"stateMutability":"view","type":"function"},{"inputs":[{"internalType":"address","name":"_token","type":"address"}],"name":"sweep","outputs":[],"stateMutability":"nonpayable","type":"function"},{"inputs":[],"name":"totalAllocation","outputs":[{"internalType":"uint256","name":"","type":"uint256"}],"stateMutability":"view","type":"function"},{"inputs":[],"name":"totalAssets","outputs":[{"internalType":"uint256","name":"","type":"uint256"}],"stateMutability":"view","type":"function"},{"inputs":[{"internalType":"address","name":"newOwner","type":"address"}],"name":"transferOwnership","outputs":[],"stateMutability":"nonpayable","type":"function"},{"inputs":[],"name":"unpause","outputs":[],"stateMutability":"nonpayable","type":"function"},{"inputs":[],"name":"vault","outputs":[{"internalType":"address","name":"","type":"address"}],"stateMutability":"view","type":"function"},{"inputs":[],"name":"want","outputs":[{"internalType":"contract IERC20","name":"","type":"address"}],"stateMutability":"view","type":"function"},{"inputs":[{"internalType":"uint256","name":"_amount","type":"uint256"}],"name":"withdraw","outputs":[],"stateMutability":"nonpayable","type":"function"}],"evm":{"bytecode":{"linkReferences":{},"object":"60a034620000f057601f620027fd38819003918201601f19168301916001600160401b03831184841017620000f557808492606094604052833981010312620000f0578062000052620000b4926200010b565b6200006e604062000066602085016200010b565b93016200010b565b916200007a3362000120565b6000805460ff60a01b19169055600180556001600160a01b03918216608052600580546001600160a01b0319169190921617905562000120565b60405161269590816200016882396080518181816109dc015281816110010152818161149a015281816116f001528181611d0c01526122d80152f35b600080fd5b634e487b7160e01b600052604160045260246000fd5b51906001600160a01b0382168203620000f057565b600080546001600160a01b039283166001600160a01b03198216811783559216907f8be0079c531659141344cd1fd0a4f28419497f9722a3daafe3b4186f6b6457e09080a356fe6080604052600436101561001257600080fd5b600060e08135811c90816301681a621461199457816301e1d11414611979578163175188e81461171f5781631f1fcd51146116da5781632e1a7d4d146116995781632e8ebaae1461165a57816339ebf823146115c15781633f4ba83a1461152657816354ab6269146113a7578163587436e4146112325781635c975abb1461120d5781636817031b146111cd578163715018a61461117357816379203dc4146111555781637d7c2a1c14610ec35781638456cb5914610e625781638da5cb5b14610e3b5781638ed955b914610d0b5781639076c16614610c5a578163a267526b14610c16578163b0f42a1d14610b9c578163b6b55f2514610990578163c3b28864146107a957508063c9411e22146103ec578063d17132cc1461023a578063f2fde38b146101745763fbfa77cf1461014957600080fd5b346101715780600319360112610171576005546040516001600160a01b039091168152602090f35b80fd5b50346101715760203660031901126101715761018e611a35565b610196611c28565b6001600160a01b039081169081156101e657600054826001600160601b0360a01b821617600055167f8be0079c531659141344cd1fd0a4f28419497f9722a3daafe3b4186f6b6457e0600080a380f35b60405162461bcd60e51b815260206004820152602660248201527f4f776e61626c653a206e6577206f776e657220697320746865207a65726f206160448201526564647265737360d01b6064820152608490fd5b503461017157806003193601126101715780808060028054915b82811061029b57505082159190508161028f575061027957602091045b604051908152f35b634e487b7160e01b600052601260045260246000fd5b91505060209150610271565b6102a481611bdb565b9054600391821b1c6001600160a01b039081168652602082815260408088209051919291906102d282611aaf565b8281541682526102e460018201611aed565b8483015286810154600660ff60408501978389528401541615159283606086015260048101546080860152600581015460a0860152015460c0840152816103e2575b5061033e575b5050505061033990611c98565b610254565b5160405163f19993d760e01b815293999498949391839183916004918391165afa9182156103d757879261039e575b50509161038c61039492610386610339958b5190611e67565b90611cd1565b975190611cd1565b949038808061032c565b9080949250813d83116103d0575b6103b68183611acb565b810103126103cb57915161038c61039461036d565b600080fd5b503d6103ac565b6040513d89823e3d90fd5b9050151538610326565b503461017157604036600319011261017157610406611a35565b61040e611c28565b6001600160a01b0381811683526004602052604083205460ff166107745761043c6127106024351115612580565b6002546801000000000000000081101561076057826104648260016104839401600255611bdb565b90919082549060031b9160018060a01b03809116831b921b1916179055565b6040516306fdde0360e01b815283816004818686165afa908115610666578491610746575b506040516104b581611aaf565b8284168152602081019182526024356040820152600160608201528460808201528460a08201528460c0820152828416855260036020526040852091838251166001600160601b0360a01b8454161783555180519067ffffffffffffffff8211610732576105266001850154611a4b565b601f81116106ee575b50602090601f831160011461067c5791806006949260c0948a92610671575b50508160011b916000199060031b1c19161760018501555b6040810151600285015561058f60608201511515600386019060ff801983541691151516179055565b6080810151600485015560a0810151600585015501519101558082168352600460205260408320600160ff198254161790556105cf602435600654611cd1565b6006556040516306fdde0360e01b815283816004818686165afa8015610666577f543e7b8634c9242067ab3532ce2794d4b6eb718cfc76ca756a581f0cfb1c6ce792610631928692610642575b50604051928392604084526040840190611bb6565b94602435602084015216930390a280f35b61065f9192503d8088833e6106578183611acb565b8101906125c1565b903861061c565b6040513d86823e3d90fd5b01519050388061054e565b906001850188526020882091885b601f19851681106106d65750926006949260019260c09583601f198116106106bd575b505050811b016001850155610566565b015160001960f88460031b161c191690553880806106ad565b9192602060018192868501518155019401920161068a565b60018501885260208820601f840160051c81016020851061072b575b601f830160051c8201811061072057505061052f565b89815560010161070a565b508061070a565b634e487b7160e01b87526041600452602487fd5b61075a91503d8086833e6106578183611acb565b386104a8565b634e487b7160e01b84526041600452602484fd5b60405162461bcd60e51b815260206004820152600d60248201526c105b1c9958591e481859191959609a1b6044820152606490fd5b8234610171578060031936011261017157600280546107c781611c80565b916107d56040519384611acb565b818352601f196107e483611c80565b01845b81811061094e575050835b8281106108a957505050604051916020808401908085528351809252604085018160408460051b880101950193965b83881061082e5786860387f35b90919293948380600192603f198a8203018652885190848060a01b03825116815261086483830151878584015287830190611bb6565b91604081015160408301526060808201511515908301526080808201519083015260a0808201519083015260c080910151910152970193019701969093929193610821565b8060066108b861094993611bdb565b9054600391821b1c6001600160a01b03908116895260208281526040808b2090519493909260ff92906108ea87611aaf565b84541686526108fb60018501611aed565b90860152878301546040860152820154161515606084015260048101546080840152600581015460a0840152015460c08201526109388287611cbd565b526109438186611cbd565b50611c98565b6107f2565b60209060405161095d81611aaf565b878152606088849180838501528160408501528301528860808301528860a08301528860c08301528288010152016107e7565b823461017157602080600319360112610b98576004359160018060a01b036005906109bf818354163314611e7a565b6109c7611eed565b6109cf611f34565b6109da851515611eb3565b7f000000000000000000000000000000000000000000000000000000000000000091604051936323b872dd60e01b8686015260249433868201523060448201528760648201526064815260a0810181811067ffffffffffffffff821117610b8357604052610a4890856120dd565b805b60028054821015610b7b578490610a6083611bdb565b929054600393841b1c16845281895260ff60408520928301541680610b6f575b610a95575b5050610a9090611c98565b610a4a565b610aa5612710918301548b611e67565b04908115610a8557610abb828783541689611f8a565b85815416803b15610b6b578480918a6040518094819363b6b55f2560e01b83528860048401525af18015610b6057918588928c94610b40575b5050917f2da466a7b24304f47e87fa2e1e5a81b9831ce54fec19055ce277ca2f39ba42c4918388610a9097969501610b2d868254611cd1565b9055541692604051908152a29089610a85565b909250610b4e919350611a85565b610b5c57858991858d610af4565b8380fd5b6040513d87823e3d90fd5b8480fd5b50808201541515610a80565b826001805580f35b86634e487b7160e01b60005260416004526000fd5b5080fd5b823461017157604036600319011261017157610bb6611a35565b6024358015158103610c1257610c0f91610bce611c28565b6001600160a01b031680845260046020526040842054610bf09060ff16612620565b83526003602052600360408420019060ff801983541691151516179055565b80f35b8280fd5b82346101715760203660031901126101715760043590600254821015610171576020610c4183611bdb565b905460405160039290921b1c6001600160a01b03168152f35b823461017157604036600319011261017157610c74611a35565b7f183f2ce0b749ed46549cb16586af0c501abab8d242cc4b2076aec30d2dd9c4bc602060243592610ca3611c28565b6001600160a01b0316808552600482526040852054909390610cc79060ff16612620565b610cd5612710821115612580565b838552600382528060408620610cfd82610cf860026006549401938454906122a4565b611cd1565b60065555604051908152a280f35b8234610171578060031936011261017157610d24611f34565b80805b600254811015610e3357610d3a81611bdb565b9054600391821b1c6001600160a01b0390811684526020828152604085209283015490929060ff16610d7b575b505050610d749150611c98565b8190610d27565b6040828254166004825180988193634641257d60e01b83525af1948587918891610df5575b50610d7496610db4575b5050859450610d67565b7f81ca9b2c230070eaa84787556b1aaf18bf1e2f07ea5d3dae4819db77a1a5b224936040934260048201555416948351928352820152a28380808080610daa565b9150506040813d604011610e2b575b81610e1160409383611acb565b81010312610e2757805190840151610d74610da0565b8680fd5b3d9150610e04565b506001805580f35b8234610171578060031936011261017157546040516001600160a01b039091168152602090f35b8234610171578060031936011261017157610e7b611c28565b610e83611eed565b805460ff60a01b1916600160a01b1781556040513381527f62e78cea01bee320cd4e420270b5ea74000d11b0c9f74754ebdbfc544b05a25890602090a180f35b8234610171578060031936011261017157610edc611c28565b610ee4611cde565b815b826002805483101561112d57610efb83611bdb565b9054600391821b1c6001600160a01b0390811684526020828152604085209283015490939060ff161561111f57610f386127109184015488611e67565b0481835416604051906278744560e21b82528582600481845afa9182156103d75787926110ed575b5082821115610fda5750610f76929394506122a4565b91541690813b15610c12578291602483926040519485938492632e1a7d4d60e01b845260048401525af18015610fcf57610fbb575b5050610fb690611c98565b610ee6565b610fc490611a85565b610c12578284610fab565b6040513d84823e3d90fd5b9391808210610ff4575b50505050505050610fb690611c98565b90610ffe916122a4565b927f0000000000000000000000000000000000000000000000000000000000000000604051956370a0823160e01b8752306004880152602496818189818987165afa9182156110e25789926110b0575b50508511610fe457611061918591611f8a565b5416803b15610b5c5783928392604051948593849263b6b55f2560e01b845260048401525af18015610fcf5761109c575b8080808080610fe4565b6110a590611a85565b610c12578284611092565b8199508092503d83116110db575b6110c88183611acb565b810103126103cb57848a9751908c61104e565b503d6110be565b6040513d8b823e3d90fd5b965090508486813d8111611118575b6111068183611acb565b810103126103cb57889551908a610f60565b503d6110fc565b5050505050610fb690611c98565b507fc741dbaad15a4f298fe8d80943fa8e005e7bcb2f5b0a0c8dec1fc35be457f1468180a180f35b82346101715780600319360112610171576020600654604051908152f35b823461017157806003193601126101715761118c611c28565b600080546001600160a01b0319811682556001600160a01b03167f8be0079c531659141344cd1fd0a4f28419497f9722a3daafe3b4186f6b6457e08280a380f35b8234610171576020366003190112610171576111e7611a35565b6111ef611c28565b60018060a01b03166001600160601b0360a01b600554161760055580f35b823461017157806003193601126101715760ff6020915460a01c166040519015158152f35b823461017157806003193601126101715760025481805b82811061134f575061127361125d84611c80565b9361126b6040519586611acb565b808552611c80565b6020928484019291601f190136843781825b8281106112d65750505060405193838594850191818652518092526040850193925b8281106112b657505050500390f35b83516001600160a01b0316855286955093810193928101926001016112a7565b6112e4819795969497611bdb565b60018060a01b03809254600392831b1c16895280865260ff8160408b2001541661131e575b505061131490611c98565b9592949395611285565b9261134791839461133161131495611bdb565b9054911b1c166113418289611cbd565b52611c98565b919088611309565b60ff61135d82959395611bdb565b9054600391821b1c6001600160a01b03168652602081905260408620015416611392575b61138a90611c98565b929092611249565b9061139f61138a91611c98565b919050611381565b823461017157602080600319360112610b98576113c2611a35565b6113ca611c28565b6113d2611eed565b825460ff60a01b1916600160a01b1783556040513381527f62e78cea01bee320cd4e420270b5ea74000d11b0c9f74754ebdbfc544b05a258908390a1825b600254811015611484578361142482611bdb565b905460039190911b1c6001600160a01b0316803b15610b9857818091602460405180948193631bfc726f60e21b83523060048401525af1611470575b505061146b90611c98565b611410565b61147990611a85565b610b5c578385611460565b506040516370a0823160e01b81523060048201527f000000000000000000000000000000000000000000000000000000000000000092919082816024816001600160a01b0388165afa928315610b605785936114f6575b5050816114e6578380f35b6114ef92612547565b8180808380f35b9080929350813d831161151f575b61150e8183611acb565b810103126103cb57519084806114db565b503d611504565b823461017157806003193601126101715761153f611c28565b805460ff8160a01c16156115855760ff60a01b191681556040513381527f5db9ee0a495bf2e6ff9c91a7834c1ba4fdd244a5e8aa4e537bd38aeae4b073aa90602090a180f35b60405162461bcd60e51b815260206004820152601460248201527314185d5cd8589b194e881b9bdd081c185d5cd95960621b6044820152606490fd5b8234610171576020366003190112610171576001600160a01b0390604090826115e8611a35565b168152600360205220908154169061160260018201611aed565b60028201549160ff60038201541660048201549061163a600660058501549401549460405198899889528060208a0152880190611bb6565b94604087015215156060860152608085015260a084015260c08301520390f35b82346101715760203660031901126101715760209060ff906040906001600160a01b03611685611a35565b168152600484522054166040519015158152f35b8234610171576020366003190112610171576116c060018060a01b03600554163314611e7a565b6116c8611f34565b6116d36004356122b1565b6001805580f35b82346101715780600319360112610171576040517f00000000000000000000000000000000000000000000000000000000000000006001600160a01b03168152602090f35b823461017157602080600319360112610b985761173a611a35565b90611743611c28565b6001600160a01b039182168084526004825260408420549091906117699060ff16612620565b81845260039081815260408520906040516278744560e21b908181528281600481895afa90811561196e57889161193d575b506118b2575b506004836002936117b7858201546006546122a4565b600655019160ff19928381541690558588525260408620908154169055845b8154808210156118a75784866117eb84611bdb565b905490871b1c1614611806575061180190611c98565b6117d6565b9060009592939495199182810190811161189357906104648461182b61183894611bdb565b905490891b1c1691611bdb565b8254801561187f57019261184b84611bdb565b81939154921b1b19169055555b7f09a1db4b80c32706328728508c941a6b954f31eb5affd32f236c1fd405f8fea48280a280f35b634e487b7160e01b87526031600452602487fd5b634e487b7160e01b88526011600452602488fd5b505050509050611858565b6040519081528181600481885afa9081156103d7578791611910575b50843b15610e275760405190632e1a7d4d60e01b82526004820152868160248183895af180156103d757156117a15761190990969196611a85565b94866117a1565b90508181813d8311611936575b6119278183611acb565b81010312610e275751876118ce565b503d61191d565b90508281813d8311611967575b6119548183611acb565b8101031261196357518861179b565b8780fd5b503d61194a565b6040513d8a823e3d90fd5b82346101715780600319360112610171576020610271611cde565b8234610171576020366003190112610171576119ae611a35565b6119b6611c28565b6040516370a0823160e01b81523060048201526001600160a01b03918216602082602481845afa918215610666578492611a02575b50816119f5578380f35b6114ef9284541690612547565b9091506020813d8211611a2d575b81611a1d60209383611acb565b81010312610b5c575190846119eb565b3d9150611a10565b600435906001600160a01b03821682036103cb57565b90600182811c92168015611a7b575b6020831014611a6557565b634e487b7160e01b600052602260045260246000fd5b91607f1691611a5a565b67ffffffffffffffff8111611a9957604052565b634e487b7160e01b600052604160045260246000fd5b60e0810190811067ffffffffffffffff821117611a9957604052565b90601f8019910116810190811067ffffffffffffffff821117611a9957604052565b9060405191826000825492611b0184611a4b565b908184526001948581169081600014611b705750600114611b2d575b5050611b2b92500383611acb565b565b9093915060005260209081600020936000915b818310611b58575050611b2b93508201013880611b1d565b85548884018501529485019487945091830191611b40565b915050611b2b94506020925060ff191682840152151560051b8201013880611b1d565b60005b838110611ba65750506000910152565b8181015183820152602001611b96565b90602091611bcf81518092818552858086019101611b93565b601f01601f1916010190565b600254811015611c125760026000527f405787fa12a823e0f2b7631cc41b3ba8828b3321ca811111fa75cd3aa3bb5ace0190600090565b634e487b7160e01b600052603260045260246000fd5b6000546001600160a01b03163303611c3c57565b606460405162461bcd60e51b815260206004820152602060248201527f4f776e61626c653a2063616c6c6572206973206e6f7420746865206f776e65726044820152fd5b67ffffffffffffffff8111611a995760051b60200190565b6000198114611ca75760010190565b634e487b7160e01b600052601160045260246000fd5b8051821015611c125760209160051b010190565b91908201809211611ca757565b60009081600254905b818110611d935750506040516370a0823160e01b8152306004820152916020836024817f00000000000000000000000000000000000000000000000000000000000000006001600160a01b03165afa928315611d8757600093611d54575b5091611d519192611cd1565b90565b6020813d8211611d7f575b81611d6c60209383611acb565b81010312610b5c57519250611d51611d45565b3d9150611d5f565b6040513d6000823e3d90fd5b611d9c81611bdb565b9060018060a01b03809154600393841b1c1660005260209082825260409260ff8185600020015416611ddb575b50505050611dd690611c98565b611ce7565b918091600493611dec879a97611bdb565b9054911b1c168451938480926278744560e21b82525afa928315611e5d5750600092611e2c575b5050611e2290611dd692611cd1565b9390388080611dc9565b81819392933d8311611e56575b611e438183611acb565b8101031261017157505181611e22611e13565b503d611e39565b513d6000823e3d90fd5b81810292918115918404141715611ca757565b15611e8157565b60405162461bcd60e51b815260206004820152600a60248201526913db9b1e481d985d5b1d60b21b6044820152606490fd5b15611eba57565b60405162461bcd60e51b815260206004820152600b60248201526a16995c9bc8185b5bdd5b9d60aa1b6044820152606490fd5b60ff60005460a01c16611efc57565b60405162461bcd60e51b815260206004820152601060248201526f14185d5cd8589b194e881c185d5cd95960821b6044820152606490fd5b600260015414611f45576002600155565b60405162461bcd60e51b815260206004820152601f60248201527f5265656e7472616e637947756172643a207265656e7472616e742063616c6c006044820152606490fd5b91909181158015612048575b15611fe45760405163095ea7b360e01b60208201526001600160a01b0390931660248401526044830191909152611b2b9190611fdf82606481015b03601f198101845283611acb565b6120dd565b60405162461bcd60e51b815260206004820152603660248201527f5361666545524332303a20617070726f76652066726f6d206e6f6e2d7a65726f60448201527520746f206e6f6e2d7a65726f20616c6c6f77616e636560501b6064820152608490fd5b50604051636eb1769f60e11b81523060048201526001600160a01b0384811660248301526020908290604490829086165afa908115611d8757600091612090575b5015611f96565b906020823d82116120b9575b816120a960209383611acb565b8101031261017157505138612089565b3d915061209c565b67ffffffffffffffff8111611a9957601f01601f191660200190565b60018060a01b031690604051604081019080821067ffffffffffffffff831117611a995761216d916040526020938482527f5361666545524332303a206c6f772d6c6576656c2063616c6c206661696c6564858301526000808587829751910182855af13d15612203573d91612152836120c1565b926121606040519485611acb565b83523d868885013e612207565b8051918215918483156121df575b5050509050156121885750565b6084906040519062461bcd60e51b82526004820152602a60248201527f5361666545524332303a204552433230206f7065726174696f6e20646964206e6044820152691bdd081cdd58d8d9595960b21b6064820152fd5b919381809450010312610b985782015190811515820361017157508038808461217b565b6060915b91929015612269575081511561221b575090565b3b156122245790565b60405162461bcd60e51b815260206004820152601d60248201527f416464726573733a2063616c6c20746f206e6f6e2d636f6e74726163740000006044820152606490fd5b82519091501561227c5750805190602001fd5b60405162461bcd60e51b8152602060048201529081906122a0906024830190611bb6565b0390fd5b91908203918211611ca757565b6122bc811515611eb3565b604080516370a0823160e01b80825230600480840191909152947f00000000000000000000000000000000000000000000000000000000000000006001600160a01b038181169694602094602494929387939192878188818e5afa90811561253c5760009161250f575b50848110156124f857806124da575b5060005b600280548210806124d1575b1561246157869061235583611bdb565b929054600393841b1c16600052818a5260ff8c600020928301541680612455575b61238b575b505061238690611c98565b612339565b61239b6127109183015488611e67565b048a81101561244e575b801561237b578782541690813b156103cb578c918f828c6000928387519586948593632e1a7d4d60e01b85528401525af1908161243f575b506123e9575b5061237b565b8a818a61242e869f947f7084f5476618d8e60b11ef0d7d3f06914655adb8793e28ff7f018d4c76d505d59560066123869a9901612427838254611cd1565b90556122a4565b9e54169351908152a2908a386123e3565b61244890611a85565b386123dd565b50896123a5565b50808201541515612376565b5050989796509892508493915085519687938492835230908301525afa918215611e5d57506000916124a5575b5080915061249a575050565b611b2b913390612547565b82813d83116124ca575b6124b98183611acb565b81010312610171575051803861248e565b503d6124af565b50891515612345565b6124f19198506124eb81338b612547565b846122a4565b9638612335565b5096509850509450505050611b2b92503390612547565b908882813d8311612535575b6125258183611acb565b8101031261017157505138612326565b503d61251b565b8a513d6000823e3d90fd5b60405163a9059cbb60e01b60208201526001600160a01b0390921660248301526044820192909252611b2b91611fdf8260648101611fd1565b1561258757565b60405162461bcd60e51b815260206004820152601260248201527124b73b30b634b21030b63637b1b0ba34b7b760711b6044820152606490fd5b6020818303126103cb5780519067ffffffffffffffff82116103cb570181601f820112156103cb5780516125f4816120c1565b926126026040519485611acb565b818452602082840101116103cb57611d519160208085019101611b93565b1561262757565b60405162461bcd60e51b815260206004820152601060248201526f496e76616c696420737472617465677960801b6044820152606490fdfea26469706673582212207e9c996a3f49f875995d83bce1f2eca158c73537a6ee03db8f09f6dcdf03013364736f6c63430008140033","opcodes":"PUSH1 0xA0 CALLVALUE PUSH3 0xF0 JUMPI PUSH1 0x1F PUSH3 0x27FD CODESIZE DUP2 SWAP1 SUB SWAP2 DUP3 ADD PUSH1 0x1F NOT AND DUP4 ADD SWAP2 PUSH1 0x1 PUSH1 0x1 PUSH1 0x40 SHL SUB DUP4 GT DUP5 DUP5 LT OR PUSH3 0xF5 JUMPI DUP1 DUP5 SWAP3 PUSH1 0x60 SWAP5 PUSH1 0x40 MSTORE DUP4 CODECOPY DUP2 ADD SUB SLT PUSH3 0xF0 JUMPI DUP1 PUSH3 0x52 PUSH3 0xB4 SWAP3 PUSH3 0x10B JUMP JUMPDEST PUSH3 0x6E PUSH1 0x40 PUSH3 0x66 PUSH1 0x20 DUP6 ADD PUSH3 0x10B JUMP JUMPDEST SWAP4 ADD PUSH3 0x10B JUMP JUMPDEST SWAP2 PUSH3 0x7A CALLER PUSH3 0x120 JUMP JUMPDEST PUSH1 0x0 DUP1 SLOAD PUSH1 0xFF PUSH1 0xA0 SHL NOT AND SWAP1 SSTORE PUSH1 0x1 DUP1 SSTORE PUSH1 0x1 PUSH1 0x1 PUSH1 0xA0 SHL SUB SWAP2 DUP3 AND PUSH1 0x80 MSTORE PUSH1 0x5 DUP1 SLOAD PUSH1 0x1 PUSH1 0x1 PUSH1 0xA0 SHL SUB NOT AND SWAP2 SWAP1 SWAP3 AND OR SWAP1 SSTORE PUSH3 0x120 JUMP JUMPDEST PUSH1 0x40 MLOAD PUSH2 0x2695 SWAP1 DUP2 PUSH3 0x168 DUP3 CODECOPY PUSH1 0x80 MLOAD DUP2 DUP2 DUP2 PUSH2 0x9DC ADD MSTORE DUP2 DUP2 PUSH2 0x1001 ADD MSTORE DUP2 DUP2 PUSH2 0x149A ADD MSTORE DUP2 DUP2 PUSH2 0x16F0 ADD MSTORE DUP2 DUP2 PUSH2 0x1D0C ADD MSTORE PUSH2 0x22D8 ADD MSTORE RETURN JUMPDEST PUSH1 0x0 DUP1 REVERT JUMPDEST PUSH4 0x4E487B71 PUSH1 0xE0 SHL PUSH1 0x0 MSTORE PUSH1 0x41 PUSH1 0x4 MSTORE PUSH1 0x24 PUSH1 0x0 REVERT JUMPDEST MLOAD SWAP1 PUSH1 0x1 PUSH1 0x1 PUSH1 0xA0 SHL SUB DUP3 AND DUP3 SUB PUSH3 0xF0 JUMPI JUMP JUMPDEST PUSH1 0x0 DUP1 SLOAD PUSH1 0x1 PUSH1 0x1 PUSH1 0xA0 SHL SUB SWAP3 DUP4 AND PUSH1 0x1 PUSH1 0x1 PUSH1 0xA0 SHL SUB NOT DUP3 AND DUP2 OR DUP4 SSTORE SWAP3 AND SWAP1 PUSH32 0x8BE0079C531659141344CD1FD0A4F28419497F9722A3DAAFE3B4186F6B6457E0 SWAP1 DUP1 LOG3 JUMP INVALID PUSH1 0x80 PUSH1 0x40 MSTORE PUSH1 0x4 CALLDATASIZE LT ISZERO PUSH2 0x12 JUMPI PUSH1 0x0 DUP1 REVERT JUMPDEST PUSH1 0x0 PUSH1 0xE0 DUP2 CALLDATALOAD DUP2 SHR SWAP1 DUP2 PUSH4 0x1681A62 EQ PUSH2 0x1994 JUMPI DUP2 PUSH4 0x1E1D114 EQ PUSH2 0x1979 JUMPI DUP2 PUSH4 0x175188E8 EQ PUSH2 0x171F JUMPI DUP2 PUSH4 0x1F1FCD51 EQ PUSH2 0x16DA JUMPI DUP2 PUSH4 0x2E1A7D4D EQ PUSH2 0x1699 JUMPI DUP2 PUSH4 0x2E8EBAAE EQ PUSH2 0x165A JUMPI DUP2 PUSH4 0x39EBF823 EQ PUSH2 0x15C1 JUMPI DUP2 PUSH4 0x3F4BA83A EQ PUSH2 0x1526 JUMPI DUP2 PUSH4 0x54AB6269 EQ PUSH2 0x13A7 JUMPI DUP2 PUSH4 0x587436E4 EQ PUSH2 0x1232 JUMPI DUP2 PUSH4 0x5C975ABB EQ PUSH2 0x120D JUMPI DUP2 PUSH4 0x6817031B EQ PUSH2 0x11CD JUMPI DUP2 PUSH4 0x715018A6 EQ PUSH2 0x1173 JUMPI DUP2 PUSH4 0x79203DC4 EQ PUSH2 0x1155 JUMPI DUP2 PUSH4 0x7D7C2A1C EQ PUSH2 0xEC3 JUMPI DUP2 PUSH4 0x8456CB59 EQ PUSH2 0xE62 JUMPI DUP2 PUSH4 0x8DA5CB5B EQ PUSH2 0xE3B JUMPI DUP2 PUSH4 0x8ED955B9 EQ PUSH2 0xD0B JUMPI DUP2 PUSH4 0x9076C166 EQ PUSH2 0xC5A JUMPI DUP2 PUSH4 0xA267526B EQ PUSH2 0xC16 JUMPI DUP2 PUSH4 0xB0F42A1D EQ PUSH2 0xB9C JUMPI DUP2 PUSH4 0xB6B55F25 EQ PUSH2 0x990 JUMPI DUP2 PUSH4 0xC3B28864 EQ PUSH2 0x7A9 JUMPI POP DUP1 PUSH4 0xC9411E22 EQ PUSH2 0x3EC JUMPI DUP1 PUSH4 0xD17132CC EQ PUSH2 0x23A JUMPI DUP1 PUSH4 0xF2FDE38B EQ PUSH2 0x174 JUMPI PUSH4 0xFBFA77CF EQ PUSH2 0x149 JUMPI PUSH1 0x0 DUP1 REVERT JUMPDEST CALLVALUE PUSH2 0x171 JUMPI DUP1 PUSH1 0x3 NOT CALLDATASIZE ADD SLT PUSH2 0x171 JUMPI PUSH1 0x5 SLOAD PUSH1 0x40 MLOAD PUSH1 0x1 PUSH1 0x1 PUSH1 0xA0 SHL SUB SWAP1 SWAP2 AND DUP2 MSTORE PUSH1 0x20 SWAP1 RETURN JUMPDEST DUP1 REVERT JUMPDEST POP CALLVALUE PUSH2 0x171 JUMPI PUSH1 0x20 CALLDATASIZE PUSH1 0x3 NOT ADD SLT PUSH2 0x171 JUMPI PUSH2 0x18E PUSH2 0x1A35 JUMP JUMPDEST PUSH2 0x196 PUSH2 0x1C28 JUMP JUMPDEST PUSH1 0x1 PUSH1 0x1 PUSH1 0xA0 SHL SUB SWAP1 DUP2 AND SWAP1 DUP2 ISZERO PUSH2 0x1E6 JUMPI PUSH1 0x0 SLOAD DUP3 PUSH1 0x1 PUSH1 0x1 PUSH1 0x60 SHL SUB PUSH1 0xA0 SHL DUP3 AND OR PUSH1 0x0 SSTORE AND PUSH32 0x8BE0079C531659141344CD1FD0A4F28419497F9722A3DAAFE3B4186F6B6457E0 PUSH1 0x0 DUP1 LOG3 DUP1 RETURN JUMPDEST PUSH1 0x40 MLOAD PUSH3 0x461BCD PUSH1 0xE5 SHL DUP2 MSTORE PUSH1 0x20 PUSH1 0x4 DUP3 ADD MSTORE PUSH1 0x26 PUSH1 0x24 DUP3 ADD MSTORE PUSH32 0x4F776E61626C653A206E6577206F776E657220697320746865207A65726F2061 PUSH1 0x44 DUP3 ADD MSTORE PUSH6 0x646472657373 PUSH1 0xD0 SHL PUSH1 0x64 DUP3 ADD MSTORE PUSH1 0x84 SWAP1 REVERT JUMPDEST POP CALLVALUE PUSH2 0x171 JUMPI DUP1 PUSH1 0x3 NOT CALLDATASIZE ADD SLT PUSH2 0x171 JUMPI DUP1 DUP1 DUP1 PUSH1 0x2 DUP1 SLOAD SWAP2 JUMPDEST DUP3 DUP2 LT PUSH2 0x29B JUMPI POP POP DUP3 ISZERO SWAP2 SWAP1 POP DUP2 PUSH2 0x28F JUMPI POP PUSH2 0x279 JUMPI PUSH1 0x20 SWAP2 DIV JUMPDEST PUSH1 0x40 MLOAD SWAP1 DUP2 MSTORE RETURN JUMPDEST PUSH4 0x4E487B71 PUSH1 0xE0 SHL PUSH1 0x0 MSTORE PUSH1 0x12 PUSH1 0x4 MSTORE PUSH1 0x24 PUSH1 0x0 REVERT JUMPDEST SWAP2 POP POP PUSH1 0x20 SWAP2 POP PUSH2 0x271 JUMP JUMPDEST PUSH2 0x2A4 DUP2 PUSH2 0x1BDB JUMP JUMPDEST SWAP1 SLOAD PUSH1 0x3 SWAP2 DUP3 SHL SHR PUSH1 0x1 PUSH1 0x1 PUSH1 0xA0 SHL SUB SWAP1 DUP2 AND DUP7 MSTORE PUSH1 0x20 DUP3 DUP2 MSTORE PUSH1 0x40 DUP1 DUP9 KECCAK256 SWAP1 MLOAD SWAP2 SWAP3 SWAP2 SWAP1 PUSH2 0x2D2 DUP3 PUSH2 0x1AAF JUMP JUMPDEST DUP3 DUP2 SLOAD AND DUP3 MSTORE PUSH2 0x2E4 PUSH1 0x1 DUP3 ADD PUSH2 0x1AED JUMP JUMPDEST DUP5 DUP4 ADD MSTORE DUP7 DUP2 ADD SLOAD PUSH1 0x6 PUSH1 0xFF PUSH1 0x40 DUP6 ADD SWAP8 DUP4 DUP10 MSTORE DUP5 ADD SLOAD AND ISZERO ISZERO SWAP3 DUP4 PUSH1 0x60 DUP7 ADD MSTORE PUSH1 0x4 DUP2 ADD SLOAD PUSH1 0x80 DUP7 ADD MSTORE PUSH1 0x5 DUP2 ADD SLOAD PUSH1 0xA0 DUP7 ADD MSTORE ADD SLOAD PUSH1 0xC0 DUP5 ADD MSTORE DUP2 PUSH2 0x3E2 JUMPI JUMPDEST POP PUSH2 0x33E JUMPI JUMPDEST POP POP POP POP PUSH2 0x339 SWAP1 PUSH2 0x1C98 JUMP JUMPDEST PUSH2 0x254 JUMP JUMPDEST MLOAD PUSH1 0x40 MLOAD PUSH4 0xF19993D7 PUSH1 0xE0 SHL DUP2 MSTORE SWAP4 SWAP10 SWAP5 SWAP9 SWAP5 SWAP4 SWAP2 DUP4 SWAP2 DUP4 SWAP2 PUSH1 0x4 SWAP2 DUP4 SWAP2 AND GAS STATICCALL SWAP2 DUP3 ISZERO PUSH2 0x3D7 JUMPI DUP8 SWAP3 PUSH2 0x39E JUMPI JUMPDEST POP POP SWAP2 PUSH2 0x38C PUSH2 0x394 SWAP3 PUSH2 0x386 PUSH2 0x339 SWAP6 DUP12 MLOAD SWAP1 PUSH2 0x1E67 JUMP JUMPDEST SWAP1 PUSH2 0x1CD1 JUMP JUMPDEST SWAP8 MLOAD SWAP1 PUSH2 0x1CD1 JUMP JUMPDEST SWAP5 SWAP1 CODESIZE DUP1 DUP1 PUSH2 0x32C JUMP JUMPDEST SWAP1 DUP1 SWAP5 SWAP3 POP DUP2 RETURNDATASIZE DUP4 GT PUSH2 0x3D0 JUMPI JUMPDEST PUSH2 0x3B6 DUP2 DUP4 PUSH2 0x1ACB JUMP JUMPDEST DUP2 ADD SUB SLT PUSH2 0x3CB JUMPI SWAP2 MLOAD PUSH2 0x38C PUSH2 0x394 PUSH2 0x36D JUMP JUMPDEST PUSH1 0x0 DUP1 REVERT JUMPDEST POP RETURNDATASIZE PUSH2 0x3AC JUMP JUMPDEST PUSH1 0x40 MLOAD RETURNDATASIZE DUP10 DUP3 RETURNDATACOPY RETURNDATASIZE SWAP1 REVERT JUMPDEST SWAP1 POP ISZERO ISZERO CODESIZE PUSH2 0x326 JUMP JUMPDEST POP CALLVALUE PUSH2 0x171 JUMPI PUSH1 0x40 CALLDATASIZE PUSH1 0x3 NOT ADD SLT PUSH2 0x171 JUMPI PUSH2 0x406 PUSH2 0x1A35 JUMP JUMPDEST PUSH2 0x40E PUSH2 0x1C28 JUMP JUMPDEST PUSH1 0x1 PUSH1 0x1 PUSH1 0xA0 SHL SUB DUP2 DUP2 AND DUP4 MSTORE PUSH1 0x4 PUSH1 0x20 MSTORE PUSH1 0x40 DUP4 KECCAK256 SLOAD PUSH1 0xFF AND PUSH2 0x774 JUMPI PUSH2 0x43C PUSH2 0x2710 PUSH1 0x24 CALLDATALOAD GT ISZERO PUSH2 0x2580 JUMP JUMPDEST PUSH1 0x2 SLOAD PUSH9 0x10000000000000000 DUP2 LT ISZERO PUSH2 0x760 JUMPI DUP3 PUSH2 0x464 DUP3 PUSH1 0x1 PUSH2 0x483 SWAP5 ADD PUSH1 0x2 SSTORE PUSH2 0x1BDB JUMP JUMPDEST SWAP1 SWAP2 SWAP1 DUP3 SLOAD SWAP1 PUSH1 0x3 SHL SWAP2 PUSH1 0x1 DUP1 PUSH1 0xA0 SHL SUB DUP1 SWAP2 AND DUP4 SHL SWAP3 SHL NOT AND OR SWAP1 SSTORE JUMP JUMPDEST PUSH1 0x40 MLOAD PUSH4 0x6FDDE03 PUSH1 0xE0 SHL DUP2 MSTORE DUP4 DUP2 PUSH1 0x4 DUP2 DUP7 DUP7 AND GAS STATICCALL SWAP1 DUP2 ISZERO PUSH2 0x666 JUMPI DUP5 SWAP2 PUSH2 0x746 JUMPI JUMPDEST POP PUSH1 0x40 MLOAD PUSH2 0x4B5 DUP2 PUSH2 0x1AAF JUMP JUMPDEST DUP3 DUP5 AND DUP2 MSTORE PUSH1 0x20 DUP2 ADD SWAP2 DUP3 MSTORE PUSH1 0x24 CALLDATALOAD PUSH1 0x40 DUP3 ADD MSTORE PUSH1 0x1 PUSH1 0x60 DUP3 ADD MSTORE DUP5 PUSH1 0x80 DUP3 ADD MSTORE DUP5 PUSH1 0xA0 DUP3 ADD MSTORE DUP5 PUSH1 0xC0 DUP3 ADD MSTORE DUP3 DUP5 AND DUP6 MSTORE PUSH1 0x3 PUSH1 0x20 MSTORE PUSH1 0x40 DUP6 KECCAK256 SWAP2 DUP4 DUP3 MLOAD AND PUSH1 0x1 PUSH1 0x1 PUSH1 0x60 SHL SUB PUSH1 0xA0 SHL DUP5 SLOAD AND OR DUP4 SSTORE MLOAD DUP1 MLOAD SWAP1 PUSH8 0xFFFFFFFFFFFFFFFF DUP3 GT PUSH2 0x732 JUMPI PUSH2 0x526 PUSH1 0x1 DUP6 ADD SLOAD PUSH2 0x1A4B JUMP JUMPDEST PUSH1 0x1F DUP2 GT PUSH2 0x6EE JUMPI JUMPDEST POP PUSH1 0x20 SWAP1 PUSH1 0x1F DUP4 GT PUSH1 0x1 EQ PUSH2 0x67C JUMPI SWAP2 DUP1 PUSH1 0x6 SWAP5 SWAP3 PUSH1 0xC0 SWAP5 DUP11 SWAP3 PUSH2 0x671 JUMPI JUMPDEST POP POP DUP2 PUSH1 0x1 SHL SWAP2 PUSH1 0x0 NOT SWAP1 PUSH1 0x3 SHL SHR NOT AND OR PUSH1 0x1 DUP6 ADD SSTORE JUMPDEST PUSH1 0x40 DUP2 ADD MLOAD PUSH1 0x2 DUP6 ADD SSTORE PUSH2 0x58F PUSH1 0x60 DUP3 ADD MLOAD ISZERO ISZERO PUSH1 0x3 DUP7 ADD SWAP1 PUSH1 0xFF DUP1 NOT DUP4 SLOAD AND SWAP2 ISZERO ISZERO AND OR SWAP1 SSTORE JUMP JUMPDEST PUSH1 0x80 DUP2 ADD MLOAD PUSH1 0x4 DUP6 ADD SSTORE PUSH1 0xA0 DUP2 ADD MLOAD PUSH1 0x5 DUP6 ADD SSTORE ADD MLOAD SWAP2 ADD SSTORE DUP1 DUP3 AND DUP4 MSTORE PUSH1 0x4 PUSH1 0x20 MSTORE PUSH1 0x40 DUP4 KECCAK256 PUSH1 0x1 PUSH1 0xFF NOT DUP3 SLOAD AND OR SWAP1 SSTORE PUSH2 0x5CF PUSH1 0x24 CALLDATALOAD PUSH1 0x6 SLOAD PUSH2 0x1CD1 JUMP JUMPDEST PUSH1 0x6 SSTORE PUSH1 0x40 MLOAD PUSH4 0x6FDDE03 PUSH1 0xE0 SHL DUP2 MSTORE DUP4 DUP2 PUSH1 0x4 DUP2 DUP7 DUP7 AND GAS STATICCALL DUP1 ISZERO PUSH2 0x666 JUMPI PUSH32 0x543E7B8634C9242067AB3532CE2794D4B6EB718CFC76CA756A581F0CFB1C6CE7 SWAP3 PUSH2 0x631 SWAP3 DUP7 SWAP3 PUSH2 0x642 JUMPI JUMPDEST POP PUSH1 0x40 MLOAD SWAP3 DUP4 SWAP3 PUSH1 0x40 DUP5 MSTORE PUSH1 0x40 DUP5 ADD SWAP1 PUSH2 0x1BB6 JUMP JUMPDEST SWAP5 PUSH1 0x24 CALLDATALOAD PUSH1 0x20 DUP5 ADD MSTORE AND SWAP4 SUB SWAP1 LOG2 DUP1 RETURN JUMPDEST PUSH2 0x65F SWAP2 SWAP3 POP RETURNDATASIZE DUP1 DUP9 DUP4 RETURNDATACOPY PUSH2 0x657 DUP2 DUP4 PUSH2 0x1ACB JUMP JUMPDEST DUP2 ADD SWAP1 PUSH2 0x25C1 JUMP JUMPDEST SWAP1 CODESIZE PUSH2 0x61C JUMP JUMPDEST PUSH1 0x40 MLOAD RETURNDATASIZE DUP7 DUP3 RETURNDATACOPY RETURNDATASIZE SWAP1 REVERT JUMPDEST ADD MLOAD SWAP1 POP CODESIZE DUP1 PUSH2 0x54E JUMP JUMPDEST SWAP1 PUSH1 0x1 DUP6 ADD DUP9 MSTORE PUSH1 0x20 DUP9 KECCAK256 SWAP2 DUP9 JUMPDEST PUSH1 0x1F NOT DUP6 AND DUP2 LT PUSH2 0x6D6 JUMPI POP SWAP3 PUSH1 0x6 SWAP5 SWAP3 PUSH1 0x1 SWAP3 PUSH1 0xC0 SWAP6 DUP4 PUSH1 0x1F NOT DUP2 AND LT PUSH2 0x6BD JUMPI JUMPDEST POP POP POP DUP2 SHL ADD PUSH1 0x1 DUP6 ADD SSTORE PUSH2 0x566 JUMP JUMPDEST ADD MLOAD PUSH1 0x0 NOT PUSH1 0xF8 DUP5 PUSH1 0x3 SHL AND SHR NOT AND SWAP1 SSTORE CODESIZE DUP1 DUP1 PUSH2 0x6AD JUMP JUMPDEST SWAP2 SWAP3 PUSH1 0x20 PUSH1 0x1 DUP2 SWAP3 DUP7 DUP6 ADD MLOAD DUP2 SSTORE ADD SWAP5 ADD SWAP3 ADD PUSH2 0x68A JUMP JUMPDEST PUSH1 0x1 DUP6 ADD DUP9 MSTORE PUSH1 0x20 DUP9 KECCAK256 PUSH1 0x1F DUP5 ADD PUSH1 0x5 SHR DUP2 ADD PUSH1 0x20 DUP6 LT PUSH2 0x72B JUMPI JUMPDEST PUSH1 0x1F DUP4 ADD PUSH1 0x5 SHR DUP3 ADD DUP2 LT PUSH2 0x720 JUMPI POP POP PUSH2 0x52F JUMP JUMPDEST DUP10 DUP2 SSTORE PUSH1 0x1 ADD PUSH2 0x70A JUMP JUMPDEST POP DUP1 PUSH2 0x70A JUMP JUMPDEST PUSH4 0x4E487B71 PUSH1 0xE0 SHL DUP8 MSTORE PUSH1 0x41 PUSH1 0x4 MSTORE PUSH1 0x24 DUP8 REVERT JUMPDEST PUSH2 0x75A SWAP2 POP RETURNDATASIZE DUP1 DUP7 DUP4 RETURNDATACOPY PUSH2 0x657 DUP2 DUP4 PUSH2 0x1ACB JUMP JUMPDEST CODESIZE PUSH2 0x4A8 JUMP JUMPDEST PUSH4 0x4E487B71 PUSH1 0xE0 SHL DUP5 MSTORE PUSH1 0x41 PUSH1 0x4 MSTORE PUSH1 0x24 DUP5 REVERT JUMPDEST PUSH1 0x40 MLOAD PUSH3 0x461BCD PUSH1 0xE5 SHL DUP2 MSTORE PUSH1 0x20 PUSH1 0x4 DUP3 ADD MSTORE PUSH1 0xD PUSH1 0x24 DUP3 ADD MSTORE PUSH13 0x105B1C9958591E481859191959 PUSH1 0x9A SHL PUSH1 0x44 DUP3 ADD MSTORE PUSH1 0x64 SWAP1 REVERT JUMPDEST DUP3 CALLVALUE PUSH2 0x171 JUMPI DUP1 PUSH1 0x3 NOT CALLDATASIZE ADD SLT PUSH2 0x171 JUMPI PUSH1 0x2 DUP1 SLOAD PUSH2 0x7C7 DUP2 PUSH2 0x1C80 JUMP JUMPDEST SWAP2 PUSH2 0x7D5 PUSH1 0x40 MLOAD SWAP4 DUP5 PUSH2 0x1ACB JUMP JUMPDEST DUP2 DUP4 MSTORE PUSH1 0x1F NOT PUSH2 0x7E4 DUP4 PUSH2 0x1C80 JUMP JUMPDEST ADD DUP5 JUMPDEST DUP2 DUP2 LT PUSH2 0x94E JUMPI POP POP DUP4 JUMPDEST DUP3 DUP2 LT PUSH2 0x8A9 JUMPI POP POP POP PUSH1 0x40 MLOAD SWAP2 PUSH1 0x20 DUP1 DUP5 ADD SWAP1 DUP1 DUP6 MSTORE DUP4 MLOAD DUP1 SWAP3 MSTORE PUSH1 0x40 DUP6 ADD DUP2 PUSH1 0x40 DUP5 PUSH1 0x5 SHL DUP9 ADD ADD SWAP6 ADD SWAP4 SWAP7 JUMPDEST DUP4 DUP9 LT PUSH2 0x82E JUMPI DUP7 DUP7 SUB DUP8 RETURN JUMPDEST SWAP1 SWAP2 SWAP3 SWAP4 SWAP5 DUP4 DUP1 PUSH1 0x1 SWAP3 PUSH1 0x3F NOT DUP11 DUP3 SUB ADD DUP7 MSTORE DUP9 MLOAD SWAP1 DUP5 DUP1 PUSH1 0xA0 SHL SUB DUP3 MLOAD AND DUP2 MSTORE PUSH2 0x864 DUP4 DUP4 ADD MLOAD DUP8 DUP6 DUP5 ADD MSTORE DUP8 DUP4 ADD SWAP1 PUSH2 0x1BB6 JUMP JUMPDEST SWAP2 PUSH1 0x40 DUP2 ADD MLOAD PUSH1 0x40 DUP4 ADD MSTORE PUSH1 0x60 DUP1 DUP3 ADD MLOAD ISZERO ISZERO SWAP1 DUP4 ADD MSTORE PUSH1 0x80 DUP1 DUP3 ADD MLOAD SWAP1 DUP4 ADD MSTORE PUSH1 0xA0 DUP1 DUP3 ADD MLOAD SWAP1 DUP4 ADD MSTORE PUSH1 0xC0 DUP1 SWAP2 ADD MLOAD SWAP2 ADD MSTORE SWAP8 ADD SWAP4 ADD SWAP8 ADD SWAP7 SWAP1 SWAP4 SWAP3 SWAP2 SWAP4 PUSH2 0x821 JUMP JUMPDEST DUP1 PUSH1 0x6 PUSH2 0x8B8 PUSH2 0x949 SWAP4 PUSH2 0x1BDB JUMP JUMPDEST SWAP1 SLOAD PUSH1 0x3 SWAP2 DUP3 SHL SHR PUSH1 0x1 PUSH1 0x1 PUSH1 0xA0 SHL SUB SWAP1 DUP2 AND DUP10 MSTORE PUSH1 0x20 DUP3 DUP2 MSTORE PUSH1 0x40 DUP1 DUP12 KECCAK256 SWAP1 MLOAD SWAP5 SWAP4 SWAP1 SWAP3 PUSH1 0xFF SWAP3 SWAP1 PUSH2 0x8EA DUP8 PUSH2 0x1AAF JUMP JUMPDEST DUP5 SLOAD AND DUP7 MSTORE PUSH2 0x8FB PUSH1 0x1 DUP6 ADD PUSH2 0x1AED JUMP JUMPDEST SWAP1 DUP7 ADD MSTORE DUP8 DUP4 ADD SLOAD PUSH1 0x40 DUP7 ADD MSTORE DUP3 ADD SLOAD AND ISZERO ISZERO PUSH1 0x60 DUP5 ADD MSTORE PUSH1 0x4 DUP2 ADD SLOAD PUSH1 0x80 DUP5 ADD MSTORE PUSH1 0x5 DUP2 ADD SLOAD PUSH1 0xA0 DUP5 ADD MSTORE ADD SLOAD PUSH1 0xC0 DUP3 ADD MSTORE PUSH2 0x938 DUP3 DUP8 PUSH2 0x1CBD JUMP JUMPDEST MSTORE PUSH2 0x943 DUP2 DUP7 PUSH2 0x1CBD JUMP JUMPDEST POP PUSH2 0x1C98 JUMP JUMPDEST PUSH2 0x7F2 JUMP JUMPDEST PUSH1 0x20 SWAP1 PUSH1 0x40 MLOAD PUSH2 0x95D DUP2 PUSH2 0x1AAF JUMP JUMPDEST DUP8 DUP2 MSTORE PUSH1 0x60 DUP9 DUP5 SWAP2 DUP1 DUP4 DUP6 ADD MSTORE DUP2 PUSH1 0x40 DUP6 ADD MSTORE DUP4 ADD MSTORE DUP9 PUSH1 0x80 DUP4 ADD MSTORE DUP9 PUSH1 0xA0 DUP4 ADD MSTORE DUP9 PUSH1 0xC0 DUP4 ADD MSTORE DUP3 DUP9 ADD ADD MSTORE ADD PUSH2 0x7E7 JUMP JUMPDEST DUP3 CALLVALUE PUSH2 0x171 JUMPI PUSH1 0x20 DUP1 PUSH1 0x3 NOT CALLDATASIZE ADD SLT PUSH2 0xB98 JUMPI PUSH1 0x4 CALLDATALOAD SWAP2 PUSH1 0x1 DUP1 PUSH1 0xA0 SHL SUB PUSH1 0x5 SWAP1 PUSH2 0x9BF DUP2 DUP4 SLOAD AND CALLER EQ PUSH2 0x1E7A JUMP JUMPDEST PUSH2 0x9C7 PUSH2 0x1EED JUMP JUMPDEST PUSH2 0x9CF PUSH2 0x1F34 JUMP JUMPDEST PUSH2 0x9DA DUP6 ISZERO ISZERO PUSH2 0x1EB3 JUMP JUMPDEST PUSH32 0x0 SWAP2 PUSH1 0x40 MLOAD SWAP4 PUSH4 0x23B872DD PUSH1 0xE0 SHL DUP7 DUP7 ADD MSTORE PUSH1 0x24 SWAP5 CALLER DUP7 DUP3 ADD MSTORE ADDRESS PUSH1 0x44 DUP3 ADD MSTORE DUP8 PUSH1 0x64 DUP3 ADD MSTORE PUSH1 0x64 DUP2 MSTORE PUSH1 0xA0 DUP2 ADD DUP2 DUP2 LT PUSH8 0xFFFFFFFFFFFFFFFF DUP3 GT OR PUSH2 0xB83 JUMPI PUSH1 0x40 MSTORE PUSH2 0xA48 SWAP1 DUP6 PUSH2 0x20DD JUMP JUMPDEST DUP1 JUMPDEST PUSH1 0x2 DUP1 SLOAD DUP3 LT ISZERO PUSH2 0xB7B JUMPI DUP5 SWAP1 PUSH2 0xA60 DUP4 PUSH2 0x1BDB JUMP JUMPDEST SWAP3 SWAP1 SLOAD PUSH1 0x3 SWAP4 DUP5 SHL SHR AND DUP5 MSTORE DUP2 DUP10 MSTORE PUSH1 0xFF PUSH1 0x40 DUP6 KECCAK256 SWAP3 DUP4 ADD SLOAD AND DUP1 PUSH2 0xB6F JUMPI JUMPDEST PUSH2 0xA95 JUMPI JUMPDEST POP POP PUSH2 0xA90 SWAP1 PUSH2 0x1C98 JUMP JUMPDEST PUSH2 0xA4A JUMP JUMPDEST PUSH2 0xAA5 PUSH2 0x2710 SWAP2 DUP4 ADD SLOAD DUP12 PUSH2 0x1E67 JUMP JUMPDEST DIV SWAP1 DUP2 ISZERO PUSH2 0xA85 JUMPI PUSH2 0xABB DUP3 DUP8 DUP4 SLOAD AND DUP10 PUSH2 0x1F8A JUMP JUMPDEST DUP6 DUP2 SLOAD AND DUP1 EXTCODESIZE ISZERO PUSH2 0xB6B JUMPI DUP5 DUP1 SWAP2 DUP11 PUSH1 0x40 MLOAD DUP1 SWAP5 DUP2 SWAP4 PUSH4 0xB6B55F25 PUSH1 0xE0 SHL DUP4 MSTORE DUP9 PUSH1 0x4 DUP5 ADD MSTORE GAS CALL DUP1 ISZERO PUSH2 0xB60 JUMPI SWAP2 DUP6 DUP9 SWAP3 DUP13 SWAP5 PUSH2 0xB40 JUMPI JUMPDEST POP POP SWAP2 PUSH32 0x2DA466A7B24304F47E87FA2E1E5A81B9831CE54FEC19055CE277CA2F39BA42C4 SWAP2 DUP4 DUP9 PUSH2 0xA90 SWAP8 SWAP7 SWAP6 ADD PUSH2 0xB2D DUP7 DUP3 SLOAD PUSH2 0x1CD1 JUMP JUMPDEST SWAP1 SSTORE SLOAD AND SWAP3 PUSH1 0x40 MLOAD SWAP1 DUP2 MSTORE LOG2 SWAP1 DUP10 PUSH2 0xA85 JUMP JUMPDEST SWAP1 SWAP3 POP PUSH2 0xB4E SWAP2 SWAP4 POP PUSH2 0x1A85 JUMP JUMPDEST PUSH2 0xB5C JUMPI DUP6 DUP10 SWAP2 DUP6 DUP14 PUSH2 0xAF4 JUMP JUMPDEST DUP4 DUP1 REVERT JUMPDEST PUSH1 0x40 MLOAD RETURNDATASIZE DUP8 DUP3 RETURNDATACOPY RETURNDATASIZE SWAP1 REVERT JUMPDEST DUP5 DUP1 REVERT JUMPDEST POP DUP1 DUP3 ADD SLOAD ISZERO ISZERO PUSH2 0xA80 JUMP JUMPDEST DUP3 PUSH1 0x1 DUP1 SSTORE DUP1 RETURN JUMPDEST DUP7 PUSH4 0x4E487B71 PUSH1 0xE0 SHL PUSH1 0x0 MSTORE PUSH1 0x41 PUSH1 0x4 MSTORE PUSH1 0x0 REVERT JUMPDEST POP DUP1 REVERT JUMPDEST DUP3 CALLVALUE PUSH2 0x171 JUMPI PUSH1 0x40 CALLDATASIZE PUSH1 0x3 NOT ADD SLT PUSH2 0x171 JUMPI PUSH2 0xBB6 PUSH2 0x1A35 JUMP JUMPDEST PUSH1 0x24 CALLDATALOAD DUP1 ISZERO ISZERO DUP2 SUB PUSH2 0xC12 JUMPI PUSH2 0xC0F SWAP2 PUSH2 0xBCE PUSH2 0x1C28 JUMP JUMPDEST PUSH1 0x1 PUSH1 0x1 PUSH1 0xA0 SHL SUB AND DUP1 DUP5 MSTORE PUSH1 0x4 PUSH1 0x20 MSTORE PUSH1 0x40 DUP5 KECCAK256 SLOAD PUSH2 0xBF0 SWAP1 PUSH1 0xFF AND PUSH2 0x2620 JUMP JUMPDEST DUP4 MSTORE PUSH1 0x3 PUSH1 0x20 MSTORE PUSH1 0x3 PUSH1 0x40 DUP5 KECCAK256 ADD SWAP1 PUSH1 0xFF DUP1 NOT DUP4 SLOAD AND SWAP2 ISZERO ISZERO AND OR SWAP1 SSTORE JUMP JUMPDEST DUP1 RETURN JUMPDEST DUP3 DUP1 REVERT JUMPDEST DUP3 CALLVALUE PUSH2 0x171 JUMPI PUSH1 0x20 CALLDATASIZE PUSH1 0x3 NOT ADD SLT PUSH2 0x171 JUMPI PUSH1 0x4 CALLDATALOAD SWAP1 PUSH1 0x2 SLOAD DUP3 LT ISZERO PUSH2 0x171 JUMPI PUSH1 0x20 PUSH2 0xC41 DUP4 PUSH2 0x1BDB JUMP JUMPDEST SWAP1 SLOAD PUSH1 0x40 MLOAD PUSH1 0x3 SWAP3 SWAP1 SWAP3 SHL SHR PUSH1 0x1 PUSH1 0x1 PUSH1 0xA0 SHL SUB AND DUP2 MSTORE RETURN JUMPDEST DUP3 CALLVALUE PUSH2 0x171 JUMPI PUSH1 0x40 CALLDATASIZE PUSH1 0x3 NOT ADD SLT PUSH2 0x171 JUMPI PUSH2 0xC74 PUSH2 0x1A35 JUMP JUMPDEST PUSH32 0x183F2CE0B749ED46549CB16586AF0C501ABAB8D242CC4B2076AEC30D2DD9C4BC PUSH1 0x20 PUSH1 0x24 CALLDATALOAD SWAP3 PUSH2 0xCA3 PUSH2 0x1C28 JUMP JUMPDEST PUSH1 0x1 PUSH1 0x1 PUSH1 0xA0 SHL SUB AND DUP1 DUP6 MSTORE PUSH1 0x4 DUP3 MSTORE PUSH1 0x40 DUP6 KECCAK256 SLOAD SWAP1 SWAP4 SWAP1 PUSH2 0xCC7 SWAP1 PUSH1 0xFF AND PUSH2 0x2620 JUMP JUMPDEST PUSH2 0xCD5 PUSH2 0x2710 DUP3 GT ISZERO PUSH2 0x2580 JUMP JUMPDEST DUP4 DUP6 MSTORE PUSH1 0x3 DUP3 MSTORE DUP1 PUSH1 0x40 DUP7 KECCAK256 PUSH2 0xCFD DUP3 PUSH2 0xCF8 PUSH1 0x2 PUSH1 0x6 SLOAD SWAP5 ADD SWAP4 DUP5 SLOAD SWAP1 PUSH2 0x22A4 JUMP JUMPDEST PUSH2 0x1CD1 JUMP JUMPDEST PUSH1 0x6 SSTORE SSTORE PUSH1 0x40 MLOAD SWAP1 DUP2 MSTORE LOG2 DUP1 RETURN JUMPDEST DUP3 CALLVALUE PUSH2 0x171 JUMPI DUP1 PUSH1 0x3 NOT CALLDATASIZE ADD SLT PUSH2 0x171 JUMPI PUSH2 0xD24 PUSH2 0x1F34 JUMP JUMPDEST DUP1 DUP1 JUMPDEST PUSH1 0x2 SLOAD DUP2 LT ISZERO PUSH2 0xE33 JUMPI PUSH2 0xD3A DUP2 PUSH2 0x1BDB JUMP JUMPDEST SWAP1 SLOAD PUSH1 0x3 SWAP2 DUP3 SHL SHR PUSH1 0x1 PUSH1 0x1 PUSH1 0xA0 SHL SUB SWAP1 DUP2 AND DUP5 MSTORE PUSH1 0x20 DUP3 DUP2 MSTORE PUSH1 0x40 DUP6 KECCAK256 SWAP3 DUP4 ADD SLOAD SWAP1 SWAP3 SWAP1 PUSH1 0xFF AND PUSH2 0xD7B JUMPI JUMPDEST POP POP POP PUSH2 0xD74 SWAP2 POP PUSH2 0x1C98 JUMP JUMPDEST DUP2 SWAP1 PUSH2 0xD27 JUMP JUMPDEST PUSH1 0x40 DUP3 DUP3 SLOAD AND PUSH1 0x4 DUP3 MLOAD DUP1 SWAP9 DUP2 SWAP4 PUSH4 0x4641257D PUSH1 0xE0 SHL DUP4 MSTORE GAS CALL SWAP5 DUP6 DUP8 SWAP2 DUP9 SWAP2 PUSH2 0xDF5 JUMPI JUMPDEST POP PUSH2 0xD74 SWAP7 PUSH2 0xDB4 JUMPI JUMPDEST POP POP DUP6 SWAP5 POP PUSH2 0xD67 JUMP JUMPDEST PUSH32 0x81CA9B2C230070EAA84787556B1AAF18BF1E2F07EA5D3DAE4819DB77A1A5B224 SWAP4 PUSH1 0x40 SWAP4 TIMESTAMP PUSH1 0x4 DUP3 ADD SSTORE SLOAD AND SWAP5 DUP4 MLOAD SWAP3 DUP4 MSTORE DUP3 ADD MSTORE LOG2 DUP4 DUP1 DUP1 DUP1 DUP1 PUSH2 0xDAA JUMP JUMPDEST SWAP2 POP POP PUSH1 0x40 DUP2 RETURNDATASIZE PUSH1 0x40 GT PUSH2 0xE2B JUMPI JUMPDEST DUP2 PUSH2 0xE11 PUSH1 0x40 SWAP4 DUP4 PUSH2 0x1ACB JUMP JUMPDEST DUP2 ADD SUB SLT PUSH2 0xE27 JUMPI DUP1 MLOAD SWAP1 DUP5 ADD MLOAD PUSH2 0xD74 PUSH2 0xDA0 JUMP JUMPDEST DUP7 DUP1 REVERT JUMPDEST RETURNDATASIZE SWAP2 POP PUSH2 0xE04 JUMP JUMPDEST POP PUSH1 0x1 DUP1 SSTORE DUP1 RETURN JUMPDEST DUP3 CALLVALUE PUSH2 0x171 JUMPI DUP1 PUSH1 0x3 NOT CALLDATASIZE ADD SLT PUSH2 0x171 JUMPI SLOAD PUSH1 0x40 MLOAD PUSH1 0x1 PUSH1 0x1 PUSH1 0xA0 SHL SUB SWAP1 SWAP2 AND DUP2 MSTORE PUSH1 0x20 SWAP1 RETURN JUMPDEST DUP3 CALLVALUE PUSH2 0x171 JUMPI DUP1 PUSH1 0x3 NOT CALLDATASIZE ADD SLT PUSH2 0x171 JUMPI PUSH2 0xE7B PUSH2 0x1C28 JUMP JUMPDEST PUSH2 0xE83 PUSH2 0x1EED JUMP JUMPDEST DUP1 SLOAD PUSH1 0xFF PUSH1 0xA0 SHL NOT AND PUSH1 0x1 PUSH1 0xA0 SHL OR DUP2 SSTORE PUSH1 0x40 MLOAD CALLER DUP2 MSTORE PUSH32 0x62E78CEA01BEE320CD4E420270B5EA74000D11B0C9F74754EBDBFC544B05A258 SWAP1 PUSH1 0x20 SWAP1 LOG1 DUP1 RETURN JUMPDEST DUP3 CALLVALUE PUSH2 0x171 JUMPI DUP1 PUSH1 0x3 NOT CALLDATASIZE ADD SLT PUSH2 0x171 JUMPI PUSH2 0xEDC PUSH2 0x1C28 JUMP JUMPDEST PUSH2 0xEE4 PUSH2 0x1CDE JUMP JUMPDEST DUP2 JUMPDEST DUP3 PUSH1 0x2 DUP1 SLOAD DUP4 LT ISZERO PUSH2 0x112D JUMPI PUSH2 0xEFB DUP4 PUSH2 0x1BDB JUMP JUMPDEST SWAP1 SLOAD PUSH1 0x3 SWAP2 DUP3 SHL SHR PUSH1 0x1 PUSH1 0x1 PUSH1 0xA0 SHL SUB SWAP1 DUP2 AND DUP5 MSTORE PUSH1 0x20 DUP3 DUP2 MSTORE PUSH1 0x40 DUP6 KECCAK256 SWAP3 DUP4 ADD SLOAD SWAP1 SWAP4 SWAP1 PUSH1 0xFF AND ISZERO PUSH2 0x111F JUMPI PUSH2 0xF38 PUSH2 0x2710 SWAP2 DUP5 ADD SLOAD DUP9 PUSH2 0x1E67 JUMP JUMPDEST DIV DUP2 DUP4 SLOAD AND PUSH1 0x40 MLOAD SWAP1 PUSH3 0x787445 PUSH1 0xE2 SHL DUP3 MSTORE DUP6 DUP3 PUSH1 0x4 DUP2 DUP5 GAS STATICCALL SWAP2 DUP3 ISZERO PUSH2 0x3D7 JUMPI DUP8 SWAP3 PUSH2 0x10ED JUMPI JUMPDEST POP DUP3 DUP3 GT ISZERO PUSH2 0xFDA JUMPI POP PUSH2 0xF76 SWAP3 SWAP4 SWAP5 POP PUSH2 0x22A4 JUMP JUMPDEST SWAP2 SLOAD AND SWAP1 DUP2 EXTCODESIZE ISZERO PUSH2 0xC12 JUMPI DUP3 SWAP2 PUSH1 0x24 DUP4 SWAP3 PUSH1 0x40 MLOAD SWAP5 DUP6 SWAP4 DUP5 SWAP3 PUSH4 0x2E1A7D4D PUSH1 0xE0 SHL DUP5 MSTORE PUSH1 0x4 DUP5 ADD MSTORE GAS CALL DUP1 ISZERO PUSH2 0xFCF JUMPI PUSH2 0xFBB JUMPI JUMPDEST POP POP PUSH2 0xFB6 SWAP1 PUSH2 0x1C98 JUMP JUMPDEST PUSH2 0xEE6 JUMP JUMPDEST PUSH2 0xFC4 SWAP1 PUSH2 0x1A85 JUMP JUMPDEST PUSH2 0xC12 JUMPI DUP3 DUP5 PUSH2 0xFAB JUMP JUMPDEST PUSH1 0x40 MLOAD RETURNDATASIZE DUP5 DUP3 RETURNDATACOPY RETURNDATASIZE SWAP1 REVERT JUMPDEST SWAP4 SWAP2 DUP1 DUP3 LT PUSH2 0xFF4 JUMPI JUMPDEST POP POP POP POP POP POP POP PUSH2 0xFB6 SWAP1 PUSH2 0x1C98 JUMP JUMPDEST SWAP1 PUSH2 0xFFE SWAP2 PUSH2 0x22A4 JUMP JUMPDEST SWAP3 PUSH32 0x0 PUSH1 0x40 MLOAD SWAP6 PUSH4 0x70A08231 PUSH1 0xE0 SHL DUP8 MSTORE ADDRESS PUSH1 0x4 DUP9 ADD MSTORE PUSH1 0x24 SWAP7 DUP2 DUP2 DUP10 DUP2 DUP10 DUP8 AND GAS STATICCALL SWAP2 DUP3 ISZERO PUSH2 0x10E2 JUMPI DUP10 SWAP3 PUSH2 0x10B0 JUMPI JUMPDEST POP POP DUP6 GT PUSH2 0xFE4 JUMPI PUSH2 0x1061 SWAP2 DUP6 SWAP2 PUSH2 0x1F8A JUMP JUMPDEST SLOAD AND DUP1 EXTCODESIZE ISZERO PUSH2 0xB5C JUMPI DUP4 SWAP3 DUP4 SWAP3 PUSH1 0x40 MLOAD SWAP5 DUP6 SWAP4 DUP5 SWAP3 PUSH4 0xB6B55F25 PUSH1 0xE0 SHL DUP5 MSTORE PUSH1 0x4 DUP5 ADD MSTORE GAS CALL DUP1 ISZERO PUSH2 0xFCF JUMPI PUSH2 0x109C JUMPI JUMPDEST DUP1 DUP1 DUP1 DUP1 DUP1 PUSH2 0xFE4 JUMP JUMPDEST PUSH2 0x10A5 SWAP1 PUSH2 0x1A85 JUMP JUMPDEST PUSH2 0xC12 JUMPI DUP3 DUP5 PUSH2 0x1092 JUMP JUMPDEST DUP2 SWAP10 POP DUP1 SWAP3 POP RETURNDATASIZE DUP4 GT PUSH2 0x10DB JUMPI JUMPDEST PUSH2 0x10C8 DUP2 DUP4 PUSH2 0x1ACB JUMP JUMPDEST DUP2 ADD SUB SLT PUSH2 0x3CB JUMPI DUP5 DUP11 SWAP8 MLOAD SWAP1 DUP13 PUSH2 0x104E JUMP JUMPDEST POP RETURNDATASIZE PUSH2 0x10BE JUMP JUMPDEST PUSH1 0x40 MLOAD RETURNDATASIZE DUP12 DUP3 RETURNDATACOPY RETURNDATASIZE SWAP1 REVERT JUMPDEST SWAP7 POP SWAP1 POP DUP5 DUP7 DUP2 RETURNDATASIZE DUP2 GT PUSH2 0x1118 JUMPI JUMPDEST PUSH2 0x1106 DUP2 DUP4 PUSH2 0x1ACB JUMP JUMPDEST DUP2 ADD SUB SLT PUSH2 0x3CB JUMPI DUP9 SWAP6 MLOAD SWAP1 DUP11 PUSH2 0xF60 JUMP JUMPDEST POP RETURNDATASIZE PUSH2 0x10FC JUMP JUMPDEST POP POP POP POP POP PUSH2 0xFB6 SWAP1 PUSH2 0x1C98 JUMP JUMPDEST POP PUSH32 0xC741DBAAD15A4F298FE8D80943FA8E005E7BCB2F5B0A0C8DEC1FC35BE457F146 DUP2 DUP1 LOG1 DUP1 RETURN JUMPDEST DUP3 CALLVALUE PUSH2 0x171 JUMPI DUP1 PUSH1 0x3 NOT CALLDATASIZE ADD SLT PUSH2 0x171 JUMPI PUSH1 0x20 PUSH1 0x6 SLOAD PUSH1 0x40 MLOAD SWAP1 DUP2 MSTORE RETURN JUMPDEST DUP3 CALLVALUE PUSH2 0x171 JUMPI DUP1 PUSH1 0x3 NOT CALLDATASIZE ADD SLT PUSH2 0x171 JUMPI PUSH2 0x118C PUSH2 0x1C28 JUMP JUMPDEST PUSH1 0x0 DUP1 SLOAD PUSH1 0x1 PUSH1 0x1 PUSH1 0xA0 SHL SUB NOT DUP2 AND DUP3 SSTORE PUSH1 0x1 PUSH1 0x1 PUSH1 0xA0 SHL SUB AND PUSH32 0x8BE0079C531659141344CD1FD0A4F28419497F9722A3DAAFE3B4186F6B6457E0 DUP3 DUP1 LOG3 DUP1 RETURN JUMPDEST DUP3 CALLVALUE PUSH2 0x171 JUMPI PUSH1 0x20 CALLDATASIZE PUSH1 0x3 NOT ADD SLT PUSH2 0x171 JUMPI PUSH2 0x11E7 PUSH2 0x1A35 JUMP JUMPDEST PUSH2 0x11EF PUSH2 0x1C28 JUMP JUMPDEST PUSH1 0x1 DUP1 PUSH1 0xA0 SHL SUB AND PUSH1 0x1 PUSH1 0x1 PUSH1 0x60 SHL SUB PUSH1 0xA0 SHL PUSH1 0x5 SLOAD AND OR PUSH1 0x5 SSTORE DUP1 RETURN JUMPDEST DUP3 CALLVALUE PUSH2 0x171 JUMPI DUP1 PUSH1 0x3 NOT CALLDATASIZE ADD SLT PUSH2 0x171 JUMPI PUSH1 0xFF PUSH1 0x20 SWAP2 SLOAD PUSH1 0xA0 SHR AND PUSH1 0x40 MLOAD SWAP1 ISZERO ISZERO DUP2 MSTORE RETURN JUMPDEST DUP3 CALLVALUE PUSH2 0x171 JUMPI DUP1 PUSH1 0x3 NOT CALLDATASIZE ADD SLT PUSH2 0x171 JUMPI PUSH1 0x2 SLOAD DUP2 DUP1 JUMPDEST DUP3 DUP2 LT PUSH2 0x134F JUMPI POP PUSH2 0x1273 PUSH2 0x125D DUP5 PUSH2 0x1C80 JUMP JUMPDEST SWAP4 PUSH2 0x126B PUSH1 0x40 MLOAD SWAP6 DUP7 PUSH2 0x1ACB JUMP JUMPDEST DUP1 DUP6 MSTORE PUSH2 0x1C80 JUMP JUMPDEST PUSH1 0x20 SWAP3 DUP5 DUP5 ADD SWAP3 SWAP2 PUSH1 0x1F NOT ADD CALLDATASIZE DUP5 CALLDATACOPY DUP2 DUP3 JUMPDEST DUP3 DUP2 LT PUSH2 0x12D6 JUMPI POP POP POP PUSH1 0x40 MLOAD SWAP4 DUP4 DUP6 SWAP5 DUP6 ADD SWAP2 DUP2 DUP7 MSTORE MLOAD DUP1 SWAP3 MSTORE PUSH1 0x40 DUP6 ADD SWAP4 SWAP3 JUMPDEST DUP3 DUP2 LT PUSH2 0x12B6 JUMPI POP POP POP POP SUB SWAP1 RETURN JUMPDEST DUP4 MLOAD PUSH1 0x1 PUSH1 0x1 PUSH1 0xA0 SHL SUB AND DUP6 MSTORE DUP7 SWAP6 POP SWAP4 DUP2 ADD SWAP4 SWAP3 DUP2 ADD SWAP3 PUSH1 0x1 ADD PUSH2 0x12A7 JUMP JUMPDEST PUSH2 0x12E4 DUP2 SWAP8 SWAP6 SWAP7 SWAP5 SWAP8 PUSH2 0x1BDB JUMP JUMPDEST PUSH1 0x1 DUP1 PUSH1 0xA0 SHL SUB DUP1 SWAP3 SLOAD PUSH1 0x3 SWAP3 DUP4 SHL SHR AND DUP10 MSTORE DUP1 DUP7 MSTORE PUSH1 0xFF DUP2 PUSH1 0x40 DUP12 KECCAK256 ADD SLOAD AND PUSH2 0x131E JUMPI JUMPDEST POP POP PUSH2 0x1314 SWAP1 PUSH2 0x1C98 JUMP JUMPDEST SWAP6 SWAP3 SWAP5 SWAP4 SWAP6 PUSH2 0x1285 JUMP JUMPDEST SWAP3 PUSH2 0x1347 SWAP2 DUP4 SWAP5 PUSH2 0x1331 PUSH2 0x1314 SWAP6 PUSH2 0x1BDB JUMP JUMPDEST SWAP1 SLOAD SWAP2 SHL SHR AND PUSH2 0x1341 DUP3 DUP10 PUSH2 0x1CBD JUMP JUMPDEST MSTORE PUSH2 0x1C98 JUMP JUMPDEST SWAP2 SWAP1 DUP9 PUSH2 0x1309 JUMP JUMPDEST PUSH1 0xFF PUSH2 0x135D DUP3 SWAP6 SWAP4 SWAP6 PUSH2 0x1BDB JUMP JUMPDEST SWAP1 SLOAD PUSH1 0x3 SWAP2 DUP3 SHL SHR PUSH1 0x1 PUSH1 0x1 PUSH1 0xA0 SHL SUB AND DUP7 MSTORE PUSH1 0x20 DUP2 SWAP1 MSTORE PUSH1 0x40 DUP7 KECCAK256 ADD SLOAD AND PUSH2 0x1392 JUMPI JUMPDEST PUSH2 0x138A SWAP1 PUSH2 0x1C98 JUMP JUMPDEST SWAP3 SWAP1 SWAP3 PUSH2 0x1249 JUMP JUMPDEST SWAP1 PUSH2 0x139F PUSH2 0x138A SWAP2 PUSH2 0x1C98 JUMP JUMPDEST SWAP2 SWAP1 POP PUSH2 0x1381 JUMP JUMPDEST DUP3 CALLVALUE PUSH2 0x171 JUMPI PUSH1 0x20 DUP1 PUSH1 0x3 NOT CALLDATASIZE ADD SLT PUSH2 0xB98 JUMPI PUSH2 0x13C2 PUSH2 0x1A35 JUMP JUMPDEST PUSH2 0x13CA PUSH2 0x1C28 JUMP JUMPDEST PUSH2 0x13D2 PUSH2 0x1EED JUMP JUMPDEST DUP3 SLOAD PUSH1 0xFF PUSH1 0xA0 SHL NOT AND PUSH1 0x1 PUSH1 0xA0 SHL OR DUP4 SSTORE PUSH1 0x40 MLOAD CALLER DUP2 MSTORE PUSH32 0x62E78CEA01BEE320CD4E420270B5EA74000D11B0C9F74754EBDBFC544B05A258 SWAP1 DUP4 SWAP1 LOG1 DUP3 JUMPDEST PUSH1 0x2 SLOAD DUP2 LT ISZERO PUSH2 0x1484 JUMPI DUP4 PUSH2 0x1424 DUP3 PUSH2 0x1BDB JUMP JUMPDEST SWAP1 SLOAD PUSH1 0x3 SWAP2 SWAP1 SWAP2 SHL SHR PUSH1 0x1 PUSH1 0x1 PUSH1 0xA0 SHL SUB AND DUP1 EXTCODESIZE ISZERO PUSH2 0xB98 JUMPI DUP2 DUP1 SWAP2 PUSH1 0x24 PUSH1 0x40 MLOAD DUP1 SWAP5 DUP2 SWAP4 PUSH4 0x1BFC726F PUSH1 0xE2 SHL DUP4 MSTORE ADDRESS PUSH1 0x4 DUP5 ADD MSTORE GAS CALL PUSH2 0x1470 JUMPI JUMPDEST POP POP PUSH2 0x146B SWAP1 PUSH2 0x1C98 JUMP JUMPDEST PUSH2 0x1410 JUMP JUMPDEST PUSH2 0x1479 SWAP1 PUSH2 0x1A85 JUMP JUMPDEST PUSH2 0xB5C JUMPI DUP4 DUP6 PUSH2 0x1460 JUMP JUMPDEST POP PUSH1 0x40 MLOAD PUSH4 0x70A08231 PUSH1 0xE0 SHL DUP2 MSTORE ADDRESS PUSH1 0x4 DUP3 ADD MSTORE PUSH32 0x0 SWAP3 SWAP2 SWAP1 DUP3 DUP2 PUSH1 0x24 DUP2 PUSH1 0x1 PUSH1 0x1 PUSH1 0xA0 SHL SUB DUP9 AND GAS STATICCALL SWAP3 DUP4 ISZERO PUSH2 0xB60 JUMPI DUP6 SWAP4 PUSH2 0x14F6 JUMPI JUMPDEST POP POP DUP2 PUSH2 0x14E6 JUMPI DUP4 DUP1 RETURN JUMPDEST PUSH2 0x14EF SWAP3 PUSH2 0x2547 JUMP JUMPDEST DUP2 DUP1 DUP1 DUP4 DUP1 RETURN JUMPDEST SWAP1 DUP1 SWAP3 SWAP4 POP DUP2 RETURNDATASIZE DUP4 GT PUSH2 0x151F JUMPI JUMPDEST PUSH2 0x150E DUP2 DUP4 PUSH2 0x1ACB JUMP JUMPDEST DUP2 ADD SUB SLT PUSH2 0x3CB JUMPI MLOAD SWAP1 DUP5 DUP1 PUSH2 0x14DB JUMP JUMPDEST POP RETURNDATASIZE PUSH2 0x1504 JUMP JUMPDEST DUP3 CALLVALUE PUSH2 0x171 JUMPI DUP1 PUSH1 0x3 NOT CALLDATASIZE ADD SLT PUSH2 0x171 JUMPI PUSH2 0x153F PUSH2 0x1C28 JUMP JUMPDEST DUP1 SLOAD PUSH1 0xFF DUP2 PUSH1 0xA0 SHR AND ISZERO PUSH2 0x1585 JUMPI PUSH1 0xFF PUSH1 0xA0 SHL NOT AND DUP2 SSTORE PUSH1 0x40 MLOAD CALLER DUP2 MSTORE PUSH32 0x5DB9EE0A495BF2E6FF9C91A7834C1BA4FDD244A5E8AA4E537BD38AEAE4B073AA SWAP1 PUSH1 0x20 SWAP1 LOG1 DUP1 RETURN JUMPDEST PUSH1 0x40 MLOAD PUSH3 0x461BCD PUSH1 0xE5 SHL DUP2 MSTORE PUSH1 0x20 PUSH1 0x4 DUP3 ADD MSTORE PUSH1 0x14 PUSH1 0x24 DUP3 ADD MSTORE PUSH20 0x14185D5CD8589B194E881B9BDD081C185D5CD959 PUSH1 0x62 SHL PUSH1 0x44 DUP3 ADD MSTORE PUSH1 0x64 SWAP1 REVERT JUMPDEST DUP3 CALLVALUE PUSH2 0x171 JUMPI PUSH1 0x20 CALLDATASIZE PUSH1 0x3 NOT ADD SLT PUSH2 0x171 JUMPI PUSH1 0x1 PUSH1 0x1 PUSH1 0xA0 SHL SUB SWAP1 PUSH1 0x40 SWAP1 DUP3 PUSH2 0x15E8 PUSH2 0x1A35 JUMP JUMPDEST AND DUP2 MSTORE PUSH1 0x3 PUSH1 0x20 MSTORE KECCAK256 SWAP1 DUP2 SLOAD AND SWAP1 PUSH2 0x1602 PUSH1 0x1 DUP3 ADD PUSH2 0x1AED JUMP JUMPDEST PUSH1 0x2 DUP3 ADD SLOAD SWAP2 PUSH1 0xFF PUSH1 0x3 DUP3 ADD SLOAD AND PUSH1 0x4 DUP3 ADD SLOAD SWAP1 PUSH2 0x163A PUSH1 0x6 PUSH1 0x5 DUP6 ADD SLOAD SWAP5 ADD SLOAD SWAP5 PUSH1 0x40 MLOAD SWAP9 DUP10 SWAP9 DUP10 MSTORE DUP1 PUSH1 0x20 DUP11 ADD MSTORE DUP9 ADD SWAP1 PUSH2 0x1BB6 JUMP JUMPDEST SWAP5 PUSH1 0x40 DUP8 ADD MSTORE ISZERO ISZERO PUSH1 0x60 DUP7 ADD MSTORE PUSH1 0x80 DUP6 ADD MSTORE PUSH1 0xA0 DUP5 ADD MSTORE PUSH1 0xC0 DUP4 ADD MSTORE SUB SWAP1 RETURN JUMPDEST DUP3 CALLVALUE PUSH2 0x171 JUMPI PUSH1 0x20 CALLDATASIZE PUSH1 0x3 NOT ADD SLT PUSH2 0x171 JUMPI PUSH1 0x20 SWAP1 PUSH1 0xFF SWAP1 PUSH1 0x40 SWAP1 PUSH1 0x1 PUSH1 0x1 PUSH1 0xA0 SHL SUB PUSH2 0x1685 PUSH2 0x1A35 JUMP JUMPDEST AND DUP2 MSTORE PUSH1 0x4 DUP5 MSTORE KECCAK256 SLOAD AND PUSH1 0x40 MLOAD SWAP1 ISZERO ISZERO DUP2 MSTORE RETURN JUMPDEST DUP3 CALLVALUE PUSH2 0x171 JUMPI PUSH1 0x20 CALLDATASIZE PUSH1 0x3 NOT ADD SLT PUSH2 0x171 JUMPI PUSH2 0x16C0 PUSH1 0x1 DUP1 PUSH1 0xA0 SHL SUB PUSH1 0x5 SLOAD AND CALLER EQ PUSH2 0x1E7A JUMP JUMPDEST PUSH2 0x16C8 PUSH2 0x1F34 JUMP JUMPDEST PUSH2 0x16D3 PUSH1 0x4 CALLDATALOAD PUSH2 0x22B1 JUMP JUMPDEST PUSH1 0x1 DUP1 SSTORE DUP1 RETURN JUMPDEST DUP3 CALLVALUE PUSH2 0x171 JUMPI DUP1 PUSH1 0x3 NOT CALLDATASIZE ADD SLT PUSH2 0x171 JUMPI PUSH1 0x40 MLOAD PUSH32 0x0 PUSH1 0x1 PUSH1 0x1 PUSH1 0xA0 SHL SUB AND DUP2 MSTORE PUSH1 0x20 SWAP1 RETURN JUMPDEST DUP3 CALLVALUE PUSH2 0x171 JUMPI PUSH1 0x20 DUP1 PUSH1 0x3 NOT CALLDATASIZE ADD SLT PUSH2 0xB98 JUMPI PUSH2 0x173A PUSH2 0x1A35 JUMP JUMPDEST SWAP1 PUSH2 0x1743 PUSH2 0x1C28 JUMP JUMPDEST PUSH1 0x1 PUSH1 0x1 PUSH1 0xA0 SHL SUB SWAP2 DUP3 AND DUP1 DUP5 MSTORE PUSH1 0x4 DUP3 MSTORE PUSH1 0x40 DUP5 KECCAK256 SLOAD SWAP1 SWAP2 SWAP1 PUSH2 0x1769 SWAP1 PUSH1 0xFF AND PUSH2 0x2620 JUMP JUMPDEST DUP2 DUP5 MSTORE PUSH1 0x3 SWAP1 DUP2 DUP2 MSTORE PUSH1 0x40 DUP6 KECCAK256 SWAP1 PUSH1 0x40 MLOAD PUSH3 0x787445 PUSH1 0xE2 SHL SWAP1 DUP2 DUP2 MSTORE DUP3 DUP2 PUSH1 0x4 DUP2 DUP10 GAS STATICCALL SWAP1 DUP2 ISZERO PUSH2 0x196E JUMPI DUP9 SWAP2 PUSH2 0x193D JUMPI JUMPDEST POP PUSH2 0x18B2 JUMPI JUMPDEST POP PUSH1 0x4 DUP4 PUSH1 0x2 SWAP4 PUSH2 0x17B7 DUP6 DUP3 ADD SLOAD PUSH1 0x6 SLOAD PUSH2 0x22A4 JUMP JUMPDEST PUSH1 0x6 SSTORE ADD SWAP2 PUSH1 0xFF NOT SWAP3 DUP4 DUP2 SLOAD AND SWAP1 SSTORE DUP6 DUP9 MSTORE MSTORE PUSH1 0x40 DUP7 KECCAK256 SWAP1 DUP2 SLOAD AND SWAP1 SSTORE DUP5 JUMPDEST DUP2 SLOAD DUP1 DUP3 LT ISZERO PUSH2 0x18A7 JUMPI DUP5 DUP7 PUSH2 0x17EB DUP5 PUSH2 0x1BDB JUMP JUMPDEST SWAP1 SLOAD SWAP1 DUP8 SHL SHR AND EQ PUSH2 0x1806 JUMPI POP PUSH2 0x1801 SWAP1 PUSH2 0x1C98 JUMP JUMPDEST PUSH2 0x17D6 JUMP JUMPDEST SWAP1 PUSH1 0x0 SWAP6 SWAP3 SWAP4 SWAP5 SWAP6 NOT SWAP2 DUP3 DUP2 ADD SWAP1 DUP2 GT PUSH2 0x1893 JUMPI SWAP1 PUSH2 0x464 DUP5 PUSH2 0x182B PUSH2 0x1838 SWAP5 PUSH2 0x1BDB JUMP JUMPDEST SWAP1 SLOAD SWAP1 DUP10 SHL SHR AND SWAP2 PUSH2 0x1BDB JUMP JUMPDEST DUP3 SLOAD DUP1 ISZERO PUSH2 0x187F JUMPI ADD SWAP3 PUSH2 0x184B DUP5 PUSH2 0x1BDB JUMP JUMPDEST DUP2 SWAP4 SWAP2 SLOAD SWAP3 SHL SHL NOT AND SWAP1 SSTORE SSTORE JUMPDEST PUSH32 0x9A1DB4B80C32706328728508C941A6B954F31EB5AFFD32F236C1FD405F8FEA4 DUP3 DUP1 LOG2 DUP1 RETURN JUMPDEST PUSH4 0x4E487B71 PUSH1 0xE0 SHL DUP8 MSTORE PUSH1 0x31 PUSH1 0x4 MSTORE PUSH1 0x24 DUP8 REVERT JUMPDEST PUSH4 0x4E487B71 PUSH1 0xE0 SHL DUP9 MSTORE PUSH1 0x11 PUSH1 0x4 MSTORE PUSH1 0x24 DUP9 REVERT JUMPDEST POP POP POP POP SWAP1 POP PUSH2 0x1858 JUMP JUMPDEST PUSH1 0x40 MLOAD SWAP1 DUP2 MSTORE DUP2 DUP2 PUSH1 0x4 DUP2 DUP9 GAS STATICCALL SWAP1 DUP2 ISZERO PUSH2 0x3D7 JUMPI DUP8 SWAP2 PUSH2 0x1910 JUMPI JUMPDEST POP DUP5 EXTCODESIZE ISZERO PUSH2 0xE27 JUMPI PUSH1 0x40 MLOAD SWAP1 PUSH4 0x2E1A7D4D PUSH1 0xE0 SHL DUP3 MSTORE PUSH1 0x4 DUP3 ADD MSTORE DUP7 DUP2 PUSH1 0x24 DUP2 DUP4 DUP10 GAS CALL DUP1 ISZERO PUSH2 0x3D7 JUMPI ISZERO PUSH2 0x17A1 JUMPI PUSH2 0x1909 SWAP1 SWAP7 SWAP2 SWAP7 PUSH2 0x1A85 JUMP JUMPDEST SWAP5 DUP7 PUSH2 0x17A1 JUMP JUMPDEST SWAP1 POP DUP2 DUP2 DUP2 RETURNDATASIZE DUP4 GT PUSH2 0x1936 JUMPI JUMPDEST PUSH2 0x1927 DUP2 DUP4 PUSH2 0x1ACB JUMP JUMPDEST DUP2 ADD SUB SLT PUSH2 0xE27 JUMPI MLOAD DUP8 PUSH2 0x18CE JUMP JUMPDEST POP RETURNDATASIZE PUSH2 0x191D JUMP JUMPDEST SWAP1 POP DUP3 DUP2 DUP2 RETURNDATASIZE DUP4 GT PUSH2 0x1967 JUMPI JUMPDEST PUSH2 0x1954 DUP2 DUP4 PUSH2 0x1ACB JUMP JUMPDEST DUP2 ADD SUB SLT PUSH2 0x1963 JUMPI MLOAD DUP9 PUSH2 0x179B JUMP JUMPDEST DUP8 DUP1 REVERT JUMPDEST POP RETURNDATASIZE PUSH2 0x194A JUMP JUMPDEST PUSH1 0x40 MLOAD RETURNDATASIZE DUP11 DUP3 RETURNDATACOPY RETURNDATASIZE SWAP1 REVERT JUMPDEST DUP3 CALLVALUE PUSH2 0x171 JUMPI DUP1 PUSH1 0x3 NOT CALLDATASIZE ADD SLT PUSH2 0x171 JUMPI PUSH1 0x20 PUSH2 0x271 PUSH2 0x1CDE JUMP JUMPDEST DUP3 CALLVALUE PUSH2 0x171 JUMPI PUSH1 0x20 CALLDATASIZE PUSH1 0x3 NOT ADD SLT PUSH2 0x171 JUMPI PUSH2 0x19AE PUSH2 0x1A35 JUMP JUMPDEST PUSH2 0x19B6 PUSH2 0x1C28 JUMP JUMPDEST PUSH1 0x40 MLOAD PUSH4 0x70A08231 PUSH1 0xE0 SHL DUP2 MSTORE ADDRESS PUSH1 0x4 DUP3 ADD MSTORE PUSH1 0x1 PUSH1 0x1 PUSH1 0xA0 SHL SUB SWAP2 DUP3 AND PUSH1 0x20 DUP3 PUSH1 0x24 DUP2 DUP5 GAS STATICCALL SWAP2 DUP3 ISZERO PUSH2 0x666 JUMPI DUP5 SWAP3 PUSH2 0x1A02 JUMPI JUMPDEST POP DUP2 PUSH2 0x19F5 JUMPI DUP4 DUP1 RETURN JUMPDEST PUSH2 0x14EF SWAP3 DUP5 SLOAD AND SWAP1 PUSH2 0x2547 JUMP JUMPDEST SWAP1 SWAP2 POP PUSH1 0x20 DUP2 RETURNDATASIZE DUP3 GT PUSH2 0x1A2D JUMPI JUMPDEST DUP2 PUSH2 0x1A1D PUSH1 0x20 SWAP4 DUP4 PUSH2 0x1ACB JUMP JUMPDEST DUP2 ADD SUB SLT PUSH2 0xB5C JUMPI MLOAD SWAP1 DUP5 PUSH2 0x19EB JUMP JUMPDEST RETURNDATASIZE SWAP2 POP PUSH2 0x1A10 JUMP JUMPDEST PUSH1 0x4 CALLDATALOAD SWAP1 PUSH1 0x1 PUSH1 0x1 PUSH1 0xA0 SHL SUB DUP3 AND DUP3 SUB PUSH2 0x3CB JUMPI JUMP JUMPDEST SWAP1 PUSH1 0x1 DUP3 DUP2 SHR SWAP3 AND DUP1 ISZERO PUSH2 0x1A7B JUMPI JUMPDEST PUSH1 0x20 DUP4 LT EQ PUSH2 0x1A65 JUMPI JUMP JUMPDEST PUSH4 0x4E487B71 PUSH1 0xE0 SHL PUSH1 0x0 MSTORE PUSH1 0x22 PUSH1 0x4 MSTORE PUSH1 0x24 PUSH1 0x0 REVERT JUMPDEST SWAP2 PUSH1 0x7F AND SWAP2 PUSH2 0x1A5A JUMP JUMPDEST PUSH8 0xFFFFFFFFFFFFFFFF DUP2 GT PUSH2 0x1A99 JUMPI PUSH1 0x40 MSTORE JUMP JUMPDEST PUSH4 0x4E487B71 PUSH1 0xE0 SHL PUSH1 0x0 MSTORE PUSH1 0x41 PUSH1 0x4 MSTORE PUSH1 0x24 PUSH1 0x0 REVERT JUMPDEST PUSH1 0xE0 DUP2 ADD SWAP1 DUP2 LT PUSH8 0xFFFFFFFFFFFFFFFF DUP3 GT OR PUSH2 0x1A99 JUMPI PUSH1 0x40 MSTORE JUMP JUMPDEST SWAP1 PUSH1 0x1F DUP1 NOT SWAP2 ADD AND DUP2 ADD SWAP1 DUP2 LT PUSH8 0xFFFFFFFFFFFFFFFF DUP3 GT OR PUSH2 0x1A99 JUMPI PUSH1 0x40 MSTORE JUMP JUMPDEST SWAP1 PUSH1 0x40 MLOAD SWAP2 DUP3 PUSH1 0x0 DUP3 SLOAD SWAP3 PUSH2 0x1B01 DUP5 PUSH2 0x1A4B JUMP JUMPDEST SWAP1 DUP2 DUP5 MSTORE PUSH1 0x1 SWAP5 DUP6 DUP2 AND SWAP1 DUP2 PUSH1 0x0 EQ PUSH2 0x1B70 JUMPI POP PUSH1 0x1 EQ PUSH2 0x1B2D JUMPI JUMPDEST POP POP PUSH2 0x1B2B SWAP3 POP SUB DUP4 PUSH2 0x1ACB JUMP JUMPDEST JUMP JUMPDEST SWAP1 SWAP4 SWAP2 POP PUSH1 0x0 MSTORE PUSH1 0x20 SWAP1 DUP2 PUSH1 0x0 KECCAK256 SWAP4 PUSH1 0x0 SWAP2 JUMPDEST DUP2 DUP4 LT PUSH2 0x1B58 JUMPI POP POP PUSH2 0x1B2B SWAP4 POP DUP3 ADD ADD CODESIZE DUP1 PUSH2 0x1B1D JUMP JUMPDEST DUP6 SLOAD DUP9 DUP5 ADD DUP6 ADD MSTORE SWAP5 DUP6 ADD SWAP5 DUP8 SWAP5 POP SWAP2 DUP4 ADD SWAP2 PUSH2 0x1B40 JUMP JUMPDEST SWAP2 POP POP PUSH2 0x1B2B SWAP5 POP PUSH1 0x20 SWAP3 POP PUSH1 0xFF NOT AND DUP3 DUP5 ADD MSTORE ISZERO ISZERO PUSH1 0x5 SHL DUP3 ADD ADD CODESIZE DUP1 PUSH2 0x1B1D JUMP JUMPDEST PUSH1 0x0 JUMPDEST DUP4 DUP2 LT PUSH2 0x1BA6 JUMPI POP POP PUSH1 0x0 SWAP2 ADD MSTORE JUMP JUMPDEST DUP2 DUP2 ADD MLOAD DUP4 DUP3 ADD MSTORE PUSH1 0x20 ADD PUSH2 0x1B96 JUMP JUMPDEST SWAP1 PUSH1 0x20 SWAP2 PUSH2 0x1BCF DUP2 MLOAD DUP1 SWAP3 DUP2 DUP6 MSTORE DUP6 DUP1 DUP7 ADD SWAP2 ADD PUSH2 0x1B93 JUMP JUMPDEST PUSH1 0x1F ADD PUSH1 0x1F NOT AND ADD ADD SWAP1 JUMP JUMPDEST PUSH1 0x2 SLOAD DUP2 LT ISZERO PUSH2 0x1C12 JUMPI PUSH1 0x2 PUSH1 0x0 MSTORE PUSH32 0x405787FA12A823E0F2B7631CC41B3BA8828B3321CA811111FA75CD3AA3BB5ACE ADD SWAP1 PUSH1 0x0 SWAP1 JUMP JUMPDEST PUSH4 0x4E487B71 PUSH1 0xE0 SHL PUSH1 0x0 MSTORE PUSH1 0x32 PUSH1 0x4 MSTORE PUSH1 0x24 PUSH1 0x0 REVERT JUMPDEST PUSH1 0x0 SLOAD PUSH1 0x1 PUSH1 0x1 PUSH1 0xA0 SHL SUB AND CALLER SUB PUSH2 0x1C3C JUMPI JUMP JUMPDEST PUSH1 0x64 PUSH1 0x40 MLOAD PUSH3 0x461BCD PUSH1 0xE5 SHL DUP2 MSTORE PUSH1 0x20 PUSH1 0x4 DUP3 ADD MSTORE PUSH1 0x20 PUSH1 0x24 DUP3 ADD MSTORE PUSH32 0x4F776E61626C653A2063616C6C6572206973206E6F7420746865206F776E6572 PUSH1 0x44 DUP3 ADD MSTORE REVERT JUMPDEST PUSH8 0xFFFFFFFFFFFFFFFF DUP2 GT PUSH2 0x1A99 JUMPI PUSH1 0x5 SHL PUSH1 0x20 ADD SWAP1 JUMP JUMPDEST PUSH1 0x0 NOT DUP2 EQ PUSH2 0x1CA7 JUMPI PUSH1 0x1 ADD SWAP1 JUMP JUMPDEST PUSH4 0x4E487B71 PUSH1 0xE0 SHL PUSH1 0x0 MSTORE PUSH1 0x11 PUSH1 0x4 MSTORE PUSH1 0x24 PUSH1 0x0 REVERT JUMPDEST DUP1 MLOAD DUP3 LT ISZERO PUSH2 0x1C12 JUMPI PUSH1 0x20 SWAP2 PUSH1 0x5 SHL ADD ADD SWAP1 JUMP JUMPDEST SWAP2 SWAP1 DUP3 ADD DUP1 SWAP3 GT PUSH2 0x1CA7 JUMPI JUMP JUMPDEST PUSH1 0x0 SWAP1 DUP2 PUSH1 0x2 SLOAD SWAP1 JUMPDEST DUP2 DUP2 LT PUSH2 0x1D93 JUMPI POP POP PUSH1 0x40 MLOAD PUSH4 0x70A08231 PUSH1 0xE0 SHL DUP2 MSTORE ADDRESS PUSH1 0x4 DUP3 ADD MSTORE SWAP2 PUSH1 0x20 DUP4 PUSH1 0x24 DUP2 PUSH32 0x0 PUSH1 0x1 PUSH1 0x1 PUSH1 0xA0 SHL SUB AND GAS STATICCALL SWAP3 DUP4 ISZERO PUSH2 0x1D87 JUMPI PUSH1 0x0 SWAP4 PUSH2 0x1D54 JUMPI JUMPDEST POP SWAP2 PUSH2 0x1D51 SWAP2 SWAP3 PUSH2 0x1CD1 JUMP JUMPDEST SWAP1 JUMP JUMPDEST PUSH1 0x20 DUP2 RETURNDATASIZE DUP3 GT PUSH2 0x1D7F JUMPI JUMPDEST DUP2 PUSH2 0x1D6C PUSH1 0x20 SWAP4 DUP4 PUSH2 0x1ACB JUMP JUMPDEST DUP2 ADD SUB SLT PUSH2 0xB5C JUMPI MLOAD SWAP3 POP PUSH2 0x1D51 PUSH2 0x1D45 JUMP JUMPDEST RETURNDATASIZE SWAP2 POP PUSH2 0x1D5F JUMP JUMPDEST PUSH1 0x40 MLOAD RETURNDATASIZE PUSH1 0x0 DUP3 RETURNDATACOPY RETURNDATASIZE SWAP1 REVERT JUMPDEST PUSH2 0x1D9C DUP2 PUSH2 0x1BDB JUMP JUMPDEST SWAP1 PUSH1 0x1 DUP1 PUSH1 0xA0 SHL SUB DUP1 SWAP2 SLOAD PUSH1 0x3 SWAP4 DUP5 SHL SHR AND PUSH1 0x0 MSTORE PUSH1 0x20 SWAP1 DUP3 DUP3 MSTORE PUSH1 0x40 SWAP3 PUSH1 0xFF DUP2 DUP6 PUSH1 0x0 KECCAK256 ADD SLOAD AND PUSH2 0x1DDB JUMPI JUMPDEST POP POP POP POP PUSH2 0x1DD6 SWAP1 PUSH2 0x1C98 JUMP JUMPDEST PUSH2 0x1CE7 JUMP JUMPDEST SWAP2 DUP1 SWAP2 PUSH1 0x4 SWAP4 PUSH2 0x1DEC DUP8 SWAP11 SWAP8 PUSH2 0x1BDB JUMP JUMPDEST SWAP1 SLOAD SWAP2 SHL SHR AND DUP5 MLOAD SWAP4 DUP5 DUP1 SWAP3 PUSH3 0x787445 PUSH1 0xE2 SHL DUP3 MSTORE GAS STATICCALL SWAP3 DUP4 ISZERO PUSH2 0x1E5D JUMPI POP PUSH1 0x0 SWAP3 PUSH2 0x1E2C JUMPI JUMPDEST POP POP PUSH2 0x1E22 SWAP1 PUSH2 0x1DD6 SWAP3 PUSH2 0x1CD1 JUMP JUMPDEST SWAP4 SWAP1 CODESIZE DUP1 DUP1 PUSH2 0x1DC9 JUMP JUMPDEST DUP2 DUP2 SWAP4 SWAP3 SWAP4 RETURNDATASIZE DUP4 GT PUSH2 0x1E56 JUMPI JUMPDEST PUSH2 0x1E43 DUP2 DUP4 PUSH2 0x1ACB JUMP JUMPDEST DUP2 ADD SUB SLT PUSH2 0x171 JUMPI POP MLOAD DUP2 PUSH2 0x1E22 PUSH2 0x1E13 JUMP JUMPDEST POP RETURNDATASIZE PUSH2 0x1E39 JUMP JUMPDEST MLOAD RETURNDATASIZE PUSH1 0x0 DUP3 RETURNDATACOPY RETURNDATASIZE SWAP1 REVERT JUMPDEST DUP2 DUP2 MUL SWAP3 SWAP2 DUP2 ISZERO SWAP2 DUP5 DIV EQ OR ISZERO PUSH2 0x1CA7 JUMPI JUMP JUMPDEST ISZERO PUSH2 0x1E81 JUMPI JUMP JUMPDEST PUSH1 0x40 MLOAD PUSH3 0x461BCD PUSH1 0xE5 SHL DUP2 MSTORE PUSH1 0x20 PUSH1 0x4 DUP3 ADD MSTORE PUSH1 0xA PUSH1 0x24 DUP3 ADD MSTORE PUSH10 0x13DB9B1E481D985D5B1D PUSH1 0xB2 SHL PUSH1 0x44 DUP3 ADD MSTORE PUSH1 0x64 SWAP1 REVERT JUMPDEST ISZERO PUSH2 0x1EBA JUMPI JUMP JUMPDEST PUSH1 0x40 MLOAD PUSH3 0x461BCD PUSH1 0xE5 SHL DUP2 MSTORE PUSH1 0x20 PUSH1 0x4 DUP3 ADD MSTORE PUSH1 0xB PUSH1 0x24 DUP3 ADD MSTORE PUSH11 0x16995C9BC8185B5BDD5B9D PUSH1 0xAA SHL PUSH1 0x44 DUP3 ADD MSTORE PUSH1 0x64 SWAP1 REVERT JUMPDEST PUSH1 0xFF PUSH1 0x0 SLOAD PUSH1 0xA0 SHR AND PUSH2 0x1EFC JUMPI JUMP JUMPDEST PUSH1 0x40 MLOAD PUSH3 0x461BCD PUSH1 0xE5 SHL DUP2 MSTORE PUSH1 0x20 PUSH1 0x4 DUP3 ADD MSTORE PUSH1 0x10 PUSH1 0x24 DUP3 ADD MSTORE PUSH16 0x14185D5CD8589B194E881C185D5CD959 PUSH1 0x82 SHL PUSH1 0x44 DUP3 ADD MSTORE PUSH1 0x64 SWAP1 REVERT JUMPDEST PUSH1 0x2 PUSH1 0x1 SLOAD EQ PUSH2 0x1F45 JUMPI PUSH1 0x2 PUSH1 0x1 SSTORE JUMP JUMPDEST PUSH1 0x40 MLOAD PUSH3 0x461BCD PUSH1 0xE5 SHL DUP2 MSTORE PUSH1 0x20 PUSH1 0x4 DUP3 ADD MSTORE PUSH1 0x1F PUSH1 0x24 DUP3 ADD MSTORE PUSH32 0x5265656E7472616E637947756172643A207265656E7472616E742063616C6C00 PUSH1 0x44 DUP3 ADD MSTORE PUSH1 0x64 SWAP1 REVERT JUMPDEST SWAP2 SWAP1 SWAP2 DUP2 ISZERO DUP1 ISZERO PUSH2 0x2048 JUMPI JUMPDEST ISZERO PUSH2 0x1FE4 JUMPI PUSH1 0x40 MLOAD PUSH4 0x95EA7B3 PUSH1 0xE0 SHL PUSH1 0x20 DUP3 ADD MSTORE PUSH1 0x1 PUSH1 0x1 PUSH1 0xA0 SHL SUB SWAP1 SWAP4 AND PUSH1 0x24 DUP5 ADD MSTORE PUSH1 0x44 DUP4 ADD SWAP2 SWAP1 SWAP2 MSTORE PUSH2 0x1B2B SWAP2 SWAP1 PUSH2 0x1FDF DUP3 PUSH1 0x64 DUP2 ADD JUMPDEST SUB PUSH1 0x1F NOT DUP2 ADD DUP5 MSTORE DUP4 PUSH2 0x1ACB JUMP JUMPDEST PUSH2 0x20DD JUMP JUMPDEST PUSH1 0x40 MLOAD PUSH3 0x461BCD PUSH1 0xE5 SHL DUP2 MSTORE PUSH1 0x20 PUSH1 0x4 DUP3 ADD MSTORE PUSH1 0x36 PUSH1 0x24 DUP3 ADD MSTORE PUSH32 0x5361666545524332303A20617070726F76652066726F6D206E6F6E2D7A65726F PUSH1 0x44 DUP3 ADD MSTORE PUSH22 0x20746F206E6F6E2D7A65726F20616C6C6F77616E6365 PUSH1 0x50 SHL PUSH1 0x64 DUP3 ADD MSTORE PUSH1 0x84 SWAP1 REVERT JUMPDEST POP PUSH1 0x40 MLOAD PUSH4 0x6EB1769F PUSH1 0xE1 SHL DUP2 MSTORE ADDRESS PUSH1 0x4 DUP3 ADD MSTORE PUSH1 0x1 PUSH1 0x1 PUSH1 0xA0 SHL SUB DUP5 DUP2 AND PUSH1 0x24 DUP4 ADD MSTORE PUSH1 0x20 SWAP1 DUP3 SWAP1 PUSH1 0x44 SWAP1 DUP3 SWAP1 DUP7 AND GAS STATICCALL SWAP1 DUP2 ISZERO PUSH2 0x1D87 JUMPI PUSH1 0x0 SWAP2 PUSH2 0x2090 JUMPI JUMPDEST POP ISZERO PUSH2 0x1F96 JUMP JUMPDEST SWAP1 PUSH1 0x20 DUP3 RETURNDATASIZE DUP3 GT PUSH2 0x20B9 JUMPI JUMPDEST DUP2 PUSH2 0x20A9 PUSH1 0x20 SWAP4 DUP4 PUSH2 0x1ACB JUMP JUMPDEST DUP2 ADD SUB SLT PUSH2 0x171 JUMPI POP MLOAD CODESIZE PUSH2 0x2089 JUMP JUMPDEST RETURNDATASIZE SWAP2 POP PUSH2 0x209C JUMP JUMPDEST PUSH8 0xFFFFFFFFFFFFFFFF DUP2 GT PUSH2 0x1A99 JUMPI PUSH1 0x1F ADD PUSH1 0x1F NOT AND PUSH1 0x20 ADD SWAP1 JUMP JUMPDEST PUSH1 0x1 DUP1 PUSH1 0xA0 SHL SUB AND SWAP1 PUSH1 0x40 MLOAD PUSH1 0x40 DUP2 ADD SWAP1 DUP1 DUP3 LT PUSH8 0xFFFFFFFFFFFFFFFF DUP4 GT OR PUSH2 0x1A99 JUMPI PUSH2 0x216D SWAP2 PUSH1 0x40 MSTORE PUSH1 0x20 SWAP4 DUP5 DUP3 MSTORE PUSH32 0x5361666545524332303A206C6F772D6C6576656C2063616C6C206661696C6564 DUP6 DUP4 ADD MSTORE PUSH1 0x0 DUP1 DUP6 DUP8 DUP3 SWAP8 MLOAD SWAP2 ADD DUP3 DUP6 GAS CALL RETURNDATASIZE ISZERO PUSH2 0x2203 JUMPI RETURNDATASIZE SWAP2 PUSH2 0x2152 DUP4 PUSH2 0x20C1 JUMP JUMPDEST SWAP3 PUSH2 0x2160 PUSH1 0x40 MLOAD SWAP5 DUP6 PUSH2 0x1ACB JUMP JUMPDEST DUP4 MSTORE RETURNDATASIZE DUP7 DUP9 DUP6 ADD RETURNDATACOPY PUSH2 0x2207 JUMP JUMPDEST DUP1 MLOAD SWAP2 DUP3 ISZERO SWAP2 DUP5 DUP4 ISZERO PUSH2 0x21DF JUMPI JUMPDEST POP POP POP SWAP1 POP ISZERO PUSH2 0x2188 JUMPI POP JUMP JUMPDEST PUSH1 0x84 SWAP1 PUSH1 0x40 MLOAD SWAP1 PUSH3 0x461BCD PUSH1 0xE5 SHL DUP3 MSTORE PUSH1 0x4 DUP3 ADD MSTORE PUSH1 0x2A PUSH1 0x24 DUP3 ADD MSTORE PUSH32 0x5361666545524332303A204552433230206F7065726174696F6E20646964206E PUSH1 0x44 DUP3 ADD MSTORE PUSH10 0x1BDD081CDD58D8D95959 PUSH1 0xB2 SHL PUSH1 0x64 DUP3 ADD MSTORE REVERT JUMPDEST SWAP2 SWAP4 DUP2 DUP1 SWAP5 POP ADD SUB SLT PUSH2 0xB98 JUMPI DUP3 ADD MLOAD SWAP1 DUP2 ISZERO ISZERO DUP3 SUB PUSH2 0x171 JUMPI POP DUP1 CODESIZE DUP1 DUP5 PUSH2 0x217B JUMP JUMPDEST PUSH1 0x60 SWAP2 JUMPDEST SWAP2 SWAP3 SWAP1 ISZERO PUSH2 0x2269 JUMPI POP DUP2 MLOAD ISZERO PUSH2 0x221B JUMPI POP SWAP1 JUMP JUMPDEST EXTCODESIZE ISZERO PUSH2 0x2224 JUMPI SWAP1 JUMP JUMPDEST PUSH1 0x40 MLOAD PUSH3 0x461BCD PUSH1 0xE5 SHL DUP2 MSTORE PUSH1 0x20 PUSH1 0x4 DUP3 ADD MSTORE PUSH1 0x1D PUSH1 0x24 DUP3 ADD MSTORE PUSH32 0x416464726573733A2063616C6C20746F206E6F6E2D636F6E7472616374000000 PUSH1 0x44 DUP3 ADD MSTORE PUSH1 0x64 SWAP1 REVERT JUMPDEST DUP3 MLOAD SWAP1 SWAP2 POP ISZERO PUSH2 0x227C JUMPI POP DUP1 MLOAD SWAP1 PUSH1 0x20 ADD REVERT JUMPDEST PUSH1 0x40 MLOAD PUSH3 0x461BCD PUSH1 0xE5 SHL DUP2 MSTORE PUSH1 0x20 PUSH1 0x4 DUP3 ADD MSTORE SWAP1 DUP2 SWAP1 PUSH2 0x22A0 SWAP1 PUSH1 0x24 DUP4 ADD SWAP1 PUSH2 0x1BB6 JUMP JUMPDEST SUB SWAP1 REVERT JUMPDEST SWAP2 SWAP1 DUP3 SUB SWAP2 DUP3 GT PUSH2 0x1CA7 JUMPI JUMP JUMPDEST PUSH2 0x22BC DUP2 ISZERO ISZERO PUSH2 0x1EB3 JUMP JUMPDEST PUSH1 0x40 DUP1 MLOAD PUSH4 0x70A08231 PUSH1 0xE0 SHL DUP1 DUP3 MSTORE ADDRESS PUSH1 0x4 DUP1 DUP5 ADD SWAP2 SWAP1 SWAP2 MSTORE SWAP5 PUSH32 0x0 PUSH1 0x1 PUSH1 0x1 PUSH1 0xA0 SHL SUB DUP2 DUP2 AND SWAP7 SWAP5 PUSH1 0x20 SWAP5 PUSH1 0x24 SWAP5 SWAP3 SWAP4 DUP8 SWAP4 SWAP2 SWAP3 DUP8 DUP2 DUP9 DUP2 DUP15 GAS STATICCALL SWAP1 DUP2 ISZERO PUSH2 0x253C JUMPI PUSH1 0x0 SWAP2 PUSH2 0x250F JUMPI JUMPDEST POP DUP5 DUP2 LT ISZERO PUSH2 0x24F8 JUMPI DUP1 PUSH2 0x24DA JUMPI JUMPDEST POP PUSH1 0x0 JUMPDEST PUSH1 0x2 DUP1 SLOAD DUP3 LT DUP1 PUSH2 0x24D1 JUMPI JUMPDEST ISZERO PUSH2 0x2461 JUMPI DUP7 SWAP1 PUSH2 0x2355 DUP4 PUSH2 0x1BDB JUMP JUMPDEST SWAP3 SWAP1 SLOAD PUSH1 0x3 SWAP4 DUP5 SHL SHR AND PUSH1 0x0 MSTORE DUP2 DUP11 MSTORE PUSH1 0xFF DUP13 PUSH1 0x0 KECCAK256 SWAP3 DUP4 ADD SLOAD AND DUP1 PUSH2 0x2455 JUMPI JUMPDEST PUSH2 0x238B JUMPI JUMPDEST POP POP PUSH2 0x2386 SWAP1 PUSH2 0x1C98 JUMP JUMPDEST PUSH2 0x2339 JUMP JUMPDEST PUSH2 0x239B PUSH2 0x2710 SWAP2 DUP4 ADD SLOAD DUP9 PUSH2 0x1E67 JUMP JUMPDEST DIV DUP11 DUP2 LT ISZERO PUSH2 0x244E JUMPI JUMPDEST DUP1 ISZERO PUSH2 0x237B JUMPI DUP8 DUP3 SLOAD AND SWAP1 DUP2 EXTCODESIZE ISZERO PUSH2 0x3CB JUMPI DUP13 SWAP2 DUP16 DUP3 DUP13 PUSH1 0x0 SWAP3 DUP4 DUP8 MLOAD SWAP6 DUP7 SWAP5 DUP6 SWAP4 PUSH4 0x2E1A7D4D PUSH1 0xE0 SHL DUP6 MSTORE DUP5 ADD MSTORE GAS CALL SWAP1 DUP2 PUSH2 0x243F JUMPI JUMPDEST POP PUSH2 0x23E9 JUMPI JUMPDEST POP PUSH2 0x237B JUMP JUMPDEST DUP11 DUP2 DUP11 PUSH2 0x242E DUP7 SWAP16 SWAP5 PUSH32 0x7084F5476618D8E60B11EF0D7D3F06914655ADB8793E28FF7F018D4C76D505D5 SWAP6 PUSH1 0x6 PUSH2 0x2386 SWAP11 SWAP10 ADD PUSH2 0x2427 DUP4 DUP3 SLOAD PUSH2 0x1CD1 JUMP JUMPDEST SWAP1 SSTORE PUSH2 0x22A4 JUMP JUMPDEST SWAP15 SLOAD AND SWAP4 MLOAD SWAP1 DUP2 MSTORE LOG2 SWAP1 DUP11 CODESIZE PUSH2 0x23E3 JUMP JUMPDEST PUSH2 0x2448 SWAP1 PUSH2 0x1A85 JUMP JUMPDEST CODESIZE PUSH2 0x23DD JUMP JUMPDEST POP DUP10 PUSH2 0x23A5 JUMP JUMPDEST POP DUP1 DUP3 ADD SLOAD ISZERO ISZERO PUSH2 0x2376 JUMP JUMPDEST POP POP SWAP9 SWAP8 SWAP7 POP SWAP9 SWAP3 POP DUP5 SWAP4 SWAP2 POP DUP6 MLOAD SWAP7 DUP8 SWAP4 DUP5 SWAP3 DUP4 MSTORE ADDRESS SWAP1 DUP4 ADD MSTORE GAS STATICCALL SWAP2 DUP3 ISZERO PUSH2 0x1E5D JUMPI POP PUSH1 0x0 SWAP2 PUSH2 0x24A5 JUMPI JUMPDEST POP DUP1 SWAP2 POP PUSH2 0x249A JUMPI POP POP JUMP JUMPDEST PUSH2 0x1B2B SWAP2 CALLER SWAP1 PUSH2 0x2547 JUMP JUMPDEST DUP3 DUP2 RETURNDATASIZE DUP4 GT PUSH2 0x24CA JUMPI JUMPDEST PUSH2 0x24B9 DUP2 DUP4 PUSH2 0x1ACB JUMP JUMPDEST DUP2 ADD SUB SLT PUSH2 0x171 JUMPI POP MLOAD DUP1 CODESIZE PUSH2 0x248E JUMP JUMPDEST POP RETURNDATASIZE PUSH2 0x24AF JUMP JUMPDEST POP DUP10 ISZERO ISZERO PUSH2 0x2345 JUMP JUMPDEST PUSH2 0x24F1 SWAP2 SWAP9 POP PUSH2 0x24EB DUP2 CALLER DUP12 PUSH2 0x2547 JUMP JUMPDEST DUP5 PUSH2 0x22A4 JUMP JUMPDEST SWAP7 CODESIZE PUSH2 0x2335 JUMP JUMPDEST POP SWAP7 POP SWAP9 POP POP SWAP5 POP POP POP POP PUSH2 0x1B2B SWAP3 POP CALLER SWAP1 PUSH2 0x2547 JUMP JUMPDEST SWAP1 DUP9 DUP3 DUP2 RETURNDATASIZE DUP4 GT PUSH2 0x2535 JUMPI JUMPDEST PUSH2 0x2525 DUP2 DUP4 PUSH2 0x1ACB JUMP JUMPDEST DUP2 ADD SUB SLT PUSH2 0x171 JUMPI POP MLOAD CODESIZE PUSH2 0x2326 JUMP JUMPDEST POP RETURNDATASIZE PUSH2 0x251B JUMP JUMPDEST DUP11 MLOAD RETURNDATASIZE PUSH1 0x0 DUP3 RETURNDATACOPY RETURNDATASIZE SWAP1 REVERT JUMPDEST PUSH1 0x40 MLOAD PUSH4 0xA9059CBB PUSH1 0xE0 SHL PUSH1 0x20 DUP3 ADD MSTORE PUSH1 0x1 PUSH1 0x1 PUSH1 0xA0 SHL SUB SWAP1 SWAP3 AND PUSH1 0x24 DUP4 ADD MSTORE PUSH1 0x44 DUP3 ADD SWAP3 SWAP1 SWAP3 MSTORE PUSH2 0x1B2B SWAP2 PUSH2 0x1FDF DUP3 PUSH1 0x64 DUP2 ADD PUSH2 0x1FD1 JUMP JUMPDEST ISZERO PUSH2 0x2587 JUMPI JUMP JUMPDEST PUSH1 0x40 MLOAD PUSH3 0x461BCD PUSH1 0xE5 SHL DUP2 MSTORE PUSH1 0x20 PUSH1 0x4 DUP3 ADD MSTORE PUSH1 0x12 PUSH1 0x24 DUP3 ADD MSTORE PUSH18 0x24B73B30B634B21030B63637B1B0BA34B7B7 PUSH1 0x71 SHL PUSH1 0x44 DUP3 ADD MSTORE PUSH1 0x64 SWAP1 REVERT JUMPDEST PUSH1 0x20 DUP2 DUP4 SUB SLT PUSH2 0x3CB JUMPI DUP1 MLOAD SWAP1 PUSH8 0xFFFFFFFFFFFFFFFF DUP3 GT PUSH2 0x3CB JUMPI ADD DUP2 PUSH1 0x1F DUP3 ADD SLT ISZERO PUSH2 0x3CB JUMPI DUP1 MLOAD PUSH2 0x25F4 DUP2 PUSH2 0x20C1 JUMP JUMPDEST SWAP3 PUSH2 0x2602 PUSH1 0x40 MLOAD SWAP5 DUP6 PUSH2 0x1ACB JUMP JUMPDEST DUP2 DUP5 MSTORE PUSH1 0x20 DUP3 DUP5 ADD ADD GT PUSH2 0x3CB JUMPI PUSH2 0x1D51 SWAP2 PUSH1 0x20 DUP1 DUP6 ADD SWAP2 ADD PUSH2 0x1B93 JUMP JUMPDEST ISZERO PUSH2 0x2627 JUMPI JUMP JUMPDEST PUSH1 0x40 MLOAD PUSH3 0x461BCD PUSH1 0xE5 SHL DUP2 MSTORE PUSH1 0x20 PUSH1 0x4 DUP3 ADD MSTORE PUSH1 0x10 PUSH1 0x24 DUP3 ADD MSTORE PUSH16 0x496E76616C6964207374726174656779 PUSH1 0x80 SHL PUSH1 0x44 DUP3 ADD MSTORE PUSH1 0x64 SWAP1 REVERT INVALID LOG2 PUSH5 0x6970667358 0x22 SLT KECCAK256 PUSH31 0x9C996A3F49F875995D83BCE1F2ECA158C73537A6EE03DB8F09F6DCDF030133 PUSH5 0x736F6C6343 STOP ADDMOD EQ STOP CALLER "},"methodIdentifiers":{"addStrategy(address,uint256)":"c9411e22","averageAPY()":"d17132cc","deposit(uint256)":"b6b55f25","emergencyWithdrawAll(address)":"54ab6269","getActiveStrategies()":"587436e4","getAllStrategies()":"c3b28864","harvestAll()":"8ed955b9","isStrategy(address)":"2e8ebaae","owner()":"8da5cb5b","pause()":"8456cb59","paused()":"5c975abb","rebalance()":"7d7c2a1c","removeStrategy(address)":"175188e8","renounceOwnership()":"715018a6","setAllocation(address,uint256)":"9076c166","setStrategyActive(address,bool)":"b0f42a1d","setVault(address)":"6817031b","strategies(address)":"39ebf823","strategyList(uint256)":"a267526b","sweep(address)":"01681a62","totalAllocation()":"79203dc4","totalAssets()":"01e1d114","transferOwnership(address)":"f2fde38b","unpause()":"3f4ba83a","vault()":"fbfa77cf","want()":"1f1fcd51","withdraw(uint256)":"2e1a7d4d"}}}}}