{"contracts/strategies/StableLpStrategyV3.sol":{"StableLpStrategyV3":{"abi":[{"inputs":[{"internalType":"address","name":"_vault","type":"address"},{"internalType":"address","name":"_want","type":"address"},{"internalType":"address","name":"_token1","type":"address"},{"internalType":"address","name":"_aavePool","type":"address"},{"internalType":"address","name":"_dataProvider","type":"address"},{"internalType":"address","name":"_aToken","type":"address"},{"internalType":"address","name":"_positionManager","type":"address"},{"internalType":"address","name":"_lpPool","type":"address"},{"internalType":"address","name":"_owner","type":"address"}],"stateMutability":"nonpayable","type":"constructor"},{"anonymous":false,"inputs":[{"indexed":false,"internalType":"uint256","name":"rewardsCompounded","type":"uint256"}],"name":"CompoundExecuted","type":"event"},{"anonymous":false,"inputs":[{"indexed":true,"internalType":"address","name":"caller","type":"address"},{"indexed":false,"internalType":"uint256","name":"amount","type":"uint256"}],"name":"Deposited","type":"event"},{"anonymous":false,"inputs":[{"indexed":false,"internalType":"uint256","name":"amount0","type":"uint256"},{"indexed":false,"internalType":"uint256","name":"amount1","type":"uint256"}],"name":"FeesCollected","type":"event"},{"anonymous":false,"inputs":[{"indexed":false,"internalType":"uint256","name":"profit","type":"uint256"},{"indexed":false,"internalType":"uint256","name":"loss","type":"uint256"}],"name":"Harvested","type":"event"},{"anonymous":false,"inputs":[{"indexed":false,"internalType":"uint256","name":"tokenId","type":"uint256"},{"indexed":false,"internalType":"uint128","name":"liquidity","type":"uint128"}],"name":"LpLiquidityIncreased","type":"event"},{"anonymous":false,"inputs":[{"indexed":false,"internalType":"uint256","name":"tokenId","type":"uint256"},{"indexed":false,"internalType":"uint128","name":"liquidity","type":"uint128"}],"name":"LpPositionCreated","type":"event"},{"anonymous":false,"inputs":[{"indexed":true,"internalType":"address","name":"previousOwner","type":"address"},{"indexed":true,"internalType":"address","name":"newOwner","type":"address"}],"name":"OwnershipTransferred","type":"event"},{"anonymous":false,"inputs":[{"indexed":false,"internalType":"address","name":"account","type":"address"}],"name":"Paused","type":"event"},{"anonymous":false,"inputs":[{"indexed":false,"internalType":"address","name":"account","type":"address"}],"name":"Unpaused","type":"event"},{"anonymous":false,"inputs":[{"indexed":true,"internalType":"address","name":"caller","type":"address"},{"indexed":false,"internalType":"uint256","name":"amount","type":"uint256"}],"name":"Withdrawn","type":"event"},{"inputs":[],"name":"RATIO_PRECISION","outputs":[{"internalType":"uint256","name":"","type":"uint256"}],"stateMutability":"view","type":"function"},{"inputs":[],"name":"STABLE_FEE_TIER","outputs":[{"internalType":"uint24","name":"","type":"uint24"}],"stateMutability":"view","type":"function"},{"inputs":[],"name":"aToken","outputs":[{"internalType":"contract IERC20","name":"","type":"address"}],"stateMutability":"view","type":"function"},{"inputs":[],"name":"aavePool","outputs":[{"internalType":"contract IAaveV3Pool","name":"","type":"address"}],"stateMutability":"view","type":"function"},{"inputs":[],"name":"balanceOfPool","outputs":[{"internalType":"uint256","name":"","type":"uint256"}],"stateMutability":"view","type":"function"},{"inputs":[],"name":"compound","outputs":[],"stateMutability":"nonpayable","type":"function"},{"inputs":[],"name":"currentLiquidity","outputs":[{"internalType":"uint128","name":"","type":"uint128"}],"stateMutability":"view","type":"function"},{"inputs":[],"name":"dataProvider","outputs":[{"internalType":"contract IAaveV3PoolDataProvider","name":"","type":"address"}],"stateMutability":"view","type":"function"},{"inputs":[{"internalType":"uint256","name":"_amount","type":"uint256"}],"name":"deposit","outputs":[],"stateMutability":"nonpayable","type":"function"},{"inputs":[{"internalType":"address","name":"_to","type":"address"}],"name":"emergencyWithdraw","outputs":[],"stateMutability":"nonpayable","type":"function"},{"inputs":[],"name":"estimatedAPY","outputs":[{"internalType":"uint256","name":"","type":"uint256"}],"stateMutability":"view","type":"function"},{"inputs":[],"name":"estimatedTotalAssets","outputs":[{"internalType":"uint256","name":"","type":"uint256"}],"stateMutability":"view","type":"function"},{"inputs":[],"name":"harvest","outputs":[{"internalType":"uint256","name":"profit","type":"uint256"},{"internalType":"uint256","name":"loss","type":"uint256"}],"stateMutability":"nonpayable","type":"function"},{"inputs":[],"name":"healthFactor","outputs":[{"internalType":"uint256","name":"","type":"uint256"}],"stateMutability":"view","type":"function"},{"inputs":[],"name":"isActive","outputs":[{"internalType":"bool","name":"","type":"bool"}],"stateMutability":"view","type":"function"},{"inputs":[],"name":"lastReportTime","outputs":[{"internalType":"uint256","name":"","type":"uint256"}],"stateMutability":"view","type":"function"},{"inputs":[],"name":"lpPool","outputs":[{"internalType":"contract IQuickSwapV3Pool","name":"","type":"address"}],"stateMutability":"view","type":"function"},{"inputs":[],"name":"lpTokenId","outputs":[{"internalType":"uint256","name":"","type":"uint256"}],"stateMutability":"view","type":"function"},{"inputs":[],"name":"name","outputs":[{"internalType":"string","name":"","type":"string"}],"stateMutability":"view","type":"function"},{"inputs":[{"internalType":"address","name":"","type":"address"},{"internalType":"address","name":"","type":"address"},{"internalType":"uint256","name":"","type":"uint256"},{"internalType":"bytes","name":"","type":"bytes"}],"name":"onERC721Received","outputs":[{"internalType":"bytes4","name":"","type":"bytes4"}],"stateMutability":"pure","type":"function"},{"inputs":[],"name":"owner","outputs":[{"internalType":"address","name":"","type":"address"}],"stateMutability":"view","type":"function"},{"inputs":[],"name":"pause","outputs":[],"stateMutability":"nonpayable","type":"function"},{"inputs":[],"name":"paused","outputs":[{"internalType":"bool","name":"","type":"bool"}],"stateMutability":"view","type":"function"},{"inputs":[],"name":"positionManager","outputs":[{"internalType":"contract IQuickSwapV3PositionManager","name":"","type":"address"}],"stateMutability":"view","type":"function"},{"inputs":[],"name":"rebalance","outputs":[],"stateMutability":"nonpayable","type":"function"},{"inputs":[],"name":"renounceOwnership","outputs":[],"stateMutability":"nonpayable","type":"function"},{"inputs":[],"name":"riskParams","outputs":[{"internalType":"uint256","name":"lendingRatio","type":"uint256"},{"internalType":"uint256","name":"maxBorrowRatio","type":"uint256"},{"internalType":"uint256","name":"compoundThreshold","type":"uint256"},{"internalType":"uint256","name":"targetHealthFactor","type":"uint256"},{"internalType":"uint24","name":"lpFeeTier","type":"uint24"},{"internalType":"int24","name":"lpTickLower","type":"int24"},{"internalType":"int24","name":"lpTickUpper","type":"int24"}],"stateMutability":"view","type":"function"},{"inputs":[{"internalType":"address","name":"_controller","type":"address"}],"name":"setController","outputs":[],"stateMutability":"nonpayable","type":"function"},{"inputs":[{"internalType":"bytes","name":"_params","type":"bytes"}],"name":"setRiskParams","outputs":[],"stateMutability":"nonpayable","type":"function"},{"inputs":[{"internalType":"uint256","name":"_lendingRatio","type":"uint256"},{"internalType":"uint256","name":"_maxBorrowRatio","type":"uint256"},{"internalType":"uint256","name":"_compoundThreshold","type":"uint256"},{"internalType":"uint256","name":"_targetHealthFactor","type":"uint256"},{"internalType":"uint24","name":"_lpFeeTier","type":"uint24"},{"internalType":"int24","name":"_lpTickLower","type":"int24"},{"internalType":"int24","name":"_lpTickUpper","type":"int24"}],"name":"setRiskParamsDirect","outputs":[],"stateMutability":"nonpayable","type":"function"},{"inputs":[{"internalType":"address","name":"_vault","type":"address"}],"name":"setVault","outputs":[],"stateMutability":"nonpayable","type":"function"},{"inputs":[],"name":"strategyController","outputs":[{"internalType":"address","name":"","type":"address"}],"stateMutability":"view","type":"function"},{"inputs":[{"internalType":"address","name":"_token","type":"address"}],"name":"sweep","outputs":[],"stateMutability":"nonpayable","type":"function"},{"inputs":[],"name":"token1","outputs":[{"internalType":"contract IERC20","name":"","type":"address"}],"stateMutability":"view","type":"function"},{"inputs":[],"name":"totalAssets","outputs":[{"internalType":"uint256","name":"","type":"uint256"}],"stateMutability":"view","type":"function"},{"inputs":[],"name":"totalDebt","outputs":[{"internalType":"uint256","name":"","type":"uint256"}],"stateMutability":"view","type":"function"},{"inputs":[{"internalType":"address","name":"newOwner","type":"address"}],"name":"transferOwnership","outputs":[],"stateMutability":"nonpayable","type":"function"},{"inputs":[],"name":"unpause","outputs":[],"stateMutability":"nonpayable","type":"function"},{"inputs":[],"name":"vault","outputs":[{"internalType":"address","name":"","type":"address"}],"stateMutability":"view","type":"function"},{"inputs":[],"name":"want","outputs":[{"internalType":"address","name":"","type":"address"}],"stateMutability":"view","type":"function"},{"inputs":[],"name":"wantToken","outputs":[{"internalType":"contract IERC20","name":"","type":"address"}],"stateMutability":"view","type":"function"},{"inputs":[{"internalType":"uint256","name":"_amount","type":"uint256"}],"name":"withdraw","outputs":[],"stateMutability":"nonpayable","type":"function"}],"evm":{"bytecode":{"linkReferences":{},"object":"610160604090808252346200040c578062003e09803803809162000024828562000443565b8339610120928391810103126200040c57620000408162000467565b926200004f6020830162000467565b6200005c82840162000467565b6200006a6060850162000467565b90620000796080860162000467565b6200008760a0870162000467565b956200009660c0820162000467565b94620000b4610100620000ac60e0850162000467565b930162000467565b9260208851620000c48162000411565b601c8152019a7f537461626c65204c50202b204c656e64696e67205374726174656779000000008c52620000f8336200047c565b6000805460ff60a01b19168155600180805560025491979180821c9116801562000401575b6020821014620003ed57601f8111620003a2575b509b5163ffffffff1916603817600255600380546001600160a01b0319166001600160a01b0392831617905591821660805242600655989997989697959690958693849291839162000183906200047c565b168b5281861660a0521660c05281861660e0521661010052826101409616865284519060e082019082821060018060401b038311176200038e5750916200024a91620002639594938752610fa08082526117708060208401526305f5e10091828a850152600a60c0671bc16d674ec80000958660608201526064608082015260091960a08201520152600755600855600955600a55660afffff600006460018060481b0319600b541617600b5562000240818460805116620004c3565b82885116620004c3565b6200025a828260805116620004c3565b855116620004c3565b51906135de92836200082b843960805183818161040b01528181610617015281816106d901528181610e5e0152818161165b01528181611d91015281816126f80152612b8e015260a0518381816107b4015281816108ed01528181610eac015281816110170152818161186b0152818161196b015281816124540152818161280101526133a3015260c0518381816104390152610865015260e051838181610b0401528181610ce6015281816110e60152818161259601528181612da801528181612f1f01528181613128015261328c015261010051838181610a2f01526115d00152518281816104900152818161065b01528181610e090152818161181401528181611dbb0152818161287f01528181612bdc01526133500152518181816108a901526125280152f35b634e487b7160e01b81526041600452602490fd5b600288527f405787fa12a823e0f2b7631cc41b3ba8828b3321ca811111fa75cd3aa3bb5ace805b601f830160051c82018110620003e157505062000131565b898155600101620003c9565b634e487b7160e01b88526022600452602488fd5b90607f16906200011d565b600080fd5b604081019081106001600160401b038211176200042d57604052565b634e487b7160e01b600052604160045260246000fd5b601f909101601f19168101906001600160401b038211908210176200042d57604052565b51906001600160a01b03821682036200040c57565b600080546001600160a01b039283166001600160a01b03198216811783559216907f8be0079c531659141344cd1fd0a4f28419497f9722a3daafe3b4186f6b6457e09080a3565b60408051636eb1769f60e11b81523060048201526001600160a01b039384166024808301829052602095909491929116908581604481855afa90811562000745576000916200070f575b50620006a657825163095ea7b360e01b86820190815285820193909352600019604480830191909152815260808101926001600160401b0392918385118186101762000691576000918291868852620005668762000411565b8987527f5361666545524332303a206c6f772d6c6576656c2063616c6c206661696c656460a0820152519082855af1903d1562000680573d9283116200066b5790620005d5939291855192620005c689601f19601f840116018562000443565b83523d60008985013e62000750565b805184811591821562000648575b5050905015620005f257505050565b5162461bcd60e51b81526004810192909252602a908201527f5361666545524332303a204552433230206f7065726174696f6e20646964206e6044820152691bdd081cdd58d8d9595960b21b6064820152608490fd5b83809293500103126200040c5783015180151581036200040c57808438620005e3565b85634e487b7160e01b60005260416004526000fd5b90620005d593925060609162000750565b86634e487b7160e01b60005260416004526000fd5b825162461bcd60e51b8152600481018690526036818601527f5361666545524332303a20617070726f76652066726f6d206e6f6e2d7a65726f60448201527f20746f206e6f6e2d7a65726f20616c6c6f77616e6365000000000000000000006064820152608490fd5b908682813d83116200073d575b62000728818362000443565b810103126200073a575051386200050d565b80fd5b503d6200071c565b84513d6000823e3d90fd5b91929015620007b5575081511562000766575090565b3b15620007705790565b60405162461bcd60e51b815260206004820152601d60248201527f416464726573733a2063616c6c20746f206e6f6e2d636f6e74726163740000006044820152606490fd5b825190915015620007c95750805190602001fd5b6040519062461bcd60e51b82528160208060048301528251908160248401526000935b82851062000810575050604492506000838284010152601f80199101168101030190fd5b8481018201518686016044015293810193859350620007ec56fe608060408181526004918236101561001657600080fd5b60009060e0938235851c918262258d6b14611ec75750816301681a6214611d5d57816301e1d114146105c15781630242d71214611d3e57816306fdde0314611c3b5781631158808614611c1e578163150b7a0214611bbe5781631f1fcd511461060257816322841f0114611b9a57816322c4e31414611b7e57816322f3e2d414611b5a5781632e1a7d4d146115ff5781633737bcb4146115bb5781633ac0ba05146114ee5781633f4ba83a146114535781634641257d1461138c57816346caf2ae146113645781635c975abb1461133f5781635f77b5a1146112375781636817031b146111f75781636ff1c9bc14610d6f578163715018a614610d15578163791b98bc14610cd15781637d7c2a1c146109e45781638456cb59146109855781638da5cb5b1461095d57816392eefe9b1461091c578163a03e4bc3146108d8578163a0c1f15e14610894578163b334ed8614610850578163b6b55f251461068a578163d21220a714610646578163d23e048014610602578163d32867d0146105e5578163e0115d0d146105c6578163efbb5cb0146105c1578163f19993d7146103e2578163f2fde38b1461031557508063f69e20461461029d578063fbfa77cf14610274578063fc7b9c18146102515763fefb36ce146101f457600080fd5b3461024e578060031936011261024e57506007549060085490600954600a5491600b549381519586526020860152840152606083015262ffffff811660808301528060181c60020b60a083015260301c60020b60c0820152f35b80fd5b5090346102705781600319360112610270576020906005549051908152f35b5080fd5b50903461027057816003193601126102705760035490516001600160a01b039091168152602090f35b5090346102705781600319360112610270576102b761236b565b6102c86102c261309c565b90612103565b906009548210156102dc575b826001805580f35b7f9c105c5516038a31b52025c35bd815a6323fbe2d5860e917939e758aa6b55d7b91602091610309612b76565b51908152a181806102d4565b839150346103de5760203660031901126103de57610331611eeb565b9061033a61202d565b6001600160a01b0391821692831561038c575050600054826001600160601b0360a01b821617600055167f8be0079c531659141344cd1fd0a4f28419497f9722a3daafe3b4186f6b6457e0600080a380f35b906020608492519162461bcd60e51b8352820152602660248201527f4f776e61626c653a206e6577206f776e657220697320746865207a65726f206160448201526564647265737360d01b6064820152fd5b8280fd5b83833461024e578060031936011261024e5781516335ea6a7560e01b8082526001600160a01b037f0000000000000000000000000000000000000000000000000000000000000000811686840152909190610140907f00000000000000000000000000000000000000000000000000000000000000008116908284602481855afa9384156105b757869461058c575b508290602469152d02c7e14af6800000809604968951948593849283527f0000000000000000000000000000000000000000000000000000000000000000168c8301525afa91821561058257859261054b575b50500480821115610543576104d89161235e565b6104e560075491826127c7565b61271092828403928484116105305761032080850294850414908514171561051d57602085856105158686612103565b049051908152f35b634e487b7160e01b815260118652602490fd5b634e487b7160e01b825260118752602482fd5b5050806104d8565b61056a9250803d1061057b575b6105628183611f86565b810190612770565b5050505094505050505086806104c4565b503d610558565b86513d87823e3d90fd5b839194506105a690823d841161057b576105628183611f86565b505050505093505050509390610471565b87513d88823e3d90fd5b611f01565b8284346102705781600319360112610270576020906006549051908152f35b828434610270578160031936011261027057602090516127108152f35b828434610270578160031936011261027057517f00000000000000000000000000000000000000000000000000000000000000006001600160a01b03168152602090f35b828434610270578160031936011261027057517f00000000000000000000000000000000000000000000000000000000000000006001600160a01b03168152602090f35b905082346103de5760203660031901126103de576003548235926001600160a01b0391859190831633148015610844575b6106c490612085565b6106cc612126565b6106d78515156120c9565b7f00000000000000000000000000000000000000000000000000000000000000009261073085516323b872dd60e01b60208201523360248201523060448201528760648201526064815261072a81611f56565b8561217a565b61073c86600554612103565b60055561271061074e600754886127c7565b049061075a828861235e565b5081151594856107b1575b50505050506107a4575b610777612b76565b519081527f2da466a7b24304f47e87fa2e1e5a81b9831ce54fec19055ce277ca2f39ba42c460203392a280f35b6107ac6127da565b61076f565b817f00000000000000000000000000000000000000000000000000000000000000001690813b15610840578560849281958a51978896879563617ba03760e01b8752169085015260248401523060448401528160648401525af180156108365761081e575b808080610765565b61082790611f72565b610832578385610816565b8380fd5b84513d84823e3d90fd5b8580fd5b508054831633146106bb565b828434610270578160031936011261027057517f00000000000000000000000000000000000000000000000000000000000000006001600160a01b03168152602090f35b828434610270578160031936011261027057517f00000000000000000000000000000000000000000000000000000000000000006001600160a01b03168152602090f35b828434610270578160031936011261027057517f00000000000000000000000000000000000000000000000000000000000000006001600160a01b03168152602090f35b90503461027057602036600319011261027057610937611eeb565b61093f61202d565b81546001600160a01b0319166001600160a01b039190911617905580f35b828434610270578160031936011261027057905490516001600160a01b039091168152602090f35b82843461027057816003193601126102705760207f62e78cea01bee320cd4e420270b5ea74000d11b0c9f74754ebdbfc544b05a258916109c361202d565b6109cb612126565b835460ff60a01b1916600160a01b17845551338152a180f35b9050838334610832578360031936011261083257610a00612439565b600a5411610cc4575b600c54610a14578380f35b8051633850c7bd60e01b81526001600160a01b0390838186817f000000000000000000000000000000000000000000000000000000000000000086165afa938415610cba578694610c2c575b5050600b549260020b928060181c60020b8412908115610c1c575b50610a8557508380f35b610a8d61309c565b50506001600160801b03600d541680610aa7575b50508380f35b600c549061012c420190814211610c095792849392610b009285948a975192610acf84611f56565b83526020830152868583015286606083015260808201528351958680948193630624e65f60e11b83528b83016131c6565b03927f0000000000000000000000000000000000000000000000000000000000000000165af19182610bde575b5050610b3c575b808080610aa1565b600d80546001600160801b0319169055600c839055600919810191627fffff1990627fffff82851281861317610bcb57600a600b54940192831290831317610bb8575065ffffff0000009060301b62ffffff60301b169260181b169068ffffffffffff00000019161717600b55610bb1612b76565b8180610b34565b634e487b7160e01b855260119052602484fd5b634e487b7160e01b865260118252602486fd5b81610bfd92903d10610c02575b610bf58183611f86565b810190613086565b610b2d565b503d610beb565b634e487b7160e01b885260118752602488fd5b905060301c60020b831386610a7b565b9080929450813d8311610cb3575b610c448183611f86565b81010312610caf57805183811603610caf57610c62602082016124e1565b90610c6e838201613475565b50610c7b60608201613475565b50610c8860808201613475565b5060a081015163ffffffff8116036108405760c0610ca6910161216d565b50918580610a60565b8480fd5b503d610c3a565b83513d88823e3d90fd5b610ccc61331e565b610a09565b828434610270578160031936011261027057517f00000000000000000000000000000000000000000000000000000000000000006001600160a01b03168152602090f35b823461024e578060031936011261024e57610d2e61202d565b600080546001600160a01b0319811682556001600160a01b03167f8be0079c531659141344cd1fd0a4f28419497f9722a3daafe3b4186f6b6457e08280a380f35b905082346103de576020918260031936011261083257610d8d611eeb565b90610d9661202d565b610d9e612126565b845460ff60a01b1916600160a01b17855582513381527f62e78cea01bee320cd4e420270b5ea74000d11b0c9f74754ebdbfc544b05a258908590a1610de161309c565b5050600c54801515806111e3575b6110e1575b5082516370a0823160e01b80825230828401527f0000000000000000000000000000000000000000000000000000000000000000956001600160a01b038088169491939192918481602481895afa908115610fde579085918b916110b2575b5080611011575b50507f000000000000000000000000000000000000000000000000000000000000000090848a818385169360648c5180948193631a4ca37b60e21b8352888c84015260001960248401523060448401527f0000000000000000000000000000000000000000000000000000000000000000165af1610fe8575b5060249189519283809287825230898301525afa908115610fde579085949392918b91610faa575b5090818860249493610f99575b50505087519586938492835230908301525afa938415610f9057508593610f5b575b505081610f4a575b8380600c556001600160801b0319600d5416600d5580f35b610f53926123c1565b818080610f32565b9080929350813d8311610f89575b610f738183611f86565b81010312610f845751908480610f2a565b600080fd5b503d610f69565b513d87823e3d90fd5b610fa2926123c1565b8a8088610f08565b858194939692503d8311610fd7575b610fc38183611f86565b81010312610f845790518493906024610efb565b503d610fb9565b88513d8c823e3d90fd5b813d831161100a575b610ffb8183611f86565b81010312610f8457848b610ed3565b503d610ff1565b61103f837f00000000000000000000000000000000000000000000000000000000000000001691828c612a4e565b885163573ade8160e01b81526001600160a01b0388168682019081526000196020820152600260408201523060608201529091839183919082908f90829060800103925af115610e5a57813d83116110ab575b61109c8183611f86565b81010312610f8457838a610e5a565b503d611092565b82819392503d83116110da575b6110c98183611f86565b81010312610f84578490518b610e53565b503d6110bf565b600d547f00000000000000000000000000000000000000000000000000000000000000006001600160a01b031691904261012c8101916001600160801b03169082106111d05788939261116a92889283519261113c84611f56565b83528a83015285838301528560608301526080820152815180938192630624e65f60e11b83528883016131c6565b038186865af16111b4575b50600c5490803b156103de576024839287519485938492630852cd8d60e31b8452888401525af115610df4576111ad90959195611f72565b9385610df4565b6111ca90863d8811610c0257610bf58183611f86565b50611175565b634e487b7160e01b895260118552602489fd5b506001600160801b03600d54161515610def565b823461024e57602036600319011261024e57611211611eeb565b61121961202d565b60018060a01b03166001600160601b0360a01b600354161760035580f35b9050828434610832573660031901126103de576084359062ffffff808316809303610caf5760a435908160020b8092036108405760c435938460020b80950361133b57611338956113159461128a61202d565b80519161129683611f24565b358252602082019060243582528201906044358252606083019260643584526080810194855260a0810196875260c081019889526112d381613484565b51600755516008555160095551600a55511662ffffff19600b541617600b555160020b600b549060181b65ffffff000000169065ffffff000000191617600b55565b5160020b600b549060301b62ffffff60301b169062ffffff60301b191617600b55565b80f35b8680fd5b82843461027057816003193601126102705760ff6020925460a01c1690519015158152f35b8284346102705781600319360112610270576020906001600160801b03600d54169051908152f35b50503461024e578060031936011261024e576113a661236b565b806113af61309c565b50506113b9612439565b600a5411611446575b6113ca6126d3565b6005549081811115611425576113e192935061235e565b905b426006557ffa07446fad45314351eb89109a154880278451332bb87f1824d435fe58da5939838051848152836020820152a16001805582519182526020820152f35b90808210611435575b50506113e3565b61143f925061235e565b838061142e565b61144e61331e565b6113c2565b839150346103de57826003193601126103de5761146e61202d565b82549060ff8260a01c16156114b4575060ff60a01b19168255513381527f5db9ee0a495bf2e6ff9c91a7834c1ba4fdd244a5e8aa4e537bd38aeae4b073aa90602090a180f35b606490602084519162461bcd60e51b8352820152601460248201527314185d5cd8589b194e881b9bdd081c185d5cd95960621b6044820152fd5b83858492346108325760203660031901126108325780359067ffffffffffffffff8211610caf5761152191369101611ff1565b9080929161152d61202d565b810103126103de5781519061154182611f24565b803582526020820190602081013582528383019381013584526060830160608201358152608082013562ffffff9182821682036115b7576113389661131595608088019384526115a660c061159860a0890161201f565b9760a08b019889520161201f565b9760c081019889526112d381613484565b8780fd5b828434610270578160031936011261027057517f00000000000000000000000000000000000000000000000000000000000000006001600160a01b03168152602090f35b839150346103de57602080600319360112610832576003546001600160a01b039383359291851633148015611b4e575b61163890612085565b61164061236b565b61164b8315156120c9565b826116546126d3565b10611b16577f0000000000000000000000000000000000000000000000000000000000000000938585169082516370a0823160e01b80825230838301528960249287818581895afa908115611b0c578291611adf575b50888110611794575b5050859697985084959394519485938492835230908301525afa90811561178a57869161173d575b50611717907f7084f5476618d8e60b11ef0d7d3f06914655adb8793e28ff7f018d4c76d505d594808210600014611734575080955b33906123c1565b6117238460055461235e565b600555519283523392a26001805580f35b90508095611710565b90508281813d8311611783575b6117548183611f86565b8101031261084057517f7084f5476618d8e60b11ef0d7d3f06914655adb8793e28ff7f018d4c76d505d56116db565b503d61174a565b82513d88823e3d90fd5b61179e908961235e565b6117a661309c565b505086518381523086820152888186818a5afa908115611a85578391611ab2575b5081811080611aa7575b611a8f575b508651908382523086830152888286818a5afa908115611a85578391611a54575b611801925061235e565b80156116b357865183815230868201529a7f0000000000000000000000000000000000000000000000000000000000000000808216908a8e8881855afa918215611a4a578a8c9d9e9f879d9b9c9d94611a12575b50918991878c9486611961575b505050505050507f000000000000000000000000000000000000000000000000000000000000000016908851631a4ca37b60e21b91828252898883015286820152306044820152878160648187875af19081611931575b5087929190611928576064908a51948593849283528b8a840152600019898401523060448401525af16118f8575b505b88979650898b969594966116b3565b8491943d8311611921575b61190d8183611f86565b8101031261191d5785928a6118e7565b8880fd5b503d611903565b505050506118e9565b88919392983d831161195a575b6119488183611f86565b810103126103de57909589968e6118b9565b503d61193e565b6119926119d297897f0000000000000000000000000000000000000000000000000000000000000000168096612a4e565b5163573ade8160e01b81526001600160a01b0390921693820193845260001960208501526002604085015230606085015290948593849291839160800190565b03925af16119e6575b87878280878e611862565b8791973d8311611a0b575b6119fb8183611f86565b810103126102705788958d6119db565b503d6119f1565b9a80929394508b91503d8311611a43575b611a2d8183611f86565b81010312610caf5797518b989091908b89611855565b503d611a23565b8a513d87823e3d90fd5b90508882813d8311611a7e575b611a6b8183611f86565b810103126103de576118019151906117f7565b503d611a61565b88513d85823e3d90fd5b611a9c611aa1918361235e565b613203565b8c6117d6565b50600c5415156117d1565b90508881813d8311611ad8575b611ac98183611f86565b810103126103de57518d6117c7565b503d611abf565b90508781813d8311611b05575b611af68183611f86565b8101031261027057518c6116aa565b503d611aec565b87513d84823e3d90fd5b5162461bcd60e51b815292830152506014602482015273496e73756666696369656e742062616c616e636560601b6044820152606490fd5b5083548516331461162f565b82843461027057816003193601126102705760ff6020925460a01c16159051908152f35b8284346102705781600319360112610270576020905160648152f35b828434610270578160031936011261027057602090611bb7612439565b9051908152f35b83833461024e57608036600319011261024e57611bd9611eeb565b506024356001600160a01b0381160361024e576064359067ffffffffffffffff821161024e5750602092611c0f91369101611ff1565b505051630a85bd0160e11b8152f35b828434610270578160031936011261027057602090611bb7612503565b905082346103de57826003193601126103de57805191836002549060019082821c928281168015611d34575b6020958686108214611d215750848852908115611cff5750600114611ca6575b611ca28686611c98828b0383611f86565b5191829182611fa8565b0390f35b929550600283527f405787fa12a823e0f2b7631cc41b3ba8828b3321ca811111fa75cd3aa3bb5ace5b828410611cec5750505082611ca294611c98928201019486611c87565b8054868501880152928601928101611ccf565b60ff191687860152505050151560051b8301019250611c9882611ca286611c87565b634e487b7160e01b845260229052602483fd5b93607f1693611c67565b828434610270578160031936011261027057602090600c549051908152f35b905082346103de5760208060031936011261083257611d7a611eeb565b92611d8361202d565b6001600160a01b03938416917f000000000000000000000000000000000000000000000000000000000000000085168314611e9157847f0000000000000000000000000000000000000000000000000000000000000000168314611e59578351916370a0823160e01b835230908301528082602481865afa938415610f9057508593611e29575b505081611e15578380f35b611e2292845416906123c1565b8180808380f35b9080929350813d8311611e52575b611e418183611f86565b810103126108325751908480611e0a565b503d611e37565b835162461bcd60e51b815291820152601360248201527243616e6e6f7420737765657020746f6b656e3160681b604482015260649150fd5b835162461bcd60e51b815291820152601160248201527010d85b9b9bdd081cddd9595c081dd85b9d607a1b604482015260649150fd5b9150346103de57826003193601126103de57546001600160a01b0316815260209150f35b600435906001600160a01b0382168203610f8457565b34610f84576000366003190112610f84576020611f1c6126d3565b604051908152f35b60e0810190811067ffffffffffffffff821117611f4057604052565b634e487b7160e01b600052604160045260246000fd5b60a0810190811067ffffffffffffffff821117611f4057604052565b67ffffffffffffffff8111611f4057604052565b90601f8019910116810190811067ffffffffffffffff821117611f4057604052565b6020808252825181830181905290939260005b828110611fdd57505060409293506000838284010152601f8019910116010190565b818101860151848201604001528501611fbb565b9181601f84011215610f845782359167ffffffffffffffff8311610f845760208381860195010111610f8457565b35908160020b8203610f8457565b6000546001600160a01b0316330361204157565b606460405162461bcd60e51b815260206004820152602060248201527f4f776e61626c653a2063616c6c6572206973206e6f7420746865206f776e65726044820152fd5b1561208c57565b60405162461bcd60e51b815260206004820152601560248201527427b7363c903b30bab63a17b1b7b73a3937b63632b960591b6044820152606490fd5b156120d057565b60405162461bcd60e51b815260206004820152600b60248201526a16995c9bc8185b5bdd5b9d60aa1b6044820152606490fd5b9190820180921161211057565b634e487b7160e01b600052601160045260246000fd5b60ff60005460a01c1661213557565b60405162461bcd60e51b815260206004820152601060248201526f14185d5cd8589b194e881c185d5cd95960821b6044820152606490fd5b51908115158203610f8457565b60018060a01b0316906040516040810167ffffffffffffffff9082811082821117611f40576040526020938483527f5361666545524332303a206c6f772d6c6576656c2063616c6c206661696c6564858401526000808587829751910182855af1903d156122be573d9283116122aa57906122159392916040519261220888601f19601f8401160185611f86565b83523d868885013e6122c9565b90815190838215928315612288575b5050509050156122315750565b6084906040519062461bcd60e51b82526004820152602a60248201527f5361666545524332303a204552433230206f7065726174696f6e20646964206e6044820152691bdd081cdd58d8d9595960b21b6064820152fd5b84809293945001031261024e5750816122a1910161216d565b80388381612224565b634e487b7160e01b85526041600452602485fd5b906122159392506060915b9192901561232b57508151156122dd575090565b3b156122e65790565b60405162461bcd60e51b815260206004820152601d60248201527f416464726573733a2063616c6c20746f206e6f6e2d636f6e74726163740000006044820152606490fd5b82519091501561233e5750805190602001fd5b60405162461bcd60e51b815290819061235a9060048301611fa8565b0390fd5b9190820391821161211057565b60026001541461237c576002600155565b60405162461bcd60e51b815260206004820152601f60248201527f5265656e7472616e637947756172643a207265656e7472616e742063616c6c006044820152606490fd5b60405163a9059cbb60e01b60208201526001600160a01b03909216602483015260448201929092526124099161240482606481015b03601f198101845283611f86565b61217a565b565b91908260c0910312610f845781519160208101519160408201519160608101519160a0608083015192015190565b604051632fe4a15f60e21b815230600482015260c0816024817f00000000000000000000000000000000000000000000000000000000000000006001600160a01b03165afa9081156124c157600091612490575090565b6124b1915060c03d81116124ba575b6124a98183611f86565b81019061240b565b94505050505090565b503d61249f565b6040513d6000823e3d90fd5b51906001600160a01b0382168203610f8457565b51908160020b8203610f8457565b51906001600160801b0382168203610f8457565b6040516370a0823160e01b81523060048201526001600160a01b0391906020816024817f000000000000000000000000000000000000000000000000000000000000000087165afa9081156124c1576000916126a2575b50600090600c5480612576575b50612573929350612103565b90565b60405194859163133f757160e31b835260048301528160246101809384937f0000000000000000000000000000000000000000000000000000000000000000165afa8391816125e5575b506125739495506125d4575b849350612567565b6001600160801b03169150386125cc565b90915085813d831161269b575b6125fc8183611f86565b810103126103de5784516001600160601b038116036103de57612621602086016124cd565b5061262e604086016124cd565b5061263b606086016124cd565b50608085015162ffffff8116036103de578461265d60a06125739697016124e1565b5061266a60c082016124e1565b5061269261016061267d60e084016124ef565b9261268b61014082016124ef565b50016124ef565b509085946125c0565b503d6125f2565b906020823d82116126cb575b816126bb60209383611f86565b8101031261024e5750513861255a565b3d91506126ae565b6126db612503565b6040516370a0823160e01b815230600482015291906020836024817f00000000000000000000000000000000000000000000000000000000000000006001600160a01b03165afa9283156124c15760009361273d575b50916125739192612103565b6020813d8211612768575b8161275560209383611f86565b8101031261083257519250612573612731565b3d9150612748565b919082610140910312610f845781519160208101519160408201519160608101519160808201519160a08101519160c08201519160e08101519161012061010083015192015164ffffffffff81168103610f845790565b8181029291811591840414171561211057565b60408051632fe4a15f60e21b8082523060048301526001600160a01b03929160009160c0917f00000000000000000000000000000000000000000000000000000000000000008616908381602481855afa9081156105825785908692612a21575b5061284c61271091600854906127c7565b0490818110156128ea5761285f9161235e565b926402540be40093848102948186041490151715612a0d578315612a04577f000000000000000000000000000000000000000000000000000000000000000096871692823b1561084057865163a415bcad60e01b815284600482015285602482015260026044820152866064820152306084820152868160a48183885af190816129f1575b506128f4575b5050505050505050565b86519081523060048201528181602481865afa9182156105b75786926129ce575b5050600a5411612927575b80806128ea565b8061293d61297d9760209560011c928391612a4e565b855163573ade8160e01b81526001600160a01b03909316600484015260248301526002604483015230606483015290948591908290859082906084820190565b03925af19182156129c4575050612999575b8080808080612920565b602090813d81116129bd575b6129af8183611f86565b81010312610f84573861298f565b503d6129a5565b51903d90823e3d90fd5b6129e49250803d106124ba576124a98183611f86565b9450505050503880612915565b6129fd90979197611f72565b95386128e4565b50505050505050565b634e487b7160e01b85526011600452602485fd5b61284c92506127109150612a4190863d88116124ba576124a98183611f86565b505050509290915061283b565b91909181158015612afd575b15612a995760405163095ea7b360e01b60208201526001600160a01b0390931660248401526044830191909152612409919061240482606481016123f6565b60405162461bcd60e51b815260206004820152603660248201527f5361666545524332303a20617070726f76652066726f6d206e6f6e2d7a65726f60448201527520746f206e6f6e2d7a65726f20616c6c6f77616e636560501b6064820152608490fd5b50604051636eb1769f60e11b81523060048201526001600160a01b0384811660248301526020908290604490829086165afa9081156124c157600091612b45575b5015612a5a565b906020823d8211612b6e575b81612b5e60209383611f86565b8101031261024e57505138612b3e565b3d9150612b51565b604080516370a0823160e01b808252306004830152907f00000000000000000000000000000000000000000000000000000000000000006001600160a01b0316602082602481845afa91821561307b57600092613047575b5083519283523060048401527f00000000000000000000000000000000000000000000000000000000000000006001600160a01b0316602084602481845afa93841561303c57600094613008575b50821580613000575b612ff957808210938415612ff25782805b6001600160a01b031614938415612feb5780945b15612fe35750915b600c5480612e8757508415612e805780945b15612e785750915b600b5461012c42019384421161211057865195610160870187811067ffffffffffffffff821117611f4057885260018060a01b0316865260018060a01b0316602086015262ffffff8116868601528060181c60020b606086015260301c60020b608085015260a084015260c0830152600060e0830152600061010083015230610120830152610140820152610140825191634418b22b60e11b835260018060a01b03815116600484015260018060a01b03602082015116602484015262ffffff84820151166044840152606081015160020b6064840152608081015160020b608484015260a081015160a484015260c081015160c484015260e081015160e484015261010081015161010484015260018060a01b0361012082015116610124840152015161014482015260808161016481600060018060a01b037f0000000000000000000000000000000000000000000000000000000000000000165af190816000918293612e36575b50612de057505050565b600c819055600d80546001600160801b0319166001600160801b03939093169283179055915191825260208201527ff8701aebad981298cbca299e788f26035cda70f25724c19b4987cd77eb8d3e6590604090a1565b919092506080823d8211612e70575b81612e5260809383611f86565b8101031261024e5750612e696020825192016124ef565b9138612dd6565b3d9150612e45565b905091612c6c565b8194612c64565b945050509061012c4201918242116121105784519360c0850185811067ffffffffffffffff821117611f4057865284526020840191825284840190815260608401906000825260808501926000845260a0860194855286519563219f5d1760e01b87525160048701525160248601525160448501525160648401525160848301525160a482015260608160c481600060018060a01b037f0000000000000000000000000000000000000000000000000000000000000000165af160009181612fa8575b50612f54575b5050565b600d80546001600160801b0319166001600160801b03929092169182179055600c54915191825260208201527fdbb42dd34aaa18592c2f40733256ba83b87ce95e87d5473752e3dc55a68fb59290604090a1565b90916060823d8211612fdb575b81612fc260609383611f86565b8101031261024e5750612fd4906124ef565b9038612f4a565b3d9150612fb5565b905091612c52565b8194612c4a565b8282612c36565b5050505050565b508315612c25565b90936020823d602011613034575b8161302360209383611f86565b8101031261024e5750519238612c1c565b3d9150613016565b85513d6000823e3d90fd5b90916020823d602011613073575b8161306260209383611f86565b8101031261024e5750519038612bce565b3d9150613055565b84513d6000823e3d90fd5b9190826040910312610f84576020825192015190565b600c549081156131be576040918251906080820182811067ffffffffffffffff821117611f40578452815230602082019081526001600160801b0382850181815260608401828152865163fc6f786560e01b81529451600486015292516001600160a01b03908116602486015290518216604485015291511660648301528390829060849082906000907f0000000000000000000000000000000000000000000000000000000000000000165af192836000928395613199575b506131675750509050600090600090565b807f49d512bf9cb224241c05691e73eb9fab078cf350c7dbcbcf66788f1fc0cc8b0b9151838152856020820152a19190565b909450816131b49293503d8411610c0257610bf58183611f86565b9190919338613156565b600091508190565b91909160808060a0830194805184526001600160801b03602082015116602085015260408101516040850152606081015160608501520151910152565b600c54908115801561330b575b612f50576001600160801b0380911681600d5416808211613303575b5061012c42019283421161211057613286918391604092839283519261325184611f56565b83521695866020830152600083830152600060608301526080820152815180948192630624e65f60e11b8352600483016131c6565b038160007f00000000000000000000000000000000000000000000000000000000000000006001600160a01b03165af191826132e8575b50506132c7575050565b600d5491818316038181116121105716906001600160801b03191617600d55565b816132fe92903d10610c0257610bf58183611f86565b6132bd565b90503861322c565b506001600160801b03600d541615613210565b613326612439565b600a541161333057565b6040516370a0823160e01b81523060048201526020906001600160a01b037f0000000000000000000000000000000000000000000000000000000000000000818116908484602481855afa9384156124c157600094613446575b5083613397575050505050565b836133ca61340c9587957f0000000000000000000000000000000000000000000000000000000000000000168094612a4e565b60405163573ade8160e01b81526001600160a01b0390931660048401526024830152600260448301523060648301529092839190829060009082906084820190565b03925af161341d575b808080612ff9565b813d831161343f575b6134308183611f86565b81010312610f84573880613415565b503d613426565b90938582813d831161346e575b61345d8183611f86565b8101031261024e575051923861338a565b503d613453565b519061ffff82168203610f8457565b61271081511161356b57611f4060208201511161352e5767120a871cc00200006060820151106134fc5760c060a082015191015160020b9060020b12156134c757565b60405162461bcd60e51b815260206004820152600d60248201526c496e76616c6964207469636b7360981b6044820152606490fd5b60405162461bcd60e51b815260206004820152600a602482015269484620746f6f206c6f7760b01b6044820152606490fd5b60405162461bcd60e51b8152602060048201526015602482015274084dee4e4deee40e4c2e8d2de40e8dede40d0d2ced605b1b6044820152606490fd5b60405162461bcd60e51b8152602060048201526015602482015274496e76616c6964206c656e64696e6720726174696f60581b6044820152606490fdfea2646970667358221220f913f42649a270f17160f467ae63637e150f45f50a92e8791f164da5601c8f8b64736f6c63430008140033","opcodes":"PUSH2 0x160 PUSH1 0x40 SWAP1 DUP1 DUP3 MSTORE CALLVALUE PUSH3 0x40C JUMPI DUP1 PUSH3 0x3E09 DUP1 CODESIZE SUB DUP1 SWAP2 PUSH3 0x24 DUP3 DUP6 PUSH3 0x443 JUMP JUMPDEST DUP4 CODECOPY PUSH2 0x120 SWAP3 DUP4 SWAP2 DUP2 ADD SUB SLT PUSH3 0x40C JUMPI PUSH3 0x40 DUP2 PUSH3 0x467 JUMP JUMPDEST SWAP3 PUSH3 0x4F PUSH1 0x20 DUP4 ADD PUSH3 0x467 JUMP JUMPDEST PUSH3 0x5C DUP3 DUP5 ADD PUSH3 0x467 JUMP JUMPDEST PUSH3 0x6A PUSH1 0x60 DUP6 ADD PUSH3 0x467 JUMP JUMPDEST SWAP1 PUSH3 0x79 PUSH1 0x80 DUP7 ADD PUSH3 0x467 JUMP JUMPDEST PUSH3 0x87 PUSH1 0xA0 DUP8 ADD PUSH3 0x467 JUMP JUMPDEST SWAP6 PUSH3 0x96 PUSH1 0xC0 DUP3 ADD PUSH3 0x467 JUMP JUMPDEST SWAP5 PUSH3 0xB4 PUSH2 0x100 PUSH3 0xAC PUSH1 0xE0 DUP6 ADD PUSH3 0x467 JUMP JUMPDEST SWAP4 ADD PUSH3 0x467 JUMP JUMPDEST SWAP3 PUSH1 0x20 DUP9 MLOAD PUSH3 0xC4 DUP2 PUSH3 0x411 JUMP JUMPDEST PUSH1 0x1C DUP2 MSTORE ADD SWAP11 PUSH32 0x537461626C65204C50202B204C656E64696E6720537472617465677900000000 DUP13 MSTORE PUSH3 0xF8 CALLER PUSH3 0x47C JUMP JUMPDEST PUSH1 0x0 DUP1 SLOAD PUSH1 0xFF PUSH1 0xA0 SHL NOT AND DUP2 SSTORE PUSH1 0x1 DUP1 DUP1 SSTORE PUSH1 0x2 SLOAD SWAP2 SWAP8 SWAP2 DUP1 DUP3 SHR SWAP2 AND DUP1 ISZERO PUSH3 0x401 JUMPI JUMPDEST PUSH1 0x20 DUP3 LT EQ PUSH3 0x3ED JUMPI PUSH1 0x1F DUP2 GT PUSH3 0x3A2 JUMPI JUMPDEST POP SWAP12 MLOAD PUSH4 0xFFFFFFFF NOT AND PUSH1 0x38 OR PUSH1 0x2 SSTORE PUSH1 0x3 DUP1 SLOAD PUSH1 0x1 PUSH1 0x1 PUSH1 0xA0 SHL SUB NOT AND PUSH1 0x1 PUSH1 0x1 PUSH1 0xA0 SHL SUB SWAP3 DUP4 AND OR SWAP1 SSTORE SWAP2 DUP3 AND PUSH1 0x80 MSTORE TIMESTAMP PUSH1 0x6 SSTORE SWAP9 SWAP10 SWAP8 SWAP9 SWAP7 SWAP8 SWAP6 SWAP7 SWAP1 SWAP6 DUP7 SWAP4 DUP5 SWAP3 SWAP2 DUP4 SWAP2 PUSH3 0x183 SWAP1 PUSH3 0x47C JUMP JUMPDEST AND DUP12 MSTORE DUP2 DUP7 AND PUSH1 0xA0 MSTORE AND PUSH1 0xC0 MSTORE DUP2 DUP7 AND PUSH1 0xE0 MSTORE AND PUSH2 0x100 MSTORE DUP3 PUSH2 0x140 SWAP7 AND DUP7 MSTORE DUP5 MLOAD SWAP1 PUSH1 0xE0 DUP3 ADD SWAP1 DUP3 DUP3 LT PUSH1 0x1 DUP1 PUSH1 0x40 SHL SUB DUP4 GT OR PUSH3 0x38E JUMPI POP SWAP2 PUSH3 0x24A SWAP2 PUSH3 0x263 SWAP6 SWAP5 SWAP4 DUP8 MSTORE PUSH2 0xFA0 DUP1 DUP3 MSTORE PUSH2 0x1770 DUP1 PUSH1 0x20 DUP5 ADD MSTORE PUSH4 0x5F5E100 SWAP2 DUP3 DUP11 DUP6 ADD MSTORE PUSH1 0xA PUSH1 0xC0 PUSH8 0x1BC16D674EC80000 SWAP6 DUP7 PUSH1 0x60 DUP3 ADD MSTORE PUSH1 0x64 PUSH1 0x80 DUP3 ADD MSTORE PUSH1 0x9 NOT PUSH1 0xA0 DUP3 ADD MSTORE ADD MSTORE PUSH1 0x7 SSTORE PUSH1 0x8 SSTORE PUSH1 0x9 SSTORE PUSH1 0xA SSTORE PUSH7 0xAFFFFF6000064 PUSH1 0x1 DUP1 PUSH1 0x48 SHL SUB NOT PUSH1 0xB SLOAD AND OR PUSH1 0xB SSTORE PUSH3 0x240 DUP2 DUP5 PUSH1 0x80 MLOAD AND PUSH3 0x4C3 JUMP JUMPDEST DUP3 DUP9 MLOAD AND PUSH3 0x4C3 JUMP JUMPDEST PUSH3 0x25A DUP3 DUP3 PUSH1 0x80 MLOAD AND PUSH3 0x4C3 JUMP JUMPDEST DUP6 MLOAD AND PUSH3 0x4C3 JUMP JUMPDEST MLOAD SWAP1 PUSH2 0x35DE SWAP3 DUP4 PUSH3 0x82B DUP5 CODECOPY PUSH1 0x80 MLOAD DUP4 DUP2 DUP2 PUSH2 0x40B ADD MSTORE DUP2 DUP2 PUSH2 0x617 ADD MSTORE DUP2 DUP2 PUSH2 0x6D9 ADD MSTORE DUP2 DUP2 PUSH2 0xE5E ADD MSTORE DUP2 DUP2 PUSH2 0x165B ADD MSTORE DUP2 DUP2 PUSH2 0x1D91 ADD MSTORE DUP2 DUP2 PUSH2 0x26F8 ADD MSTORE PUSH2 0x2B8E ADD MSTORE PUSH1 0xA0 MLOAD DUP4 DUP2 DUP2 PUSH2 0x7B4 ADD MSTORE DUP2 DUP2 PUSH2 0x8ED ADD MSTORE DUP2 DUP2 PUSH2 0xEAC ADD MSTORE DUP2 DUP2 PUSH2 0x1017 ADD MSTORE DUP2 DUP2 PUSH2 0x186B ADD MSTORE DUP2 DUP2 PUSH2 0x196B ADD MSTORE DUP2 DUP2 PUSH2 0x2454 ADD MSTORE DUP2 DUP2 PUSH2 0x2801 ADD MSTORE PUSH2 0x33A3 ADD MSTORE PUSH1 0xC0 MLOAD DUP4 DUP2 DUP2 PUSH2 0x439 ADD MSTORE PUSH2 0x865 ADD MSTORE PUSH1 0xE0 MLOAD DUP4 DUP2 DUP2 PUSH2 0xB04 ADD MSTORE DUP2 DUP2 PUSH2 0xCE6 ADD MSTORE DUP2 DUP2 PUSH2 0x10E6 ADD MSTORE DUP2 DUP2 PUSH2 0x2596 ADD MSTORE DUP2 DUP2 PUSH2 0x2DA8 ADD MSTORE DUP2 DUP2 PUSH2 0x2F1F ADD MSTORE DUP2 DUP2 PUSH2 0x3128 ADD MSTORE PUSH2 0x328C ADD MSTORE PUSH2 0x100 MLOAD DUP4 DUP2 DUP2 PUSH2 0xA2F ADD MSTORE PUSH2 0x15D0 ADD MSTORE MLOAD DUP3 DUP2 DUP2 PUSH2 0x490 ADD MSTORE DUP2 DUP2 PUSH2 0x65B ADD MSTORE DUP2 DUP2 PUSH2 0xE09 ADD MSTORE DUP2 DUP2 PUSH2 0x1814 ADD MSTORE DUP2 DUP2 PUSH2 0x1DBB ADD MSTORE DUP2 DUP2 PUSH2 0x287F ADD MSTORE DUP2 DUP2 PUSH2 0x2BDC ADD MSTORE PUSH2 0x3350 ADD MSTORE MLOAD DUP2 DUP2 DUP2 PUSH2 0x8A9 ADD MSTORE PUSH2 0x2528 ADD MSTORE RETURN JUMPDEST PUSH4 0x4E487B71 PUSH1 0xE0 SHL DUP2 MSTORE PUSH1 0x41 PUSH1 0x4 MSTORE PUSH1 0x24 SWAP1 REVERT JUMPDEST PUSH1 0x2 DUP9 MSTORE PUSH32 0x405787FA12A823E0F2B7631CC41B3BA8828B3321CA811111FA75CD3AA3BB5ACE DUP1 JUMPDEST PUSH1 0x1F DUP4 ADD PUSH1 0x5 SHR DUP3 ADD DUP2 LT PUSH3 0x3E1 JUMPI POP POP PUSH3 0x131 JUMP JUMPDEST DUP10 DUP2 SSTORE PUSH1 0x1 ADD PUSH3 0x3C9 JUMP JUMPDEST PUSH4 0x4E487B71 PUSH1 0xE0 SHL DUP9 MSTORE PUSH1 0x22 PUSH1 0x4 MSTORE PUSH1 0x24 DUP9 REVERT JUMPDEST SWAP1 PUSH1 0x7F AND SWAP1 PUSH3 0x11D JUMP JUMPDEST PUSH1 0x0 DUP1 REVERT JUMPDEST PUSH1 0x40 DUP2 ADD SWAP1 DUP2 LT PUSH1 0x1 PUSH1 0x1 PUSH1 0x40 SHL SUB DUP3 GT OR PUSH3 0x42D JUMPI PUSH1 0x40 MSTORE JUMP JUMPDEST PUSH4 0x4E487B71 PUSH1 0xE0 SHL PUSH1 0x0 MSTORE PUSH1 0x41 PUSH1 0x4 MSTORE PUSH1 0x24 PUSH1 0x0 REVERT JUMPDEST PUSH1 0x1F SWAP1 SWAP2 ADD PUSH1 0x1F NOT AND DUP2 ADD SWAP1 PUSH1 0x1 PUSH1 0x1 PUSH1 0x40 SHL SUB DUP3 GT SWAP1 DUP3 LT OR PUSH3 0x42D JUMPI PUSH1 0x40 MSTORE JUMP JUMPDEST MLOAD SWAP1 PUSH1 0x1 PUSH1 0x1 PUSH1 0xA0 SHL SUB DUP3 AND DUP3 SUB PUSH3 0x40C JUMPI JUMP JUMPDEST PUSH1 0x0 DUP1 SLOAD PUSH1 0x1 PUSH1 0x1 PUSH1 0xA0 SHL SUB SWAP3 DUP4 AND PUSH1 0x1 PUSH1 0x1 PUSH1 0xA0 SHL SUB NOT DUP3 AND DUP2 OR DUP4 SSTORE SWAP3 AND SWAP1 PUSH32 0x8BE0079C531659141344CD1FD0A4F28419497F9722A3DAAFE3B4186F6B6457E0 SWAP1 DUP1 LOG3 JUMP JUMPDEST PUSH1 0x40 DUP1 MLOAD PUSH4 0x6EB1769F PUSH1 0xE1 SHL DUP2 MSTORE ADDRESS PUSH1 0x4 DUP3 ADD MSTORE PUSH1 0x1 PUSH1 0x1 PUSH1 0xA0 SHL SUB SWAP4 DUP5 AND PUSH1 0x24 DUP1 DUP4 ADD DUP3 SWAP1 MSTORE PUSH1 0x20 SWAP6 SWAP1 SWAP5 SWAP2 SWAP3 SWAP2 AND SWAP1 DUP6 DUP2 PUSH1 0x44 DUP2 DUP6 GAS STATICCALL SWAP1 DUP2 ISZERO PUSH3 0x745 JUMPI PUSH1 0x0 SWAP2 PUSH3 0x70F JUMPI JUMPDEST POP PUSH3 0x6A6 JUMPI DUP3 MLOAD PUSH4 0x95EA7B3 PUSH1 0xE0 SHL DUP7 DUP3 ADD SWAP1 DUP2 MSTORE DUP6 DUP3 ADD SWAP4 SWAP1 SWAP4 MSTORE PUSH1 0x0 NOT PUSH1 0x44 DUP1 DUP4 ADD SWAP2 SWAP1 SWAP2 MSTORE DUP2 MSTORE PUSH1 0x80 DUP2 ADD SWAP3 PUSH1 0x1 PUSH1 0x1 PUSH1 0x40 SHL SUB SWAP3 SWAP2 DUP4 DUP6 GT DUP2 DUP7 LT OR PUSH3 0x691 JUMPI PUSH1 0x0 SWAP2 DUP3 SWAP2 DUP7 DUP9 MSTORE PUSH3 0x566 DUP8 PUSH3 0x411 JUMP JUMPDEST DUP10 DUP8 MSTORE PUSH32 0x5361666545524332303A206C6F772D6C6576656C2063616C6C206661696C6564 PUSH1 0xA0 DUP3 ADD MSTORE MLOAD SWAP1 DUP3 DUP6 GAS CALL SWAP1 RETURNDATASIZE ISZERO PUSH3 0x680 JUMPI RETURNDATASIZE SWAP3 DUP4 GT PUSH3 0x66B JUMPI SWAP1 PUSH3 0x5D5 SWAP4 SWAP3 SWAP2 DUP6 MLOAD SWAP3 PUSH3 0x5C6 DUP10 PUSH1 0x1F NOT PUSH1 0x1F DUP5 ADD AND ADD DUP6 PUSH3 0x443 JUMP JUMPDEST DUP4 MSTORE RETURNDATASIZE PUSH1 0x0 DUP10 DUP6 ADD RETURNDATACOPY PUSH3 0x750 JUMP JUMPDEST DUP1 MLOAD DUP5 DUP2 ISZERO SWAP2 DUP3 ISZERO PUSH3 0x648 JUMPI JUMPDEST POP POP SWAP1 POP ISZERO PUSH3 0x5F2 JUMPI POP POP POP JUMP JUMPDEST MLOAD PUSH3 0x461BCD PUSH1 0xE5 SHL DUP2 MSTORE PUSH1 0x4 DUP2 ADD SWAP3 SWAP1 SWAP3 MSTORE PUSH1 0x2A SWAP1 DUP3 ADD MSTORE PUSH32 0x5361666545524332303A204552433230206F7065726174696F6E20646964206E PUSH1 0x44 DUP3 ADD MSTORE PUSH10 0x1BDD081CDD58D8D95959 PUSH1 0xB2 SHL PUSH1 0x64 DUP3 ADD MSTORE PUSH1 0x84 SWAP1 REVERT JUMPDEST DUP4 DUP1 SWAP3 SWAP4 POP ADD SUB SLT PUSH3 0x40C JUMPI DUP4 ADD MLOAD DUP1 ISZERO ISZERO DUP2 SUB PUSH3 0x40C JUMPI DUP1 DUP5 CODESIZE PUSH3 0x5E3 JUMP JUMPDEST DUP6 PUSH4 0x4E487B71 PUSH1 0xE0 SHL PUSH1 0x0 MSTORE PUSH1 0x41 PUSH1 0x4 MSTORE PUSH1 0x0 REVERT JUMPDEST SWAP1 PUSH3 0x5D5 SWAP4 SWAP3 POP PUSH1 0x60 SWAP2 PUSH3 0x750 JUMP JUMPDEST DUP7 PUSH4 0x4E487B71 PUSH1 0xE0 SHL PUSH1 0x0 MSTORE PUSH1 0x41 PUSH1 0x4 MSTORE PUSH1 0x0 REVERT JUMPDEST DUP3 MLOAD PUSH3 0x461BCD PUSH1 0xE5 SHL DUP2 MSTORE PUSH1 0x4 DUP2 ADD DUP7 SWAP1 MSTORE PUSH1 0x36 DUP2 DUP7 ADD MSTORE PUSH32 0x5361666545524332303A20617070726F76652066726F6D206E6F6E2D7A65726F PUSH1 0x44 DUP3 ADD MSTORE PUSH32 0x20746F206E6F6E2D7A65726F20616C6C6F77616E636500000000000000000000 PUSH1 0x64 DUP3 ADD MSTORE PUSH1 0x84 SWAP1 REVERT JUMPDEST SWAP1 DUP7 DUP3 DUP2 RETURNDATASIZE DUP4 GT PUSH3 0x73D JUMPI JUMPDEST PUSH3 0x728 DUP2 DUP4 PUSH3 0x443 JUMP JUMPDEST DUP2 ADD SUB SLT PUSH3 0x73A JUMPI POP MLOAD CODESIZE PUSH3 0x50D JUMP JUMPDEST DUP1 REVERT JUMPDEST POP RETURNDATASIZE PUSH3 0x71C JUMP JUMPDEST DUP5 MLOAD RETURNDATASIZE PUSH1 0x0 DUP3 RETURNDATACOPY RETURNDATASIZE SWAP1 REVERT JUMPDEST SWAP2 SWAP3 SWAP1 ISZERO PUSH3 0x7B5 JUMPI POP DUP2 MLOAD ISZERO PUSH3 0x766 JUMPI POP SWAP1 JUMP JUMPDEST EXTCODESIZE ISZERO PUSH3 0x770 JUMPI SWAP1 JUMP JUMPDEST PUSH1 0x40 MLOAD PUSH3 0x461BCD PUSH1 0xE5 SHL DUP2 MSTORE PUSH1 0x20 PUSH1 0x4 DUP3 ADD MSTORE PUSH1 0x1D PUSH1 0x24 DUP3 ADD MSTORE PUSH32 0x416464726573733A2063616C6C20746F206E6F6E2D636F6E7472616374000000 PUSH1 0x44 DUP3 ADD MSTORE PUSH1 0x64 SWAP1 REVERT JUMPDEST DUP3 MLOAD SWAP1 SWAP2 POP ISZERO PUSH3 0x7C9 JUMPI POP DUP1 MLOAD SWAP1 PUSH1 0x20 ADD REVERT JUMPDEST PUSH1 0x40 MLOAD SWAP1 PUSH3 0x461BCD PUSH1 0xE5 SHL DUP3 MSTORE DUP2 PUSH1 0x20 DUP1 PUSH1 0x4 DUP4 ADD MSTORE DUP3 MLOAD SWAP1 DUP2 PUSH1 0x24 DUP5 ADD MSTORE PUSH1 0x0 SWAP4 JUMPDEST DUP3 DUP6 LT PUSH3 0x810 JUMPI POP POP PUSH1 0x44 SWAP3 POP PUSH1 0x0 DUP4 DUP3 DUP5 ADD ADD MSTORE PUSH1 0x1F DUP1 NOT SWAP2 ADD AND DUP2 ADD SUB ADD SWAP1 REVERT JUMPDEST DUP5 DUP2 ADD DUP3 ADD MLOAD DUP7 DUP7 ADD PUSH1 0x44 ADD MSTORE SWAP4 DUP2 ADD SWAP4 DUP6 SWAP4 POP PUSH3 0x7EC JUMP INVALID PUSH1 0x80 PUSH1 0x40 DUP2 DUP2 MSTORE PUSH1 0x4 SWAP2 DUP3 CALLDATASIZE LT ISZERO PUSH2 0x16 JUMPI PUSH1 0x0 DUP1 REVERT JUMPDEST PUSH1 0x0 SWAP1 PUSH1 0xE0 SWAP4 DUP3 CALLDATALOAD DUP6 SHR SWAP2 DUP3 PUSH3 0x258D6B EQ PUSH2 0x1EC7 JUMPI POP DUP2 PUSH4 0x1681A62 EQ PUSH2 0x1D5D JUMPI DUP2 PUSH4 0x1E1D114 EQ PUSH2 0x5C1 JUMPI DUP2 PUSH4 0x242D712 EQ PUSH2 0x1D3E JUMPI DUP2 PUSH4 0x6FDDE03 EQ PUSH2 0x1C3B JUMPI DUP2 PUSH4 0x11588086 EQ PUSH2 0x1C1E JUMPI DUP2 PUSH4 0x150B7A02 EQ PUSH2 0x1BBE JUMPI DUP2 PUSH4 0x1F1FCD51 EQ PUSH2 0x602 JUMPI DUP2 PUSH4 0x22841F01 EQ PUSH2 0x1B9A JUMPI DUP2 PUSH4 0x22C4E314 EQ PUSH2 0x1B7E JUMPI DUP2 PUSH4 0x22F3E2D4 EQ PUSH2 0x1B5A JUMPI DUP2 PUSH4 0x2E1A7D4D EQ PUSH2 0x15FF JUMPI DUP2 PUSH4 0x3737BCB4 EQ PUSH2 0x15BB JUMPI DUP2 PUSH4 0x3AC0BA05 EQ PUSH2 0x14EE JUMPI DUP2 PUSH4 0x3F4BA83A EQ PUSH2 0x1453 JUMPI DUP2 PUSH4 0x4641257D EQ PUSH2 0x138C JUMPI DUP2 PUSH4 0x46CAF2AE EQ PUSH2 0x1364 JUMPI DUP2 PUSH4 0x5C975ABB EQ PUSH2 0x133F JUMPI DUP2 PUSH4 0x5F77B5A1 EQ PUSH2 0x1237 JUMPI DUP2 PUSH4 0x6817031B EQ PUSH2 0x11F7 JUMPI DUP2 PUSH4 0x6FF1C9BC EQ PUSH2 0xD6F JUMPI DUP2 PUSH4 0x715018A6 EQ PUSH2 0xD15 JUMPI DUP2 PUSH4 0x791B98BC EQ PUSH2 0xCD1 JUMPI DUP2 PUSH4 0x7D7C2A1C EQ PUSH2 0x9E4 JUMPI DUP2 PUSH4 0x8456CB59 EQ PUSH2 0x985 JUMPI DUP2 PUSH4 0x8DA5CB5B EQ PUSH2 0x95D JUMPI DUP2 PUSH4 0x92EEFE9B EQ PUSH2 0x91C JUMPI DUP2 PUSH4 0xA03E4BC3 EQ PUSH2 0x8D8 JUMPI DUP2 PUSH4 0xA0C1F15E EQ PUSH2 0x894 JUMPI DUP2 PUSH4 0xB334ED86 EQ PUSH2 0x850 JUMPI DUP2 PUSH4 0xB6B55F25 EQ PUSH2 0x68A JUMPI DUP2 PUSH4 0xD21220A7 EQ PUSH2 0x646 JUMPI DUP2 PUSH4 0xD23E0480 EQ PUSH2 0x602 JUMPI DUP2 PUSH4 0xD32867D0 EQ PUSH2 0x5E5 JUMPI DUP2 PUSH4 0xE0115D0D EQ PUSH2 0x5C6 JUMPI DUP2 PUSH4 0xEFBB5CB0 EQ PUSH2 0x5C1 JUMPI DUP2 PUSH4 0xF19993D7 EQ PUSH2 0x3E2 JUMPI DUP2 PUSH4 0xF2FDE38B EQ PUSH2 0x315 JUMPI POP DUP1 PUSH4 0xF69E2046 EQ PUSH2 0x29D JUMPI DUP1 PUSH4 0xFBFA77CF EQ PUSH2 0x274 JUMPI DUP1 PUSH4 0xFC7B9C18 EQ PUSH2 0x251 JUMPI PUSH4 0xFEFB36CE EQ PUSH2 0x1F4 JUMPI PUSH1 0x0 DUP1 REVERT JUMPDEST CALLVALUE PUSH2 0x24E JUMPI DUP1 PUSH1 0x3 NOT CALLDATASIZE ADD SLT PUSH2 0x24E JUMPI POP PUSH1 0x7 SLOAD SWAP1 PUSH1 0x8 SLOAD SWAP1 PUSH1 0x9 SLOAD PUSH1 0xA SLOAD SWAP2 PUSH1 0xB SLOAD SWAP4 DUP2 MLOAD SWAP6 DUP7 MSTORE PUSH1 0x20 DUP7 ADD MSTORE DUP5 ADD MSTORE PUSH1 0x60 DUP4 ADD MSTORE PUSH3 0xFFFFFF DUP2 AND PUSH1 0x80 DUP4 ADD MSTORE DUP1 PUSH1 0x18 SHR PUSH1 0x2 SIGNEXTEND PUSH1 0xA0 DUP4 ADD MSTORE PUSH1 0x30 SHR PUSH1 0x2 SIGNEXTEND PUSH1 0xC0 DUP3 ADD MSTORE RETURN JUMPDEST DUP1 REVERT JUMPDEST POP SWAP1 CALLVALUE PUSH2 0x270 JUMPI DUP2 PUSH1 0x3 NOT CALLDATASIZE ADD SLT PUSH2 0x270 JUMPI PUSH1 0x20 SWAP1 PUSH1 0x5 SLOAD SWAP1 MLOAD SWAP1 DUP2 MSTORE RETURN JUMPDEST POP DUP1 REVERT JUMPDEST POP SWAP1 CALLVALUE PUSH2 0x270 JUMPI DUP2 PUSH1 0x3 NOT CALLDATASIZE ADD SLT PUSH2 0x270 JUMPI PUSH1 0x3 SLOAD SWAP1 MLOAD PUSH1 0x1 PUSH1 0x1 PUSH1 0xA0 SHL SUB SWAP1 SWAP2 AND DUP2 MSTORE PUSH1 0x20 SWAP1 RETURN JUMPDEST POP SWAP1 CALLVALUE PUSH2 0x270 JUMPI DUP2 PUSH1 0x3 NOT CALLDATASIZE ADD SLT PUSH2 0x270 JUMPI PUSH2 0x2B7 PUSH2 0x236B JUMP JUMPDEST PUSH2 0x2C8 PUSH2 0x2C2 PUSH2 0x309C JUMP JUMPDEST SWAP1 PUSH2 0x2103 JUMP JUMPDEST SWAP1 PUSH1 0x9 SLOAD DUP3 LT ISZERO PUSH2 0x2DC JUMPI JUMPDEST DUP3 PUSH1 0x1 DUP1 SSTORE DUP1 RETURN JUMPDEST PUSH32 0x9C105C5516038A31B52025C35BD815A6323FBE2D5860E917939E758AA6B55D7B SWAP2 PUSH1 0x20 SWAP2 PUSH2 0x309 PUSH2 0x2B76 JUMP JUMPDEST MLOAD SWAP1 DUP2 MSTORE LOG1 DUP2 DUP1 PUSH2 0x2D4 JUMP JUMPDEST DUP4 SWAP2 POP CALLVALUE PUSH2 0x3DE JUMPI PUSH1 0x20 CALLDATASIZE PUSH1 0x3 NOT ADD SLT PUSH2 0x3DE JUMPI PUSH2 0x331 PUSH2 0x1EEB JUMP JUMPDEST SWAP1 PUSH2 0x33A PUSH2 0x202D JUMP JUMPDEST PUSH1 0x1 PUSH1 0x1 PUSH1 0xA0 SHL SUB SWAP2 DUP3 AND SWAP3 DUP4 ISZERO PUSH2 0x38C JUMPI POP POP PUSH1 0x0 SLOAD DUP3 PUSH1 0x1 PUSH1 0x1 PUSH1 0x60 SHL SUB PUSH1 0xA0 SHL DUP3 AND OR PUSH1 0x0 SSTORE AND PUSH32 0x8BE0079C531659141344CD1FD0A4F28419497F9722A3DAAFE3B4186F6B6457E0 PUSH1 0x0 DUP1 LOG3 DUP1 RETURN JUMPDEST SWAP1 PUSH1 0x20 PUSH1 0x84 SWAP3 MLOAD SWAP2 PUSH3 0x461BCD PUSH1 0xE5 SHL DUP4 MSTORE DUP3 ADD MSTORE PUSH1 0x26 PUSH1 0x24 DUP3 ADD MSTORE PUSH32 0x4F776E61626C653A206E6577206F776E657220697320746865207A65726F2061 PUSH1 0x44 DUP3 ADD MSTORE PUSH6 0x646472657373 PUSH1 0xD0 SHL PUSH1 0x64 DUP3 ADD MSTORE REVERT JUMPDEST DUP3 DUP1 REVERT JUMPDEST DUP4 DUP4 CALLVALUE PUSH2 0x24E JUMPI DUP1 PUSH1 0x3 NOT CALLDATASIZE ADD SLT PUSH2 0x24E JUMPI DUP2 MLOAD PUSH4 0x35EA6A75 PUSH1 0xE0 SHL DUP1 DUP3 MSTORE PUSH1 0x1 PUSH1 0x1 PUSH1 0xA0 SHL SUB PUSH32 0x0 DUP2 AND DUP7 DUP5 ADD MSTORE SWAP1 SWAP2 SWAP1 PUSH2 0x140 SWAP1 PUSH32 0x0 DUP2 AND SWAP1 DUP3 DUP5 PUSH1 0x24 DUP2 DUP6 GAS STATICCALL SWAP4 DUP5 ISZERO PUSH2 0x5B7 JUMPI DUP7 SWAP5 PUSH2 0x58C JUMPI JUMPDEST POP DUP3 SWAP1 PUSH1 0x24 PUSH10 0x152D02C7E14AF6800000 DUP1 SWAP7 DIV SWAP7 DUP10 MLOAD SWAP5 DUP6 SWAP4 DUP5 SWAP3 DUP4 MSTORE PUSH32 0x0 AND DUP13 DUP4 ADD MSTORE GAS STATICCALL SWAP2 DUP3 ISZERO PUSH2 0x582 JUMPI DUP6 SWAP3 PUSH2 0x54B JUMPI JUMPDEST POP POP DIV DUP1 DUP3 GT ISZERO PUSH2 0x543 JUMPI PUSH2 0x4D8 SWAP2 PUSH2 0x235E JUMP JUMPDEST PUSH2 0x4E5 PUSH1 0x7 SLOAD SWAP2 DUP3 PUSH2 0x27C7 JUMP JUMPDEST PUSH2 0x2710 SWAP3 DUP3 DUP5 SUB SWAP3 DUP5 DUP5 GT PUSH2 0x530 JUMPI PUSH2 0x320 DUP1 DUP6 MUL SWAP5 DUP6 DIV EQ SWAP1 DUP6 EQ OR ISZERO PUSH2 0x51D JUMPI PUSH1 0x20 DUP6 DUP6 PUSH2 0x515 DUP7 DUP7 PUSH2 0x2103 JUMP JUMPDEST DIV SWAP1 MLOAD SWAP1 DUP2 MSTORE RETURN JUMPDEST PUSH4 0x4E487B71 PUSH1 0xE0 SHL DUP2 MSTORE PUSH1 0x11 DUP7 MSTORE PUSH1 0x24 SWAP1 REVERT JUMPDEST PUSH4 0x4E487B71 PUSH1 0xE0 SHL DUP3 MSTORE PUSH1 0x11 DUP8 MSTORE PUSH1 0x24 DUP3 REVERT JUMPDEST POP POP DUP1 PUSH2 0x4D8 JUMP JUMPDEST PUSH2 0x56A SWAP3 POP DUP1 RETURNDATASIZE LT PUSH2 0x57B JUMPI JUMPDEST PUSH2 0x562 DUP2 DUP4 PUSH2 0x1F86 JUMP JUMPDEST DUP2 ADD SWAP1 PUSH2 0x2770 JUMP JUMPDEST POP POP POP POP SWAP5 POP POP POP POP POP DUP7 DUP1 PUSH2 0x4C4 JUMP JUMPDEST POP RETURNDATASIZE PUSH2 0x558 JUMP JUMPDEST DUP7 MLOAD RETURNDATASIZE DUP8 DUP3 RETURNDATACOPY RETURNDATASIZE SWAP1 REVERT JUMPDEST DUP4 SWAP2 SWAP5 POP PUSH2 0x5A6 SWAP1 DUP3 RETURNDATASIZE DUP5 GT PUSH2 0x57B JUMPI PUSH2 0x562 DUP2 DUP4 PUSH2 0x1F86 JUMP JUMPDEST POP POP POP POP POP SWAP4 POP POP POP POP SWAP4 SWAP1 PUSH2 0x471 JUMP JUMPDEST DUP8 MLOAD RETURNDATASIZE DUP9 DUP3 RETURNDATACOPY RETURNDATASIZE SWAP1 REVERT JUMPDEST PUSH2 0x1F01 JUMP JUMPDEST DUP3 DUP5 CALLVALUE PUSH2 0x270 JUMPI DUP2 PUSH1 0x3 NOT CALLDATASIZE ADD SLT PUSH2 0x270 JUMPI PUSH1 0x20 SWAP1 PUSH1 0x6 SLOAD SWAP1 MLOAD SWAP1 DUP2 MSTORE RETURN JUMPDEST DUP3 DUP5 CALLVALUE PUSH2 0x270 JUMPI DUP2 PUSH1 0x3 NOT CALLDATASIZE ADD SLT PUSH2 0x270 JUMPI PUSH1 0x20 SWAP1 MLOAD PUSH2 0x2710 DUP2 MSTORE RETURN JUMPDEST DUP3 DUP5 CALLVALUE PUSH2 0x270 JUMPI DUP2 PUSH1 0x3 NOT CALLDATASIZE ADD SLT PUSH2 0x270 JUMPI MLOAD PUSH32 0x0 PUSH1 0x1 PUSH1 0x1 PUSH1 0xA0 SHL SUB AND DUP2 MSTORE PUSH1 0x20 SWAP1 RETURN JUMPDEST DUP3 DUP5 CALLVALUE PUSH2 0x270 JUMPI DUP2 PUSH1 0x3 NOT CALLDATASIZE ADD SLT PUSH2 0x270 JUMPI MLOAD PUSH32 0x0 PUSH1 0x1 PUSH1 0x1 PUSH1 0xA0 SHL SUB AND DUP2 MSTORE PUSH1 0x20 SWAP1 RETURN JUMPDEST SWAP1 POP DUP3 CALLVALUE PUSH2 0x3DE JUMPI PUSH1 0x20 CALLDATASIZE PUSH1 0x3 NOT ADD SLT PUSH2 0x3DE JUMPI PUSH1 0x3 SLOAD DUP3 CALLDATALOAD SWAP3 PUSH1 0x1 PUSH1 0x1 PUSH1 0xA0 SHL SUB SWAP2 DUP6 SWAP2 SWAP1 DUP4 AND CALLER EQ DUP1 ISZERO PUSH2 0x844 JUMPI JUMPDEST PUSH2 0x6C4 SWAP1 PUSH2 0x2085 JUMP JUMPDEST PUSH2 0x6CC PUSH2 0x2126 JUMP JUMPDEST PUSH2 0x6D7 DUP6 ISZERO ISZERO PUSH2 0x20C9 JUMP JUMPDEST PUSH32 0x0 SWAP3 PUSH2 0x730 DUP6 MLOAD PUSH4 0x23B872DD PUSH1 0xE0 SHL PUSH1 0x20 DUP3 ADD MSTORE CALLER PUSH1 0x24 DUP3 ADD MSTORE ADDRESS PUSH1 0x44 DUP3 ADD MSTORE DUP8 PUSH1 0x64 DUP3 ADD MSTORE PUSH1 0x64 DUP2 MSTORE PUSH2 0x72A DUP2 PUSH2 0x1F56 JUMP JUMPDEST DUP6 PUSH2 0x217A JUMP JUMPDEST PUSH2 0x73C DUP7 PUSH1 0x5 SLOAD PUSH2 0x2103 JUMP JUMPDEST PUSH1 0x5 SSTORE PUSH2 0x2710 PUSH2 0x74E PUSH1 0x7 SLOAD DUP9 PUSH2 0x27C7 JUMP JUMPDEST DIV SWAP1 PUSH2 0x75A DUP3 DUP9 PUSH2 0x235E JUMP JUMPDEST POP DUP2 ISZERO ISZERO SWAP5 DUP6 PUSH2 0x7B1 JUMPI JUMPDEST POP POP POP POP POP PUSH2 0x7A4 JUMPI JUMPDEST PUSH2 0x777 PUSH2 0x2B76 JUMP JUMPDEST MLOAD SWAP1 DUP2 MSTORE PUSH32 0x2DA466A7B24304F47E87FA2E1E5A81B9831CE54FEC19055CE277CA2F39BA42C4 PUSH1 0x20 CALLER SWAP3 LOG2 DUP1 RETURN JUMPDEST PUSH2 0x7AC PUSH2 0x27DA JUMP JUMPDEST PUSH2 0x76F JUMP JUMPDEST DUP2 PUSH32 0x0 AND SWAP1 DUP2 EXTCODESIZE ISZERO PUSH2 0x840 JUMPI DUP6 PUSH1 0x84 SWAP3 DUP2 SWAP6 DUP11 MLOAD SWAP8 DUP9 SWAP7 DUP8 SWAP6 PUSH4 0x617BA037 PUSH1 0xE0 SHL DUP8 MSTORE AND SWAP1 DUP6 ADD MSTORE PUSH1 0x24 DUP5 ADD MSTORE ADDRESS PUSH1 0x44 DUP5 ADD MSTORE DUP2 PUSH1 0x64 DUP5 ADD MSTORE GAS CALL DUP1 ISZERO PUSH2 0x836 JUMPI PUSH2 0x81E JUMPI JUMPDEST DUP1 DUP1 DUP1 PUSH2 0x765 JUMP JUMPDEST PUSH2 0x827 SWAP1 PUSH2 0x1F72 JUMP JUMPDEST PUSH2 0x832 JUMPI DUP4 DUP6 PUSH2 0x816 JUMP JUMPDEST DUP4 DUP1 REVERT JUMPDEST DUP5 MLOAD RETURNDATASIZE DUP5 DUP3 RETURNDATACOPY RETURNDATASIZE SWAP1 REVERT JUMPDEST DUP6 DUP1 REVERT JUMPDEST POP DUP1 SLOAD DUP4 AND CALLER EQ PUSH2 0x6BB JUMP JUMPDEST DUP3 DUP5 CALLVALUE PUSH2 0x270 JUMPI DUP2 PUSH1 0x3 NOT CALLDATASIZE ADD SLT PUSH2 0x270 JUMPI MLOAD PUSH32 0x0 PUSH1 0x1 PUSH1 0x1 PUSH1 0xA0 SHL SUB AND DUP2 MSTORE PUSH1 0x20 SWAP1 RETURN JUMPDEST DUP3 DUP5 CALLVALUE PUSH2 0x270 JUMPI DUP2 PUSH1 0x3 NOT CALLDATASIZE ADD SLT PUSH2 0x270 JUMPI MLOAD PUSH32 0x0 PUSH1 0x1 PUSH1 0x1 PUSH1 0xA0 SHL SUB AND DUP2 MSTORE PUSH1 0x20 SWAP1 RETURN JUMPDEST DUP3 DUP5 CALLVALUE PUSH2 0x270 JUMPI DUP2 PUSH1 0x3 NOT CALLDATASIZE ADD SLT PUSH2 0x270 JUMPI MLOAD PUSH32 0x0 PUSH1 0x1 PUSH1 0x1 PUSH1 0xA0 SHL SUB AND DUP2 MSTORE PUSH1 0x20 SWAP1 RETURN JUMPDEST SWAP1 POP CALLVALUE PUSH2 0x270 JUMPI PUSH1 0x20 CALLDATASIZE PUSH1 0x3 NOT ADD SLT PUSH2 0x270 JUMPI PUSH2 0x937 PUSH2 0x1EEB JUMP JUMPDEST PUSH2 0x93F PUSH2 0x202D JUMP JUMPDEST DUP2 SLOAD PUSH1 0x1 PUSH1 0x1 PUSH1 0xA0 SHL SUB NOT AND PUSH1 0x1 PUSH1 0x1 PUSH1 0xA0 SHL SUB SWAP2 SWAP1 SWAP2 AND OR SWAP1 SSTORE DUP1 RETURN JUMPDEST DUP3 DUP5 CALLVALUE PUSH2 0x270 JUMPI DUP2 PUSH1 0x3 NOT CALLDATASIZE ADD SLT PUSH2 0x270 JUMPI SWAP1 SLOAD SWAP1 MLOAD PUSH1 0x1 PUSH1 0x1 PUSH1 0xA0 SHL SUB SWAP1 SWAP2 AND DUP2 MSTORE PUSH1 0x20 SWAP1 RETURN JUMPDEST DUP3 DUP5 CALLVALUE PUSH2 0x270 JUMPI DUP2 PUSH1 0x3 NOT CALLDATASIZE ADD SLT PUSH2 0x270 JUMPI PUSH1 0x20 PUSH32 0x62E78CEA01BEE320CD4E420270B5EA74000D11B0C9F74754EBDBFC544B05A258 SWAP2 PUSH2 0x9C3 PUSH2 0x202D JUMP JUMPDEST PUSH2 0x9CB PUSH2 0x2126 JUMP JUMPDEST DUP4 SLOAD PUSH1 0xFF PUSH1 0xA0 SHL NOT AND PUSH1 0x1 PUSH1 0xA0 SHL OR DUP5 SSTORE MLOAD CALLER DUP2 MSTORE LOG1 DUP1 RETURN JUMPDEST SWAP1 POP DUP4 DUP4 CALLVALUE PUSH2 0x832 JUMPI DUP4 PUSH1 0x3 NOT CALLDATASIZE ADD SLT PUSH2 0x832 JUMPI PUSH2 0xA00 PUSH2 0x2439 JUMP JUMPDEST PUSH1 0xA SLOAD GT PUSH2 0xCC4 JUMPI JUMPDEST PUSH1 0xC SLOAD PUSH2 0xA14 JUMPI DUP4 DUP1 RETURN JUMPDEST DUP1 MLOAD PUSH4 0x3850C7BD PUSH1 0xE0 SHL DUP2 MSTORE PUSH1 0x1 PUSH1 0x1 PUSH1 0xA0 SHL SUB SWAP1 DUP4 DUP2 DUP7 DUP2 PUSH32 0x0 DUP7 AND GAS STATICCALL SWAP4 DUP5 ISZERO PUSH2 0xCBA JUMPI DUP7 SWAP5 PUSH2 0xC2C JUMPI JUMPDEST POP POP PUSH1 0xB SLOAD SWAP3 PUSH1 0x2 SIGNEXTEND SWAP3 DUP1 PUSH1 0x18 SHR PUSH1 0x2 SIGNEXTEND DUP5 SLT SWAP1 DUP2 ISZERO PUSH2 0xC1C JUMPI JUMPDEST POP PUSH2 0xA85 JUMPI POP DUP4 DUP1 RETURN JUMPDEST PUSH2 0xA8D PUSH2 0x309C JUMP JUMPDEST POP POP PUSH1 0x1 PUSH1 0x1 PUSH1 0x80 SHL SUB PUSH1 0xD SLOAD AND DUP1 PUSH2 0xAA7 JUMPI JUMPDEST POP POP DUP4 DUP1 RETURN JUMPDEST PUSH1 0xC SLOAD SWAP1 PUSH2 0x12C TIMESTAMP ADD SWAP1 DUP2 TIMESTAMP GT PUSH2 0xC09 JUMPI SWAP3 DUP5 SWAP4 SWAP3 PUSH2 0xB00 SWAP3 DUP6 SWAP5 DUP11 SWAP8 MLOAD SWAP3 PUSH2 0xACF DUP5 PUSH2 0x1F56 JUMP JUMPDEST DUP4 MSTORE PUSH1 0x20 DUP4 ADD MSTORE DUP7 DUP6 DUP4 ADD MSTORE DUP7 PUSH1 0x60 DUP4 ADD MSTORE PUSH1 0x80 DUP3 ADD MSTORE DUP4 MLOAD SWAP6 DUP7 DUP1 SWAP5 DUP2 SWAP4 PUSH4 0x624E65F PUSH1 0xE1 SHL DUP4 MSTORE DUP12 DUP4 ADD PUSH2 0x31C6 JUMP JUMPDEST SUB SWAP3 PUSH32 0x0 AND GAS CALL SWAP2 DUP3 PUSH2 0xBDE JUMPI JUMPDEST POP POP PUSH2 0xB3C JUMPI JUMPDEST DUP1 DUP1 DUP1 PUSH2 0xAA1 JUMP JUMPDEST PUSH1 0xD DUP1 SLOAD PUSH1 0x1 PUSH1 0x1 PUSH1 0x80 SHL SUB NOT AND SWAP1 SSTORE PUSH1 0xC DUP4 SWAP1 SSTORE PUSH1 0x9 NOT DUP2 ADD SWAP2 PUSH3 0x7FFFFF NOT SWAP1 PUSH3 0x7FFFFF DUP3 DUP6 SLT DUP2 DUP7 SGT OR PUSH2 0xBCB JUMPI PUSH1 0xA PUSH1 0xB SLOAD SWAP5 ADD SWAP3 DUP4 SLT SWAP1 DUP4 SGT OR PUSH2 0xBB8 JUMPI POP PUSH6 0xFFFFFF000000 SWAP1 PUSH1 0x30 SHL PUSH3 0xFFFFFF PUSH1 0x30 SHL AND SWAP3 PUSH1 0x18 SHL AND SWAP1 PUSH9 0xFFFFFFFFFFFF000000 NOT AND OR OR PUSH1 0xB SSTORE PUSH2 0xBB1 PUSH2 0x2B76 JUMP JUMPDEST DUP2 DUP1 PUSH2 0xB34 JUMP JUMPDEST PUSH4 0x4E487B71 PUSH1 0xE0 SHL DUP6 MSTORE PUSH1 0x11 SWAP1 MSTORE PUSH1 0x24 DUP5 REVERT JUMPDEST PUSH4 0x4E487B71 PUSH1 0xE0 SHL DUP7 MSTORE PUSH1 0x11 DUP3 MSTORE PUSH1 0x24 DUP7 REVERT JUMPDEST DUP2 PUSH2 0xBFD SWAP3 SWAP1 RETURNDATASIZE LT PUSH2 0xC02 JUMPI JUMPDEST PUSH2 0xBF5 DUP2 DUP4 PUSH2 0x1F86 JUMP JUMPDEST DUP2 ADD SWAP1 PUSH2 0x3086 JUMP JUMPDEST PUSH2 0xB2D JUMP JUMPDEST POP RETURNDATASIZE PUSH2 0xBEB JUMP JUMPDEST PUSH4 0x4E487B71 PUSH1 0xE0 SHL DUP9 MSTORE PUSH1 0x11 DUP8 MSTORE PUSH1 0x24 DUP9 REVERT JUMPDEST SWAP1 POP PUSH1 0x30 SHR PUSH1 0x2 SIGNEXTEND DUP4 SGT DUP7 PUSH2 0xA7B JUMP JUMPDEST SWAP1 DUP1 SWAP3 SWAP5 POP DUP2 RETURNDATASIZE DUP4 GT PUSH2 0xCB3 JUMPI JUMPDEST PUSH2 0xC44 DUP2 DUP4 PUSH2 0x1F86 JUMP JUMPDEST DUP2 ADD SUB SLT PUSH2 0xCAF JUMPI DUP1 MLOAD DUP4 DUP2 AND SUB PUSH2 0xCAF JUMPI PUSH2 0xC62 PUSH1 0x20 DUP3 ADD PUSH2 0x24E1 JUMP JUMPDEST SWAP1 PUSH2 0xC6E DUP4 DUP3 ADD PUSH2 0x3475 JUMP JUMPDEST POP PUSH2 0xC7B PUSH1 0x60 DUP3 ADD PUSH2 0x3475 JUMP JUMPDEST POP PUSH2 0xC88 PUSH1 0x80 DUP3 ADD PUSH2 0x3475 JUMP JUMPDEST POP PUSH1 0xA0 DUP2 ADD MLOAD PUSH4 0xFFFFFFFF DUP2 AND SUB PUSH2 0x840 JUMPI PUSH1 0xC0 PUSH2 0xCA6 SWAP2 ADD PUSH2 0x216D JUMP JUMPDEST POP SWAP2 DUP6 DUP1 PUSH2 0xA60 JUMP JUMPDEST DUP5 DUP1 REVERT JUMPDEST POP RETURNDATASIZE PUSH2 0xC3A JUMP JUMPDEST DUP4 MLOAD RETURNDATASIZE DUP9 DUP3 RETURNDATACOPY RETURNDATASIZE SWAP1 REVERT JUMPDEST PUSH2 0xCCC PUSH2 0x331E JUMP JUMPDEST PUSH2 0xA09 JUMP JUMPDEST DUP3 DUP5 CALLVALUE PUSH2 0x270 JUMPI DUP2 PUSH1 0x3 NOT CALLDATASIZE ADD SLT PUSH2 0x270 JUMPI MLOAD PUSH32 0x0 PUSH1 0x1 PUSH1 0x1 PUSH1 0xA0 SHL SUB AND DUP2 MSTORE PUSH1 0x20 SWAP1 RETURN JUMPDEST DUP3 CALLVALUE PUSH2 0x24E JUMPI DUP1 PUSH1 0x3 NOT CALLDATASIZE ADD SLT PUSH2 0x24E JUMPI PUSH2 0xD2E PUSH2 0x202D JUMP JUMPDEST PUSH1 0x0 DUP1 SLOAD PUSH1 0x1 PUSH1 0x1 PUSH1 0xA0 SHL SUB NOT DUP2 AND DUP3 SSTORE PUSH1 0x1 PUSH1 0x1 PUSH1 0xA0 SHL SUB AND PUSH32 0x8BE0079C531659141344CD1FD0A4F28419497F9722A3DAAFE3B4186F6B6457E0 DUP3 DUP1 LOG3 DUP1 RETURN JUMPDEST SWAP1 POP DUP3 CALLVALUE PUSH2 0x3DE JUMPI PUSH1 0x20 SWAP2 DUP3 PUSH1 0x3 NOT CALLDATASIZE ADD SLT PUSH2 0x832 JUMPI PUSH2 0xD8D PUSH2 0x1EEB JUMP JUMPDEST SWAP1 PUSH2 0xD96 PUSH2 0x202D JUMP JUMPDEST PUSH2 0xD9E PUSH2 0x2126 JUMP JUMPDEST DUP5 SLOAD PUSH1 0xFF PUSH1 0xA0 SHL NOT AND PUSH1 0x1 PUSH1 0xA0 SHL OR DUP6 SSTORE DUP3 MLOAD CALLER DUP2 MSTORE PUSH32 0x62E78CEA01BEE320CD4E420270B5EA74000D11B0C9F74754EBDBFC544B05A258 SWAP1 DUP6 SWAP1 LOG1 PUSH2 0xDE1 PUSH2 0x309C JUMP JUMPDEST POP POP PUSH1 0xC SLOAD DUP1 ISZERO ISZERO DUP1 PUSH2 0x11E3 JUMPI JUMPDEST PUSH2 0x10E1 JUMPI JUMPDEST POP DUP3 MLOAD PUSH4 0x70A08231 PUSH1 0xE0 SHL DUP1 DUP3 MSTORE ADDRESS DUP3 DUP5 ADD MSTORE PUSH32 0x0 SWAP6 PUSH1 0x1 PUSH1 0x1 PUSH1 0xA0 SHL SUB DUP1 DUP9 AND SWAP5 SWAP2 SWAP4 SWAP2 SWAP3 SWAP2 DUP5 DUP2 PUSH1 0x24 DUP2 DUP10 GAS STATICCALL SWAP1 DUP2 ISZERO PUSH2 0xFDE JUMPI SWAP1 DUP6 SWAP2 DUP12 SWAP2 PUSH2 0x10B2 JUMPI JUMPDEST POP DUP1 PUSH2 0x1011 JUMPI JUMPDEST POP POP PUSH32 0x0 SWAP1 DUP5 DUP11 DUP2 DUP4 DUP6 AND SWAP4 PUSH1 0x64 DUP13 MLOAD DUP1 SWAP5 DUP2 SWAP4 PUSH4 0x1A4CA37B PUSH1 0xE2 SHL DUP4 MSTORE DUP9 DUP13 DUP5 ADD MSTORE PUSH1 0x0 NOT PUSH1 0x24 DUP5 ADD MSTORE ADDRESS PUSH1 0x44 DUP5 ADD MSTORE PUSH32 0x0 AND GAS CALL PUSH2 0xFE8 JUMPI JUMPDEST POP PUSH1 0x24 SWAP2 DUP10 MLOAD SWAP3 DUP4 DUP1 SWAP3 DUP8 DUP3 MSTORE ADDRESS DUP10 DUP4 ADD MSTORE GAS STATICCALL SWAP1 DUP2 ISZERO PUSH2 0xFDE JUMPI SWAP1 DUP6 SWAP5 SWAP4 SWAP3 SWAP2 DUP12 SWAP2 PUSH2 0xFAA JUMPI JUMPDEST POP SWAP1 DUP2 DUP9 PUSH1 0x24 SWAP5 SWAP4 PUSH2 0xF99 JUMPI JUMPDEST POP POP POP DUP8 MLOAD SWAP6 DUP7 SWAP4 DUP5 SWAP3 DUP4 MSTORE ADDRESS SWAP1 DUP4 ADD MSTORE GAS STATICCALL SWAP4 DUP5 ISZERO PUSH2 0xF90 JUMPI POP DUP6 SWAP4 PUSH2 0xF5B JUMPI JUMPDEST POP POP DUP2 PUSH2 0xF4A JUMPI JUMPDEST DUP4 DUP1 PUSH1 0xC SSTORE PUSH1 0x1 PUSH1 0x1 PUSH1 0x80 SHL SUB NOT PUSH1 0xD SLOAD AND PUSH1 0xD SSTORE DUP1 RETURN JUMPDEST PUSH2 0xF53 SWAP3 PUSH2 0x23C1 JUMP JUMPDEST DUP2 DUP1 DUP1 PUSH2 0xF32 JUMP JUMPDEST SWAP1 DUP1 SWAP3 SWAP4 POP DUP2 RETURNDATASIZE DUP4 GT PUSH2 0xF89 JUMPI JUMPDEST PUSH2 0xF73 DUP2 DUP4 PUSH2 0x1F86 JUMP JUMPDEST DUP2 ADD SUB SLT PUSH2 0xF84 JUMPI MLOAD SWAP1 DUP5 DUP1 PUSH2 0xF2A JUMP JUMPDEST PUSH1 0x0 DUP1 REVERT JUMPDEST POP RETURNDATASIZE PUSH2 0xF69 JUMP JUMPDEST MLOAD RETURNDATASIZE DUP8 DUP3 RETURNDATACOPY RETURNDATASIZE SWAP1 REVERT JUMPDEST PUSH2 0xFA2 SWAP3 PUSH2 0x23C1 JUMP JUMPDEST DUP11 DUP1 DUP9 PUSH2 0xF08 JUMP JUMPDEST DUP6 DUP2 SWAP5 SWAP4 SWAP7 SWAP3 POP RETURNDATASIZE DUP4 GT PUSH2 0xFD7 JUMPI JUMPDEST PUSH2 0xFC3 DUP2 DUP4 PUSH2 0x1F86 JUMP JUMPDEST DUP2 ADD SUB SLT PUSH2 0xF84 JUMPI SWAP1 MLOAD DUP5 SWAP4 SWAP1 PUSH1 0x24 PUSH2 0xEFB JUMP JUMPDEST POP RETURNDATASIZE PUSH2 0xFB9 JUMP JUMPDEST DUP9 MLOAD RETURNDATASIZE DUP13 DUP3 RETURNDATACOPY RETURNDATASIZE SWAP1 REVERT JUMPDEST DUP2 RETURNDATASIZE DUP4 GT PUSH2 0x100A JUMPI JUMPDEST PUSH2 0xFFB DUP2 DUP4 PUSH2 0x1F86 JUMP JUMPDEST DUP2 ADD SUB SLT PUSH2 0xF84 JUMPI DUP5 DUP12 PUSH2 0xED3 JUMP JUMPDEST POP RETURNDATASIZE PUSH2 0xFF1 JUMP JUMPDEST PUSH2 0x103F DUP4 PUSH32 0x0 AND SWAP2 DUP3 DUP13 PUSH2 0x2A4E JUMP JUMPDEST DUP9 MLOAD PUSH4 0x573ADE81 PUSH1 0xE0 SHL DUP2 MSTORE PUSH1 0x1 PUSH1 0x1 PUSH1 0xA0 SHL SUB DUP9 AND DUP7 DUP3 ADD SWAP1 DUP2 MSTORE PUSH1 0x0 NOT PUSH1 0x20 DUP3 ADD MSTORE PUSH1 0x2 PUSH1 0x40 DUP3 ADD MSTORE ADDRESS PUSH1 0x60 DUP3 ADD MSTORE SWAP1 SWAP2 DUP4 SWAP2 DUP4 SWAP2 SWAP1 DUP3 SWAP1 DUP16 SWAP1 DUP3 SWAP1 PUSH1 0x80 ADD SUB SWAP3 GAS CALL ISZERO PUSH2 0xE5A JUMPI DUP2 RETURNDATASIZE DUP4 GT PUSH2 0x10AB JUMPI JUMPDEST PUSH2 0x109C DUP2 DUP4 PUSH2 0x1F86 JUMP JUMPDEST DUP2 ADD SUB SLT PUSH2 0xF84 JUMPI DUP4 DUP11 PUSH2 0xE5A JUMP JUMPDEST POP RETURNDATASIZE PUSH2 0x1092 JUMP JUMPDEST DUP3 DUP2 SWAP4 SWAP3 POP RETURNDATASIZE DUP4 GT PUSH2 0x10DA JUMPI JUMPDEST PUSH2 0x10C9 DUP2 DUP4 PUSH2 0x1F86 JUMP JUMPDEST DUP2 ADD SUB SLT PUSH2 0xF84 JUMPI DUP5 SWAP1 MLOAD DUP12 PUSH2 0xE53 JUMP JUMPDEST POP RETURNDATASIZE PUSH2 0x10BF JUMP JUMPDEST PUSH1 0xD SLOAD PUSH32 0x0 PUSH1 0x1 PUSH1 0x1 PUSH1 0xA0 SHL SUB AND SWAP2 SWAP1 TIMESTAMP PUSH2 0x12C DUP2 ADD SWAP2 PUSH1 0x1 PUSH1 0x1 PUSH1 0x80 SHL SUB AND SWAP1 DUP3 LT PUSH2 0x11D0 JUMPI DUP9 SWAP4 SWAP3 PUSH2 0x116A SWAP3 DUP9 SWAP3 DUP4 MLOAD SWAP3 PUSH2 0x113C DUP5 PUSH2 0x1F56 JUMP JUMPDEST DUP4 MSTORE DUP11 DUP4 ADD MSTORE DUP6 DUP4 DUP4 ADD MSTORE DUP6 PUSH1 0x60 DUP4 ADD MSTORE PUSH1 0x80 DUP3 ADD MSTORE DUP2 MLOAD DUP1 SWAP4 DUP2 SWAP3 PUSH4 0x624E65F PUSH1 0xE1 SHL DUP4 MSTORE DUP9 DUP4 ADD PUSH2 0x31C6 JUMP JUMPDEST SUB DUP2 DUP7 DUP7 GAS CALL PUSH2 0x11B4 JUMPI JUMPDEST POP PUSH1 0xC SLOAD SWAP1 DUP1 EXTCODESIZE ISZERO PUSH2 0x3DE JUMPI PUSH1 0x24 DUP4 SWAP3 DUP8 MLOAD SWAP5 DUP6 SWAP4 DUP5 SWAP3 PUSH4 0x852CD8D PUSH1 0xE3 SHL DUP5 MSTORE DUP9 DUP5 ADD MSTORE GAS CALL ISZERO PUSH2 0xDF4 JUMPI PUSH2 0x11AD SWAP1 SWAP6 SWAP2 SWAP6 PUSH2 0x1F72 JUMP JUMPDEST SWAP4 DUP6 PUSH2 0xDF4 JUMP JUMPDEST PUSH2 0x11CA SWAP1 DUP7 RETURNDATASIZE DUP9 GT PUSH2 0xC02 JUMPI PUSH2 0xBF5 DUP2 DUP4 PUSH2 0x1F86 JUMP JUMPDEST POP PUSH2 0x1175 JUMP JUMPDEST PUSH4 0x4E487B71 PUSH1 0xE0 SHL DUP10 MSTORE PUSH1 0x11 DUP6 MSTORE PUSH1 0x24 DUP10 REVERT JUMPDEST POP PUSH1 0x1 PUSH1 0x1 PUSH1 0x80 SHL SUB PUSH1 0xD SLOAD AND ISZERO ISZERO PUSH2 0xDEF JUMP JUMPDEST DUP3 CALLVALUE PUSH2 0x24E JUMPI PUSH1 0x20 CALLDATASIZE PUSH1 0x3 NOT ADD SLT PUSH2 0x24E JUMPI PUSH2 0x1211 PUSH2 0x1EEB JUMP JUMPDEST PUSH2 0x1219 PUSH2 0x202D JUMP JUMPDEST PUSH1 0x1 DUP1 PUSH1 0xA0 SHL SUB AND PUSH1 0x1 PUSH1 0x1 PUSH1 0x60 SHL SUB PUSH1 0xA0 SHL PUSH1 0x3 SLOAD AND OR PUSH1 0x3 SSTORE DUP1 RETURN JUMPDEST SWAP1 POP DUP3 DUP5 CALLVALUE PUSH2 0x832 JUMPI CALLDATASIZE PUSH1 0x3 NOT ADD SLT PUSH2 0x3DE JUMPI PUSH1 0x84 CALLDATALOAD SWAP1 PUSH3 0xFFFFFF DUP1 DUP4 AND DUP1 SWAP4 SUB PUSH2 0xCAF JUMPI PUSH1 0xA4 CALLDATALOAD SWAP1 DUP2 PUSH1 0x2 SIGNEXTEND DUP1 SWAP3 SUB PUSH2 0x840 JUMPI PUSH1 0xC4 CALLDATALOAD SWAP4 DUP5 PUSH1 0x2 SIGNEXTEND DUP1 SWAP6 SUB PUSH2 0x133B JUMPI PUSH2 0x1338 SWAP6 PUSH2 0x1315 SWAP5 PUSH2 0x128A PUSH2 0x202D JUMP JUMPDEST DUP1 MLOAD SWAP2 PUSH2 0x1296 DUP4 PUSH2 0x1F24 JUMP JUMPDEST CALLDATALOAD DUP3 MSTORE PUSH1 0x20 DUP3 ADD SWAP1 PUSH1 0x24 CALLDATALOAD DUP3 MSTORE DUP3 ADD SWAP1 PUSH1 0x44 CALLDATALOAD DUP3 MSTORE PUSH1 0x60 DUP4 ADD SWAP3 PUSH1 0x64 CALLDATALOAD DUP5 MSTORE PUSH1 0x80 DUP2 ADD SWAP5 DUP6 MSTORE PUSH1 0xA0 DUP2 ADD SWAP7 DUP8 MSTORE PUSH1 0xC0 DUP2 ADD SWAP9 DUP10 MSTORE PUSH2 0x12D3 DUP2 PUSH2 0x3484 JUMP JUMPDEST MLOAD PUSH1 0x7 SSTORE MLOAD PUSH1 0x8 SSTORE MLOAD PUSH1 0x9 SSTORE MLOAD PUSH1 0xA SSTORE MLOAD AND PUSH3 0xFFFFFF NOT PUSH1 0xB SLOAD AND OR PUSH1 0xB SSTORE MLOAD PUSH1 0x2 SIGNEXTEND PUSH1 0xB SLOAD SWAP1 PUSH1 0x18 SHL PUSH6 0xFFFFFF000000 AND SWAP1 PUSH6 0xFFFFFF000000 NOT AND OR PUSH1 0xB SSTORE JUMP JUMPDEST MLOAD PUSH1 0x2 SIGNEXTEND PUSH1 0xB SLOAD SWAP1 PUSH1 0x30 SHL PUSH3 0xFFFFFF PUSH1 0x30 SHL AND SWAP1 PUSH3 0xFFFFFF PUSH1 0x30 SHL NOT AND OR PUSH1 0xB SSTORE JUMP JUMPDEST DUP1 RETURN JUMPDEST DUP7 DUP1 REVERT JUMPDEST DUP3 DUP5 CALLVALUE PUSH2 0x270 JUMPI DUP2 PUSH1 0x3 NOT CALLDATASIZE ADD SLT PUSH2 0x270 JUMPI PUSH1 0xFF PUSH1 0x20 SWAP3 SLOAD PUSH1 0xA0 SHR AND SWAP1 MLOAD SWAP1 ISZERO ISZERO DUP2 MSTORE RETURN JUMPDEST DUP3 DUP5 CALLVALUE PUSH2 0x270 JUMPI DUP2 PUSH1 0x3 NOT CALLDATASIZE ADD SLT PUSH2 0x270 JUMPI PUSH1 0x20 SWAP1 PUSH1 0x1 PUSH1 0x1 PUSH1 0x80 SHL SUB PUSH1 0xD SLOAD AND SWAP1 MLOAD SWAP1 DUP2 MSTORE RETURN JUMPDEST POP POP CALLVALUE PUSH2 0x24E JUMPI DUP1 PUSH1 0x3 NOT CALLDATASIZE ADD SLT PUSH2 0x24E JUMPI PUSH2 0x13A6 PUSH2 0x236B JUMP JUMPDEST DUP1 PUSH2 0x13AF PUSH2 0x309C JUMP JUMPDEST POP POP PUSH2 0x13B9 PUSH2 0x2439 JUMP JUMPDEST PUSH1 0xA SLOAD GT PUSH2 0x1446 JUMPI JUMPDEST PUSH2 0x13CA PUSH2 0x26D3 JUMP JUMPDEST PUSH1 0x5 SLOAD SWAP1 DUP2 DUP2 GT ISZERO PUSH2 0x1425 JUMPI PUSH2 0x13E1 SWAP3 SWAP4 POP PUSH2 0x235E JUMP JUMPDEST SWAP1 JUMPDEST TIMESTAMP PUSH1 0x6 SSTORE PUSH32 0xFA07446FAD45314351EB89109A154880278451332BB87F1824D435FE58DA5939 DUP4 DUP1 MLOAD DUP5 DUP2 MSTORE DUP4 PUSH1 0x20 DUP3 ADD MSTORE LOG1 PUSH1 0x1 DUP1 SSTORE DUP3 MLOAD SWAP2 DUP3 MSTORE PUSH1 0x20 DUP3 ADD MSTORE RETURN JUMPDEST SWAP1 DUP1 DUP3 LT PUSH2 0x1435 JUMPI JUMPDEST POP POP PUSH2 0x13E3 JUMP JUMPDEST PUSH2 0x143F SWAP3 POP PUSH2 0x235E JUMP JUMPDEST DUP4 DUP1 PUSH2 0x142E JUMP JUMPDEST PUSH2 0x144E PUSH2 0x331E JUMP JUMPDEST PUSH2 0x13C2 JUMP JUMPDEST DUP4 SWAP2 POP CALLVALUE PUSH2 0x3DE JUMPI DUP3 PUSH1 0x3 NOT CALLDATASIZE ADD SLT PUSH2 0x3DE JUMPI PUSH2 0x146E PUSH2 0x202D JUMP JUMPDEST DUP3 SLOAD SWAP1 PUSH1 0xFF DUP3 PUSH1 0xA0 SHR AND ISZERO PUSH2 0x14B4 JUMPI POP PUSH1 0xFF PUSH1 0xA0 SHL NOT AND DUP3 SSTORE MLOAD CALLER DUP2 MSTORE PUSH32 0x5DB9EE0A495BF2E6FF9C91A7834C1BA4FDD244A5E8AA4E537BD38AEAE4B073AA SWAP1 PUSH1 0x20 SWAP1 LOG1 DUP1 RETURN JUMPDEST PUSH1 0x64 SWAP1 PUSH1 0x20 DUP5 MLOAD SWAP2 PUSH3 0x461BCD PUSH1 0xE5 SHL DUP4 MSTORE DUP3 ADD MSTORE PUSH1 0x14 PUSH1 0x24 DUP3 ADD MSTORE PUSH20 0x14185D5CD8589B194E881B9BDD081C185D5CD959 PUSH1 0x62 SHL PUSH1 0x44 DUP3 ADD MSTORE REVERT JUMPDEST DUP4 DUP6 DUP5 SWAP3 CALLVALUE PUSH2 0x832 JUMPI PUSH1 0x20 CALLDATASIZE PUSH1 0x3 NOT ADD SLT PUSH2 0x832 JUMPI DUP1 CALLDATALOAD SWAP1 PUSH8 0xFFFFFFFFFFFFFFFF DUP3 GT PUSH2 0xCAF JUMPI PUSH2 0x1521 SWAP2 CALLDATASIZE SWAP2 ADD PUSH2 0x1FF1 JUMP JUMPDEST SWAP1 DUP1 SWAP3 SWAP2 PUSH2 0x152D PUSH2 0x202D JUMP JUMPDEST DUP2 ADD SUB SLT PUSH2 0x3DE JUMPI DUP2 MLOAD SWAP1 PUSH2 0x1541 DUP3 PUSH2 0x1F24 JUMP JUMPDEST DUP1 CALLDATALOAD DUP3 MSTORE PUSH1 0x20 DUP3 ADD SWAP1 PUSH1 0x20 DUP2 ADD CALLDATALOAD DUP3 MSTORE DUP4 DUP4 ADD SWAP4 DUP2 ADD CALLDATALOAD DUP5 MSTORE PUSH1 0x60 DUP4 ADD PUSH1 0x60 DUP3 ADD CALLDATALOAD DUP2 MSTORE PUSH1 0x80 DUP3 ADD CALLDATALOAD PUSH3 0xFFFFFF SWAP2 DUP3 DUP3 AND DUP3 SUB PUSH2 0x15B7 JUMPI PUSH2 0x1338 SWAP7 PUSH2 0x1315 SWAP6 PUSH1 0x80 DUP9 ADD SWAP4 DUP5 MSTORE PUSH2 0x15A6 PUSH1 0xC0 PUSH2 0x1598 PUSH1 0xA0 DUP10 ADD PUSH2 0x201F JUMP JUMPDEST SWAP8 PUSH1 0xA0 DUP12 ADD SWAP9 DUP10 MSTORE ADD PUSH2 0x201F JUMP JUMPDEST SWAP8 PUSH1 0xC0 DUP2 ADD SWAP9 DUP10 MSTORE PUSH2 0x12D3 DUP2 PUSH2 0x3484 JUMP JUMPDEST DUP8 DUP1 REVERT JUMPDEST DUP3 DUP5 CALLVALUE PUSH2 0x270 JUMPI DUP2 PUSH1 0x3 NOT CALLDATASIZE ADD SLT PUSH2 0x270 JUMPI MLOAD PUSH32 0x0 PUSH1 0x1 PUSH1 0x1 PUSH1 0xA0 SHL SUB AND DUP2 MSTORE PUSH1 0x20 SWAP1 RETURN JUMPDEST DUP4 SWAP2 POP CALLVALUE PUSH2 0x3DE JUMPI PUSH1 0x20 DUP1 PUSH1 0x3 NOT CALLDATASIZE ADD SLT PUSH2 0x832 JUMPI PUSH1 0x3 SLOAD PUSH1 0x1 PUSH1 0x1 PUSH1 0xA0 SHL SUB SWAP4 DUP4 CALLDATALOAD SWAP3 SWAP2 DUP6 AND CALLER EQ DUP1 ISZERO PUSH2 0x1B4E JUMPI JUMPDEST PUSH2 0x1638 SWAP1 PUSH2 0x2085 JUMP JUMPDEST PUSH2 0x1640 PUSH2 0x236B JUMP JUMPDEST PUSH2 0x164B DUP4 ISZERO ISZERO PUSH2 0x20C9 JUMP JUMPDEST DUP3 PUSH2 0x1654 PUSH2 0x26D3 JUMP JUMPDEST LT PUSH2 0x1B16 JUMPI PUSH32 0x0 SWAP4 DUP6 DUP6 AND SWAP1 DUP3 MLOAD PUSH4 0x70A08231 PUSH1 0xE0 SHL DUP1 DUP3 MSTORE ADDRESS DUP4 DUP4 ADD MSTORE DUP10 PUSH1 0x24 SWAP3 DUP8 DUP2 DUP6 DUP2 DUP10 GAS STATICCALL SWAP1 DUP2 ISZERO PUSH2 0x1B0C JUMPI DUP3 SWAP2 PUSH2 0x1ADF JUMPI JUMPDEST POP DUP9 DUP2 LT PUSH2 0x1794 JUMPI JUMPDEST POP POP DUP6 SWAP7 SWAP8 SWAP9 POP DUP5 SWAP6 SWAP4 SWAP5 MLOAD SWAP5 DUP6 SWAP4 DUP5 SWAP3 DUP4 MSTORE ADDRESS SWAP1 DUP4 ADD MSTORE GAS STATICCALL SWAP1 DUP2 ISZERO PUSH2 0x178A JUMPI DUP7 SWAP2 PUSH2 0x173D JUMPI JUMPDEST POP PUSH2 0x1717 SWAP1 PUSH32 0x7084F5476618D8E60B11EF0D7D3F06914655ADB8793E28FF7F018D4C76D505D5 SWAP5 DUP1 DUP3 LT PUSH1 0x0 EQ PUSH2 0x1734 JUMPI POP DUP1 SWAP6 JUMPDEST CALLER SWAP1 PUSH2 0x23C1 JUMP JUMPDEST PUSH2 0x1723 DUP5 PUSH1 0x5 SLOAD PUSH2 0x235E JUMP JUMPDEST PUSH1 0x5 SSTORE MLOAD SWAP3 DUP4 MSTORE CALLER SWAP3 LOG2 PUSH1 0x1 DUP1 SSTORE DUP1 RETURN JUMPDEST SWAP1 POP DUP1 SWAP6 PUSH2 0x1710 JUMP JUMPDEST SWAP1 POP DUP3 DUP2 DUP2 RETURNDATASIZE DUP4 GT PUSH2 0x1783 JUMPI JUMPDEST PUSH2 0x1754 DUP2 DUP4 PUSH2 0x1F86 JUMP JUMPDEST DUP2 ADD SUB SLT PUSH2 0x840 JUMPI MLOAD PUSH32 0x7084F5476618D8E60B11EF0D7D3F06914655ADB8793E28FF7F018D4C76D505D5 PUSH2 0x16DB JUMP JUMPDEST POP RETURNDATASIZE PUSH2 0x174A JUMP JUMPDEST DUP3 MLOAD RETURNDATASIZE DUP9 DUP3 RETURNDATACOPY RETURNDATASIZE SWAP1 REVERT JUMPDEST PUSH2 0x179E SWAP1 DUP10 PUSH2 0x235E JUMP JUMPDEST PUSH2 0x17A6 PUSH2 0x309C JUMP JUMPDEST POP POP DUP7 MLOAD DUP4 DUP2 MSTORE ADDRESS DUP7 DUP3 ADD MSTORE DUP9 DUP2 DUP7 DUP2 DUP11 GAS STATICCALL SWAP1 DUP2 ISZERO PUSH2 0x1A85 JUMPI DUP4 SWAP2 PUSH2 0x1AB2 JUMPI JUMPDEST POP DUP2 DUP2 LT DUP1 PUSH2 0x1AA7 JUMPI JUMPDEST PUSH2 0x1A8F JUMPI JUMPDEST POP DUP7 MLOAD SWAP1 DUP4 DUP3 MSTORE ADDRESS DUP7 DUP4 ADD MSTORE DUP9 DUP3 DUP7 DUP2 DUP11 GAS STATICCALL SWAP1 DUP2 ISZERO PUSH2 0x1A85 JUMPI DUP4 SWAP2 PUSH2 0x1A54 JUMPI JUMPDEST PUSH2 0x1801 SWAP3 POP PUSH2 0x235E JUMP JUMPDEST DUP1 ISZERO PUSH2 0x16B3 JUMPI DUP7 MLOAD DUP4 DUP2 MSTORE ADDRESS DUP7 DUP3 ADD MSTORE SWAP11 PUSH32 0x0 DUP1 DUP3 AND SWAP1 DUP11 DUP15 DUP9 DUP2 DUP6 GAS STATICCALL SWAP2 DUP3 ISZERO PUSH2 0x1A4A JUMPI DUP11 DUP13 SWAP14 SWAP15 SWAP16 DUP8 SWAP14 SWAP12 SWAP13 SWAP14 SWAP5 PUSH2 0x1A12 JUMPI JUMPDEST POP SWAP2 DUP10 SWAP2 DUP8 DUP13 SWAP5 DUP7 PUSH2 0x1961 JUMPI JUMPDEST POP POP POP POP POP POP POP PUSH32 0x0 AND SWAP1 DUP9 MLOAD PUSH4 0x1A4CA37B PUSH1 0xE2 SHL SWAP2 DUP3 DUP3 MSTORE DUP10 DUP9 DUP4 ADD MSTORE DUP7 DUP3 ADD MSTORE ADDRESS PUSH1 0x44 DUP3 ADD MSTORE DUP8 DUP2 PUSH1 0x64 DUP2 DUP8 DUP8 GAS CALL SWAP1 DUP2 PUSH2 0x1931 JUMPI JUMPDEST POP DUP8 SWAP3 SWAP2 SWAP1 PUSH2 0x1928 JUMPI PUSH1 0x64 SWAP1 DUP11 MLOAD SWAP5 DUP6 SWAP4 DUP5 SWAP3 DUP4 MSTORE DUP12 DUP11 DUP5 ADD MSTORE PUSH1 0x0 NOT DUP10 DUP5 ADD MSTORE ADDRESS PUSH1 0x44 DUP5 ADD MSTORE GAS CALL PUSH2 0x18F8 JUMPI JUMPDEST POP JUMPDEST DUP9 SWAP8 SWAP7 POP DUP10 DUP12 SWAP7 SWAP6 SWAP5 SWAP7 PUSH2 0x16B3 JUMP JUMPDEST DUP5 SWAP2 SWAP5 RETURNDATASIZE DUP4 GT PUSH2 0x1921 JUMPI JUMPDEST PUSH2 0x190D DUP2 DUP4 PUSH2 0x1F86 JUMP JUMPDEST DUP2 ADD SUB SLT PUSH2 0x191D JUMPI DUP6 SWAP3 DUP11 PUSH2 0x18E7 JUMP JUMPDEST DUP9 DUP1 REVERT JUMPDEST POP RETURNDATASIZE PUSH2 0x1903 JUMP JUMPDEST POP POP POP POP PUSH2 0x18E9 JUMP JUMPDEST DUP9 SWAP2 SWAP4 SWAP3 SWAP9 RETURNDATASIZE DUP4 GT PUSH2 0x195A JUMPI JUMPDEST PUSH2 0x1948 DUP2 DUP4 PUSH2 0x1F86 JUMP JUMPDEST DUP2 ADD SUB SLT PUSH2 0x3DE JUMPI SWAP1 SWAP6 DUP10 SWAP7 DUP15 PUSH2 0x18B9 JUMP JUMPDEST POP RETURNDATASIZE PUSH2 0x193E JUMP JUMPDEST PUSH2 0x1992 PUSH2 0x19D2 SWAP8 DUP10 PUSH32 0x0 AND DUP1 SWAP7 PUSH2 0x2A4E JUMP JUMPDEST MLOAD PUSH4 0x573ADE81 PUSH1 0xE0 SHL DUP2 MSTORE PUSH1 0x1 PUSH1 0x1 PUSH1 0xA0 SHL SUB SWAP1 SWAP3 AND SWAP4 DUP3 ADD SWAP4 DUP5 MSTORE PUSH1 0x0 NOT PUSH1 0x20 DUP6 ADD MSTORE PUSH1 0x2 PUSH1 0x40 DUP6 ADD MSTORE ADDRESS PUSH1 0x60 DUP6 ADD MSTORE SWAP1 SWAP5 DUP6 SWAP4 DUP5 SWAP3 SWAP2 DUP4 SWAP2 PUSH1 0x80 ADD SWAP1 JUMP JUMPDEST SUB SWAP3 GAS CALL PUSH2 0x19E6 JUMPI JUMPDEST DUP8 DUP8 DUP3 DUP1 DUP8 DUP15 PUSH2 0x1862 JUMP JUMPDEST DUP8 SWAP2 SWAP8 RETURNDATASIZE DUP4 GT PUSH2 0x1A0B JUMPI JUMPDEST PUSH2 0x19FB DUP2 DUP4 PUSH2 0x1F86 JUMP JUMPDEST DUP2 ADD SUB SLT PUSH2 0x270 JUMPI DUP9 SWAP6 DUP14 PUSH2 0x19DB JUMP JUMPDEST POP RETURNDATASIZE PUSH2 0x19F1 JUMP JUMPDEST SWAP11 DUP1 SWAP3 SWAP4 SWAP5 POP DUP12 SWAP2 POP RETURNDATASIZE DUP4 GT PUSH2 0x1A43 JUMPI JUMPDEST PUSH2 0x1A2D DUP2 DUP4 PUSH2 0x1F86 JUMP JUMPDEST DUP2 ADD SUB SLT PUSH2 0xCAF JUMPI SWAP8 MLOAD DUP12 SWAP9 SWAP1 SWAP2 SWAP1 DUP12 DUP10 PUSH2 0x1855 JUMP JUMPDEST POP RETURNDATASIZE PUSH2 0x1A23 JUMP JUMPDEST DUP11 MLOAD RETURNDATASIZE DUP8 DUP3 RETURNDATACOPY RETURNDATASIZE SWAP1 REVERT JUMPDEST SWAP1 POP DUP9 DUP3 DUP2 RETURNDATASIZE DUP4 GT PUSH2 0x1A7E JUMPI JUMPDEST PUSH2 0x1A6B DUP2 DUP4 PUSH2 0x1F86 JUMP JUMPDEST DUP2 ADD SUB SLT PUSH2 0x3DE JUMPI PUSH2 0x1801 SWAP2 MLOAD SWAP1 PUSH2 0x17F7 JUMP JUMPDEST POP RETURNDATASIZE PUSH2 0x1A61 JUMP JUMPDEST DUP9 MLOAD RETURNDATASIZE DUP6 DUP3 RETURNDATACOPY RETURNDATASIZE SWAP1 REVERT JUMPDEST PUSH2 0x1A9C PUSH2 0x1AA1 SWAP2 DUP4 PUSH2 0x235E JUMP JUMPDEST PUSH2 0x3203 JUMP JUMPDEST DUP13 PUSH2 0x17D6 JUMP JUMPDEST POP PUSH1 0xC SLOAD ISZERO ISZERO PUSH2 0x17D1 JUMP JUMPDEST SWAP1 POP DUP9 DUP2 DUP2 RETURNDATASIZE DUP4 GT PUSH2 0x1AD8 JUMPI JUMPDEST PUSH2 0x1AC9 DUP2 DUP4 PUSH2 0x1F86 JUMP JUMPDEST DUP2 ADD SUB SLT PUSH2 0x3DE JUMPI MLOAD DUP14 PUSH2 0x17C7 JUMP JUMPDEST POP RETURNDATASIZE PUSH2 0x1ABF JUMP JUMPDEST SWAP1 POP DUP8 DUP2 DUP2 RETURNDATASIZE DUP4 GT PUSH2 0x1B05 JUMPI JUMPDEST PUSH2 0x1AF6 DUP2 DUP4 PUSH2 0x1F86 JUMP JUMPDEST DUP2 ADD SUB SLT PUSH2 0x270 JUMPI MLOAD DUP13 PUSH2 0x16AA JUMP JUMPDEST POP RETURNDATASIZE PUSH2 0x1AEC JUMP JUMPDEST DUP8 MLOAD RETURNDATASIZE DUP5 DUP3 RETURNDATACOPY RETURNDATASIZE SWAP1 REVERT JUMPDEST MLOAD PUSH3 0x461BCD PUSH1 0xE5 SHL DUP2 MSTORE SWAP3 DUP4 ADD MSTORE POP PUSH1 0x14 PUSH1 0x24 DUP3 ADD MSTORE PUSH20 0x496E73756666696369656E742062616C616E6365 PUSH1 0x60 SHL PUSH1 0x44 DUP3 ADD MSTORE PUSH1 0x64 SWAP1 REVERT JUMPDEST POP DUP4 SLOAD DUP6 AND CALLER EQ PUSH2 0x162F JUMP JUMPDEST DUP3 DUP5 CALLVALUE PUSH2 0x270 JUMPI DUP2 PUSH1 0x3 NOT CALLDATASIZE ADD SLT PUSH2 0x270 JUMPI PUSH1 0xFF PUSH1 0x20 SWAP3 SLOAD PUSH1 0xA0 SHR AND ISZERO SWAP1 MLOAD SWAP1 DUP2 MSTORE RETURN JUMPDEST DUP3 DUP5 CALLVALUE PUSH2 0x270 JUMPI DUP2 PUSH1 0x3 NOT CALLDATASIZE ADD SLT PUSH2 0x270 JUMPI PUSH1 0x20 SWAP1 MLOAD PUSH1 0x64 DUP2 MSTORE RETURN JUMPDEST DUP3 DUP5 CALLVALUE PUSH2 0x270 JUMPI DUP2 PUSH1 0x3 NOT CALLDATASIZE ADD SLT PUSH2 0x270 JUMPI PUSH1 0x20 SWAP1 PUSH2 0x1BB7 PUSH2 0x2439 JUMP JUMPDEST SWAP1 MLOAD SWAP1 DUP2 MSTORE RETURN JUMPDEST DUP4 DUP4 CALLVALUE PUSH2 0x24E JUMPI PUSH1 0x80 CALLDATASIZE PUSH1 0x3 NOT ADD SLT PUSH2 0x24E JUMPI PUSH2 0x1BD9 PUSH2 0x1EEB JUMP JUMPDEST POP PUSH1 0x24 CALLDATALOAD PUSH1 0x1 PUSH1 0x1 PUSH1 0xA0 SHL SUB DUP2 AND SUB PUSH2 0x24E JUMPI PUSH1 0x64 CALLDATALOAD SWAP1 PUSH8 0xFFFFFFFFFFFFFFFF DUP3 GT PUSH2 0x24E JUMPI POP PUSH1 0x20 SWAP3 PUSH2 0x1C0F SWAP2 CALLDATASIZE SWAP2 ADD PUSH2 0x1FF1 JUMP JUMPDEST POP POP MLOAD PUSH4 0xA85BD01 PUSH1 0xE1 SHL DUP2 MSTORE RETURN JUMPDEST DUP3 DUP5 CALLVALUE PUSH2 0x270 JUMPI DUP2 PUSH1 0x3 NOT CALLDATASIZE ADD SLT PUSH2 0x270 JUMPI PUSH1 0x20 SWAP1 PUSH2 0x1BB7 PUSH2 0x2503 JUMP JUMPDEST SWAP1 POP DUP3 CALLVALUE PUSH2 0x3DE JUMPI DUP3 PUSH1 0x3 NOT CALLDATASIZE ADD SLT PUSH2 0x3DE JUMPI DUP1 MLOAD SWAP2 DUP4 PUSH1 0x2 SLOAD SWAP1 PUSH1 0x1 SWAP1 DUP3 DUP3 SHR SWAP3 DUP3 DUP2 AND DUP1 ISZERO PUSH2 0x1D34 JUMPI JUMPDEST PUSH1 0x20 SWAP6 DUP7 DUP7 LT DUP3 EQ PUSH2 0x1D21 JUMPI POP DUP5 DUP9 MSTORE SWAP1 DUP2 ISZERO PUSH2 0x1CFF JUMPI POP PUSH1 0x1 EQ PUSH2 0x1CA6 JUMPI JUMPDEST PUSH2 0x1CA2 DUP7 DUP7 PUSH2 0x1C98 DUP3 DUP12 SUB DUP4 PUSH2 0x1F86 JUMP JUMPDEST MLOAD SWAP2 DUP3 SWAP2 DUP3 PUSH2 0x1FA8 JUMP JUMPDEST SUB SWAP1 RETURN JUMPDEST SWAP3 SWAP6 POP PUSH1 0x2 DUP4 MSTORE PUSH32 0x405787FA12A823E0F2B7631CC41B3BA8828B3321CA811111FA75CD3AA3BB5ACE JUMPDEST DUP3 DUP5 LT PUSH2 0x1CEC JUMPI POP POP POP DUP3 PUSH2 0x1CA2 SWAP5 PUSH2 0x1C98 SWAP3 DUP3 ADD ADD SWAP5 DUP7 PUSH2 0x1C87 JUMP JUMPDEST DUP1 SLOAD DUP7 DUP6 ADD DUP9 ADD MSTORE SWAP3 DUP7 ADD SWAP3 DUP2 ADD PUSH2 0x1CCF JUMP JUMPDEST PUSH1 0xFF NOT AND DUP8 DUP7 ADD MSTORE POP POP POP ISZERO ISZERO PUSH1 0x5 SHL DUP4 ADD ADD SWAP3 POP PUSH2 0x1C98 DUP3 PUSH2 0x1CA2 DUP7 PUSH2 0x1C87 JUMP JUMPDEST PUSH4 0x4E487B71 PUSH1 0xE0 SHL DUP5 MSTORE PUSH1 0x22 SWAP1 MSTORE PUSH1 0x24 DUP4 REVERT JUMPDEST SWAP4 PUSH1 0x7F AND SWAP4 PUSH2 0x1C67 JUMP JUMPDEST DUP3 DUP5 CALLVALUE PUSH2 0x270 JUMPI DUP2 PUSH1 0x3 NOT CALLDATASIZE ADD SLT PUSH2 0x270 JUMPI PUSH1 0x20 SWAP1 PUSH1 0xC SLOAD SWAP1 MLOAD SWAP1 DUP2 MSTORE RETURN JUMPDEST SWAP1 POP DUP3 CALLVALUE PUSH2 0x3DE JUMPI PUSH1 0x20 DUP1 PUSH1 0x3 NOT CALLDATASIZE ADD SLT PUSH2 0x832 JUMPI PUSH2 0x1D7A PUSH2 0x1EEB JUMP JUMPDEST SWAP3 PUSH2 0x1D83 PUSH2 0x202D JUMP JUMPDEST PUSH1 0x1 PUSH1 0x1 PUSH1 0xA0 SHL SUB SWAP4 DUP5 AND SWAP2 PUSH32 0x0 DUP6 AND DUP4 EQ PUSH2 0x1E91 JUMPI DUP5 PUSH32 0x0 AND DUP4 EQ PUSH2 0x1E59 JUMPI DUP4 MLOAD SWAP2 PUSH4 0x70A08231 PUSH1 0xE0 SHL DUP4 MSTORE ADDRESS SWAP1 DUP4 ADD MSTORE DUP1 DUP3 PUSH1 0x24 DUP2 DUP7 GAS STATICCALL SWAP4 DUP5 ISZERO PUSH2 0xF90 JUMPI POP DUP6 SWAP4 PUSH2 0x1E29 JUMPI JUMPDEST POP POP DUP2 PUSH2 0x1E15 JUMPI DUP4 DUP1 RETURN JUMPDEST PUSH2 0x1E22 SWAP3 DUP5 SLOAD AND SWAP1 PUSH2 0x23C1 JUMP JUMPDEST DUP2 DUP1 DUP1 DUP4 DUP1 RETURN JUMPDEST SWAP1 DUP1 SWAP3 SWAP4 POP DUP2 RETURNDATASIZE DUP4 GT PUSH2 0x1E52 JUMPI JUMPDEST PUSH2 0x1E41 DUP2 DUP4 PUSH2 0x1F86 JUMP JUMPDEST DUP2 ADD SUB SLT PUSH2 0x832 JUMPI MLOAD SWAP1 DUP5 DUP1 PUSH2 0x1E0A JUMP JUMPDEST POP RETURNDATASIZE PUSH2 0x1E37 JUMP JUMPDEST DUP4 MLOAD PUSH3 0x461BCD PUSH1 0xE5 SHL DUP2 MSTORE SWAP2 DUP3 ADD MSTORE PUSH1 0x13 PUSH1 0x24 DUP3 ADD MSTORE PUSH19 0x43616E6E6F7420737765657020746F6B656E31 PUSH1 0x68 SHL PUSH1 0x44 DUP3 ADD MSTORE PUSH1 0x64 SWAP2 POP REVERT JUMPDEST DUP4 MLOAD PUSH3 0x461BCD PUSH1 0xE5 SHL DUP2 MSTORE SWAP2 DUP3 ADD MSTORE PUSH1 0x11 PUSH1 0x24 DUP3 ADD MSTORE PUSH17 0x10D85B9B9BDD081CDDD9595C081DD85B9D PUSH1 0x7A SHL PUSH1 0x44 DUP3 ADD MSTORE PUSH1 0x64 SWAP2 POP REVERT JUMPDEST SWAP2 POP CALLVALUE PUSH2 0x3DE JUMPI DUP3 PUSH1 0x3 NOT CALLDATASIZE ADD SLT PUSH2 0x3DE JUMPI SLOAD PUSH1 0x1 PUSH1 0x1 PUSH1 0xA0 SHL SUB AND DUP2 MSTORE PUSH1 0x20 SWAP2 POP RETURN JUMPDEST PUSH1 0x4 CALLDATALOAD SWAP1 PUSH1 0x1 PUSH1 0x1 PUSH1 0xA0 SHL SUB DUP3 AND DUP3 SUB PUSH2 0xF84 JUMPI JUMP JUMPDEST CALLVALUE PUSH2 0xF84 JUMPI PUSH1 0x0 CALLDATASIZE PUSH1 0x3 NOT ADD SLT PUSH2 0xF84 JUMPI PUSH1 0x20 PUSH2 0x1F1C PUSH2 0x26D3 JUMP JUMPDEST PUSH1 0x40 MLOAD SWAP1 DUP2 MSTORE RETURN JUMPDEST PUSH1 0xE0 DUP2 ADD SWAP1 DUP2 LT PUSH8 0xFFFFFFFFFFFFFFFF DUP3 GT OR PUSH2 0x1F40 JUMPI PUSH1 0x40 MSTORE JUMP JUMPDEST PUSH4 0x4E487B71 PUSH1 0xE0 SHL PUSH1 0x0 MSTORE PUSH1 0x41 PUSH1 0x4 MSTORE PUSH1 0x24 PUSH1 0x0 REVERT JUMPDEST PUSH1 0xA0 DUP2 ADD SWAP1 DUP2 LT PUSH8 0xFFFFFFFFFFFFFFFF DUP3 GT OR PUSH2 0x1F40 JUMPI PUSH1 0x40 MSTORE JUMP JUMPDEST PUSH8 0xFFFFFFFFFFFFFFFF DUP2 GT PUSH2 0x1F40 JUMPI PUSH1 0x40 MSTORE JUMP JUMPDEST SWAP1 PUSH1 0x1F DUP1 NOT SWAP2 ADD AND DUP2 ADD SWAP1 DUP2 LT PUSH8 0xFFFFFFFFFFFFFFFF DUP3 GT OR PUSH2 0x1F40 JUMPI PUSH1 0x40 MSTORE JUMP JUMPDEST PUSH1 0x20 DUP1 DUP3 MSTORE DUP3 MLOAD DUP2 DUP4 ADD DUP2 SWAP1 MSTORE SWAP1 SWAP4 SWAP3 PUSH1 0x0 JUMPDEST DUP3 DUP2 LT PUSH2 0x1FDD JUMPI POP POP PUSH1 0x40 SWAP3 SWAP4 POP PUSH1 0x0 DUP4 DUP3 DUP5 ADD ADD MSTORE PUSH1 0x1F DUP1 NOT SWAP2 ADD AND ADD ADD SWAP1 JUMP JUMPDEST DUP2 DUP2 ADD DUP7 ADD MLOAD DUP5 DUP3 ADD PUSH1 0x40 ADD MSTORE DUP6 ADD PUSH2 0x1FBB JUMP JUMPDEST SWAP2 DUP2 PUSH1 0x1F DUP5 ADD SLT ISZERO PUSH2 0xF84 JUMPI DUP3 CALLDATALOAD SWAP2 PUSH8 0xFFFFFFFFFFFFFFFF DUP4 GT PUSH2 0xF84 JUMPI PUSH1 0x20 DUP4 DUP2 DUP7 ADD SWAP6 ADD ADD GT PUSH2 0xF84 JUMPI JUMP JUMPDEST CALLDATALOAD SWAP1 DUP2 PUSH1 0x2 SIGNEXTEND DUP3 SUB PUSH2 0xF84 JUMPI JUMP JUMPDEST PUSH1 0x0 SLOAD PUSH1 0x1 PUSH1 0x1 PUSH1 0xA0 SHL SUB AND CALLER SUB PUSH2 0x2041 JUMPI JUMP JUMPDEST PUSH1 0x64 PUSH1 0x40 MLOAD PUSH3 0x461BCD PUSH1 0xE5 SHL DUP2 MSTORE PUSH1 0x20 PUSH1 0x4 DUP3 ADD MSTORE PUSH1 0x20 PUSH1 0x24 DUP3 ADD MSTORE PUSH32 0x4F776E61626C653A2063616C6C6572206973206E6F7420746865206F776E6572 PUSH1 0x44 DUP3 ADD MSTORE REVERT JUMPDEST ISZERO PUSH2 0x208C JUMPI JUMP JUMPDEST PUSH1 0x40 MLOAD PUSH3 0x461BCD PUSH1 0xE5 SHL DUP2 MSTORE PUSH1 0x20 PUSH1 0x4 DUP3 ADD MSTORE PUSH1 0x15 PUSH1 0x24 DUP3 ADD MSTORE PUSH21 0x27B7363C903B30BAB63A17B1B7B73A3937B63632B9 PUSH1 0x59 SHL PUSH1 0x44 DUP3 ADD MSTORE PUSH1 0x64 SWAP1 REVERT JUMPDEST ISZERO PUSH2 0x20D0 JUMPI JUMP JUMPDEST PUSH1 0x40 MLOAD PUSH3 0x461BCD PUSH1 0xE5 SHL DUP2 MSTORE PUSH1 0x20 PUSH1 0x4 DUP3 ADD MSTORE PUSH1 0xB PUSH1 0x24 DUP3 ADD MSTORE PUSH11 0x16995C9BC8185B5BDD5B9D PUSH1 0xAA SHL PUSH1 0x44 DUP3 ADD MSTORE PUSH1 0x64 SWAP1 REVERT JUMPDEST SWAP2 SWAP1 DUP3 ADD DUP1 SWAP3 GT PUSH2 0x2110 JUMPI JUMP JUMPDEST PUSH4 0x4E487B71 PUSH1 0xE0 SHL PUSH1 0x0 MSTORE PUSH1 0x11 PUSH1 0x4 MSTORE PUSH1 0x24 PUSH1 0x0 REVERT JUMPDEST PUSH1 0xFF PUSH1 0x0 SLOAD PUSH1 0xA0 SHR AND PUSH2 0x2135 JUMPI JUMP JUMPDEST PUSH1 0x40 MLOAD PUSH3 0x461BCD PUSH1 0xE5 SHL DUP2 MSTORE PUSH1 0x20 PUSH1 0x4 DUP3 ADD MSTORE PUSH1 0x10 PUSH1 0x24 DUP3 ADD MSTORE PUSH16 0x14185D5CD8589B194E881C185D5CD959 PUSH1 0x82 SHL PUSH1 0x44 DUP3 ADD MSTORE PUSH1 0x64 SWAP1 REVERT JUMPDEST MLOAD SWAP1 DUP2 ISZERO ISZERO DUP3 SUB PUSH2 0xF84 JUMPI JUMP JUMPDEST PUSH1 0x1 DUP1 PUSH1 0xA0 SHL SUB AND SWAP1 PUSH1 0x40 MLOAD PUSH1 0x40 DUP2 ADD PUSH8 0xFFFFFFFFFFFFFFFF SWAP1 DUP3 DUP2 LT DUP3 DUP3 GT OR PUSH2 0x1F40 JUMPI PUSH1 0x40 MSTORE PUSH1 0x20 SWAP4 DUP5 DUP4 MSTORE PUSH32 0x5361666545524332303A206C6F772D6C6576656C2063616C6C206661696C6564 DUP6 DUP5 ADD MSTORE PUSH1 0x0 DUP1 DUP6 DUP8 DUP3 SWAP8 MLOAD SWAP2 ADD DUP3 DUP6 GAS CALL SWAP1 RETURNDATASIZE ISZERO PUSH2 0x22BE JUMPI RETURNDATASIZE SWAP3 DUP4 GT PUSH2 0x22AA JUMPI SWAP1 PUSH2 0x2215 SWAP4 SWAP3 SWAP2 PUSH1 0x40 MLOAD SWAP3 PUSH2 0x2208 DUP9 PUSH1 0x1F NOT PUSH1 0x1F DUP5 ADD AND ADD DUP6 PUSH2 0x1F86 JUMP JUMPDEST DUP4 MSTORE RETURNDATASIZE DUP7 DUP9 DUP6 ADD RETURNDATACOPY PUSH2 0x22C9 JUMP JUMPDEST SWAP1 DUP2 MLOAD SWAP1 DUP4 DUP3 ISZERO SWAP3 DUP4 ISZERO PUSH2 0x2288 JUMPI JUMPDEST POP POP POP SWAP1 POP ISZERO PUSH2 0x2231 JUMPI POP JUMP JUMPDEST PUSH1 0x84 SWAP1 PUSH1 0x40 MLOAD SWAP1 PUSH3 0x461BCD PUSH1 0xE5 SHL DUP3 MSTORE PUSH1 0x4 DUP3 ADD MSTORE PUSH1 0x2A PUSH1 0x24 DUP3 ADD MSTORE PUSH32 0x5361666545524332303A204552433230206F7065726174696F6E20646964206E PUSH1 0x44 DUP3 ADD MSTORE PUSH10 0x1BDD081CDD58D8D95959 PUSH1 0xB2 SHL PUSH1 0x64 DUP3 ADD MSTORE REVERT JUMPDEST DUP5 DUP1 SWAP3 SWAP4 SWAP5 POP ADD SUB SLT PUSH2 0x24E JUMPI POP DUP2 PUSH2 0x22A1 SWAP2 ADD PUSH2 0x216D JUMP JUMPDEST DUP1 CODESIZE DUP4 DUP2 PUSH2 0x2224 JUMP JUMPDEST PUSH4 0x4E487B71 PUSH1 0xE0 SHL DUP6 MSTORE PUSH1 0x41 PUSH1 0x4 MSTORE PUSH1 0x24 DUP6 REVERT JUMPDEST SWAP1 PUSH2 0x2215 SWAP4 SWAP3 POP PUSH1 0x60 SWAP2 JUMPDEST SWAP2 SWAP3 SWAP1 ISZERO PUSH2 0x232B JUMPI POP DUP2 MLOAD ISZERO PUSH2 0x22DD JUMPI POP SWAP1 JUMP JUMPDEST EXTCODESIZE ISZERO PUSH2 0x22E6 JUMPI SWAP1 JUMP JUMPDEST PUSH1 0x40 MLOAD PUSH3 0x461BCD PUSH1 0xE5 SHL DUP2 MSTORE PUSH1 0x20 PUSH1 0x4 DUP3 ADD MSTORE PUSH1 0x1D PUSH1 0x24 DUP3 ADD MSTORE PUSH32 0x416464726573733A2063616C6C20746F206E6F6E2D636F6E7472616374000000 PUSH1 0x44 DUP3 ADD MSTORE PUSH1 0x64 SWAP1 REVERT JUMPDEST DUP3 MLOAD SWAP1 SWAP2 POP ISZERO PUSH2 0x233E JUMPI POP DUP1 MLOAD SWAP1 PUSH1 0x20 ADD REVERT JUMPDEST PUSH1 0x40 MLOAD PUSH3 0x461BCD PUSH1 0xE5 SHL DUP2 MSTORE SWAP1 DUP2 SWAP1 PUSH2 0x235A SWAP1 PUSH1 0x4 DUP4 ADD PUSH2 0x1FA8 JUMP JUMPDEST SUB SWAP1 REVERT JUMPDEST SWAP2 SWAP1 DUP3 SUB SWAP2 DUP3 GT PUSH2 0x2110 JUMPI JUMP JUMPDEST PUSH1 0x2 PUSH1 0x1 SLOAD EQ PUSH2 0x237C JUMPI PUSH1 0x2 PUSH1 0x1 SSTORE JUMP JUMPDEST PUSH1 0x40 MLOAD PUSH3 0x461BCD PUSH1 0xE5 SHL DUP2 MSTORE PUSH1 0x20 PUSH1 0x4 DUP3 ADD MSTORE PUSH1 0x1F PUSH1 0x24 DUP3 ADD MSTORE PUSH32 0x5265656E7472616E637947756172643A207265656E7472616E742063616C6C00 PUSH1 0x44 DUP3 ADD MSTORE PUSH1 0x64 SWAP1 REVERT JUMPDEST PUSH1 0x40 MLOAD PUSH4 0xA9059CBB PUSH1 0xE0 SHL PUSH1 0x20 DUP3 ADD MSTORE PUSH1 0x1 PUSH1 0x1 PUSH1 0xA0 SHL SUB SWAP1 SWAP3 AND PUSH1 0x24 DUP4 ADD MSTORE PUSH1 0x44 DUP3 ADD SWAP3 SWAP1 SWAP3 MSTORE PUSH2 0x2409 SWAP2 PUSH2 0x2404 DUP3 PUSH1 0x64 DUP2 ADD JUMPDEST SUB PUSH1 0x1F NOT DUP2 ADD DUP5 MSTORE DUP4 PUSH2 0x1F86 JUMP JUMPDEST PUSH2 0x217A JUMP JUMPDEST JUMP JUMPDEST SWAP2 SWAP1 DUP3 PUSH1 0xC0 SWAP2 SUB SLT PUSH2 0xF84 JUMPI DUP2 MLOAD SWAP2 PUSH1 0x20 DUP2 ADD MLOAD SWAP2 PUSH1 0x40 DUP3 ADD MLOAD SWAP2 PUSH1 0x60 DUP2 ADD MLOAD SWAP2 PUSH1 0xA0 PUSH1 0x80 DUP4 ADD MLOAD SWAP3 ADD MLOAD SWAP1 JUMP JUMPDEST PUSH1 0x40 MLOAD PUSH4 0x2FE4A15F PUSH1 0xE2 SHL DUP2 MSTORE ADDRESS PUSH1 0x4 DUP3 ADD MSTORE PUSH1 0xC0 DUP2 PUSH1 0x24 DUP2 PUSH32 0x0 PUSH1 0x1 PUSH1 0x1 PUSH1 0xA0 SHL SUB AND GAS STATICCALL SWAP1 DUP2 ISZERO PUSH2 0x24C1 JUMPI PUSH1 0x0 SWAP2 PUSH2 0x2490 JUMPI POP SWAP1 JUMP JUMPDEST PUSH2 0x24B1 SWAP2 POP PUSH1 0xC0 RETURNDATASIZE DUP2 GT PUSH2 0x24BA JUMPI JUMPDEST PUSH2 0x24A9 DUP2 DUP4 PUSH2 0x1F86 JUMP JUMPDEST DUP2 ADD SWAP1 PUSH2 0x240B JUMP JUMPDEST SWAP5 POP POP POP POP POP SWAP1 JUMP JUMPDEST POP RETURNDATASIZE PUSH2 0x249F JUMP JUMPDEST PUSH1 0x40 MLOAD RETURNDATASIZE PUSH1 0x0 DUP3 RETURNDATACOPY RETURNDATASIZE SWAP1 REVERT JUMPDEST MLOAD SWAP1 PUSH1 0x1 PUSH1 0x1 PUSH1 0xA0 SHL SUB DUP3 AND DUP3 SUB PUSH2 0xF84 JUMPI JUMP JUMPDEST MLOAD SWAP1 DUP2 PUSH1 0x2 SIGNEXTEND DUP3 SUB PUSH2 0xF84 JUMPI JUMP JUMPDEST MLOAD SWAP1 PUSH1 0x1 PUSH1 0x1 PUSH1 0x80 SHL SUB DUP3 AND DUP3 SUB PUSH2 0xF84 JUMPI JUMP JUMPDEST PUSH1 0x40 MLOAD PUSH4 0x70A08231 PUSH1 0xE0 SHL DUP2 MSTORE ADDRESS PUSH1 0x4 DUP3 ADD MSTORE PUSH1 0x1 PUSH1 0x1 PUSH1 0xA0 SHL SUB SWAP2 SWAP1 PUSH1 0x20 DUP2 PUSH1 0x24 DUP2 PUSH32 0x0 DUP8 AND GAS STATICCALL SWAP1 DUP2 ISZERO PUSH2 0x24C1 JUMPI PUSH1 0x0 SWAP2 PUSH2 0x26A2 JUMPI JUMPDEST POP PUSH1 0x0 SWAP1 PUSH1 0xC SLOAD DUP1 PUSH2 0x2576 JUMPI JUMPDEST POP PUSH2 0x2573 SWAP3 SWAP4 POP PUSH2 0x2103 JUMP JUMPDEST SWAP1 JUMP JUMPDEST PUSH1 0x40 MLOAD SWAP5 DUP6 SWAP2 PUSH4 0x133F7571 PUSH1 0xE3 SHL DUP4 MSTORE PUSH1 0x4 DUP4 ADD MSTORE DUP2 PUSH1 0x24 PUSH2 0x180 SWAP4 DUP5 SWAP4 PUSH32 0x0 AND GAS STATICCALL DUP4 SWAP2 DUP2 PUSH2 0x25E5 JUMPI JUMPDEST POP PUSH2 0x2573 SWAP5 SWAP6 POP PUSH2 0x25D4 JUMPI JUMPDEST DUP5 SWAP4 POP PUSH2 0x2567 JUMP JUMPDEST PUSH1 0x1 PUSH1 0x1 PUSH1 0x80 SHL SUB AND SWAP2 POP CODESIZE PUSH2 0x25CC JUMP JUMPDEST SWAP1 SWAP2 POP DUP6 DUP2 RETURNDATASIZE DUP4 GT PUSH2 0x269B JUMPI JUMPDEST PUSH2 0x25FC DUP2 DUP4 PUSH2 0x1F86 JUMP JUMPDEST DUP2 ADD SUB SLT PUSH2 0x3DE JUMPI DUP5 MLOAD PUSH1 0x1 PUSH1 0x1 PUSH1 0x60 SHL SUB DUP2 AND SUB PUSH2 0x3DE JUMPI PUSH2 0x2621 PUSH1 0x20 DUP7 ADD PUSH2 0x24CD JUMP JUMPDEST POP PUSH2 0x262E PUSH1 0x40 DUP7 ADD PUSH2 0x24CD JUMP JUMPDEST POP PUSH2 0x263B PUSH1 0x60 DUP7 ADD PUSH2 0x24CD JUMP JUMPDEST POP PUSH1 0x80 DUP6 ADD MLOAD PUSH3 0xFFFFFF DUP2 AND SUB PUSH2 0x3DE JUMPI DUP5 PUSH2 0x265D PUSH1 0xA0 PUSH2 0x2573 SWAP7 SWAP8 ADD PUSH2 0x24E1 JUMP JUMPDEST POP PUSH2 0x266A PUSH1 0xC0 DUP3 ADD PUSH2 0x24E1 JUMP JUMPDEST POP PUSH2 0x2692 PUSH2 0x160 PUSH2 0x267D PUSH1 0xE0 DUP5 ADD PUSH2 0x24EF JUMP JUMPDEST SWAP3 PUSH2 0x268B PUSH2 0x140 DUP3 ADD PUSH2 0x24EF JUMP JUMPDEST POP ADD PUSH2 0x24EF JUMP JUMPDEST POP SWAP1 DUP6 SWAP5 PUSH2 0x25C0 JUMP JUMPDEST POP RETURNDATASIZE PUSH2 0x25F2 JUMP JUMPDEST SWAP1 PUSH1 0x20 DUP3 RETURNDATASIZE DUP3 GT PUSH2 0x26CB JUMPI JUMPDEST DUP2 PUSH2 0x26BB PUSH1 0x20 SWAP4 DUP4 PUSH2 0x1F86 JUMP JUMPDEST DUP2 ADD SUB SLT PUSH2 0x24E JUMPI POP MLOAD CODESIZE PUSH2 0x255A JUMP JUMPDEST RETURNDATASIZE SWAP2 POP PUSH2 0x26AE JUMP JUMPDEST PUSH2 0x26DB PUSH2 0x2503 JUMP JUMPDEST PUSH1 0x40 MLOAD PUSH4 0x70A08231 PUSH1 0xE0 SHL DUP2 MSTORE ADDRESS PUSH1 0x4 DUP3 ADD MSTORE SWAP2 SWAP1 PUSH1 0x20 DUP4 PUSH1 0x24 DUP2 PUSH32 0x0 PUSH1 0x1 PUSH1 0x1 PUSH1 0xA0 SHL SUB AND GAS STATICCALL SWAP3 DUP4 ISZERO PUSH2 0x24C1 JUMPI PUSH1 0x0 SWAP4 PUSH2 0x273D JUMPI JUMPDEST POP SWAP2 PUSH2 0x2573 SWAP2 SWAP3 PUSH2 0x2103 JUMP JUMPDEST PUSH1 0x20 DUP2 RETURNDATASIZE DUP3 GT PUSH2 0x2768 JUMPI JUMPDEST DUP2 PUSH2 0x2755 PUSH1 0x20 SWAP4 DUP4 PUSH2 0x1F86 JUMP JUMPDEST DUP2 ADD SUB SLT PUSH2 0x832 JUMPI MLOAD SWAP3 POP PUSH2 0x2573 PUSH2 0x2731 JUMP JUMPDEST RETURNDATASIZE SWAP2 POP PUSH2 0x2748 JUMP JUMPDEST SWAP2 SWAP1 DUP3 PUSH2 0x140 SWAP2 SUB SLT PUSH2 0xF84 JUMPI DUP2 MLOAD SWAP2 PUSH1 0x20 DUP2 ADD MLOAD SWAP2 PUSH1 0x40 DUP3 ADD MLOAD SWAP2 PUSH1 0x60 DUP2 ADD MLOAD SWAP2 PUSH1 0x80 DUP3 ADD MLOAD SWAP2 PUSH1 0xA0 DUP2 ADD MLOAD SWAP2 PUSH1 0xC0 DUP3 ADD MLOAD SWAP2 PUSH1 0xE0 DUP2 ADD MLOAD SWAP2 PUSH2 0x120 PUSH2 0x100 DUP4 ADD MLOAD SWAP3 ADD MLOAD PUSH5 0xFFFFFFFFFF DUP2 AND DUP2 SUB PUSH2 0xF84 JUMPI SWAP1 JUMP JUMPDEST DUP2 DUP2 MUL SWAP3 SWAP2 DUP2 ISZERO SWAP2 DUP5 DIV EQ OR ISZERO PUSH2 0x2110 JUMPI JUMP JUMPDEST PUSH1 0x40 DUP1 MLOAD PUSH4 0x2FE4A15F PUSH1 0xE2 SHL DUP1 DUP3 MSTORE ADDRESS PUSH1 0x4 DUP4 ADD MSTORE PUSH1 0x1 PUSH1 0x1 PUSH1 0xA0 SHL SUB SWAP3 SWAP2 PUSH1 0x0 SWAP2 PUSH1 0xC0 SWAP2 PUSH32 0x0 DUP7 AND SWAP1 DUP4 DUP2 PUSH1 0x24 DUP2 DUP6 GAS STATICCALL SWAP1 DUP2 ISZERO PUSH2 0x582 JUMPI DUP6 SWAP1 DUP7 SWAP3 PUSH2 0x2A21 JUMPI JUMPDEST POP PUSH2 0x284C PUSH2 0x2710 SWAP2 PUSH1 0x8 SLOAD SWAP1 PUSH2 0x27C7 JUMP JUMPDEST DIV SWAP1 DUP2 DUP2 LT ISZERO PUSH2 0x28EA JUMPI PUSH2 0x285F SWAP2 PUSH2 0x235E JUMP JUMPDEST SWAP3 PUSH5 0x2540BE400 SWAP4 DUP5 DUP2 MUL SWAP5 DUP2 DUP7 DIV EQ SWAP1 ISZERO OR ISZERO PUSH2 0x2A0D JUMPI DUP4 ISZERO PUSH2 0x2A04 JUMPI PUSH32 0x0 SWAP7 DUP8 AND SWAP3 DUP3 EXTCODESIZE ISZERO PUSH2 0x840 JUMPI DUP7 MLOAD PUSH4 0xA415BCAD PUSH1 0xE0 SHL DUP2 MSTORE DUP5 PUSH1 0x4 DUP3 ADD MSTORE DUP6 PUSH1 0x24 DUP3 ADD MSTORE PUSH1 0x2 PUSH1 0x44 DUP3 ADD MSTORE DUP7 PUSH1 0x64 DUP3 ADD MSTORE ADDRESS PUSH1 0x84 DUP3 ADD MSTORE DUP7 DUP2 PUSH1 0xA4 DUP2 DUP4 DUP9 GAS CALL SWAP1 DUP2 PUSH2 0x29F1 JUMPI JUMPDEST POP PUSH2 0x28F4 JUMPI JUMPDEST POP POP POP POP POP POP POP POP JUMP JUMPDEST DUP7 MLOAD SWAP1 DUP2 MSTORE ADDRESS PUSH1 0x4 DUP3 ADD MSTORE DUP2 DUP2 PUSH1 0x24 DUP2 DUP7 GAS STATICCALL SWAP2 DUP3 ISZERO PUSH2 0x5B7 JUMPI DUP7 SWAP3 PUSH2 0x29CE JUMPI JUMPDEST POP POP PUSH1 0xA SLOAD GT PUSH2 0x2927 JUMPI JUMPDEST DUP1 DUP1 PUSH2 0x28EA JUMP JUMPDEST DUP1 PUSH2 0x293D PUSH2 0x297D SWAP8 PUSH1 0x20 SWAP6 PUSH1 0x1 SHR SWAP3 DUP4 SWAP2 PUSH2 0x2A4E JUMP JUMPDEST DUP6 MLOAD PUSH4 0x573ADE81 PUSH1 0xE0 SHL DUP2 MSTORE PUSH1 0x1 PUSH1 0x1 PUSH1 0xA0 SHL SUB SWAP1 SWAP4 AND PUSH1 0x4 DUP5 ADD MSTORE PUSH1 0x24 DUP4 ADD MSTORE PUSH1 0x2 PUSH1 0x44 DUP4 ADD MSTORE ADDRESS PUSH1 0x64 DUP4 ADD MSTORE SWAP1 SWAP5 DUP6 SWAP2 SWAP1 DUP3 SWAP1 DUP6 SWAP1 DUP3 SWAP1 PUSH1 0x84 DUP3 ADD SWAP1 JUMP JUMPDEST SUB SWAP3 GAS CALL SWAP2 DUP3 ISZERO PUSH2 0x29C4 JUMPI POP POP PUSH2 0x2999 JUMPI JUMPDEST DUP1 DUP1 DUP1 DUP1 DUP1 PUSH2 0x2920 JUMP JUMPDEST PUSH1 0x20 SWAP1 DUP2 RETURNDATASIZE DUP2 GT PUSH2 0x29BD JUMPI JUMPDEST PUSH2 0x29AF DUP2 DUP4 PUSH2 0x1F86 JUMP JUMPDEST DUP2 ADD SUB SLT PUSH2 0xF84 JUMPI CODESIZE PUSH2 0x298F JUMP JUMPDEST POP RETURNDATASIZE PUSH2 0x29A5 JUMP JUMPDEST MLOAD SWAP1 RETURNDATASIZE SWAP1 DUP3 RETURNDATACOPY RETURNDATASIZE SWAP1 REVERT JUMPDEST PUSH2 0x29E4 SWAP3 POP DUP1 RETURNDATASIZE LT PUSH2 0x24BA JUMPI PUSH2 0x24A9 DUP2 DUP4 PUSH2 0x1F86 JUMP JUMPDEST SWAP5 POP POP POP POP POP CODESIZE DUP1 PUSH2 0x2915 JUMP JUMPDEST PUSH2 0x29FD SWAP1 SWAP8 SWAP2 SWAP8 PUSH2 0x1F72 JUMP JUMPDEST SWAP6 CODESIZE PUSH2 0x28E4 JUMP JUMPDEST POP POP POP POP POP POP POP JUMP JUMPDEST PUSH4 0x4E487B71 PUSH1 0xE0 SHL DUP6 MSTORE PUSH1 0x11 PUSH1 0x4 MSTORE PUSH1 0x24 DUP6 REVERT JUMPDEST PUSH2 0x284C SWAP3 POP PUSH2 0x2710 SWAP2 POP PUSH2 0x2A41 SWAP1 DUP7 RETURNDATASIZE DUP9 GT PUSH2 0x24BA JUMPI PUSH2 0x24A9 DUP2 DUP4 PUSH2 0x1F86 JUMP JUMPDEST POP POP POP POP SWAP3 SWAP1 SWAP2 POP PUSH2 0x283B JUMP JUMPDEST SWAP2 SWAP1 SWAP2 DUP2 ISZERO DUP1 ISZERO PUSH2 0x2AFD JUMPI JUMPDEST ISZERO PUSH2 0x2A99 JUMPI PUSH1 0x40 MLOAD PUSH4 0x95EA7B3 PUSH1 0xE0 SHL PUSH1 0x20 DUP3 ADD MSTORE PUSH1 0x1 PUSH1 0x1 PUSH1 0xA0 SHL SUB SWAP1 SWAP4 AND PUSH1 0x24 DUP5 ADD MSTORE PUSH1 0x44 DUP4 ADD SWAP2 SWAP1 SWAP2 MSTORE PUSH2 0x2409 SWAP2 SWAP1 PUSH2 0x2404 DUP3 PUSH1 0x64 DUP2 ADD PUSH2 0x23F6 JUMP JUMPDEST PUSH1 0x40 MLOAD PUSH3 0x461BCD PUSH1 0xE5 SHL DUP2 MSTORE PUSH1 0x20 PUSH1 0x4 DUP3 ADD MSTORE PUSH1 0x36 PUSH1 0x24 DUP3 ADD MSTORE PUSH32 0x5361666545524332303A20617070726F76652066726F6D206E6F6E2D7A65726F PUSH1 0x44 DUP3 ADD MSTORE PUSH22 0x20746F206E6F6E2D7A65726F20616C6C6F77616E6365 PUSH1 0x50 SHL PUSH1 0x64 DUP3 ADD MSTORE PUSH1 0x84 SWAP1 REVERT JUMPDEST POP PUSH1 0x40 MLOAD PUSH4 0x6EB1769F PUSH1 0xE1 SHL DUP2 MSTORE ADDRESS PUSH1 0x4 DUP3 ADD MSTORE PUSH1 0x1 PUSH1 0x1 PUSH1 0xA0 SHL SUB DUP5 DUP2 AND PUSH1 0x24 DUP4 ADD MSTORE PUSH1 0x20 SWAP1 DUP3 SWAP1 PUSH1 0x44 SWAP1 DUP3 SWAP1 DUP7 AND GAS STATICCALL SWAP1 DUP2 ISZERO PUSH2 0x24C1 JUMPI PUSH1 0x0 SWAP2 PUSH2 0x2B45 JUMPI JUMPDEST POP ISZERO PUSH2 0x2A5A JUMP JUMPDEST SWAP1 PUSH1 0x20 DUP3 RETURNDATASIZE DUP3 GT PUSH2 0x2B6E JUMPI JUMPDEST DUP2 PUSH2 0x2B5E PUSH1 0x20 SWAP4 DUP4 PUSH2 0x1F86 JUMP JUMPDEST DUP2 ADD SUB SLT PUSH2 0x24E JUMPI POP MLOAD CODESIZE PUSH2 0x2B3E JUMP JUMPDEST RETURNDATASIZE SWAP2 POP PUSH2 0x2B51 JUMP JUMPDEST PUSH1 0x40 DUP1 MLOAD PUSH4 0x70A08231 PUSH1 0xE0 SHL DUP1 DUP3 MSTORE ADDRESS PUSH1 0x4 DUP4 ADD MSTORE SWAP1 PUSH32 0x0 PUSH1 0x1 PUSH1 0x1 PUSH1 0xA0 SHL SUB AND PUSH1 0x20 DUP3 PUSH1 0x24 DUP2 DUP5 GAS STATICCALL SWAP2 DUP3 ISZERO PUSH2 0x307B JUMPI PUSH1 0x0 SWAP3 PUSH2 0x3047 JUMPI JUMPDEST POP DUP4 MLOAD SWAP3 DUP4 MSTORE ADDRESS PUSH1 0x4 DUP5 ADD MSTORE PUSH32 0x0 PUSH1 0x1 PUSH1 0x1 PUSH1 0xA0 SHL SUB AND PUSH1 0x20 DUP5 PUSH1 0x24 DUP2 DUP5 GAS STATICCALL SWAP4 DUP5 ISZERO PUSH2 0x303C JUMPI PUSH1 0x0 SWAP5 PUSH2 0x3008 JUMPI JUMPDEST POP DUP3 ISZERO DUP1 PUSH2 0x3000 JUMPI JUMPDEST PUSH2 0x2FF9 JUMPI DUP1 DUP3 LT SWAP4 DUP5 ISZERO PUSH2 0x2FF2 JUMPI DUP3 DUP1 JUMPDEST PUSH1 0x1 PUSH1 0x1 PUSH1 0xA0 SHL SUB AND EQ SWAP4 DUP5 ISZERO PUSH2 0x2FEB JUMPI DUP1 SWAP5 JUMPDEST ISZERO PUSH2 0x2FE3 JUMPI POP SWAP2 JUMPDEST PUSH1 0xC SLOAD DUP1 PUSH2 0x2E87 JUMPI POP DUP5 ISZERO PUSH2 0x2E80 JUMPI DUP1 SWAP5 JUMPDEST ISZERO PUSH2 0x2E78 JUMPI POP SWAP2 JUMPDEST PUSH1 0xB SLOAD PUSH2 0x12C TIMESTAMP ADD SWAP4 DUP5 TIMESTAMP GT PUSH2 0x2110 JUMPI DUP7 MLOAD SWAP6 PUSH2 0x160 DUP8 ADD DUP8 DUP2 LT PUSH8 0xFFFFFFFFFFFFFFFF DUP3 GT OR PUSH2 0x1F40 JUMPI DUP9 MSTORE PUSH1 0x1 DUP1 PUSH1 0xA0 SHL SUB AND DUP7 MSTORE PUSH1 0x1 DUP1 PUSH1 0xA0 SHL SUB AND PUSH1 0x20 DUP7 ADD MSTORE PUSH3 0xFFFFFF DUP2 AND DUP7 DUP7 ADD MSTORE DUP1 PUSH1 0x18 SHR PUSH1 0x2 SIGNEXTEND PUSH1 0x60 DUP7 ADD MSTORE PUSH1 0x30 SHR PUSH1 0x2 SIGNEXTEND PUSH1 0x80 DUP6 ADD MSTORE PUSH1 0xA0 DUP5 ADD MSTORE PUSH1 0xC0 DUP4 ADD MSTORE PUSH1 0x0 PUSH1 0xE0 DUP4 ADD MSTORE PUSH1 0x0 PUSH2 0x100 DUP4 ADD MSTORE ADDRESS PUSH2 0x120 DUP4 ADD MSTORE PUSH2 0x140 DUP3 ADD MSTORE PUSH2 0x140 DUP3 MLOAD SWAP2 PUSH4 0x4418B22B PUSH1 0xE1 SHL DUP4 MSTORE PUSH1 0x1 DUP1 PUSH1 0xA0 SHL SUB DUP2 MLOAD AND PUSH1 0x4 DUP5 ADD MSTORE PUSH1 0x1 DUP1 PUSH1 0xA0 SHL SUB PUSH1 0x20 DUP3 ADD MLOAD AND PUSH1 0x24 DUP5 ADD MSTORE PUSH3 0xFFFFFF DUP5 DUP3 ADD MLOAD AND PUSH1 0x44 DUP5 ADD MSTORE PUSH1 0x60 DUP2 ADD MLOAD PUSH1 0x2 SIGNEXTEND PUSH1 0x64 DUP5 ADD MSTORE PUSH1 0x80 DUP2 ADD MLOAD PUSH1 0x2 SIGNEXTEND PUSH1 0x84 DUP5 ADD MSTORE PUSH1 0xA0 DUP2 ADD MLOAD PUSH1 0xA4 DUP5 ADD MSTORE PUSH1 0xC0 DUP2 ADD MLOAD PUSH1 0xC4 DUP5 ADD MSTORE PUSH1 0xE0 DUP2 ADD MLOAD PUSH1 0xE4 DUP5 ADD MSTORE PUSH2 0x100 DUP2 ADD MLOAD PUSH2 0x104 DUP5 ADD MSTORE PUSH1 0x1 DUP1 PUSH1 0xA0 SHL SUB PUSH2 0x120 DUP3 ADD MLOAD AND PUSH2 0x124 DUP5 ADD MSTORE ADD MLOAD PUSH2 0x144 DUP3 ADD MSTORE PUSH1 0x80 DUP2 PUSH2 0x164 DUP2 PUSH1 0x0 PUSH1 0x1 DUP1 PUSH1 0xA0 SHL SUB PUSH32 0x0 AND GAS CALL SWAP1 DUP2 PUSH1 0x0 SWAP2 DUP3 SWAP4 PUSH2 0x2E36 JUMPI JUMPDEST POP PUSH2 0x2DE0 JUMPI POP POP POP JUMP JUMPDEST PUSH1 0xC DUP2 SWAP1 SSTORE PUSH1 0xD DUP1 SLOAD PUSH1 0x1 PUSH1 0x1 PUSH1 0x80 SHL SUB NOT AND PUSH1 0x1 PUSH1 0x1 PUSH1 0x80 SHL SUB SWAP4 SWAP1 SWAP4 AND SWAP3 DUP4 OR SWAP1 SSTORE SWAP2 MLOAD SWAP2 DUP3 MSTORE PUSH1 0x20 DUP3 ADD MSTORE PUSH32 0xF8701AEBAD981298CBCA299E788F26035CDA70F25724C19B4987CD77EB8D3E65 SWAP1 PUSH1 0x40 SWAP1 LOG1 JUMP JUMPDEST SWAP2 SWAP1 SWAP3 POP PUSH1 0x80 DUP3 RETURNDATASIZE DUP3 GT PUSH2 0x2E70 JUMPI JUMPDEST DUP2 PUSH2 0x2E52 PUSH1 0x80 SWAP4 DUP4 PUSH2 0x1F86 JUMP JUMPDEST DUP2 ADD SUB SLT PUSH2 0x24E JUMPI POP PUSH2 0x2E69 PUSH1 0x20 DUP3 MLOAD SWAP3 ADD PUSH2 0x24EF JUMP JUMPDEST SWAP2 CODESIZE PUSH2 0x2DD6 JUMP JUMPDEST RETURNDATASIZE SWAP2 POP PUSH2 0x2E45 JUMP JUMPDEST SWAP1 POP SWAP2 PUSH2 0x2C6C JUMP JUMPDEST DUP2 SWAP5 PUSH2 0x2C64 JUMP JUMPDEST SWAP5 POP POP POP SWAP1 PUSH2 0x12C TIMESTAMP ADD SWAP2 DUP3 TIMESTAMP GT PUSH2 0x2110 JUMPI DUP5 MLOAD SWAP4 PUSH1 0xC0 DUP6 ADD DUP6 DUP2 LT PUSH8 0xFFFFFFFFFFFFFFFF DUP3 GT OR PUSH2 0x1F40 JUMPI DUP7 MSTORE DUP5 MSTORE PUSH1 0x20 DUP5 ADD SWAP2 DUP3 MSTORE DUP5 DUP5 ADD SWAP1 DUP2 MSTORE PUSH1 0x60 DUP5 ADD SWAP1 PUSH1 0x0 DUP3 MSTORE PUSH1 0x80 DUP6 ADD SWAP3 PUSH1 0x0 DUP5 MSTORE PUSH1 0xA0 DUP7 ADD SWAP5 DUP6 MSTORE DUP7 MLOAD SWAP6 PUSH4 0x219F5D17 PUSH1 0xE0 SHL DUP8 MSTORE MLOAD PUSH1 0x4 DUP8 ADD MSTORE MLOAD PUSH1 0x24 DUP7 ADD MSTORE MLOAD PUSH1 0x44 DUP6 ADD MSTORE MLOAD PUSH1 0x64 DUP5 ADD MSTORE MLOAD PUSH1 0x84 DUP4 ADD MSTORE MLOAD PUSH1 0xA4 DUP3 ADD MSTORE PUSH1 0x60 DUP2 PUSH1 0xC4 DUP2 PUSH1 0x0 PUSH1 0x1 DUP1 PUSH1 0xA0 SHL SUB PUSH32 0x0 AND GAS CALL PUSH1 0x0 SWAP2 DUP2 PUSH2 0x2FA8 JUMPI JUMPDEST POP PUSH2 0x2F54 JUMPI JUMPDEST POP POP JUMP JUMPDEST PUSH1 0xD DUP1 SLOAD PUSH1 0x1 PUSH1 0x1 PUSH1 0x80 SHL SUB NOT AND PUSH1 0x1 PUSH1 0x1 PUSH1 0x80 SHL SUB SWAP3 SWAP1 SWAP3 AND SWAP2 DUP3 OR SWAP1 SSTORE PUSH1 0xC SLOAD SWAP2 MLOAD SWAP2 DUP3 MSTORE PUSH1 0x20 DUP3 ADD MSTORE PUSH32 0xDBB42DD34AAA18592C2F40733256BA83B87CE95E87D5473752E3DC55A68FB592 SWAP1 PUSH1 0x40 SWAP1 LOG1 JUMP JUMPDEST SWAP1 SWAP2 PUSH1 0x60 DUP3 RETURNDATASIZE DUP3 GT PUSH2 0x2FDB JUMPI JUMPDEST DUP2 PUSH2 0x2FC2 PUSH1 0x60 SWAP4 DUP4 PUSH2 0x1F86 JUMP JUMPDEST DUP2 ADD SUB SLT PUSH2 0x24E JUMPI POP PUSH2 0x2FD4 SWAP1 PUSH2 0x24EF JUMP JUMPDEST SWAP1 CODESIZE PUSH2 0x2F4A JUMP JUMPDEST RETURNDATASIZE SWAP2 POP PUSH2 0x2FB5 JUMP JUMPDEST SWAP1 POP SWAP2 PUSH2 0x2C52 JUMP JUMPDEST DUP2 SWAP5 PUSH2 0x2C4A JUMP JUMPDEST DUP3 DUP3 PUSH2 0x2C36 JUMP JUMPDEST POP POP POP POP POP JUMP JUMPDEST POP DUP4 ISZERO PUSH2 0x2C25 JUMP JUMPDEST SWAP1 SWAP4 PUSH1 0x20 DUP3 RETURNDATASIZE PUSH1 0x20 GT PUSH2 0x3034 JUMPI JUMPDEST DUP2 PUSH2 0x3023 PUSH1 0x20 SWAP4 DUP4 PUSH2 0x1F86 JUMP JUMPDEST DUP2 ADD SUB SLT PUSH2 0x24E JUMPI POP MLOAD SWAP3 CODESIZE PUSH2 0x2C1C JUMP JUMPDEST RETURNDATASIZE SWAP2 POP PUSH2 0x3016 JUMP JUMPDEST DUP6 MLOAD RETURNDATASIZE PUSH1 0x0 DUP3 RETURNDATACOPY RETURNDATASIZE SWAP1 REVERT JUMPDEST SWAP1 SWAP2 PUSH1 0x20 DUP3 RETURNDATASIZE PUSH1 0x20 GT PUSH2 0x3073 JUMPI JUMPDEST DUP2 PUSH2 0x3062 PUSH1 0x20 SWAP4 DUP4 PUSH2 0x1F86 JUMP JUMPDEST DUP2 ADD SUB SLT PUSH2 0x24E JUMPI POP MLOAD SWAP1 CODESIZE PUSH2 0x2BCE JUMP JUMPDEST RETURNDATASIZE SWAP2 POP PUSH2 0x3055 JUMP JUMPDEST DUP5 MLOAD RETURNDATASIZE PUSH1 0x0 DUP3 RETURNDATACOPY RETURNDATASIZE SWAP1 REVERT JUMPDEST SWAP2 SWAP1 DUP3 PUSH1 0x40 SWAP2 SUB SLT PUSH2 0xF84 JUMPI PUSH1 0x20 DUP3 MLOAD SWAP3 ADD MLOAD SWAP1 JUMP JUMPDEST PUSH1 0xC SLOAD SWAP1 DUP2 ISZERO PUSH2 0x31BE JUMPI PUSH1 0x40 SWAP2 DUP3 MLOAD SWAP1 PUSH1 0x80 DUP3 ADD DUP3 DUP2 LT PUSH8 0xFFFFFFFFFFFFFFFF DUP3 GT OR PUSH2 0x1F40 JUMPI DUP5 MSTORE DUP2 MSTORE ADDRESS PUSH1 0x20 DUP3 ADD SWAP1 DUP2 MSTORE PUSH1 0x1 PUSH1 0x1 PUSH1 0x80 SHL SUB DUP3 DUP6 ADD DUP2 DUP2 MSTORE PUSH1 0x60 DUP5 ADD DUP3 DUP2 MSTORE DUP7 MLOAD PUSH4 0xFC6F7865 PUSH1 0xE0 SHL DUP2 MSTORE SWAP5 MLOAD PUSH1 0x4 DUP7 ADD MSTORE SWAP3 MLOAD PUSH1 0x1 PUSH1 0x1 PUSH1 0xA0 SHL SUB SWAP1 DUP2 AND PUSH1 0x24 DUP7 ADD MSTORE SWAP1 MLOAD DUP3 AND PUSH1 0x44 DUP6 ADD MSTORE SWAP2 MLOAD AND PUSH1 0x64 DUP4 ADD MSTORE DUP4 SWAP1 DUP3 SWAP1 PUSH1 0x84 SWAP1 DUP3 SWAP1 PUSH1 0x0 SWAP1 PUSH32 0x0 AND GAS CALL SWAP3 DUP4 PUSH1 0x0 SWAP3 DUP4 SWAP6 PUSH2 0x3199 JUMPI JUMPDEST POP PUSH2 0x3167 JUMPI POP POP SWAP1 POP PUSH1 0x0 SWAP1 PUSH1 0x0 SWAP1 JUMP JUMPDEST DUP1 PUSH32 0x49D512BF9CB224241C05691E73EB9FAB078CF350C7DBCBCF66788F1FC0CC8B0B SWAP2 MLOAD DUP4 DUP2 MSTORE DUP6 PUSH1 0x20 DUP3 ADD MSTORE LOG1 SWAP2 SWAP1 JUMP JUMPDEST SWAP1 SWAP5 POP DUP2 PUSH2 0x31B4 SWAP3 SWAP4 POP RETURNDATASIZE DUP5 GT PUSH2 0xC02 JUMPI PUSH2 0xBF5 DUP2 DUP4 PUSH2 0x1F86 JUMP JUMPDEST SWAP2 SWAP1 SWAP2 SWAP4 CODESIZE PUSH2 0x3156 JUMP JUMPDEST PUSH1 0x0 SWAP2 POP DUP2 SWAP1 JUMP JUMPDEST SWAP2 SWAP1 SWAP2 PUSH1 0x80 DUP1 PUSH1 0xA0 DUP4 ADD SWAP5 DUP1 MLOAD DUP5 MSTORE PUSH1 0x1 PUSH1 0x1 PUSH1 0x80 SHL SUB PUSH1 0x20 DUP3 ADD MLOAD AND PUSH1 0x20 DUP6 ADD MSTORE PUSH1 0x40 DUP2 ADD MLOAD PUSH1 0x40 DUP6 ADD MSTORE PUSH1 0x60 DUP2 ADD MLOAD PUSH1 0x60 DUP6 ADD MSTORE ADD MLOAD SWAP2 ADD MSTORE JUMP JUMPDEST PUSH1 0xC SLOAD SWAP1 DUP2 ISZERO DUP1 ISZERO PUSH2 0x330B JUMPI JUMPDEST PUSH2 0x2F50 JUMPI PUSH1 0x1 PUSH1 0x1 PUSH1 0x80 SHL SUB DUP1 SWAP2 AND DUP2 PUSH1 0xD SLOAD AND DUP1 DUP3 GT PUSH2 0x3303 JUMPI JUMPDEST POP PUSH2 0x12C TIMESTAMP ADD SWAP3 DUP4 TIMESTAMP GT PUSH2 0x2110 JUMPI PUSH2 0x3286 SWAP2 DUP4 SWAP2 PUSH1 0x40 SWAP3 DUP4 SWAP3 DUP4 MLOAD SWAP3 PUSH2 0x3251 DUP5 PUSH2 0x1F56 JUMP JUMPDEST DUP4 MSTORE AND SWAP6 DUP7 PUSH1 0x20 DUP4 ADD MSTORE PUSH1 0x0 DUP4 DUP4 ADD MSTORE PUSH1 0x0 PUSH1 0x60 DUP4 ADD MSTORE PUSH1 0x80 DUP3 ADD MSTORE DUP2 MLOAD DUP1 SWAP5 DUP2 SWAP3 PUSH4 0x624E65F PUSH1 0xE1 SHL DUP4 MSTORE PUSH1 0x4 DUP4 ADD PUSH2 0x31C6 JUMP JUMPDEST SUB DUP2 PUSH1 0x0 PUSH32 0x0 PUSH1 0x1 PUSH1 0x1 PUSH1 0xA0 SHL SUB AND GAS CALL SWAP2 DUP3 PUSH2 0x32E8 JUMPI JUMPDEST POP POP PUSH2 0x32C7 JUMPI POP POP JUMP JUMPDEST PUSH1 0xD SLOAD SWAP2 DUP2 DUP4 AND SUB DUP2 DUP2 GT PUSH2 0x2110 JUMPI AND SWAP1 PUSH1 0x1 PUSH1 0x1 PUSH1 0x80 SHL SUB NOT AND OR PUSH1 0xD SSTORE JUMP JUMPDEST DUP2 PUSH2 0x32FE SWAP3 SWAP1 RETURNDATASIZE LT PUSH2 0xC02 JUMPI PUSH2 0xBF5 DUP2 DUP4 PUSH2 0x1F86 JUMP JUMPDEST PUSH2 0x32BD JUMP JUMPDEST SWAP1 POP CODESIZE PUSH2 0x322C JUMP JUMPDEST POP PUSH1 0x1 PUSH1 0x1 PUSH1 0x80 SHL SUB PUSH1 0xD SLOAD AND ISZERO PUSH2 0x3210 JUMP JUMPDEST PUSH2 0x3326 PUSH2 0x2439 JUMP JUMPDEST PUSH1 0xA SLOAD GT PUSH2 0x3330 JUMPI JUMP JUMPDEST PUSH1 0x40 MLOAD PUSH4 0x70A08231 PUSH1 0xE0 SHL DUP2 MSTORE ADDRESS PUSH1 0x4 DUP3 ADD MSTORE PUSH1 0x20 SWAP1 PUSH1 0x1 PUSH1 0x1 PUSH1 0xA0 SHL SUB PUSH32 0x0 DUP2 DUP2 AND SWAP1 DUP5 DUP5 PUSH1 0x24 DUP2 DUP6 GAS STATICCALL SWAP4 DUP5 ISZERO PUSH2 0x24C1 JUMPI PUSH1 0x0 SWAP5 PUSH2 0x3446 JUMPI JUMPDEST POP DUP4 PUSH2 0x3397 JUMPI POP POP POP POP POP JUMP JUMPDEST DUP4 PUSH2 0x33CA PUSH2 0x340C SWAP6 DUP8 SWAP6 PUSH32 0x0 AND DUP1 SWAP5 PUSH2 0x2A4E JUMP JUMPDEST PUSH1 0x40 MLOAD PUSH4 0x573ADE81 PUSH1 0xE0 SHL DUP2 MSTORE PUSH1 0x1 PUSH1 0x1 PUSH1 0xA0 SHL SUB SWAP1 SWAP4 AND PUSH1 0x4 DUP5 ADD MSTORE PUSH1 0x24 DUP4 ADD MSTORE PUSH1 0x2 PUSH1 0x44 DUP4 ADD MSTORE ADDRESS PUSH1 0x64 DUP4 ADD MSTORE SWAP1 SWAP3 DUP4 SWAP2 SWAP1 DUP3 SWAP1 PUSH1 0x0 SWAP1 DUP3 SWAP1 PUSH1 0x84 DUP3 ADD SWAP1 JUMP JUMPDEST SUB SWAP3 GAS CALL PUSH2 0x341D JUMPI JUMPDEST DUP1 DUP1 DUP1 PUSH2 0x2FF9 JUMP JUMPDEST DUP2 RETURNDATASIZE DUP4 GT PUSH2 0x343F JUMPI JUMPDEST PUSH2 0x3430 DUP2 DUP4 PUSH2 0x1F86 JUMP JUMPDEST DUP2 ADD SUB SLT PUSH2 0xF84 JUMPI CODESIZE DUP1 PUSH2 0x3415 JUMP JUMPDEST POP RETURNDATASIZE PUSH2 0x3426 JUMP JUMPDEST SWAP1 SWAP4 DUP6 DUP3 DUP2 RETURNDATASIZE DUP4 GT PUSH2 0x346E JUMPI JUMPDEST PUSH2 0x345D DUP2 DUP4 PUSH2 0x1F86 JUMP JUMPDEST DUP2 ADD SUB SLT PUSH2 0x24E JUMPI POP MLOAD SWAP3 CODESIZE PUSH2 0x338A JUMP JUMPDEST POP RETURNDATASIZE PUSH2 0x3453 JUMP JUMPDEST MLOAD SWAP1 PUSH2 0xFFFF DUP3 AND DUP3 SUB PUSH2 0xF84 JUMPI JUMP JUMPDEST PUSH2 0x2710 DUP2 MLOAD GT PUSH2 0x356B JUMPI PUSH2 0x1F40 PUSH1 0x20 DUP3 ADD MLOAD GT PUSH2 0x352E JUMPI PUSH8 0x120A871CC0020000 PUSH1 0x60 DUP3 ADD MLOAD LT PUSH2 0x34FC JUMPI PUSH1 0xC0 PUSH1 0xA0 DUP3 ADD MLOAD SWAP2 ADD MLOAD PUSH1 0x2 SIGNEXTEND SWAP1 PUSH1 0x2 SIGNEXTEND SLT ISZERO PUSH2 0x34C7 JUMPI JUMP JUMPDEST PUSH1 0x40 MLOAD PUSH3 0x461BCD PUSH1 0xE5 SHL DUP2 MSTORE PUSH1 0x20 PUSH1 0x4 DUP3 ADD MSTORE PUSH1 0xD PUSH1 0x24 DUP3 ADD MSTORE PUSH13 0x496E76616C6964207469636B73 PUSH1 0x98 SHL PUSH1 0x44 DUP3 ADD MSTORE PUSH1 0x64 SWAP1 REVERT JUMPDEST PUSH1 0x40 MLOAD PUSH3 0x461BCD PUSH1 0xE5 SHL DUP2 MSTORE PUSH1 0x20 PUSH1 0x4 DUP3 ADD MSTORE PUSH1 0xA PUSH1 0x24 DUP3 ADD MSTORE PUSH10 0x484620746F6F206C6F77 PUSH1 0xB0 SHL PUSH1 0x44 DUP3 ADD MSTORE PUSH1 0x64 SWAP1 REVERT JUMPDEST PUSH1 0x40 MLOAD PUSH3 0x461BCD PUSH1 0xE5 SHL DUP2 MSTORE PUSH1 0x20 PUSH1 0x4 DUP3 ADD MSTORE PUSH1 0x15 PUSH1 0x24 DUP3 ADD MSTORE PUSH21 0x84DEE4E4DEEE40E4C2E8D2DE40E8DEDE40D0D2CED PUSH1 0x5B SHL PUSH1 0x44 DUP3 ADD MSTORE PUSH1 0x64 SWAP1 REVERT JUMPDEST PUSH1 0x40 MLOAD PUSH3 0x461BCD PUSH1 0xE5 SHL DUP2 MSTORE PUSH1 0x20 PUSH1 0x4 DUP3 ADD MSTORE PUSH1 0x15 PUSH1 0x24 DUP3 ADD MSTORE PUSH21 0x496E76616C6964206C656E64696E6720726174696F PUSH1 0x58 SHL PUSH1 0x44 DUP3 ADD MSTORE PUSH1 0x64 SWAP1 REVERT INVALID LOG2 PUSH5 0x6970667358 0x22 SLT KECCAK256 0xF9 SGT DELEGATECALL 0x26 0x49 LOG2 PUSH17 0xF17160F467AE63637E150F45F50A92E879 0x1F AND 0x4D 0xA5 PUSH1 0x1C DUP16 DUP12 PUSH5 0x736F6C6343 STOP ADDMOD EQ STOP CALLER "},"methodIdentifiers":{"RATIO_PRECISION()":"d32867d0","STABLE_FEE_TIER()":"22c4e314","aToken()":"a0c1f15e","aavePool()":"a03e4bc3","balanceOfPool()":"11588086","compound()":"f69e2046","currentLiquidity()":"46caf2ae","dataProvider()":"b334ed86","deposit(uint256)":"b6b55f25","emergencyWithdraw(address)":"6ff1c9bc","estimatedAPY()":"f19993d7","estimatedTotalAssets()":"efbb5cb0","harvest()":"4641257d","healthFactor()":"22841f01","isActive()":"22f3e2d4","lastReportTime()":"e0115d0d","lpPool()":"3737bcb4","lpTokenId()":"0242d712","name()":"06fdde03","onERC721Received(address,address,uint256,bytes)":"150b7a02","owner()":"8da5cb5b","pause()":"8456cb59","paused()":"5c975abb","positionManager()":"791b98bc","rebalance()":"7d7c2a1c","renounceOwnership()":"715018a6","riskParams()":"fefb36ce","setController(address)":"92eefe9b","setRiskParams(bytes)":"3ac0ba05","setRiskParamsDirect(uint256,uint256,uint256,uint256,uint24,int24,int24)":"5f77b5a1","setVault(address)":"6817031b","strategyController()":"00258d6b","sweep(address)":"01681a62","token1()":"d21220a7","totalAssets()":"01e1d114","totalDebt()":"fc7b9c18","transferOwnership(address)":"f2fde38b","unpause()":"3f4ba83a","vault()":"fbfa77cf","want()":"1f1fcd51","wantToken()":"d23e0480","withdraw(uint256)":"2e1a7d4d"}}}}}