{
  "_format": "hh-sol-artifact-1",
  "contractName": "StrategyControllerV3",
  "sourceName": "contracts/strategies/StrategyControllerV3.sol",
  "abi": [
    {
      "inputs": [
        {
          "internalType": "address",
          "name": "_want",
          "type": "address"
        },
        {
          "internalType": "address",
          "name": "_vault",
          "type": "address"
        },
        {
          "internalType": "address",
          "name": "_owner",
          "type": "address"
        }
      ],
      "stateMutability": "nonpayable",
      "type": "constructor"
    },
    {
      "anonymous": false,
      "inputs": [
        {
          "indexed": true,
          "internalType": "address",
          "name": "strategy",
          "type": "address"
        },
        {
          "indexed": false,
          "internalType": "uint256",
          "name": "newAllocation",
          "type": "uint256"
        }
      ],
      "name": "AllocationUpdated",
      "type": "event"
    },
    {
      "anonymous": false,
      "inputs": [
        {
          "indexed": true,
          "internalType": "address",
          "name": "strategy",
          "type": "address"
        },
        {
          "indexed": false,
          "internalType": "uint256",
          "name": "amount",
          "type": "uint256"
        }
      ],
      "name": "Deposited",
      "type": "event"
    },
    {
      "anonymous": false,
      "inputs": [
        {
          "indexed": true,
          "internalType": "address",
          "name": "strategy",
          "type": "address"
        },
        {
          "indexed": false,
          "internalType": "uint256",
          "name": "profit",
          "type": "uint256"
        },
        {
          "indexed": false,
          "internalType": "uint256",
          "name": "loss",
          "type": "uint256"
        }
      ],
      "name": "Harvested",
      "type": "event"
    },
    {
      "anonymous": false,
      "inputs": [
        {
          "indexed": true,
          "internalType": "address",
          "name": "previousOwner",
          "type": "address"
        },
        {
          "indexed": true,
          "internalType": "address",
          "name": "newOwner",
          "type": "address"
        }
      ],
      "name": "OwnershipTransferred",
      "type": "event"
    },
    {
      "anonymous": false,
      "inputs": [
        {
          "indexed": false,
          "internalType": "address",
          "name": "account",
          "type": "address"
        }
      ],
      "name": "Paused",
      "type": "event"
    },
    {
      "anonymous": false,
      "inputs": [],
      "name": "Rebalanced",
      "type": "event"
    },
    {
      "anonymous": false,
      "inputs": [
        {
          "indexed": true,
          "internalType": "address",
          "name": "strategy",
          "type": "address"
        },
        {
          "indexed": false,
          "internalType": "string",
          "name": "name",
          "type": "string"
        },
        {
          "indexed": false,
          "internalType": "uint256",
          "name": "allocation",
          "type": "uint256"
        }
      ],
      "name": "StrategyAdded",
      "type": "event"
    },
    {
      "anonymous": false,
      "inputs": [
        {
          "indexed": true,
          "internalType": "address",
          "name": "strategy",
          "type": "address"
        }
      ],
      "name": "StrategyRemoved",
      "type": "event"
    },
    {
      "anonymous": false,
      "inputs": [
        {
          "indexed": false,
          "internalType": "address",
          "name": "account",
          "type": "address"
        }
      ],
      "name": "Unpaused",
      "type": "event"
    },
    {
      "anonymous": false,
      "inputs": [
        {
          "indexed": true,
          "internalType": "address",
          "name": "strategy",
          "type": "address"
        },
        {
          "indexed": false,
          "internalType": "uint256",
          "name": "amount",
          "type": "uint256"
        }
      ],
      "name": "Withdrawn",
      "type": "event"
    },
    {
      "inputs": [
        {
          "internalType": "address",
          "name": "_strategy",
          "type": "address"
        },
        {
          "internalType": "uint256",
          "name": "_allocation",
          "type": "uint256"
        }
      ],
      "name": "addStrategy",
      "outputs": [],
      "stateMutability": "nonpayable",
      "type": "function"
    },
    {
      "inputs": [],
      "name": "averageAPY",
      "outputs": [
        {
          "internalType": "uint256",
          "name": "",
          "type": "uint256"
        }
      ],
      "stateMutability": "view",
      "type": "function"
    },
    {
      "inputs": [
        {
          "internalType": "uint256",
          "name": "_amount",
          "type": "uint256"
        }
      ],
      "name": "deposit",
      "outputs": [],
      "stateMutability": "nonpayable",
      "type": "function"
    },
    {
      "inputs": [
        {
          "internalType": "address",
          "name": "_to",
          "type": "address"
        }
      ],
      "name": "emergencyWithdrawAll",
      "outputs": [],
      "stateMutability": "nonpayable",
      "type": "function"
    },
    {
      "inputs": [],
      "name": "getActiveStrategies",
      "outputs": [
        {
          "internalType": "address[]",
          "name": "",
          "type": "address[]"
        }
      ],
      "stateMutability": "view",
      "type": "function"
    },
    {
      "inputs": [],
      "name": "getAllStrategies",
      "outputs": [
        {
          "components": [
            {
              "internalType": "address",
              "name": "strategy",
              "type": "address"
            },
            {
              "internalType": "string",
              "name": "name",
              "type": "string"
            },
            {
              "internalType": "uint256",
              "name": "allocation",
              "type": "uint256"
            },
            {
              "internalType": "bool",
              "name": "active",
              "type": "bool"
            },
            {
              "internalType": "uint256",
              "name": "lastHarvest",
              "type": "uint256"
            },
            {
              "internalType": "uint256",
              "name": "totalDeposited",
              "type": "uint256"
            },
            {
              "internalType": "uint256",
              "name": "totalWithdrawn",
              "type": "uint256"
            }
          ],
          "internalType": "struct StrategyControllerV3.StrategyInfo[]",
          "name": "",
          "type": "tuple[]"
        }
      ],
      "stateMutability": "view",
      "type": "function"
    },
    {
      "inputs": [],
      "name": "harvestAll",
      "outputs": [],
      "stateMutability": "nonpayable",
      "type": "function"
    },
    {
      "inputs": [
        {
          "internalType": "address",
          "name": "",
          "type": "address"
        }
      ],
      "name": "isStrategy",
      "outputs": [
        {
          "internalType": "bool",
          "name": "",
          "type": "bool"
        }
      ],
      "stateMutability": "view",
      "type": "function"
    },
    {
      "inputs": [],
      "name": "owner",
      "outputs": [
        {
          "internalType": "address",
          "name": "",
          "type": "address"
        }
      ],
      "stateMutability": "view",
      "type": "function"
    },
    {
      "inputs": [],
      "name": "pause",
      "outputs": [],
      "stateMutability": "nonpayable",
      "type": "function"
    },
    {
      "inputs": [],
      "name": "paused",
      "outputs": [
        {
          "internalType": "bool",
          "name": "",
          "type": "bool"
        }
      ],
      "stateMutability": "view",
      "type": "function"
    },
    {
      "inputs": [],
      "name": "rebalance",
      "outputs": [],
      "stateMutability": "nonpayable",
      "type": "function"
    },
    {
      "inputs": [
        {
          "internalType": "address",
          "name": "_strategy",
          "type": "address"
        }
      ],
      "name": "removeStrategy",
      "outputs": [],
      "stateMutability": "nonpayable",
      "type": "function"
    },
    {
      "inputs": [],
      "name": "renounceOwnership",
      "outputs": [],
      "stateMutability": "nonpayable",
      "type": "function"
    },
    {
      "inputs": [
        {
          "internalType": "address",
          "name": "_strategy",
          "type": "address"
        },
        {
          "internalType": "uint256",
          "name": "_allocation",
          "type": "uint256"
        }
      ],
      "name": "setAllocation",
      "outputs": [],
      "stateMutability": "nonpayable",
      "type": "function"
    },
    {
      "inputs": [
        {
          "internalType": "address",
          "name": "_strategy",
          "type": "address"
        },
        {
          "internalType": "bool",
          "name": "_active",
          "type": "bool"
        }
      ],
      "name": "setStrategyActive",
      "outputs": [],
      "stateMutability": "nonpayable",
      "type": "function"
    },
    {
      "inputs": [
        {
          "internalType": "address",
          "name": "_vault",
          "type": "address"
        }
      ],
      "name": "setVault",
      "outputs": [],
      "stateMutability": "nonpayable",
      "type": "function"
    },
    {
      "inputs": [
        {
          "internalType": "address",
          "name": "",
          "type": "address"
        }
      ],
      "name": "strategies",
      "outputs": [
        {
          "internalType": "address",
          "name": "strategy",
          "type": "address"
        },
        {
          "internalType": "string",
          "name": "name",
          "type": "string"
        },
        {
          "internalType": "uint256",
          "name": "allocation",
          "type": "uint256"
        },
        {
          "internalType": "bool",
          "name": "active",
          "type": "bool"
        },
        {
          "internalType": "uint256",
          "name": "lastHarvest",
          "type": "uint256"
        },
        {
          "internalType": "uint256",
          "name": "totalDeposited",
          "type": "uint256"
        },
        {
          "internalType": "uint256",
          "name": "totalWithdrawn",
          "type": "uint256"
        }
      ],
      "stateMutability": "view",
      "type": "function"
    },
    {
      "inputs": [
        {
          "internalType": "uint256",
          "name": "",
          "type": "uint256"
        }
      ],
      "name": "strategyList",
      "outputs": [
        {
          "internalType": "address",
          "name": "",
          "type": "address"
        }
      ],
      "stateMutability": "view",
      "type": "function"
    },
    {
      "inputs": [
        {
          "internalType": "address",
          "name": "_token",
          "type": "address"
        }
      ],
      "name": "sweep",
      "outputs": [],
      "stateMutability": "nonpayable",
      "type": "function"
    },
    {
      "inputs": [],
      "name": "totalAllocation",
      "outputs": [
        {
          "internalType": "uint256",
          "name": "",
          "type": "uint256"
        }
      ],
      "stateMutability": "view",
      "type": "function"
    },
    {
      "inputs": [],
      "name": "totalAssets",
      "outputs": [
        {
          "internalType": "uint256",
          "name": "",
          "type": "uint256"
        }
      ],
      "stateMutability": "view",
      "type": "function"
    },
    {
      "inputs": [
        {
          "internalType": "address",
          "name": "newOwner",
          "type": "address"
        }
      ],
      "name": "transferOwnership",
      "outputs": [],
      "stateMutability": "nonpayable",
      "type": "function"
    },
    {
      "inputs": [],
      "name": "unpause",
      "outputs": [],
      "stateMutability": "nonpayable",
      "type": "function"
    },
    {
      "inputs": [],
      "name": "vault",
      "outputs": [
        {
          "internalType": "address",
          "name": "",
          "type": "address"
        }
      ],
      "stateMutability": "view",
      "type": "function"
    },
    {
      "inputs": [],
      "name": "want",
      "outputs": [
        {
          "internalType": "contract IERC20",
          "name": "",
          "type": "address"
        }
      ],
      "stateMutability": "view",
      "type": "function"
    },
    {
      "inputs": [
        {
          "internalType": "uint256",
          "name": "_amount",
          "type": "uint256"
        }
      ],
      "name": "withdraw",
      "outputs": [],
      "stateMutability": "nonpayable",
      "type": "function"
    }
  ],
  "bytecode": "0x60a034620000f057601f620027fd38819003918201601f19168301916001600160401b03831184841017620000f557808492606094604052833981010312620000f0578062000052620000b4926200010b565b6200006e604062000066602085016200010b565b93016200010b565b916200007a3362000120565b6000805460ff60a01b19169055600180556001600160a01b03918216608052600580546001600160a01b0319169190921617905562000120565b60405161269590816200016882396080518181816109dc015281816110010152818161149a015281816116f001528181611d0c01526122d80152f35b600080fd5b634e487b7160e01b600052604160045260246000fd5b51906001600160a01b0382168203620000f057565b600080546001600160a01b039283166001600160a01b03198216811783559216907f8be0079c531659141344cd1fd0a4f28419497f9722a3daafe3b4186f6b6457e09080a356fe6080604052600436101561001257600080fd5b600060e08135811c90816301681a621461199457816301e1d11414611979578163175188e81461171f5781631f1fcd51146116da5781632e1a7d4d146116995781632e8ebaae1461165a57816339ebf823146115c15781633f4ba83a1461152657816354ab6269146113a7578163587436e4146112325781635c975abb1461120d5781636817031b146111cd578163715018a61461117357816379203dc4146111555781637d7c2a1c14610ec35781638456cb5914610e625781638da5cb5b14610e3b5781638ed955b914610d0b5781639076c16614610c5a578163a267526b14610c16578163b0f42a1d14610b9c578163b6b55f2514610990578163c3b28864146107a957508063c9411e22146103ec578063d17132cc1461023a578063f2fde38b146101745763fbfa77cf1461014957600080fd5b346101715780600319360112610171576005546040516001600160a01b039091168152602090f35b80fd5b50346101715760203660031901126101715761018e611a35565b610196611c28565b6001600160a01b039081169081156101e657600054826001600160601b0360a01b821617600055167f8be0079c531659141344cd1fd0a4f28419497f9722a3daafe3b4186f6b6457e0600080a380f35b60405162461bcd60e51b815260206004820152602660248201527f4f776e61626c653a206e6577206f776e657220697320746865207a65726f206160448201526564647265737360d01b6064820152608490fd5b503461017157806003193601126101715780808060028054915b82811061029b57505082159190508161028f575061027957602091045b604051908152f35b634e487b7160e01b600052601260045260246000fd5b91505060209150610271565b6102a481611bdb565b9054600391821b1c6001600160a01b039081168652602082815260408088209051919291906102d282611aaf565b8281541682526102e460018201611aed565b8483015286810154600660ff60408501978389528401541615159283606086015260048101546080860152600581015460a0860152015460c0840152816103e2575b5061033e575b5050505061033990611c98565b610254565b5160405163f19993d760e01b815293999498949391839183916004918391165afa9182156103d757879261039e575b50509161038c61039492610386610339958b5190611e67565b90611cd1565b975190611cd1565b949038808061032c565b9080949250813d83116103d0575b6103b68183611acb565b810103126103cb57915161038c61039461036d565b600080fd5b503d6103ac565b6040513d89823e3d90fd5b9050151538610326565b503461017157604036600319011261017157610406611a35565b61040e611c28565b6001600160a01b0381811683526004602052604083205460ff166107745761043c6127106024351115612580565b6002546801000000000000000081101561076057826104648260016104839401600255611bdb565b90919082549060031b9160018060a01b03809116831b921b1916179055565b6040516306fdde0360e01b815283816004818686165afa908115610666578491610746575b506040516104b581611aaf565b8284168152602081019182526024356040820152600160608201528460808201528460a08201528460c0820152828416855260036020526040852091838251166001600160601b0360a01b8454161783555180519067ffffffffffffffff8211610732576105266001850154611a4b565b601f81116106ee575b50602090601f831160011461067c5791806006949260c0948a92610671575b50508160011b916000199060031b1c19161760018501555b6040810151600285015561058f60608201511515600386019060ff801983541691151516179055565b6080810151600485015560a0810151600585015501519101558082168352600460205260408320600160ff198254161790556105cf602435600654611cd1565b6006556040516306fdde0360e01b815283816004818686165afa8015610666577f543e7b8634c9242067ab3532ce2794d4b6eb718cfc76ca756a581f0cfb1c6ce792610631928692610642575b50604051928392604084526040840190611bb6565b94602435602084015216930390a280f35b61065f9192503d8088833e6106578183611acb565b8101906125c1565b903861061c565b6040513d86823e3d90fd5b01519050388061054e565b906001850188526020882091885b601f19851681106106d65750926006949260019260c09583601f198116106106bd575b505050811b016001850155610566565b015160001960f88460031b161c191690553880806106ad565b9192602060018192868501518155019401920161068a565b60018501885260208820601f840160051c81016020851061072b575b601f830160051c8201811061072057505061052f565b89815560010161070a565b508061070a565b634e487b7160e01b87526041600452602487fd5b61075a91503d8086833e6106578183611acb565b386104a8565b634e487b7160e01b84526041600452602484fd5b60405162461bcd60e51b815260206004820152600d60248201526c105b1c9958591e481859191959609a1b6044820152606490fd5b8234610171578060031936011261017157600280546107c781611c80565b916107d56040519384611acb565b818352601f196107e483611c80565b01845b81811061094e575050835b8281106108a957505050604051916020808401908085528351809252604085018160408460051b880101950193965b83881061082e5786860387f35b90919293948380600192603f198a8203018652885190848060a01b03825116815261086483830151878584015287830190611bb6565b91604081015160408301526060808201511515908301526080808201519083015260a0808201519083015260c080910151910152970193019701969093929193610821565b8060066108b861094993611bdb565b9054600391821b1c6001600160a01b03908116895260208281526040808b2090519493909260ff92906108ea87611aaf565b84541686526108fb60018501611aed565b90860152878301546040860152820154161515606084015260048101546080840152600581015460a0840152015460c08201526109388287611cbd565b526109438186611cbd565b50611c98565b6107f2565b60209060405161095d81611aaf565b878152606088849180838501528160408501528301528860808301528860a08301528860c08301528288010152016107e7565b823461017157602080600319360112610b98576004359160018060a01b036005906109bf818354163314611e7a565b6109c7611eed565b6109cf611f34565b6109da851515611eb3565b7f000000000000000000000000000000000000000000000000000000000000000091604051936323b872dd60e01b8686015260249433868201523060448201528760648201526064815260a0810181811067ffffffffffffffff821117610b8357604052610a4890856120dd565b805b60028054821015610b7b578490610a6083611bdb565b929054600393841b1c16845281895260ff60408520928301541680610b6f575b610a95575b5050610a9090611c98565b610a4a565b610aa5612710918301548b611e67565b04908115610a8557610abb828783541689611f8a565b85815416803b15610b6b578480918a6040518094819363b6b55f2560e01b83528860048401525af18015610b6057918588928c94610b40575b5050917f2da466a7b24304f47e87fa2e1e5a81b9831ce54fec19055ce277ca2f39ba42c4918388610a9097969501610b2d868254611cd1565b9055541692604051908152a29089610a85565b909250610b4e919350611a85565b610b5c57858991858d610af4565b8380fd5b6040513d87823e3d90fd5b8480fd5b50808201541515610a80565b826001805580f35b86634e487b7160e01b60005260416004526000fd5b5080fd5b823461017157604036600319011261017157610bb6611a35565b6024358015158103610c1257610c0f91610bce611c28565b6001600160a01b031680845260046020526040842054610bf09060ff16612620565b83526003602052600360408420019060ff801983541691151516179055565b80f35b8280fd5b82346101715760203660031901126101715760043590600254821015610171576020610c4183611bdb565b905460405160039290921b1c6001600160a01b03168152f35b823461017157604036600319011261017157610c74611a35565b7f183f2ce0b749ed46549cb16586af0c501abab8d242cc4b2076aec30d2dd9c4bc602060243592610ca3611c28565b6001600160a01b0316808552600482526040852054909390610cc79060ff16612620565b610cd5612710821115612580565b838552600382528060408620610cfd82610cf860026006549401938454906122a4565b611cd1565b60065555604051908152a280f35b8234610171578060031936011261017157610d24611f34565b80805b600254811015610e3357610d3a81611bdb565b9054600391821b1c6001600160a01b0390811684526020828152604085209283015490929060ff16610d7b575b505050610d749150611c98565b8190610d27565b6040828254166004825180988193634641257d60e01b83525af1948587918891610df5575b50610d7496610db4575b5050859450610d67565b7f81ca9b2c230070eaa84787556b1aaf18bf1e2f07ea5d3dae4819db77a1a5b224936040934260048201555416948351928352820152a28380808080610daa565b9150506040813d604011610e2b575b81610e1160409383611acb565b81010312610e2757805190840151610d74610da0565b8680fd5b3d9150610e04565b506001805580f35b8234610171578060031936011261017157546040516001600160a01b039091168152602090f35b8234610171578060031936011261017157610e7b611c28565b610e83611eed565b805460ff60a01b1916600160a01b1781556040513381527f62e78cea01bee320cd4e420270b5ea74000d11b0c9f74754ebdbfc544b05a25890602090a180f35b8234610171578060031936011261017157610edc611c28565b610ee4611cde565b815b826002805483101561112d57610efb83611bdb565b9054600391821b1c6001600160a01b0390811684526020828152604085209283015490939060ff161561111f57610f386127109184015488611e67565b0481835416604051906278744560e21b82528582600481845afa9182156103d75787926110ed575b5082821115610fda5750610f76929394506122a4565b91541690813b15610c12578291602483926040519485938492632e1a7d4d60e01b845260048401525af18015610fcf57610fbb575b5050610fb690611c98565b610ee6565b610fc490611a85565b610c12578284610fab565b6040513d84823e3d90fd5b9391808210610ff4575b50505050505050610fb690611c98565b90610ffe916122a4565b927f0000000000000000000000000000000000000000000000000000000000000000604051956370a0823160e01b8752306004880152602496818189818987165afa9182156110e25789926110b0575b50508511610fe457611061918591611f8a565b5416803b15610b5c5783928392604051948593849263b6b55f2560e01b845260048401525af18015610fcf5761109c575b8080808080610fe4565b6110a590611a85565b610c12578284611092565b8199508092503d83116110db575b6110c88183611acb565b810103126103cb57848a9751908c61104e565b503d6110be565b6040513d8b823e3d90fd5b965090508486813d8111611118575b6111068183611acb565b810103126103cb57889551908a610f60565b503d6110fc565b5050505050610fb690611c98565b507fc741dbaad15a4f298fe8d80943fa8e005e7bcb2f5b0a0c8dec1fc35be457f1468180a180f35b82346101715780600319360112610171576020600654604051908152f35b823461017157806003193601126101715761118c611c28565b600080546001600160a01b0319811682556001600160a01b03167f8be0079c531659141344cd1fd0a4f28419497f9722a3daafe3b4186f6b6457e08280a380f35b8234610171576020366003190112610171576111e7611a35565b6111ef611c28565b60018060a01b03166001600160601b0360a01b600554161760055580f35b823461017157806003193601126101715760ff6020915460a01c166040519015158152f35b823461017157806003193601126101715760025481805b82811061134f575061127361125d84611c80565b9361126b6040519586611acb565b808552611c80565b6020928484019291601f190136843781825b8281106112d65750505060405193838594850191818652518092526040850193925b8281106112b657505050500390f35b83516001600160a01b0316855286955093810193928101926001016112a7565b6112e4819795969497611bdb565b60018060a01b03809254600392831b1c16895280865260ff8160408b2001541661131e575b505061131490611c98565b9592949395611285565b9261134791839461133161131495611bdb565b9054911b1c166113418289611cbd565b52611c98565b919088611309565b60ff61135d82959395611bdb565b9054600391821b1c6001600160a01b03168652602081905260408620015416611392575b61138a90611c98565b929092611249565b9061139f61138a91611c98565b919050611381565b823461017157602080600319360112610b98576113c2611a35565b6113ca611c28565b6113d2611eed565b825460ff60a01b1916600160a01b1783556040513381527f62e78cea01bee320cd4e420270b5ea74000d11b0c9f74754ebdbfc544b05a258908390a1825b600254811015611484578361142482611bdb565b905460039190911b1c6001600160a01b0316803b15610b9857818091602460405180948193631bfc726f60e21b83523060048401525af1611470575b505061146b90611c98565b611410565b61147990611a85565b610b5c578385611460565b506040516370a0823160e01b81523060048201527f000000000000000000000000000000000000000000000000000000000000000092919082816024816001600160a01b0388165afa928315610b605785936114f6575b5050816114e6578380f35b6114ef92612547565b8180808380f35b9080929350813d831161151f575b61150e8183611acb565b810103126103cb57519084806114db565b503d611504565b823461017157806003193601126101715761153f611c28565b805460ff8160a01c16156115855760ff60a01b191681556040513381527f5db9ee0a495bf2e6ff9c91a7834c1ba4fdd244a5e8aa4e537bd38aeae4b073aa90602090a180f35b60405162461bcd60e51b815260206004820152601460248201527314185d5cd8589b194e881b9bdd081c185d5cd95960621b6044820152606490fd5b8234610171576020366003190112610171576001600160a01b0390604090826115e8611a35565b168152600360205220908154169061160260018201611aed565b60028201549160ff60038201541660048201549061163a600660058501549401549460405198899889528060208a0152880190611bb6565b94604087015215156060860152608085015260a084015260c08301520390f35b82346101715760203660031901126101715760209060ff906040906001600160a01b03611685611a35565b168152600484522054166040519015158152f35b8234610171576020366003190112610171576116c060018060a01b03600554163314611e7a565b6116c8611f34565b6116d36004356122b1565b6001805580f35b82346101715780600319360112610171576040517f00000000000000000000000000000000000000000000000000000000000000006001600160a01b03168152602090f35b823461017157602080600319360112610b985761173a611a35565b90611743611c28565b6001600160a01b039182168084526004825260408420549091906117699060ff16612620565b81845260039081815260408520906040516278744560e21b908181528281600481895afa90811561196e57889161193d575b506118b2575b506004836002936117b7858201546006546122a4565b600655019160ff19928381541690558588525260408620908154169055845b8154808210156118a75784866117eb84611bdb565b905490871b1c1614611806575061180190611c98565b6117d6565b9060009592939495199182810190811161189357906104648461182b61183894611bdb565b905490891b1c1691611bdb565b8254801561187f57019261184b84611bdb565b81939154921b1b19169055555b7f09a1db4b80c32706328728508c941a6b954f31eb5affd32f236c1fd405f8fea48280a280f35b634e487b7160e01b87526031600452602487fd5b634e487b7160e01b88526011600452602488fd5b505050509050611858565b6040519081528181600481885afa9081156103d7578791611910575b50843b15610e275760405190632e1a7d4d60e01b82526004820152868160248183895af180156103d757156117a15761190990969196611a85565b94866117a1565b90508181813d8311611936575b6119278183611acb565b81010312610e275751876118ce565b503d61191d565b90508281813d8311611967575b6119548183611acb565b8101031261196357518861179b565b8780fd5b503d61194a565b6040513d8a823e3d90fd5b82346101715780600319360112610171576020610271611cde565b8234610171576020366003190112610171576119ae611a35565b6119b6611c28565b6040516370a0823160e01b81523060048201526001600160a01b03918216602082602481845afa918215610666578492611a02575b50816119f5578380f35b6114ef9284541690612547565b9091506020813d8211611a2d575b81611a1d60209383611acb565b81010312610b5c575190846119eb565b3d9150611a10565b600435906001600160a01b03821682036103cb57565b90600182811c92168015611a7b575b6020831014611a6557565b634e487b7160e01b600052602260045260246000fd5b91607f1691611a5a565b67ffffffffffffffff8111611a9957604052565b634e487b7160e01b600052604160045260246000fd5b60e0810190811067ffffffffffffffff821117611a9957604052565b90601f8019910116810190811067ffffffffffffffff821117611a9957604052565b9060405191826000825492611b0184611a4b565b908184526001948581169081600014611b705750600114611b2d575b5050611b2b92500383611acb565b565b9093915060005260209081600020936000915b818310611b58575050611b2b93508201013880611b1d565b85548884018501529485019487945091830191611b40565b915050611b2b94506020925060ff191682840152151560051b8201013880611b1d565b60005b838110611ba65750506000910152565b8181015183820152602001611b96565b90602091611bcf81518092818552858086019101611b93565b601f01601f1916010190565b600254811015611c125760026000527f405787fa12a823e0f2b7631cc41b3ba8828b3321ca811111fa75cd3aa3bb5ace0190600090565b634e487b7160e01b600052603260045260246000fd5b6000546001600160a01b03163303611c3c57565b606460405162461bcd60e51b815260206004820152602060248201527f4f776e61626c653a2063616c6c6572206973206e6f7420746865206f776e65726044820152fd5b67ffffffffffffffff8111611a995760051b60200190565b6000198114611ca75760010190565b634e487b7160e01b600052601160045260246000fd5b8051821015611c125760209160051b010190565b91908201809211611ca757565b60009081600254905b818110611d935750506040516370a0823160e01b8152306004820152916020836024817f00000000000000000000000000000000000000000000000000000000000000006001600160a01b03165afa928315611d8757600093611d54575b5091611d519192611cd1565b90565b6020813d8211611d7f575b81611d6c60209383611acb565b81010312610b5c57519250611d51611d45565b3d9150611d5f565b6040513d6000823e3d90fd5b611d9c81611bdb565b9060018060a01b03809154600393841b1c1660005260209082825260409260ff8185600020015416611ddb575b50505050611dd690611c98565b611ce7565b918091600493611dec879a97611bdb565b9054911b1c168451938480926278744560e21b82525afa928315611e5d5750600092611e2c575b5050611e2290611dd692611cd1565b9390388080611dc9565b81819392933d8311611e56575b611e438183611acb565b8101031261017157505181611e22611e13565b503d611e39565b513d6000823e3d90fd5b81810292918115918404141715611ca757565b15611e8157565b60405162461bcd60e51b815260206004820152600a60248201526913db9b1e481d985d5b1d60b21b6044820152606490fd5b15611eba57565b60405162461bcd60e51b815260206004820152600b60248201526a16995c9bc8185b5bdd5b9d60aa1b6044820152606490fd5b60ff60005460a01c16611efc57565b60405162461bcd60e51b815260206004820152601060248201526f14185d5cd8589b194e881c185d5cd95960821b6044820152606490fd5b600260015414611f45576002600155565b60405162461bcd60e51b815260206004820152601f60248201527f5265656e7472616e637947756172643a207265656e7472616e742063616c6c006044820152606490fd5b91909181158015612048575b15611fe45760405163095ea7b360e01b60208201526001600160a01b0390931660248401526044830191909152611b2b9190611fdf82606481015b03601f198101845283611acb565b6120dd565b60405162461bcd60e51b815260206004820152603660248201527f5361666545524332303a20617070726f76652066726f6d206e6f6e2d7a65726f60448201527520746f206e6f6e2d7a65726f20616c6c6f77616e636560501b6064820152608490fd5b50604051636eb1769f60e11b81523060048201526001600160a01b0384811660248301526020908290604490829086165afa908115611d8757600091612090575b5015611f96565b906020823d82116120b9575b816120a960209383611acb565b8101031261017157505138612089565b3d915061209c565b67ffffffffffffffff8111611a9957601f01601f191660200190565b60018060a01b031690604051604081019080821067ffffffffffffffff831117611a995761216d916040526020938482527f5361666545524332303a206c6f772d6c6576656c2063616c6c206661696c6564858301526000808587829751910182855af13d15612203573d91612152836120c1565b926121606040519485611acb565b83523d868885013e612207565b8051918215918483156121df575b5050509050156121885750565b6084906040519062461bcd60e51b82526004820152602a60248201527f5361666545524332303a204552433230206f7065726174696f6e20646964206e6044820152691bdd081cdd58d8d9595960b21b6064820152fd5b919381809450010312610b985782015190811515820361017157508038808461217b565b6060915b91929015612269575081511561221b575090565b3b156122245790565b60405162461bcd60e51b815260206004820152601d60248201527f416464726573733a2063616c6c20746f206e6f6e2d636f6e74726163740000006044820152606490fd5b82519091501561227c5750805190602001fd5b60405162461bcd60e51b8152602060048201529081906122a0906024830190611bb6565b0390fd5b91908203918211611ca757565b6122bc811515611eb3565b604080516370a0823160e01b80825230600480840191909152947f00000000000000000000000000000000000000000000000000000000000000006001600160a01b038181169694602094602494929387939192878188818e5afa90811561253c5760009161250f575b50848110156124f857806124da575b5060005b600280548210806124d1575b1561246157869061235583611bdb565b929054600393841b1c16600052818a5260ff8c600020928301541680612455575b61238b575b505061238690611c98565b612339565b61239b6127109183015488611e67565b048a81101561244e575b801561237b578782541690813b156103cb578c918f828c6000928387519586948593632e1a7d4d60e01b85528401525af1908161243f575b506123e9575b5061237b565b8a818a61242e869f947f7084f5476618d8e60b11ef0d7d3f06914655adb8793e28ff7f018d4c76d505d59560066123869a9901612427838254611cd1565b90556122a4565b9e54169351908152a2908a386123e3565b61244890611a85565b386123dd565b50896123a5565b50808201541515612376565b5050989796509892508493915085519687938492835230908301525afa918215611e5d57506000916124a5575b5080915061249a575050565b611b2b913390612547565b82813d83116124ca575b6124b98183611acb565b81010312610171575051803861248e565b503d6124af565b50891515612345565b6124f19198506124eb81338b612547565b846122a4565b9638612335565b5096509850509450505050611b2b92503390612547565b908882813d8311612535575b6125258183611acb565b8101031261017157505138612326565b503d61251b565b8a513d6000823e3d90fd5b60405163a9059cbb60e01b60208201526001600160a01b0390921660248301526044820192909252611b2b91611fdf8260648101611fd1565b1561258757565b60405162461bcd60e51b815260206004820152601260248201527124b73b30b634b21030b63637b1b0ba34b7b760711b6044820152606490fd5b6020818303126103cb5780519067ffffffffffffffff82116103cb570181601f820112156103cb5780516125f4816120c1565b926126026040519485611acb565b818452602082840101116103cb57611d519160208085019101611b93565b1561262757565b60405162461bcd60e51b815260206004820152601060248201526f496e76616c696420737472617465677960801b6044820152606490fdfea26469706673582212207e9c996a3f49f875995d83bce1f2eca158c73537a6ee03db8f09f6dcdf03013364736f6c63430008140033",
  "linkReferences": {},
  "deployedLinkReferences": {}
}