{
  "_format": "hh-sol-artifact-1",
  "contractName": "AaveLoopStrategyV3",
  "sourceName": "contracts/strategies/AaveLoopStrategyV3.sol",
  "abi": [
    {
      "inputs": [
        {
          "internalType": "address",
          "name": "_vault",
          "type": "address"
        },
        {
          "internalType": "address",
          "name": "_want",
          "type": "address"
        },
        {
          "internalType": "address",
          "name": "_borrowAsset",
          "type": "address"
        },
        {
          "internalType": "address",
          "name": "_aavePool",
          "type": "address"
        },
        {
          "internalType": "address",
          "name": "_dataProvider",
          "type": "address"
        },
        {
          "internalType": "address",
          "name": "_aToken",
          "type": "address"
        },
        {
          "internalType": "address",
          "name": "_owner",
          "type": "address"
        }
      ],
      "stateMutability": "nonpayable",
      "type": "constructor"
    },
    {
      "anonymous": false,
      "inputs": [
        {
          "indexed": true,
          "internalType": "address",
          "name": "caller",
          "type": "address"
        },
        {
          "indexed": false,
          "internalType": "uint256",
          "name": "amount",
          "type": "uint256"
        }
      ],
      "name": "Deposited",
      "type": "event"
    },
    {
      "anonymous": false,
      "inputs": [
        {
          "indexed": false,
          "internalType": "uint256",
          "name": "profit",
          "type": "uint256"
        },
        {
          "indexed": false,
          "internalType": "uint256",
          "name": "loss",
          "type": "uint256"
        }
      ],
      "name": "Harvested",
      "type": "event"
    },
    {
      "anonymous": false,
      "inputs": [
        {
          "indexed": false,
          "internalType": "uint256",
          "name": "newLeverage",
          "type": "uint256"
        }
      ],
      "name": "LeverageDecreased",
      "type": "event"
    },
    {
      "anonymous": false,
      "inputs": [
        {
          "indexed": false,
          "internalType": "uint256",
          "name": "newLeverage",
          "type": "uint256"
        },
        {
          "indexed": false,
          "internalType": "uint256",
          "name": "iterations",
          "type": "uint256"
        }
      ],
      "name": "LeverageIncreased",
      "type": "event"
    },
    {
      "anonymous": false,
      "inputs": [
        {
          "indexed": false,
          "internalType": "uint256",
          "name": "collateral",
          "type": "uint256"
        },
        {
          "indexed": false,
          "internalType": "uint256",
          "name": "debt",
          "type": "uint256"
        },
        {
          "indexed": false,
          "internalType": "uint256",
          "name": "hf",
          "type": "uint256"
        }
      ],
      "name": "LoopExecuted",
      "type": "event"
    },
    {
      "anonymous": false,
      "inputs": [
        {
          "indexed": true,
          "internalType": "address",
          "name": "previousOwner",
          "type": "address"
        },
        {
          "indexed": true,
          "internalType": "address",
          "name": "newOwner",
          "type": "address"
        }
      ],
      "name": "OwnershipTransferred",
      "type": "event"
    },
    {
      "anonymous": false,
      "inputs": [
        {
          "indexed": false,
          "internalType": "address",
          "name": "account",
          "type": "address"
        }
      ],
      "name": "Paused",
      "type": "event"
    },
    {
      "anonymous": false,
      "inputs": [
        {
          "components": [
            {
              "internalType": "uint256",
              "name": "targetHealthFactor",
              "type": "uint256"
            },
            {
              "internalType": "uint256",
              "name": "minHealthFactor",
              "type": "uint256"
            },
            {
              "internalType": "uint256",
              "name": "maxLeverage",
              "type": "uint256"
            },
            {
              "internalType": "uint256",
              "name": "maxLoopIterations",
              "type": "uint256"
            }
          ],
          "indexed": false,
          "internalType": "struct AaveLoopStrategyV3.RiskParams",
          "name": "params",
          "type": "tuple"
        }
      ],
      "name": "RiskParamsUpdated",
      "type": "event"
    },
    {
      "anonymous": false,
      "inputs": [
        {
          "indexed": false,
          "internalType": "address",
          "name": "account",
          "type": "address"
        }
      ],
      "name": "Unpaused",
      "type": "event"
    },
    {
      "anonymous": false,
      "inputs": [
        {
          "indexed": true,
          "internalType": "address",
          "name": "caller",
          "type": "address"
        },
        {
          "indexed": false,
          "internalType": "uint256",
          "name": "amount",
          "type": "uint256"
        }
      ],
      "name": "Withdrawn",
      "type": "event"
    },
    {
      "inputs": [],
      "name": "LEVERAGE_PRECISION",
      "outputs": [
        {
          "internalType": "uint256",
          "name": "",
          "type": "uint256"
        }
      ],
      "stateMutability": "view",
      "type": "function"
    },
    {
      "inputs": [],
      "name": "aToken",
      "outputs": [
        {
          "internalType": "contract IERC20",
          "name": "",
          "type": "address"
        }
      ],
      "stateMutability": "view",
      "type": "function"
    },
    {
      "inputs": [],
      "name": "aavePool",
      "outputs": [
        {
          "internalType": "contract IAaveV3Pool",
          "name": "",
          "type": "address"
        }
      ],
      "stateMutability": "view",
      "type": "function"
    },
    {
      "inputs": [],
      "name": "balanceOfPool",
      "outputs": [
        {
          "internalType": "uint256",
          "name": "",
          "type": "uint256"
        }
      ],
      "stateMutability": "view",
      "type": "function"
    },
    {
      "inputs": [],
      "name": "borrowAsset",
      "outputs": [
        {
          "internalType": "contract IERC20",
          "name": "",
          "type": "address"
        }
      ],
      "stateMutability": "view",
      "type": "function"
    },
    {
      "inputs": [],
      "name": "currentLeverage",
      "outputs": [
        {
          "internalType": "uint256",
          "name": "",
          "type": "uint256"
        }
      ],
      "stateMutability": "view",
      "type": "function"
    },
    {
      "inputs": [],
      "name": "dataProvider",
      "outputs": [
        {
          "internalType": "contract IAaveV3PoolDataProvider",
          "name": "",
          "type": "address"
        }
      ],
      "stateMutability": "view",
      "type": "function"
    },
    {
      "inputs": [
        {
          "internalType": "uint256",
          "name": "_amount",
          "type": "uint256"
        }
      ],
      "name": "deposit",
      "outputs": [],
      "stateMutability": "nonpayable",
      "type": "function"
    },
    {
      "inputs": [
        {
          "internalType": "address",
          "name": "_to",
          "type": "address"
        }
      ],
      "name": "emergencyWithdraw",
      "outputs": [],
      "stateMutability": "nonpayable",
      "type": "function"
    },
    {
      "inputs": [],
      "name": "estimatedAPY",
      "outputs": [
        {
          "internalType": "uint256",
          "name": "",
          "type": "uint256"
        }
      ],
      "stateMutability": "view",
      "type": "function"
    },
    {
      "inputs": [],
      "name": "estimatedTotalAssets",
      "outputs": [
        {
          "internalType": "uint256",
          "name": "",
          "type": "uint256"
        }
      ],
      "stateMutability": "view",
      "type": "function"
    },
    {
      "inputs": [],
      "name": "getAavePosition",
      "outputs": [
        {
          "internalType": "uint256",
          "name": "totalCollateralBase",
          "type": "uint256"
        },
        {
          "internalType": "uint256",
          "name": "totalDebtBase",
          "type": "uint256"
        },
        {
          "internalType": "uint256",
          "name": "availableBorrowsBase",
          "type": "uint256"
        },
        {
          "internalType": "uint256",
          "name": "hf",
          "type": "uint256"
        }
      ],
      "stateMutability": "view",
      "type": "function"
    },
    {
      "inputs": [],
      "name": "getCurrentLeverage",
      "outputs": [
        {
          "internalType": "uint256",
          "name": "",
          "type": "uint256"
        }
      ],
      "stateMutability": "view",
      "type": "function"
    },
    {
      "inputs": [],
      "name": "harvest",
      "outputs": [
        {
          "internalType": "uint256",
          "name": "profit",
          "type": "uint256"
        },
        {
          "internalType": "uint256",
          "name": "loss",
          "type": "uint256"
        }
      ],
      "stateMutability": "nonpayable",
      "type": "function"
    },
    {
      "inputs": [],
      "name": "healthFactor",
      "outputs": [
        {
          "internalType": "uint256",
          "name": "",
          "type": "uint256"
        }
      ],
      "stateMutability": "view",
      "type": "function"
    },
    {
      "inputs": [],
      "name": "isActive",
      "outputs": [
        {
          "internalType": "bool",
          "name": "",
          "type": "bool"
        }
      ],
      "stateMutability": "view",
      "type": "function"
    },
    {
      "inputs": [],
      "name": "lastReportTime",
      "outputs": [
        {
          "internalType": "uint256",
          "name": "",
          "type": "uint256"
        }
      ],
      "stateMutability": "view",
      "type": "function"
    },
    {
      "inputs": [],
      "name": "name",
      "outputs": [
        {
          "internalType": "string",
          "name": "",
          "type": "string"
        }
      ],
      "stateMutability": "view",
      "type": "function"
    },
    {
      "inputs": [],
      "name": "owner",
      "outputs": [
        {
          "internalType": "address",
          "name": "",
          "type": "address"
        }
      ],
      "stateMutability": "view",
      "type": "function"
    },
    {
      "inputs": [],
      "name": "pause",
      "outputs": [],
      "stateMutability": "nonpayable",
      "type": "function"
    },
    {
      "inputs": [],
      "name": "paused",
      "outputs": [
        {
          "internalType": "bool",
          "name": "",
          "type": "bool"
        }
      ],
      "stateMutability": "view",
      "type": "function"
    },
    {
      "inputs": [],
      "name": "rebalance",
      "outputs": [],
      "stateMutability": "nonpayable",
      "type": "function"
    },
    {
      "inputs": [],
      "name": "renounceOwnership",
      "outputs": [],
      "stateMutability": "nonpayable",
      "type": "function"
    },
    {
      "inputs": [],
      "name": "riskParams",
      "outputs": [
        {
          "internalType": "uint256",
          "name": "targetHealthFactor",
          "type": "uint256"
        },
        {
          "internalType": "uint256",
          "name": "minHealthFactor",
          "type": "uint256"
        },
        {
          "internalType": "uint256",
          "name": "maxLeverage",
          "type": "uint256"
        },
        {
          "internalType": "uint256",
          "name": "maxLoopIterations",
          "type": "uint256"
        }
      ],
      "stateMutability": "view",
      "type": "function"
    },
    {
      "inputs": [
        {
          "internalType": "address",
          "name": "_controller",
          "type": "address"
        }
      ],
      "name": "setController",
      "outputs": [],
      "stateMutability": "nonpayable",
      "type": "function"
    },
    {
      "inputs": [
        {
          "internalType": "bytes",
          "name": "_params",
          "type": "bytes"
        }
      ],
      "name": "setRiskParams",
      "outputs": [],
      "stateMutability": "nonpayable",
      "type": "function"
    },
    {
      "inputs": [
        {
          "internalType": "uint256",
          "name": "_targetHealthFactor",
          "type": "uint256"
        },
        {
          "internalType": "uint256",
          "name": "_minHealthFactor",
          "type": "uint256"
        },
        {
          "internalType": "uint256",
          "name": "_maxLeverage",
          "type": "uint256"
        },
        {
          "internalType": "uint256",
          "name": "_maxLoopIterations",
          "type": "uint256"
        }
      ],
      "name": "setRiskParamsDirect",
      "outputs": [],
      "stateMutability": "nonpayable",
      "type": "function"
    },
    {
      "inputs": [
        {
          "internalType": "address",
          "name": "_vault",
          "type": "address"
        }
      ],
      "name": "setVault",
      "outputs": [],
      "stateMutability": "nonpayable",
      "type": "function"
    },
    {
      "inputs": [],
      "name": "strategyController",
      "outputs": [
        {
          "internalType": "address",
          "name": "",
          "type": "address"
        }
      ],
      "stateMutability": "view",
      "type": "function"
    },
    {
      "inputs": [
        {
          "internalType": "address",
          "name": "_token",
          "type": "address"
        }
      ],
      "name": "sweep",
      "outputs": [],
      "stateMutability": "nonpayable",
      "type": "function"
    },
    {
      "inputs": [],
      "name": "totalAssets",
      "outputs": [
        {
          "internalType": "uint256",
          "name": "",
          "type": "uint256"
        }
      ],
      "stateMutability": "view",
      "type": "function"
    },
    {
      "inputs": [],
      "name": "totalDebt",
      "outputs": [
        {
          "internalType": "uint256",
          "name": "",
          "type": "uint256"
        }
      ],
      "stateMutability": "view",
      "type": "function"
    },
    {
      "inputs": [
        {
          "internalType": "address",
          "name": "newOwner",
          "type": "address"
        }
      ],
      "name": "transferOwnership",
      "outputs": [],
      "stateMutability": "nonpayable",
      "type": "function"
    },
    {
      "inputs": [],
      "name": "unpause",
      "outputs": [],
      "stateMutability": "nonpayable",
      "type": "function"
    },
    {
      "inputs": [],
      "name": "vault",
      "outputs": [
        {
          "internalType": "address",
          "name": "",
          "type": "address"
        }
      ],
      "stateMutability": "view",
      "type": "function"
    },
    {
      "inputs": [],
      "name": "want",
      "outputs": [
        {
          "internalType": "address",
          "name": "",
          "type": "address"
        }
      ],
      "stateMutability": "view",
      "type": "function"
    },
    {
      "inputs": [],
      "name": "wantToken",
      "outputs": [
        {
          "internalType": "contract IERC20",
          "name": "",
          "type": "address"
        }
      ],
      "stateMutability": "view",
      "type": "function"
    },
    {
      "inputs": [
        {
          "internalType": "uint256",
          "name": "_amount",
          "type": "uint256"
        }
      ],
      "name": "withdraw",
      "outputs": [],
      "stateMutability": "nonpayable",
      "type": "function"
    }
  ],
  "bytecode": "0x61012060409080825234620003a35760e0816200363f8038038091620000268285620003da565b833981010312620003a3576200003c81620003fe565b916200004b60208301620003fe565b62000058828401620003fe565b936200006760608501620003fe565b916200007660808601620003fe565b6200009260c06200008a60a08901620003fe565b9701620003fe565b9260208651620000a281620003a8565b6015815201977f41617665205633204c6f6f7020537472617465677900000000000000000000008952620000d63362000413565b6000805460ff60a01b191681556001808055600254919a9180821c908216801562000398575b60208210146200038457601f81116200033a575b5050516001600160581b031916602a17600255600380546001600160a01b0319166001600160a01b03938416179055928116608052426006559283928391620001599062000413565b1660e05281841660a0521660c052806101009416845282516080810181811060018060401b03821117620003265784620001e395969750526718fae27693b4000080825267136dcc951d8c000090816020840152600a6060619c4094858a8201520152600755600855600955600a8055620001d98282608051166200045a565b60e051166200045a565b51612e7d9182620007c2833960805182818161044b015281816104e401528181610a090152818161166201528181611cc1015281816121450152818161226501528181612327015261295e015260a0518281816102760152818161056001528181610726015281816109b901528181610a5801528181610c6701528181610ccb01528181610da101528181610e8701528181610fcc0152818161180e01528181611ff70152818161246d015281816125ad01526127f8015260c05182818161069c015261235c015260e051828181610ac801528181610b1a01528181610c0d01528181610d5f01528181610de401528181610e3801528181610f83015281816111d5015281816118d601528181611cea015281816120ff0152818161258901526127d30152518181816106e10152818161192e01528181611d1301526120b80152f35b634e487b7160e01b87526041600452602487fd5b60028c52601f0160051c7f405787fa12a823e0f2b7631cc41b3ba8828b3321ca811111fa75cd3aa3bb5ace908101905b81811062000379575062000110565b8c815582016200036a565b634e487b7160e01b8c52602260045260248cfd5b90607f1690620000fc565b600080fd5b604081019081106001600160401b03821117620003c457604052565b634e487b7160e01b600052604160045260246000fd5b601f909101601f19168101906001600160401b03821190821017620003c457604052565b51906001600160a01b0382168203620003a357565b600080546001600160a01b039283166001600160a01b03198216811783559216907f8be0079c531659141344cd1fd0a4f28419497f9722a3daafe3b4186f6b6457e09080a3565b60408051636eb1769f60e11b81523060048201526001600160a01b039384166024808301829052602095909491929116908581604481855afa908115620006dc57600091620006a6575b506200063d57825163095ea7b360e01b86820190815285820193909352600019604480830191909152815260808101926001600160401b0392918385118186101762000628576000918291868852620004fd87620003a8565b8987527f5361666545524332303a206c6f772d6c6576656c2063616c6c206661696c656460a0820152519082855af1903d1562000617573d9283116200060257906200056c9392918551926200055d89601f19601f8401160185620003da565b83523d60008985013e620006e7565b8051848115918215620005df575b50509050156200058957505050565b5162461bcd60e51b81526004810192909252602a908201527f5361666545524332303a204552433230206f7065726174696f6e20646964206e6044820152691bdd081cdd58d8d9595960b21b6064820152608490fd5b8380929350010312620003a3578301518015158103620003a3578084386200057a565b85634e487b7160e01b60005260416004526000fd5b906200056c939250606091620006e7565b86634e487b7160e01b60005260416004526000fd5b825162461bcd60e51b8152600481018690526036818601527f5361666545524332303a20617070726f76652066726f6d206e6f6e2d7a65726f60448201527f20746f206e6f6e2d7a65726f20616c6c6f77616e6365000000000000000000006064820152608490fd5b908682813d8311620006d4575b620006bf8183620003da565b81010312620006d157505138620004a4565b80fd5b503d620006b3565b84513d6000823e3d90fd5b919290156200074c5750815115620006fd575090565b3b15620007075790565b60405162461bcd60e51b815260206004820152601d60248201527f416464726573733a2063616c6c20746f206e6f6e2d636f6e74726163740000006044820152606490fd5b825190915015620007605750805190602001fd5b6040519062461bcd60e51b82528160208060048301528251908160248401526000935b828510620007a7575050604492506000838284010152601f80199101168101030190fd5b84810182015186860160440152938101938593506200078356fe608080604052600436101561001357600080fd5b600090813560e01c908162258d6b14611e605750806301681a6214611c8c57806301e1d1141461041257806306fdde0314611b8e5780631158808614611b735780631f1fcd511461043557806322841f0114611b5857806322f3e2d414611b345780632e1a7d4d146115f45780632f9c9f58146115625780633ac0ba051461129f5780633f4ba83a14611204578063446456e5146111bf5780634641257d146111005780635bfb92ce146110e55780635c975abb146110c05780636817031b1461107b5780636ff1c9bc1461092c578063715018a6146108d25780637d7c2a1c146108435780638456cb59146107e25780638da5cb5b146107bb5780638da793b21461079e57806392eefe9b14610755578063a03e4bc314610710578063a0c1f15e146106cb578063b334ed8614610686578063b6b55f2514610498578063c85ab7931461047a578063d23e048014610435578063e0115d0d14610417578063efbb5cb014610412578063f19993d7146103ef578063f2fde38b14610323578063f9ec99ac14610249578063fbfa77cf14610220578063fc7b9c18146102025763fefb36ce146101c257600080fd5b346101ff57806003193601126101ff57600754600854600954600a54604080519485526020850193909352918301526060820152608090f35b0390f35b80fd5b50346101ff57806003193601126101ff576020600554604051908152f35b50346101ff57806003193601126101ff576003546040516001600160a01b039091168152602090f35b50346101ff57806003193601126101ff57604051632fe4a15f60e21b81523060048201529060c0826024817f00000000000000000000000000000000000000000000000000000000000000006001600160a01b03165afa80156103165781908280916102d8575b906101fb91604051948594859094939260609260808301968352602083015260408201520152565b505050506102ff6101fb9160c03d811161030f575b6102f78183611eeb565b810190611fae565b9395508594939291506102b09050565b503d6102ed565b50604051903d90823e3d90fd5b50346101ff5760203660031901126101ff576004356001600160a01b03818116918290036103eb57610353611f56565b811561039757600054826001600160601b0360a01b821617600055167f8be0079c531659141344cd1fd0a4f28419497f9722a3daafe3b4186f6b6457e0600080a380f35b60405162461bcd60e51b815260206004820152602660248201527f4f776e61626c653a206e6577206f776e657220697320746865207a65726f206160448201526564647265737360d01b6064820152608490fd5b8280fd5b50346101ff57806003193601126101ff57602061040a612310565b604051908152f35b611e85565b50346101ff57806003193601126101ff576020600654604051908152f35b50346101ff57806003193601126101ff576040517f00000000000000000000000000000000000000000000000000000000000000006001600160a01b03168152602090f35b50346101ff57806003193601126101ff576020600b54604051908152f35b50346101ff5760203660031901126101ff5760035460043591906001600160a01b0390811633148015610679575b6104cf90612dc9565b6104d7612b71565b6104e2831515612e0d565b7f0000000000000000000000000000000000000000000000000000000000000000906040516323b872dd60e01b60208201523360248201523060448201528460648201526064815260a0810181811067ffffffffffffffff8211176106655760405261054e9083612bf8565b61055a84600554612060565b600555807f00000000000000000000000000000000000000000000000000000000000000001690813b156106615760405163617ba03760e01b815292166001600160a01b031660048301526024820184905230604483015260006064830152829082908183816084810103925af1801561065657610647575b50907f366b69bffa1d99a2d05fb32e5fdcd1662c56b37f6fe48274bb434bebd6822d2460406106006127c0565b610608612452565b9081600b5582519182526020820152a16040519081527f2da466a7b24304f47e87fa2e1e5a81b9831ce54fec19055ce277ca2f39ba42c460203392a280f35b61065090611ed7565b386105d3565b6040513d84823e3d90fd5b8380fd5b634e487b7160e01b85526041600452602485fd5b50600454811633146104c6565b50346101ff57806003193601126101ff576040517f00000000000000000000000000000000000000000000000000000000000000006001600160a01b03168152602090f35b50346101ff57806003193601126101ff576040517f00000000000000000000000000000000000000000000000000000000000000006001600160a01b03168152602090f35b50346101ff57806003193601126101ff576040517f00000000000000000000000000000000000000000000000000000000000000006001600160a01b03168152602090f35b50346101ff5760203660031901126101ff576004356001600160a01b0381169081900361079a57610784611f56565b6001600160601b0360a01b600454161760045580f35b5080fd5b50346101ff57806003193601126101ff5760206040516127108152f35b50346101ff57806003193601126101ff57546040516001600160a01b039091168152602090f35b50346101ff57806003193601126101ff576107fb611f56565b610803612b71565b805460ff60a01b1916600160a01b1781556040513381527f62e78cea01bee320cd4e420270b5ea74000d11b0c9f74754ebdbfc544b05a25890602090a180f35b50346101ff57806003193601126101ff5761085c611fdc565b610864612452565b506008548110156108875750610878612577565b610880612452565b600b555b80f35b600754606e810290808204606e14901517156108be5760649004106108a95780f35b6108b16127c0565b1561088457610880612452565b634e487b7160e01b83526011600452602483fd5b50346101ff57806003193601126101ff576108eb611f56565b80546001600160a01b03198116825581906001600160a01b03167f8be0079c531659141344cd1fd0a4f28419497f9722a3daafe3b4186f6b6457e08280a380f35b50346101ff5760203660031901126101ff576004356001600160a01b03811690036101ff57610959611f56565b610961612b71565b805460ff60a01b1916600160a01b1781556040513381527f62e78cea01bee320cd4e420270b5ea74000d11b0c9f74754ebdbfc544b05a25890602090a1604051632fe4a15f60e21b815230600482015260c0816024817f00000000000000000000000000000000000000000000000000000000000000006001600160a01b03165afa908115610656578291611056575b50805b610bf2575b50604051631a4ca37b60e21b81527f00000000000000000000000000000000000000000000000000000000000000006001600160a01b0381811660048401819052600019602485015230604485015292906020908290606490829088907f0000000000000000000000000000000000000000000000000000000000000000165af1610bc7575b506040516020816024816370a0823160e01b968782523060048301525afa908115610bbc578491610b8a575b5080610b76575b50506040519081523060048201526020816024817f00000000000000000000000000000000000000000000000000000000000000006001600160a01b03165afa908115610656578291610b44575b5080610b11575b50612710600b5580f35b610b3e906004357f0000000000000000000000000000000000000000000000000000000000000000612bb8565b38610b07565b90506020813d602011610b6e575b81610b5f60209383611eeb565b8101031261079a575138610b00565b3d9150610b52565b610b839160043590612bb8565b3880610ab2565b90506020813d602011610bb4575b81610ba560209383611eeb565b81010312610661575138610aab565b3d9150610b98565b6040513d86823e3d90fd5b602090813d8311610beb575b610bdd8183611eeb565b810103126103eb5738610a7f565b503d610bd3565b6040516370a0823160e01b81523060048201526020816024817f00000000000000000000000000000000000000000000000000000000000000006001600160a01b03165afa908115610d3d578391611024575b5080610f6c575b604051632fe4a15f60e21b815230600482015260c0816024817f00000000000000000000000000000000000000000000000000000000000000006001600160a01b03165afa908115610bbc578491610f47575b5015159081610f3e575b50610d48575b604051632fe4a15f60e21b81523060048201529060c0826024817f00000000000000000000000000000000000000000000000000000000000000006001600160a01b03165afa918215610d3d578392610d16575b50811015610d1157806109f4565b6109f9565b610d3091925060c03d60c01161030f576102f78183611eeb565b5050505090509038610d03565b6040513d85823e3d90fd5b604051631a4ca37b60e21b81526001600160a01b037f00000000000000000000000000000000000000000000000000000000000000008116600483015260001960248301523060448301526020908290606490829087907f0000000000000000000000000000000000000000000000000000000000000000165af1610f13575b506040516370a0823160e01b81523060048201526020816024817f00000000000000000000000000000000000000000000000000000000000000006001600160a01b03165afa908115610d3d578391610ee1575b5080610e29575b50610caf565b60405163573ade8160e01b81527f00000000000000000000000000000000000000000000000000000000000000006001600160a01b0316600482015260248101919091526002604482015230606482015260208180608481010381867f00000000000000000000000000000000000000000000000000000000000000006001600160a01b03165af115610e2357602090813d8311610eda575b610ecc8183611eeb565b8101031261079a5738610e23565b503d610ec2565b90506020813d602011610f0b575b81610efc60209383611eeb565b810103126103eb575138610e1c565b3d9150610eef565b602090813d8311610f37575b610f298183611eeb565b8101031261079a5738610dc8565b503d610f1f565b90501538610ca9565b610f60915060c03d60c01161030f576102f78183611eeb565b50505050905038610c9f565b60405163573ade8160e01b81526001600160a01b037f0000000000000000000000000000000000000000000000000000000000000000811660048301526000196024830152600260448301523060648301526020908290608490829088907f0000000000000000000000000000000000000000000000000000000000000000165af1610ff9575b50610c4c565b602090813d831161101d575b61100f8183611eeb565b810103126103eb5738610ff3565b503d611005565b90506020813d60201161104e575b8161103f60209383611eeb565b810103126103eb575138610c45565b3d9150611032565b61106f915060c03d60c01161030f576102f78183611eeb565b505050509050386109f1565b50346101ff5760203660031901126101ff576004356001600160a01b0381169081900361079a576110aa611f56565b6001600160601b0360a01b600354161760035580f35b50346101ff57806003193601126101ff5760ff6020915460a01c166040519015158152f35b50346101ff57806003193601126101ff57602061040a612452565b50346101ff57806003193601126101ff5760409061111c612521565b80611125611fdc565b600854116111b2575b611136612240565b60055490818111156111915761114d929350612083565b905b426006557ffa07446fad45314351eb89109a154880278451332bb87f1824d435fe58da5939838051848152836020820152a16001805582519182526020820152f35b908082106111a1575b505061114f565b6111ab9250612083565b388061119a565b6111ba612577565b61112e565b50346101ff57806003193601126101ff576040517f00000000000000000000000000000000000000000000000000000000000000006001600160a01b03168152602090f35b50346101ff57806003193601126101ff5761121d611f56565b805460ff8160a01c16156112635760ff60a01b191681556040513381527f5db9ee0a495bf2e6ff9c91a7834c1ba4fdd244a5e8aa4e537bd38aeae4b073aa90602090a180f35b60405162461bcd60e51b815260206004820152601460248201527314185d5cd8589b194e881b9bdd081c185d5cd95960621b6044820152606490fd5b50346101ff5760208060031936011261079a5760043567ffffffffffffffff8082116106615736602383011215610661578160040135908111610661578101602490368282011161155e57826080916112f6611f56565b0312610661576040519261130984611ea5565b818301359384815281810194604480860135875260408301946714d1120d7b16000060649384890135885260846060870199013589521061152a576729a2241af62c00008451116114f5576710a741a4627800008851106114c457875184511115611495576127108651106114625761c35086511161142e5786518015159081611422575b50156113ed57887f61b75d7656110c34b37f8a6f6a995ec74a3a9c84d722a7e910d4ef7040474f2560808a8a8a8a8a519384600755805160085582516009558351600a556040519485525190840152516040830152516060820152a180f35b8491601271496e76616c696420697465726174696f6e7360701b926040519462461bcd60e51b86526004860152840152820152fd5b6014915011153861138e565b8491601170098caeccae4c2ceca40e8dede40d0d2ced607b1b926040519462461bcd60e51b86526004860152840152820152fd5b849160106f4c6576657261676520746f6f206c6f7760801b926040519462461bcd60e51b86526004860152840152820152fd5b8491600c6b135a5b880f081d185c99d95d60a21b926040519462461bcd60e51b86526004860152840152820152fd5b8491600e6d4d696e20484620746f6f206c6f7760901b926040519462461bcd60e51b86526004860152840152820152fd5b84916012710a8c2e4cecae840908c40e8dede40d0d2ced60731b926040519462461bcd60e51b86526004860152840152820152fd5b849160117054617267657420484620746f6f206c6f7760781b926040519462461bcd60e51b86526004860152840152820152fd5b8480fd5b50346101ff5760803660031901126101ff577f61b75d7656110c34b37f8a6f6a995ec74a3a9c84d722a7e910d4ef7040474f2560806004356064356044356024356115ab611f56565b8260606040516115ba81611ea5565b868152836020820152846040820152015283600755806008558160095582600a55604051938452602084015260408301526060820152a180f35b50346101ff5760208060031936011261079a576003546001600160a01b039160043591831633148015611b27575b61162b90612dc9565b611633612521565b61163e821515612e0d565b81611647612240565b10611aec576040516370a0823160e01b8082523060048301527f0000000000000000000000000000000000000000000000000000000000000000948086169291906024908886858481895afa80156103165787958291611abd575b50888110611789575b5050506040518094819382523060048301525afa90811561177e578591611731575b50611709907f7084f5476618d8e60b11ef0d7d3f06914655adb8793e28ff7f018d4c76d505d593808210600014611728575080945b3390612bb8565b61171583600554612083565b6005556040519283523392a26001805580f35b90508094611702565b90508181813d8311611777575b6117488183611eeb565b8101031261155e57517f7084f5476618d8e60b11ef0d7d3f06914655adb8793e28ff7f018d4c76d505d56116cd565b503d61173e565b6040513d87823e3d90fd5b6117969192955088612083565b9361179f611fdc565b60085411611ab0575b60405194848652306004870152878685818a5afa908115610d3d5788968492611a7f575b508082106117ec575b505050506117e1612452565b600b553888816116ab565b6117f892939650612083565b604051632fe4a15f60e21b8152306004820152917f00000000000000000000000000000000000000000000000000000000000000008116919060c0848681865afa8015611a185789948891611a5b575b506118c8575b506064906040519687938492631a4ca37b60e21b84528a6004850152878401523060448401525af19283156118bd57859361188d575b80808a926117d5565b8391933d83116118b6575b6118a28183611eeb565b810103126118b257839138611884565b8680fd5b503d611898565b6040513d8a823e3d90fd5b6040518681523060048201527f0000000000000000000000000000000000000000000000000000000000000000821694509089828781885afa9485156118bd5786958b938a91611a23575b5080611995575b5050604051948580928982523060048301527f0000000000000000000000000000000000000000000000000000000000000000165afa92831561198a5788931561184e578391933d8311611983575b6119738183611eeb565b8101031261155e5786913861184e565b503d611969565b6040513d88823e3d90fd5b60405163573ade8160e01b81526001600160a01b03929092166004830152602482015260026044820152306064820152945090846084818a875af1908115611a185785948a926119e6575b8061191a565b909450813d8311611a11575b6119fc8183611eeb565b81010312611a0d57878493386119e0565b8580fd5b503d6119f2565b6040513d89823e3d90fd5b93809297508491503d8311611a54575b611a3d8183611eeb565b81010312611a505785948a925138611913565b8780fd5b503d611a33565b611a73915060c03d811161030f576102f78183611eeb565b50505050905038611848565b8781989293503d8311611aa9575b611a978183611eeb565b810103126103eb5787955190386117cc565b503d611a8d565b611ab8612577565b6117a8565b86819792503d8311611ae5575b611ad48183611eeb565b810103126101ff57869451386116a2565b503d611aca565b6064906040519062461bcd60e51b825260048201526014602482015273496e73756666696369656e742062616c616e636560601b6044820152fd5b5060045483163314611622565b50346101ff57806003193601126101ff5760ff6020915460a01c1615604051908152f35b50346101ff57806003193601126101ff57602061040a611fdc565b50346101ff57806003193601126101ff57602061040a612090565b50346101ff57806003193601126101ff576040518160025490600182811c91818416938415611c82575b6020948585108114611c6e57848752908115611c4c5750600114611bf3575b6101fb85611be781890382611eeb565b60405191829182611f0d565b929450600283527f405787fa12a823e0f2b7631cc41b3ba8828b3321ca811111fa75cd3aa3bb5ace5b828410611c3957505050816101fb93611be7928201019338611bd7565b8054858501870152928501928101611c1c565b60ff191686860152505050151560051b8201019150611be7816101fb38611bd7565b634e487b7160e01b83526022600452602483fd5b92607f1692611bb8565b50346101ff5760208060031936011261079a576001600160a01b03906004358281169081900361066157611cbe611f56565b827f0000000000000000000000000000000000000000000000000000000000000000168114611e2757827f0000000000000000000000000000000000000000000000000000000000000000168114611dec57827f0000000000000000000000000000000000000000000000000000000000000000168114611db1576040516370a0823160e01b81523060048201528281602481855afa92831561177e578593611d81575b505081611d6d578380f35b611d7a9284541690612bb8565b3880808380f35b9080929350813d8311611daa575b611d998183611eeb565b810103126106615751903880611d62565b503d611d8f565b60405162461bcd60e51b815260048101839052601360248201527221b0b73737ba1039bbb2b2b81030aa37b5b2b760691b6044820152606490fd5b60405162461bcd60e51b815260048101839052601360248201527243616e6e6f7420737765657020626f72726f7760681b6044820152606490fd5b60405162461bcd60e51b815260048101839052601160248201527010d85b9b9bdd081cddd9595c081dd85b9d607a1b6044820152606490fd5b90503461079a578160031936011261079a576004546001600160a01b03168152602090f35b34611ea0576000366003190112611ea057602061040a612240565b600080fd5b6080810190811067ffffffffffffffff821117611ec157604052565b634e487b7160e01b600052604160045260246000fd5b67ffffffffffffffff8111611ec157604052565b90601f8019910116810190811067ffffffffffffffff821117611ec157604052565b6020808252825181830181905290939260005b828110611f4257505060409293506000838284010152601f8019910116010190565b818101860151848201604001528501611f20565b6000546001600160a01b03163303611f6a57565b606460405162461bcd60e51b815260206004820152602060248201527f4f776e61626c653a2063616c6c6572206973206e6f7420746865206f776e65726044820152fd5b91908260c0910312611ea05781519160208101519160408201519160608101519160a0608083015192015190565b604051632fe4a15f60e21b815230600482015260c0816024817f00000000000000000000000000000000000000000000000000000000000000006001600160a01b03165afa90811561205457600091612033575090565b61204b915060c03d811161030f576102f78183611eeb565b94505050505090565b6040513d6000823e3d90fd5b9190820180921161206d57565b634e487b7160e01b600052601160045260246000fd5b9190820391821161206d57565b604080516370a0823160e01b80825230600483015291906001600160a01b03602080836024817f000000000000000000000000000000000000000000000000000000000000000086165afa92831561223557600093612206575b508351948086523060048701528186602481867f0000000000000000000000000000000000000000000000000000000000000000165afa9586156121fb576000966121cc575b508190602486518095819382523060048301527f0000000000000000000000000000000000000000000000000000000000000000165afa9384156121c2575060009361218f575b505061218c929161218791612060565b612083565b90565b8181949293943d83116121bb575b6121a78183611eeb565b810103126101ff575051908061218c612177565b503d61219d565b513d6000823e3d90fd5b90958282813d83116121f4575b6121e38183611eeb565b810103126101ff5750519481612130565b503d6121d9565b85513d6000823e3d90fd5b90928382813d831161222e575b61221d8183611eeb565b810103126101ff57505191386120ea565b503d612213565b84513d6000823e3d90fd5b612248612090565b6040516370a0823160e01b815230600482015291906020836024817f00000000000000000000000000000000000000000000000000000000000000006001600160a01b03165afa928315612054576000936122aa575b509161218c9192612060565b6020813d82116122d5575b816122c260209383611eeb565b810103126106615751925061218c61229e565b3d91506122b5565b81156122e7570490565b634e487b7160e01b600052601260045260246000fd5b8181029291811591840414171561206d57565b6040516335ea6a7560e01b81526001600160a01b037f000000000000000000000000000000000000000000000000000000000000000081166004830152610140908190839060249082907f0000000000000000000000000000000000000000000000000000000000000000165afa918215612054576000918293612406575b505069152d02c7e14af6800000809104910490600b548015156000146123fd575b61271090818111806123f4575b6123c8575050905090565b04916123d49082612083565b91600019810190811161206d5761218c926123ee916122fd565b90612060565b508383116123bd565b506127106123b0565b90809350813d831161244b575b61241d8183611eeb565b810103126101ff57606082015190610120608084015193015164ffffffffff8116036101ff5750388061238f565b503d612413565b604051632fe4a15f60e21b815230600482015260c0816024817f00000000000000000000000000000000000000000000000000000000000000006001600160a01b03165afa80156120545760009182916124fd575b5081156124f55780156124f557600090808311156124ef576124ca915082612083565b80156124e7576127108083029283040361206d5761218c916122dd565b505060001990565b506124ca565b505061271090565b9050612517915060c03d811161030f576102f78183611eeb565b50505050386124a7565b600260015414612532576002600155565b60405162461bcd60e51b815260206004820152601f60248201527f5265656e7472616e637947756172643a207265656e7472616e742063616c6c006044820152606490fd5b61257f611fdc565b6001600160a01b037f00000000000000000000000000000000000000000000000000000000000000008116917f0000000000000000000000000000000000000000000000000000000000000000909116905b60075411156127ad5760408051906370a0823160e01b9081835260043081850152602092602490848683818b5afa9586156122355760009661277e575b5085156126ae575b505083156126a657905163573ade8160e01b81526001600160a01b03861691810191825260208201939093526002604082015230606082015281908390819060800103816000875af1918261267d575b5050612670575050565b612678611fdc565b6125d1565b813d831161269f575b6126908183611eeb565b81010312611ea0573880612666565b503d612686565b505050505050565b8351631a4ca37b60e21b815280840189905260001981840152306044820152929550909184808260648160008c5af19182612755575b50506126f35750505050505050565b839083519283918252308783015281895afa90811561274a5760009161271d575b50923880612616565b908382813d8311612743575b6127338183611eeb565b810103126101ff57505138612714565b503d612729565b82513d6000823e3d90fd5b813d8311612777575b6127688183611eeb565b81010312611ea05784386126e4565b503d61275e565b90958582813d83116127a6575b6127958183611eeb565b810103126101ff575051943861260e565b503d61278b565b5050565b600019811461206d5760010190565b600a546000919082906001600160a01b037f0000000000000000000000000000000000000000000000000000000000000000811691907f0000000000000000000000000000000000000000000000000000000000000000811690845b838610612837575b505050505050612832612452565b600b55565b61283f612452565b9560095480971015612b3057612853611fdc565b600754809110612b29576040805191632fe4a15f60e21b83526004308185015260c09a6024908c8683818d5afa938415612b1f578896899e8a96612af2575b50508415612ae5578d670de0b6b3a76400006128b16128b7938a6122fd565b04612083565b93808511612add575b508315612ab7576402540be4008402906402540be3ff1985830401612acb57906128ee8e9392829489612b36565b809111612ac3575b508115612ab757893b15611a5057845163a415bcad60e01b81528381018d90529081018290526002604482015260648101889052306084820152878160a481838e5af19081612aa8575b5061295057505050505050612824565b8798999a9b9d9293949596977f000000000000000000000000000000000000000000000000000000000000000016808d14600014612a60578a3b15612a5c57855163617ba03760e01b81526001600160a01b03909116928101928352602083019190915230604083015260006060830152908790829081906080015b0381838d5af18015612a5257606093612a16612a399897947f45393b0809f9dd39820d97a0651d79342704ba175415eca73cef29f131f010129794612a1c94612a43575b506127b1565b9e612060565b90612a25611fdc565b9181519384526020840152820152a16127b1565b949392919061281c565b612a4c90611ed7565b38612a10565b84513d89823e3d90fd5b8880fd5b50893b15611a5057845163617ba03760e01b81526001600160a01b038d16928101928352602083019190915230604083015260006060830152908790829081906080016129cc565b612ab190611ed7565b38612940565b50505050505050612824565b9150386128f6565b634e487b7160e01b8952601184528289fd5b9350386128c0565b5050505050505050612824565b919550919650612b0f929d50803d1061030f576102f78183611eeb565b5050509c9195909c933880612892565b85513d8a823e3d90fd5b5050612824565b50612824565b909161270f1981019181831161206d57612b5892612b53916122fd565b6122dd565b9081811015612b6a5761218c91612083565b5050600090565b60ff60005460a01c16612b8057565b60405162461bcd60e51b815260206004820152601060248201526f14185d5cd8589b194e881c185d5cd95960821b6044820152606490fd5b60405163a9059cbb60e01b60208201526001600160a01b039092166024830152604480830193909352918152612bf691612bf182611ea5565b612bf8565b565b60018060a01b0316906040516040810167ffffffffffffffff9082811082821117611ec1576040526020938483527f5361666545524332303a206c6f772d6c6576656c2063616c6c206661696c6564858401526000808587829751910182855af1903d15612d29573d9283116106655790612c9393929160405192612c8688601f19601f8401160185611eeb565b83523d868885013e612d34565b805191821591848315612d05575b505050905015612cae5750565b6084906040519062461bcd60e51b82526004820152602a60248201527f5361666545524332303a204552433230206f7065726174696f6e20646964206e6044820152691bdd081cdd58d8d9595960b21b6064820152fd5b91938180945001031261079a578201519081151582036101ff575080388084612ca1565b90612c939392506060915b91929015612d965750815115612d48575090565b3b15612d515790565b60405162461bcd60e51b815260206004820152601d60248201527f416464726573733a2063616c6c20746f206e6f6e2d636f6e74726163740000006044820152606490fd5b825190915015612da95750805190602001fd5b60405162461bcd60e51b8152908190612dc59060048301611f0d565b0390fd5b15612dd057565b60405162461bcd60e51b815260206004820152601560248201527427b7363c903b30bab63a17b1b7b73a3937b63632b960591b6044820152606490fd5b15612e1457565b60405162461bcd60e51b815260206004820152600b60248201526a16995c9bc8185b5bdd5b9d60aa1b6044820152606490fdfea2646970667358221220913da600b53aab026a45a696871e2b863ca1d87c133a1bdbe4fa9ad59c6f946a64736f6c63430008140033",
  "linkReferences": {},
  "deployedLinkReferences": {}
}